{
  "contractName": "Auto",
  "abi": [
    {
      "inputs": [
        {
          "internalType": "address",
          "name": "_JUSD",
          "type": "address"
        },
        {
          "internalType": "address",
          "name": "_MIM",
          "type": "address"
        },
        {
          "internalType": "address",
          "name": "_Farming",
          "type": "address"
        },
        {
          "internalType": "address",
          "name": "_cJUSD",
          "type": "address"
        },
        {
          "internalType": "address",
          "name": "_Swap",
          "type": "address"
        },
        {
          "internalType": "address",
          "name": "_Manager",
          "type": "address"
        },
        {
          "internalType": "address",
          "name": "_Uniswap",
          "type": "address"
        }
      ],
      "stateMutability": "nonpayable",
      "type": "constructor"
    },
    {
      "anonymous": false,
      "inputs": [
        {
          "indexed": true,
          "internalType": "address",
          "name": "previousOwner",
          "type": "address"
        },
        {
          "indexed": true,
          "internalType": "address",
          "name": "newOwner",
          "type": "address"
        }
      ],
      "name": "OwnershipTransferred",
      "type": "event"
    },
    {
      "inputs": [],
      "name": "jusdFee",
      "outputs": [
        {
          "internalType": "uint24",
          "name": "",
          "type": "uint24"
        }
      ],
      "stateMutability": "view",
      "type": "function",
      "constant": true
    },
    {
      "inputs": [],
      "name": "mimicFee",
      "outputs": [
        {
          "internalType": "uint24",
          "name": "",
          "type": "uint24"
        }
      ],
      "stateMutability": "view",
      "type": "function",
      "constant": true
    },
    {
      "inputs": [],
      "name": "name",
      "outputs": [
        {
          "internalType": "string",
          "name": "",
          "type": "string"
        }
      ],
      "stateMutability": "view",
      "type": "function",
      "constant": true
    },
    {
      "inputs": [],
      "name": "owner",
      "outputs": [
        {
          "internalType": "address",
          "name": "",
          "type": "address"
        }
      ],
      "stateMutability": "view",
      "type": "function",
      "constant": true
    },
    {
      "inputs": [],
      "name": "renounceOwnership",
      "outputs": [],
      "stateMutability": "nonpayable",
      "type": "function"
    },
    {
      "inputs": [
        {
          "internalType": "address",
          "name": "newOwner",
          "type": "address"
        }
      ],
      "name": "transferOwnership",
      "outputs": [],
      "stateMutability": "nonpayable",
      "type": "function"
    },
    {
      "inputs": [
        {
          "internalType": "uint256",
          "name": "_amount",
          "type": "uint256"
        },
        {
          "internalType": "address",
          "name": "_token",
          "type": "address"
        }
      ],
      "name": "deposit",
      "outputs": [],
      "stateMutability": "nonpayable",
      "type": "function"
    },
    {
      "inputs": [
        {
          "internalType": "address",
          "name": "_token",
          "type": "address"
        }
      ],
      "name": "claimMIM",
      "outputs": [],
      "stateMutability": "nonpayable",
      "type": "function"
    },
    {
      "inputs": [],
      "name": "swapMIM",
      "outputs": [
        {
          "internalType": "uint256",
          "name": "",
          "type": "uint256"
        }
      ],
      "stateMutability": "nonpayable",
      "type": "function"
    },
    {
      "inputs": [
        {
          "internalType": "uint256",
          "name": "_amount",
          "type": "uint256"
        }
      ],
      "name": "swapJUSDtoCJUSD",
      "outputs": [],
      "stateMutability": "nonpayable",
      "type": "function"
    },
    {
      "inputs": [
        {
          "internalType": "uint256",
          "name": "_amount",
          "type": "uint256"
        }
      ],
      "name": "depositToFarm",
      "outputs": [],
      "stateMutability": "nonpayable",
      "type": "function"
    },
    {
      "inputs": [
        {
          "internalType": "uint256",
          "name": "_amount",
          "type": "uint256"
        }
      ],
      "name": "withdraw",
      "outputs": [],
      "stateMutability": "nonpayable",
      "type": "function"
    },
    {
      "inputs": [
        {
          "internalType": "address",
          "name": "_account",
          "type": "address"
        }
      ],
      "name": "getDepositBalance",
      "outputs": [
        {
          "internalType": "uint256",
          "name": "",
          "type": "uint256"
        }
      ],
      "stateMutability": "view",
      "type": "function",
      "constant": true
    },
    {
      "inputs": [],
      "name": "getcJUSDBalance",
      "outputs": [
        {
          "internalType": "uint256",
          "name": "",
          "type": "uint256"
        }
      ],
      "stateMutability": "view",
      "type": "function",
      "constant": true
    },
    {
      "inputs": [],
      "name": "getJUSDBalance",
      "outputs": [
        {
          "internalType": "uint256",
          "name": "",
          "type": "uint256"
        }
      ],
      "stateMutability": "view",
      "type": "function",
      "constant": true
    }
  ],
  "bytecode": "0x60806040526040518060400160405280601681526020017f4175746f2d436f6d706f756e6420436f6e747261637400000000000000000000815250600190805190602001906200005192919062000497565b503480156200005f57600080fd5b5060405162002e6d38038062002e6d833981810160405281019062000085919062000564565b6000620000976200048f60201b60201c565b9050806000806101000a81548173ffffffffffffffffffffffffffffffffffffffff021916908373ffffffffffffffffffffffffffffffffffffffff1602179055508073ffffffffffffffffffffffffffffffffffffffff16600073ffffffffffffffffffffffffffffffffffffffff167f8be0079c531659141344cd1fd0a4f28419497f9722a3daafe3b4186f6b6457e060405160405180910390a35085600260006101000a81548173ffffffffffffffffffffffffffffffffffffffff021916908373ffffffffffffffffffffffffffffffffffffffff16021790555086600360006101000a81548173ffffffffffffffffffffffffffffffffffffffff021916908373ffffffffffffffffffffffffffffffffffffffff16021790555083600460006101000a81548173ffffffffffffffffffffffffffffffffffffffff021916908373ffffffffffffffffffffffffffffffffffffffff16021790555082600660006101000a81548173ffffffffffffffffffffffffffffffffffffffff021916908373ffffffffffffffffffffffffffffffffffffffff16021790555084600560006101000a81548173ffffffffffffffffffffffffffffffffffffffff021916908373ffffffffffffffffffffffffffffffffffffffff16021790555081600860006101000a81548173ffffffffffffffffffffffffffffffffffffffff021916908373ffffffffffffffffffffffffffffffffffffffff16021790555080600760006101000a81548173ffffffffffffffffffffffffffffffffffffffff021916908373ffffffffffffffffffffffffffffffffffffffff16021790555084600960006101000a81548173ffffffffffffffffffffffffffffffffffffffff021916908373ffffffffffffffffffffffffffffffffffffffff16021790555082600a60006101000a81548173ffffffffffffffffffffffffffffffffffffffff021916908373ffffffffffffffffffffffffffffffffffffffff16021790555086600b60006101000a81548173ffffffffffffffffffffffffffffffffffffffff021916908373ffffffffffffffffffffffffffffffffffffffff16021790555080600e60006101000a81548173ffffffffffffffffffffffffffffffffffffffff021916908373ffffffffffffffffffffffffffffffffffffffff16021790555083600d60006101000a81548173ffffffffffffffffffffffffffffffffffffffff021916908373ffffffffffffffffffffffffffffffffffffffff16021790555085600c60006101000a81548173ffffffffffffffffffffffffffffffffffffffff021916908373ffffffffffffffffffffffffffffffffffffffff160217905550505050505050506200065f565b600033905090565b828054600181600116156101000203166002900490600052602060002090601f016020900481019282620004cf57600085556200051b565b82601f10620004ea57805160ff19168380011785556200051b565b828001600101855582156200051b579182015b828111156200051a578251825591602001919060010190620004fd565b5b5090506200052a91906200052e565b5090565b5b80821115620005495760008160009055506001016200052f565b5090565b6000815190506200055e8162000645565b92915050565b600080600080600080600060e0888a0312156200058057600080fd5b6000620005908a828b016200054d565b9750506020620005a38a828b016200054d565b9650506040620005b68a828b016200054d565b9550506060620005c98a828b016200054d565b9450506080620005dc8a828b016200054d565b93505060a0620005ef8a828b016200054d565b92505060c0620006028a828b016200054d565b91505092959891949750929550565b60006200061e8262000625565b9050919050565b600073ffffffffffffffffffffffffffffffffffffffff82169050919050565b620006508162000611565b81146200065c57600080fd5b50565b6127fe806200066f6000396000f3fe608060405234801561001057600080fd5b50600436106100f45760003560e01c806363367f2511610097578063d2a6417a11610066578063d2a6417a14610227578063ec119db814610243578063ed05ae7814610261578063f2fde38b14610291576100f4565b806363367f25146101c75780636e553f65146101e3578063715018a6146101ff5780638da5cb5b14610209576100f4565b80630d6ca7d2116100d35780630d6ca7d214610153578063127dab39146101715780632e1a7d4d1461018f578063320aade0146101ab576100f4565b8062c2a24b146100f95780630540b2d81461011757806306fdde0314610135575b600080fd5b6101016102ad565b60405161010e91906125cd565b60405180910390f35b61011f61035f565b60405161012c91906125b2565b60405180910390f35b61013d610365565b60405161014a9190612590565b60405180910390f35b61015b610403565b60405161016891906125cd565b60405180910390f35b61017961073a565b60405161018691906125cd565b60405180910390f35b6101a960048036038101906101a49190612458565b6107ec565b005b6101c560048036038101906101c09190612458565b610cc4565b005b6101e160048036038101906101dc9190612406565b610ef9565b005b6101fd60048036038101906101f891906124aa565b611038565b005b610207611742565b005b6102116118af565b60405161021e919061254c565b60405180910390f35b610241600480360381019061023c9190612458565b6118d8565b005b61024b611b56565b60405161025891906125b2565b60405180910390f35b61027b60048036038101906102769190612406565b611b5c565b60405161028891906125cd565b60405180910390f35b6102ab60048036038101906102a69190612406565b611ba5565b005b6000600460009054906101000a900473ffffffffffffffffffffffffffffffffffffffff1673ffffffffffffffffffffffffffffffffffffffff166370a08231306040518263ffffffff1660e01b815260040161030a919061254c565b60206040518083038186803b15801561032257600080fd5b505afa158015610336573d6000803e3d6000fd5b505050506040513d601f19601f8201168201806040525081019061035a9190612481565b905090565b6101f481565b60018054600181600116156101000203166002900480601f0160208091040260200160405190810160405280929190818152602001828054600181600116156101000203166002900480156103fb5780601f106103d0576101008083540402835291602001916103fb565b820191906000526020600020905b8154815290600101906020018083116103de57829003601f168201915b505050505081565b600061040d611d97565b73ffffffffffffffffffffffffffffffffffffffff1661042b6118af565b73ffffffffffffffffffffffffffffffffffffffff16146104b4576040517f08c379a00000000000000000000000000000000000000000000000000000000081526004018080602001828103825260208152602001807f4f776e61626c653a2063616c6c6572206973206e6f7420746865206f776e657281525060200191505060405180910390fd5b6000600260009054906101000a900473ffffffffffffffffffffffffffffffffffffffff1673ffffffffffffffffffffffffffffffffffffffff166370a08231306040518263ffffffff1660e01b8152600401610511919061254c565b60206040518083038186803b15801561052957600080fd5b505afa15801561053d573d6000803e3d6000fd5b505050506040513d601f19601f820116820180604052508101906105619190612481565b9050600260009054906101000a900473ffffffffffffffffffffffffffffffffffffffff1673ffffffffffffffffffffffffffffffffffffffff1663095ea7b3600e60009054906101000a900473ffffffffffffffffffffffffffffffffffffffff16836040518363ffffffff1660e01b81526004016105e2929190612567565b602060405180830381600087803b1580156105fc57600080fd5b505af1158015610610573d6000803e3d6000fd5b505050506040513d601f19601f82011682018060405250810190610634919061242f565b506000600760009054906101000a900473ffffffffffffffffffffffffffffffffffffffff1673ffffffffffffffffffffffffffffffffffffffff1663bd13338c83600c60009054906101000a900473ffffffffffffffffffffffffffffffffffffffff16600b60009054906101000a900473ffffffffffffffffffffffffffffffffffffffff16610bb86040518563ffffffff1660e01b81526004016106de9493929190612611565b602060405180830381600087803b1580156106f857600080fd5b505af115801561070c573d6000803e3d6000fd5b505050506040513d601f19601f820116820180604052508101906107309190612481565b9050809250505090565b6000600360009054906101000a900473ffffffffffffffffffffffffffffffffffffffff1673ffffffffffffffffffffffffffffffffffffffff166370a08231306040518263ffffffff1660e01b8152600401610797919061254c565b60206040518083038186803b1580156107af57600080fd5b505afa1580156107c3573d6000803e3d6000fd5b505050506040513d601f19601f820116820180604052508101906107e79190612481565b905090565b6000600f60003373ffffffffffffffffffffffffffffffffffffffff1673ffffffffffffffffffffffffffffffffffffffff168152602001908152602001600020541161083857600080fd5b610887333083600460009054906101000a900473ffffffffffffffffffffffffffffffffffffffff1673ffffffffffffffffffffffffffffffffffffffff16611d9f909392919063ffffffff16565b600460009054906101000a900473ffffffffffffffffffffffffffffffffffffffff1673ffffffffffffffffffffffffffffffffffffffff1663095ea7b3600e60009054906101000a900473ffffffffffffffffffffffffffffffffffffffff16836040518363ffffffff1660e01b8152600401610906929190612567565b602060405180830381600087803b15801561092057600080fd5b505af1158015610934573d6000803e3d6000fd5b505050506040513d601f19601f82011682018060405250810190610958919061242f565b506000600760009054906101000a900473ffffffffffffffffffffffffffffffffffffffff1673ffffffffffffffffffffffffffffffffffffffff1663bd13338c83600d60009054906101000a900473ffffffffffffffffffffffffffffffffffffffff16600b60009054906101000a900473ffffffffffffffffffffffffffffffffffffffff166101f46040518563ffffffff1660e01b8152600401610a029493929190612611565b602060405180830381600087803b158015610a1c57600080fd5b505af1158015610a30573d6000803e3d6000fd5b505050506040513d601f19601f82011682018060405250810190610a549190612481565b9050600560009054906101000a900473ffffffffffffffffffffffffffffffffffffffff1673ffffffffffffffffffffffffffffffffffffffff166384d269ad600f60003373ffffffffffffffffffffffffffffffffffffffff1673ffffffffffffffffffffffffffffffffffffffff16815260200190815260200160002054600b60009054906101000a900473ffffffffffffffffffffffffffffffffffffffff166040518363ffffffff1660e01b8152600401610b149291906125e8565b600060405180830381600087803b158015610b2e57600080fd5b505af1158015610b42573d6000803e3d6000fd5b50505050610b933382600360009054906101000a900473ffffffffffffffffffffffffffffffffffffffff1673ffffffffffffffffffffffffffffffffffffffff16611e609092919063ffffffff16565b600f60003373ffffffffffffffffffffffffffffffffffffffff1673ffffffffffffffffffffffffffffffffffffffff16815260200190815260200160002054811115610c24576000600f60003373ffffffffffffffffffffffffffffffffffffffff1673ffffffffffffffffffffffffffffffffffffffff16815260200190815260200160002081905550610cc0565b6000610c7882600f60003373ffffffffffffffffffffffffffffffffffffffff1673ffffffffffffffffffffffffffffffffffffffff16815260200190815260200160002054611f0290919063ffffffff16565b905080600f60003373ffffffffffffffffffffffffffffffffffffffff1673ffffffffffffffffffffffffffffffffffffffff16815260200190815260200160002081905550505b5050565b610ccc611d97565b73ffffffffffffffffffffffffffffffffffffffff16610cea6118af565b73ffffffffffffffffffffffffffffffffffffffff1614610d73576040517f08c379a00000000000000000000000000000000000000000000000000000000081526004018080602001828103825260208152602001807f4f776e61626c653a2063616c6c6572206973206e6f7420746865206f776e657281525060200191505060405180910390fd5b600360009054906101000a900473ffffffffffffffffffffffffffffffffffffffff1673ffffffffffffffffffffffffffffffffffffffff1663095ea7b3600960009054906101000a900473ffffffffffffffffffffffffffffffffffffffff16836040518363ffffffff1660e01b8152600401610df2929190612567565b602060405180830381600087803b158015610e0c57600080fd5b505af1158015610e20573d6000803e3d6000fd5b505050506040513d601f19601f82011682018060405250810190610e44919061242f565b50600560009054906101000a900473ffffffffffffffffffffffffffffffffffffffff1673ffffffffffffffffffffffffffffffffffffffff16630bea440d82600b60009054906101000a900473ffffffffffffffffffffffffffffffffffffffff166040518363ffffffff1660e01b8152600401610ec49291906125e8565b600060405180830381600087803b158015610ede57600080fd5b505af1158015610ef2573d6000803e3d6000fd5b5050505050565b610f01611d97565b73ffffffffffffffffffffffffffffffffffffffff16610f1f6118af565b73ffffffffffffffffffffffffffffffffffffffff1614610fa8576040517f08c379a00000000000000000000000000000000000000000000000000000000081526004018080602001828103825260208152602001807f4f776e61626c653a2063616c6c6572206973206e6f7420746865206f776e657281525060200191505060405180910390fd5b600560009054906101000a900473ffffffffffffffffffffffffffffffffffffffff1673ffffffffffffffffffffffffffffffffffffffff1663ef5cfb8c826040518263ffffffff1660e01b8152600401611003919061254c565b600060405180830381600087803b15801561101d57600080fd5b505af1158015611031573d6000803e3d6000fd5b5050505050565b600860009054906101000a900473ffffffffffffffffffffffffffffffffffffffff1673ffffffffffffffffffffffffffffffffffffffff166320d8dad0826040518263ffffffff1660e01b8152600401611093919061254c565b60206040518083038186803b1580156110ab57600080fd5b505afa1580156110bf573d6000803e3d6000fd5b505050506040513d601f19601f820116820180604052508101906110e3919061242f565b80156110ef5750600082115b6110f857600080fd5b6111253330848473ffffffffffffffffffffffffffffffffffffffff16611d9f909392919063ffffffff16565b600b60009054906101000a900473ffffffffffffffffffffffffffffffffffffffff1673ffffffffffffffffffffffffffffffffffffffff168173ffffffffffffffffffffffffffffffffffffffff161461125757600660009054906101000a900473ffffffffffffffffffffffffffffffffffffffff1673ffffffffffffffffffffffffffffffffffffffff1663f1ed86f583836040518363ffffffff1660e01b81526004016111d79291906125e8565b600060405180830381600087803b1580156111f157600080fd5b505af1158015611205573d6000803e3d6000fd5b50505050611256600a60009054906101000a900473ffffffffffffffffffffffffffffffffffffffff16838373ffffffffffffffffffffffffffffffffffffffff16611e609092919063ffffffff16565b5b6000600860009054906101000a900473ffffffffffffffffffffffffffffffffffffffff1673ffffffffffffffffffffffffffffffffffffffff1663594bf2af83856040518363ffffffff1660e01b81526004016112b6929190612567565b60206040518083038186803b1580156112ce57600080fd5b505afa1580156112e2573d6000803e3d6000fd5b505050506040513d601f19601f820116820180604052508101906113069190612481565b9050600360009054906101000a900473ffffffffffffffffffffffffffffffffffffffff1673ffffffffffffffffffffffffffffffffffffffff1663095ea7b3600960009054906101000a900473ffffffffffffffffffffffffffffffffffffffff16836040518363ffffffff1660e01b8152600401611387929190612567565b602060405180830381600087803b1580156113a157600080fd5b505af11580156113b5573d6000803e3d6000fd5b505050506040513d601f19601f820116820180604052508101906113d9919061242f565b50600560009054906101000a900473ffffffffffffffffffffffffffffffffffffffff1673ffffffffffffffffffffffffffffffffffffffff16630bea440d82600b60009054906101000a900473ffffffffffffffffffffffffffffffffffffffff166040518363ffffffff1660e01b81526004016114599291906125e8565b600060405180830381600087803b15801561147357600080fd5b505af1158015611487573d6000803e3d6000fd5b50505050600360009054906101000a900473ffffffffffffffffffffffffffffffffffffffff1673ffffffffffffffffffffffffffffffffffffffff1663095ea7b3600e60009054906101000a900473ffffffffffffffffffffffffffffffffffffffff16836040518363ffffffff1660e01b815260040161150a929190612567565b602060405180830381600087803b15801561152457600080fd5b505af1158015611538573d6000803e3d6000fd5b505050506040513d601f19601f8201168201806040525081019061155c919061242f565b506115af81600f60003373ffffffffffffffffffffffffffffffffffffffff1673ffffffffffffffffffffffffffffffffffffffff16815260200190815260200160002054611f8590919063ffffffff16565b600f60003373ffffffffffffffffffffffffffffffffffffffff1673ffffffffffffffffffffffffffffffffffffffff168152602001908152602001600020819055506000600760009054906101000a900473ffffffffffffffffffffffffffffffffffffffff1673ffffffffffffffffffffffffffffffffffffffff1663bd13338c83600b60009054906101000a900473ffffffffffffffffffffffffffffffffffffffff16600d60009054906101000a900473ffffffffffffffffffffffffffffffffffffffff166101f46040518563ffffffff1660e01b815260040161169b9493929190612611565b602060405180830381600087803b1580156116b557600080fd5b505af11580156116c9573d6000803e3d6000fd5b505050506040513d601f19601f820116820180604052508101906116ed9190612481565b905061173c3382600460009054906101000a900473ffffffffffffffffffffffffffffffffffffffff1673ffffffffffffffffffffffffffffffffffffffff16611e609092919063ffffffff16565b50505050565b61174a611d97565b73ffffffffffffffffffffffffffffffffffffffff166117686118af565b73ffffffffffffffffffffffffffffffffffffffff16146117f1576040517f08c379a00000000000000000000000000000000000000000000000000000000081526004018080602001828103825260208152602001807f4f776e61626c653a2063616c6c6572206973206e6f7420746865206f776e657281525060200191505060405180910390fd5b600073ffffffffffffffffffffffffffffffffffffffff1660008054906101000a900473ffffffffffffffffffffffffffffffffffffffff1673ffffffffffffffffffffffffffffffffffffffff167f8be0079c531659141344cd1fd0a4f28419497f9722a3daafe3b4186f6b6457e060405160405180910390a360008060006101000a81548173ffffffffffffffffffffffffffffffffffffffff021916908373ffffffffffffffffffffffffffffffffffffffff160217905550565b60008060009054906101000a900473ffffffffffffffffffffffffffffffffffffffff16905090565b6118e0611d97565b73ffffffffffffffffffffffffffffffffffffffff166118fe6118af565b73ffffffffffffffffffffffffffffffffffffffff1614611987576040517f08c379a00000000000000000000000000000000000000000000000000000000081526004018080602001828103825260208152602001807f4f776e61626c653a2063616c6c6572206973206e6f7420746865206f776e657281525060200191505060405180910390fd5b600360009054906101000a900473ffffffffffffffffffffffffffffffffffffffff1673ffffffffffffffffffffffffffffffffffffffff1663095ea7b3600e60009054906101000a900473ffffffffffffffffffffffffffffffffffffffff16836040518363ffffffff1660e01b8152600401611a06929190612567565b602060405180830381600087803b158015611a2057600080fd5b505af1158015611a34573d6000803e3d6000fd5b505050506040513d601f19601f82011682018060405250810190611a58919061242f565b50600760009054906101000a900473ffffffffffffffffffffffffffffffffffffffff1673ffffffffffffffffffffffffffffffffffffffff1663bd13338c82600b60009054906101000a900473ffffffffffffffffffffffffffffffffffffffff16600d60009054906101000a900473ffffffffffffffffffffffffffffffffffffffff166101f46040518563ffffffff1660e01b8152600401611b009493929190612611565b602060405180830381600087803b158015611b1a57600080fd5b505af1158015611b2e573d6000803e3d6000fd5b505050506040513d601f19601f82011682018060405250810190611b529190612481565b5050565b610bb881565b6000600f60008373ffffffffffffffffffffffffffffffffffffffff1673ffffffffffffffffffffffffffffffffffffffff168152602001908152602001600020549050919050565b611bad611d97565b73ffffffffffffffffffffffffffffffffffffffff16611bcb6118af565b73ffffffffffffffffffffffffffffffffffffffff1614611c54576040517f08c379a00000000000000000000000000000000000000000000000000000000081526004018080602001828103825260208152602001807f4f776e61626c653a2063616c6c6572206973206e6f7420746865206f776e657281525060200191505060405180910390fd5b600073ffffffffffffffffffffffffffffffffffffffff168173ffffffffffffffffffffffffffffffffffffffff161415611cda576040517f08c379a00000000000000000000000000000000000000000000000000000000081526004018080602001828103825260268152602001806127536026913960400191505060405180910390fd5b8073ffffffffffffffffffffffffffffffffffffffff1660008054906101000a900473ffffffffffffffffffffffffffffffffffffffff1673ffffffffffffffffffffffffffffffffffffffff167f8be0079c531659141344cd1fd0a4f28419497f9722a3daafe3b4186f6b6457e060405160405180910390a3806000806101000a81548173ffffffffffffffffffffffffffffffffffffffff021916908373ffffffffffffffffffffffffffffffffffffffff16021790555050565b600033905090565b611e5a846323b872dd60e01b858585604051602401808473ffffffffffffffffffffffffffffffffffffffff1681526020018373ffffffffffffffffffffffffffffffffffffffff1681526020018281526020019350505050604051602081830303815290604052907bffffffffffffffffffffffffffffffffffffffffffffffffffffffff19166020820180517bffffffffffffffffffffffffffffffffffffffffffffffffffffffff838183161783525050505061200d565b50505050565b611efd8363a9059cbb60e01b8484604051602401808373ffffffffffffffffffffffffffffffffffffffff16815260200182815260200192505050604051602081830303815290604052907bffffffffffffffffffffffffffffffffffffffffffffffffffffffff19166020820180517bffffffffffffffffffffffffffffffffffffffffffffffffffffffff838183161783525050505061200d565b505050565b600082821115611f7a576040517f08c379a000000000000000000000000000000000000000000000000000000000815260040180806020018281038252601e8152602001807f536166654d6174683a207375627472616374696f6e206f766572666c6f77000081525060200191505060405180910390fd5b818303905092915050565b600080828401905083811015612003576040517f08c379a000000000000000000000000000000000000000000000000000000000815260040180806020018281038252601b8152602001807f536166654d6174683a206164646974696f6e206f766572666c6f77000000000081525060200191505060405180910390fd5b8091505092915050565b600061206f826040518060400160405280602081526020017f5361666545524332303a206c6f772d6c6576656c2063616c6c206661696c65648152508573ffffffffffffffffffffffffffffffffffffffff166120fc9092919063ffffffff16565b90506000815111156120f75780806020019051602081101561209057600080fd5b81019080805190602001909291905050506120f6576040517f08c379a000000000000000000000000000000000000000000000000000000000815260040180806020018281038252602a81526020018061279f602a913960400191505060405180910390fd5b5b505050565b606061210b8484600085612114565b90509392505050565b6060823073ffffffffffffffffffffffffffffffffffffffff16311015612186576040517f08c379a00000000000000000000000000000000000000000000000000000000081526004018080602001828103825260268152602001806127796026913960400191505060405180910390fd5b61218f856122d3565b612201576040517f08c379a000000000000000000000000000000000000000000000000000000000815260040180806020018281038252601d8152602001807f416464726573733a2063616c6c20746f206e6f6e2d636f6e747261637400000081525060200191505060405180910390fd5b6000808673ffffffffffffffffffffffffffffffffffffffff1685876040518082805190602001908083835b60208310612250578051825260208201915060208101905060208303925061222d565b6001836020036101000a03801982511681845116808217855250505050505090500191505060006040518083038185875af1925050503d80600081146122b2576040519150601f19603f3d011682016040523d82523d6000602084013e6122b7565b606091505b50915091506122c78282866122e6565b92505050949350505050565b600080823b905060008111915050919050565b606083156122f6578290506123ab565b6000835111156123095782518084602001fd5b816040517f08c379a00000000000000000000000000000000000000000000000000000000081526004018080602001828103825283818151815260200191508051906020019080838360005b83811015612370578082015181840152602081019050612355565b50505050905090810190601f16801561239d5780820380516001836020036101000a031916815260200191505b509250505060405180910390fd5b9392505050565b6000813590506123c18161270d565b92915050565b6000815190506123d681612724565b92915050565b6000813590506123eb8161273b565b92915050565b6000815190506124008161273b565b92915050565b60006020828403121561241857600080fd5b6000612426848285016123b2565b91505092915050565b60006020828403121561244157600080fd5b600061244f848285016123c7565b91505092915050565b60006020828403121561246a57600080fd5b6000612478848285016123dc565b91505092915050565b60006020828403121561249357600080fd5b60006124a1848285016123f1565b91505092915050565b600080604083850312156124bd57600080fd5b60006124cb858286016123dc565b92505060206124dc858286016123b2565b9150509250929050565b6124ef81612672565b82525050565b600061250082612656565b61250a8185612661565b935061251a8185602086016126c9565b612523816126fc565b840191505092915050565b612537816126b0565b82525050565b612546816126bf565b82525050565b600060208201905061256160008301846124e6565b92915050565b600060408201905061257c60008301856124e6565b612589602083018461253d565b9392505050565b600060208201905081810360008301526125aa81846124f5565b905092915050565b60006020820190506125c7600083018461252e565b92915050565b60006020820190506125e2600083018461253d565b92915050565b60006040820190506125fd600083018561253d565b61260a60208301846124e6565b9392505050565b6000608082019050612626600083018761253d565b61263360208301866124e6565b61264060408301856124e6565b61264d606083018461252e565b95945050505050565b600081519050919050565b600082825260208201905092915050565b600061267d82612690565b9050919050565b60008115159050919050565b600073ffffffffffffffffffffffffffffffffffffffff82169050919050565b600062ffffff82169050919050565b6000819050919050565b60005b838110156126e75780820151818401526020810190506126cc565b838111156126f6576000848401525b50505050565b6000601f19601f8301169050919050565b61271681612672565b811461272157600080fd5b50565b61272d81612684565b811461273857600080fd5b50565b612744816126bf565b811461274f57600080fd5b5056fe4f776e61626c653a206e6577206f776e657220697320746865207a65726f2061646472657373416464726573733a20696e73756666696369656e742062616c616e636520666f722063616c6c5361666545524332303a204552433230206f7065726174696f6e20646964206e6f742073756363656564a2646970667358221220278795b948841ebf8d77e4db50d9385fc3653037ac0da1dd5f4b5f4a3c68073864736f6c63430007060033",
  "immutableReferences": {},
  "source": "// SPDX-License-Identifier: MIT\npragma solidity ^0.7.6;\npragma abicoder v2;\n\nimport \"./Token/JUSD.sol\";\nimport \"./Token/Mimic.sol\";\nimport \"./Token/cJUSD.sol\";\nimport \"./Farming.sol\";\nimport \"./Swap.sol\";\nimport \"./Uniswap.sol\";\nimport \"./Manager.sol\";\n\nimport \"@openzeppelin/contracts/math/SafeMath.sol\";\nimport \"@openzeppelin/contracts/token/ERC20/ERC20.sol\";\nimport \"@openzeppelin/contracts/access/Ownable.sol\";\nimport \"@openzeppelin/contracts/token/ERC20/SafeERC20.sol\";\n\ncontract Auto is Ownable {\n    using SafeERC20 for ERC20;\n    using SafeMath for uint256;\n    string public name = \"Auto-Compound Contract\";\n\n    ERC20 internal MIM;\n    ERC20 internal JUSD;\n    ERC20 internal CJUSD;\n    Farming internal FarmContract;\n    Swap internal SwapContract;\n    Uniswap internal UniContract;\n    Manager internal PoolManager;\n\n    uint24 public constant mimicFee = 3000;\n    uint24 public constant jusdFee = 500;\n\n\n    /* Other Contract Address */\n    address internal FarmAddress;\n    address internal SwapAddress;\n    address internal JUSDAddress;\n    address internal MIMAddress;\n    address internal CJUSDAddress;\n    address internal UniAddress;\n\n    mapping (address => uint256) depositbalance;\n\n    constructor(\n        address _JUSD,\n        address _MIM,\n        address _Farming,\n        address _cJUSD,\n        address _Swap,\n        address _Manager,\n        address _Uniswap\n    ) public {\n        /* Initial Token with token address */\n        MIM = ERC20(_MIM);\n        JUSD = ERC20(_JUSD);\n        CJUSD = ERC20(_cJUSD);\n\n        /* Initial Farm and Swap Contract with token address */\n        SwapContract = Swap(_Swap);\n        FarmContract = Farming(_Farming);\n        PoolManager = Manager(_Manager);\n        UniContract = Uniswap(_Uniswap);\n\n        /* Initial Farm and Swap Contract address */\n        FarmAddress = _Farming;\n        SwapAddress = _Swap;\n        JUSDAddress = _JUSD;\n        UniAddress = _Uniswap;\n        CJUSDAddress = _cJUSD;\n        MIMAddress = _MIM;\n    }\n\n    function deposit(uint256 _amount, address _token) public {\n        require(PoolManager.checkWhitelisted(_token) && _amount > 0);\n        /* Transfer any token that in whitelist from user to Auto-Compound Contract */\n        ERC20(_token).safeTransferFrom(msg.sender, address(this), _amount);\n        if (_token != JUSDAddress) {\n            /*Swap any token to jusd*/\n            SwapContract.swapToJUSD(_amount, _token);\n            /*Transfer to Swap Contract*/\n            ERC20(_token).safeTransfer(SwapAddress, _amount);\n        }\n        uint256 balance = PoolManager.checkDecimals(_token, _amount);\n        /* Auto-Compound:: Approve JUSD for spend amount to Farm */\n        JUSD.approve(FarmAddress, balance);\n        /* Stake JUSD in Farm Contract with Auto-Compound */\n        FarmContract.stakeTokens(balance, JUSDAddress);\n        /*Approve jusd to swap*/\n        JUSD.approve(UniAddress,balance);\n        depositbalance[msg.sender] = depositbalance[msg.sender].add(balance);\n        uint256 swapbalance = UniContract.swapExactInputSingle(balance , JUSDAddress , CJUSDAddress , jusdFee);\n        CJUSD.safeTransfer(msg.sender,swapbalance);\n    }\n\n    function claimMIM(address _token) public onlyOwner {\n        /* Claim Mimic Token */\n        FarmContract.claimRewards(_token);\n    }\n\n    function swapMIM() public onlyOwner returns(uint256) {\n        /* Check Mimic Token balance */\n        uint256 MIMbalance = MIM.balanceOf(address(this));\n        /* Swap Mimic To JUSD */\n        MIM.approve(UniAddress, MIMbalance);\n        uint256 balance = UniContract.swapExactInputSingle(MIMbalance , MIMAddress , JUSDAddress , mimicFee);\n        return balance;\n    }\n\n    function swapJUSDtoCJUSD(uint256 _amount) public onlyOwner {\n        JUSD.approve(UniAddress,_amount);\n        UniContract.swapExactInputSingle(_amount , JUSDAddress , CJUSDAddress , jusdFee);\n    }\n\n    function depositToFarm(uint256 _amount) public onlyOwner {\n        /* Auto-Compound:: Approve JUSD for spend amount to Farm */\n        JUSD.approve(FarmAddress, _amount);\n        /* Stake JUSD in Farm Contract with Auto-Compound */\n        FarmContract.stakeTokens(_amount, JUSDAddress);\n    }\n\n    function withdraw(uint256 _amount) public {\n        require(depositbalance[msg.sender] > 0);\n        /* Transfer cJUSD to Auto Compound */\n        CJUSD.safeTransferFrom(msg.sender, address(this), _amount);\n        CJUSD.approve(UniAddress,_amount);\n        uint256 swapbalance = UniContract.swapExactInputSingle(_amount , CJUSDAddress , JUSDAddress , jusdFee);\n        /* Unstake JUSD from Farming Contract */\n        FarmContract.unstakeTokens( depositbalance[msg.sender] , JUSDAddress);\n        /* Return JUSD to user */\n        JUSD.safeTransfer(msg.sender, swapbalance);\n        if(swapbalance > depositbalance[msg.sender]){\n            depositbalance[msg.sender] = 0;\n        } else {\n            uint256 remain = depositbalance[msg.sender].sub(swapbalance);\n            depositbalance[msg.sender] = remain;\n        }\n    }\n    function getDepositBalance(address _account) public view returns (uint256){\n        return depositbalance[_account];\n    }\n    function getcJUSDBalance() public view returns (uint256) {\n        return CJUSD.balanceOf(address(this));\n    }\n\n    function getJUSDBalance() public view returns (uint256) {\n        return JUSD.balanceOf(address(this));\n    }\n\n   \n}\n",
  "sourcePath": "/Users/aomwara/aomdev/mimic-farm-v2/contracts/Auto.sol",
  "compiler": {
    "name": "solc",
    "version": "0.7.6+commit.7338295f.Emscripten.clang"
  },
  "schemaVersion": "3.4.3",
  "updatedAt": "2022-05-06T21:13:38.070Z",
  "networkType": "ethereum",
  "devdoc": {
    "kind": "dev",
    "methods": {
      "owner()": {
        "details": "Returns the address of the current owner."
      },
      "renounceOwnership()": {
        "details": "Leaves the contract without owner. It will not be possible to call `onlyOwner` functions anymore. Can only be called by the current owner. NOTE: Renouncing ownership will leave the contract without an owner, thereby removing any functionality that is only available to the owner."
      },
      "transferOwnership(address)": {
        "details": "Transfers ownership of the contract to a new account (`newOwner`). Can only be called by the current owner."
      }
    },
    "version": 1
  },
  "userdoc": {
    "kind": "user",
    "methods": {},
    "version": 1
  }
}