{
  "contractName": "Auto",
  "abi": [
    {
      "inputs": [
        {
          "internalType": "address",
          "name": "_JUSDToken",
          "type": "address"
        },
        {
          "internalType": "address",
          "name": "_MimicToken",
          "type": "address"
        },
        {
          "internalType": "address",
          "name": "_Farming",
          "type": "address"
        },
        {
          "internalType": "address",
          "name": "_cJUSDToken",
          "type": "address"
        },
        {
          "internalType": "address",
          "name": "_Swap",
          "type": "address"
        }
      ],
      "stateMutability": "nonpayable",
      "type": "constructor"
    },
    {
      "inputs": [],
      "name": "name",
      "outputs": [
        {
          "internalType": "string",
          "name": "",
          "type": "string"
        }
      ],
      "stateMutability": "view",
      "type": "function",
      "constant": true
    },
    {
      "inputs": [
        {
          "internalType": "address",
          "name": "",
          "type": "address"
        }
      ],
      "name": "stakingBalance",
      "outputs": [
        {
          "internalType": "uint256",
          "name": "",
          "type": "uint256"
        }
      ],
      "stateMutability": "view",
      "type": "function",
      "constant": true
    },
    {
      "inputs": [
        {
          "internalType": "uint256",
          "name": "_amount",
          "type": "uint256"
        }
      ],
      "name": "deposit",
      "outputs": [],
      "stateMutability": "nonpayable",
      "type": "function"
    },
    {
      "inputs": [
        {
          "internalType": "uint256",
          "name": "_amount",
          "type": "uint256"
        }
      ],
      "name": "depositToFarm",
      "outputs": [],
      "stateMutability": "nonpayable",
      "type": "function"
    },
    {
      "inputs": [],
      "name": "swapMimToJUSD",
      "outputs": [],
      "stateMutability": "nonpayable",
      "type": "function"
    },
    {
      "inputs": [],
      "name": "claim",
      "outputs": [],
      "stateMutability": "nonpayable",
      "type": "function"
    },
    {
      "inputs": [
        {
          "internalType": "uint256",
          "name": "_amount",
          "type": "uint256"
        }
      ],
      "name": "withdraw",
      "outputs": [],
      "stateMutability": "nonpayable",
      "type": "function"
    }
  ],
  "bytecode": "0x60806040526040518060400160405280600d81526020017f4175746f2d436f6d706f756e64000000000000000000000000000000000000008152506000908051906020019061004f929190610289565b5034801561005c57600080fd5b506040516111f13803806111f1833981810160405260a081101561007f57600080fd5b81019080805190602001909291908051906020019092919080519060200190929190805190602001909291908051906020019092919050505083600160006101000a81548173ffffffffffffffffffffffffffffffffffffffff021916908373ffffffffffffffffffffffffffffffffffffffff16021790555084600260006101000a81548173ffffffffffffffffffffffffffffffffffffffff021916908373ffffffffffffffffffffffffffffffffffffffff16021790555081600360006101000a81548173ffffffffffffffffffffffffffffffffffffffff021916908373ffffffffffffffffffffffffffffffffffffffff16021790555080600560006101000a81548173ffffffffffffffffffffffffffffffffffffffff021916908373ffffffffffffffffffffffffffffffffffffffff16021790555082600460006101000a81548173ffffffffffffffffffffffffffffffffffffffff021916908373ffffffffffffffffffffffffffffffffffffffff16021790555082600660006101000a81548173ffffffffffffffffffffffffffffffffffffffff021916908373ffffffffffffffffffffffffffffffffffffffff16021790555080600760006101000a81548173ffffffffffffffffffffffffffffffffffffffff021916908373ffffffffffffffffffffffffffffffffffffffff160217905550505050505061032e565b828054600181600116156101000203166002900490600052602060002090601f016020900481019282601f106102ca57805160ff19168380011785556102f8565b828001600101855582156102f8579182015b828111156102f75782518255916020019190600101906102dc565b5b5090506103059190610309565b5090565b61032b91905b8082111561032757600081600090555060010161030f565b5090565b90565b610eb48061033d6000396000f3fe608060405234801561001057600080fd5b506004361061007d5760003560e01c8063320aade01161005b578063320aade01461013d57806345bc78ab1461016b5780634e71d92d146101c3578063b6b55f25146101cd5761007d565b806306fdde031461008257806307782409146101055780632e1a7d4d1461010f575b600080fd5b61008a6101fb565b6040518080602001828103825283818151815260200191508051906020019080838360005b838110156100ca5780820151818401526020810190506100af565b50505050905090810190601f1680156100f75780820380516001836020036101000a031916815260200191505b509250505060405180910390f35b61010d610299565b005b61013b6004803603602081101561012557600080fd5b810190808035906020019092919050505061050e565b005b6101696004803603602081101561015357600080fd5b810190808035906020019092919050505061079c565b005b6101ad6004803603602081101561018157600080fd5b81019080803573ffffffffffffffffffffffffffffffffffffffff169060200190929190505050610933565b6040518082815260200191505060405180910390f35b6101cb61094b565b005b6101f9600480360360208110156101e357600080fd5b81019080803590602001909291905050506109cf565b005b60008054600181600116156101000203166002900480601f0160208091040260200160405190810160405280929190818152602001828054600181600116156101000203166002900480156102915780601f1061026657610100808354040283529160200191610291565b820191906000526020600020905b81548152906001019060200180831161027457829003601f168201915b505050505081565b6000600160009054906101000a900473ffffffffffffffffffffffffffffffffffffffff1673ffffffffffffffffffffffffffffffffffffffff166370a08231306040518263ffffffff1660e01b8152600401808273ffffffffffffffffffffffffffffffffffffffff1673ffffffffffffffffffffffffffffffffffffffff16815260200191505060206040518083038186803b15801561033a57600080fd5b505afa15801561034e573d6000803e3d6000fd5b505050506040513d602081101561036457600080fd5b81019080805190602001909291905050509050600160009054906101000a900473ffffffffffffffffffffffffffffffffffffffff1673ffffffffffffffffffffffffffffffffffffffff1663095ea7b3600760009054906101000a900473ffffffffffffffffffffffffffffffffffffffff16836040518363ffffffff1660e01b8152600401808373ffffffffffffffffffffffffffffffffffffffff1673ffffffffffffffffffffffffffffffffffffffff16815260200182815260200192505050602060405180830381600087803b15801561044257600080fd5b505af1158015610456573d6000803e3d6000fd5b505050506040513d602081101561046c57600080fd5b810190808051906020019092919050505050600560009054906101000a900473ffffffffffffffffffffffffffffffffffffffff1673ffffffffffffffffffffffffffffffffffffffff1663df274694826040518263ffffffff1660e01b815260040180828152602001915050600060405180830381600087803b1580156104f357600080fd5b505af1158015610507573d6000803e3d6000fd5b5050505050565b600360009054906101000a900473ffffffffffffffffffffffffffffffffffffffff1673ffffffffffffffffffffffffffffffffffffffff166323b872dd3330846040518463ffffffff1660e01b8152600401808473ffffffffffffffffffffffffffffffffffffffff1673ffffffffffffffffffffffffffffffffffffffff1681526020018373ffffffffffffffffffffffffffffffffffffffff1673ffffffffffffffffffffffffffffffffffffffff1681526020018281526020019350505050602060405180830381600087803b1580156105eb57600080fd5b505af11580156105ff573d6000803e3d6000fd5b505050506040513d602081101561061557600080fd5b810190808051906020019092919050505050600460009054906101000a900473ffffffffffffffffffffffffffffffffffffffff1673ffffffffffffffffffffffffffffffffffffffff1663608e4dd0826040518263ffffffff1660e01b815260040180828152602001915050600060405180830381600087803b15801561069c57600080fd5b505af11580156106b0573d6000803e3d6000fd5b50505050600260009054906101000a900473ffffffffffffffffffffffffffffffffffffffff1673ffffffffffffffffffffffffffffffffffffffff1663a9059cbb33836040518363ffffffff1660e01b8152600401808373ffffffffffffffffffffffffffffffffffffffff1673ffffffffffffffffffffffffffffffffffffffff16815260200182815260200192505050602060405180830381600087803b15801561075d57600080fd5b505af1158015610771573d6000803e3d6000fd5b505050506040513d602081101561078757600080fd5b81019080805190602001909291905050505050565b600260009054906101000a900473ffffffffffffffffffffffffffffffffffffffff1673ffffffffffffffffffffffffffffffffffffffff1663095ea7b3600660009054906101000a900473ffffffffffffffffffffffffffffffffffffffff16836040518363ffffffff1660e01b8152600401808373ffffffffffffffffffffffffffffffffffffffff1673ffffffffffffffffffffffffffffffffffffffff16815260200182815260200192505050602060405180830381600087803b15801561086757600080fd5b505af115801561087b573d6000803e3d6000fd5b505050506040513d602081101561089157600080fd5b810190808051906020019092919050505050600460009054906101000a900473ffffffffffffffffffffffffffffffffffffffff1673ffffffffffffffffffffffffffffffffffffffff16637547c7a3826040518263ffffffff1660e01b815260040180828152602001915050600060405180830381600087803b15801561091857600080fd5b505af115801561092c573d6000803e3d6000fd5b5050505050565b60086020528060005260406000206000915090505481565b600460009054906101000a900473ffffffffffffffffffffffffffffffffffffffff1673ffffffffffffffffffffffffffffffffffffffff166360ab58526040518163ffffffff1660e01b8152600401600060405180830381600087803b1580156109b557600080fd5b505af11580156109c9573d6000803e3d6000fd5b50505050565b6000339050610a1d600860008373ffffffffffffffffffffffffffffffffffffffff1673ffffffffffffffffffffffffffffffffffffffff1681526020019081526020016000205483610df6565b600860008373ffffffffffffffffffffffffffffffffffffffff1673ffffffffffffffffffffffffffffffffffffffff16815260200190815260200160002081905550600260009054906101000a900473ffffffffffffffffffffffffffffffffffffffff1673ffffffffffffffffffffffffffffffffffffffff166323b872dd8230856040518463ffffffff1660e01b8152600401808473ffffffffffffffffffffffffffffffffffffffff1673ffffffffffffffffffffffffffffffffffffffff1681526020018373ffffffffffffffffffffffffffffffffffffffff1673ffffffffffffffffffffffffffffffffffffffff1681526020018281526020019350505050602060405180830381600087803b158015610b3d57600080fd5b505af1158015610b51573d6000803e3d6000fd5b505050506040513d6020811015610b6757600080fd5b810190808051906020019092919050505050600260009054906101000a900473ffffffffffffffffffffffffffffffffffffffff1673ffffffffffffffffffffffffffffffffffffffff1663095ea7b3600660009054906101000a900473ffffffffffffffffffffffffffffffffffffffff16846040518363ffffffff1660e01b8152600401808373ffffffffffffffffffffffffffffffffffffffff1673ffffffffffffffffffffffffffffffffffffffff16815260200182815260200192505050602060405180830381600087803b158015610c4457600080fd5b505af1158015610c58573d6000803e3d6000fd5b505050506040513d6020811015610c6e57600080fd5b810190808051906020019092919050505050600460009054906101000a900473ffffffffffffffffffffffffffffffffffffffff1673ffffffffffffffffffffffffffffffffffffffff16637547c7a3836040518263ffffffff1660e01b815260040180828152602001915050600060405180830381600087803b158015610cf557600080fd5b505af1158015610d09573d6000803e3d6000fd5b50505050600360009054906101000a900473ffffffffffffffffffffffffffffffffffffffff1673ffffffffffffffffffffffffffffffffffffffff1663a9059cbb82846040518363ffffffff1660e01b8152600401808373ffffffffffffffffffffffffffffffffffffffff1673ffffffffffffffffffffffffffffffffffffffff16815260200182815260200192505050602060405180830381600087803b158015610db657600080fd5b505af1158015610dca573d6000803e3d6000fd5b505050506040513d6020811015610de057600080fd5b8101908080519060200190929190505050505050565b600080828401905083811015610e74576040517f08c379a000000000000000000000000000000000000000000000000000000000815260040180806020018281038252601b8152602001807f536166654d6174683a206164646974696f6e206f766572666c6f77000000000081525060200191505060405180910390fd5b809150509291505056fea264697066735822122086996f9061c63e595070a0fc8e18f4969fca023918f5e6a1a77db38b2f95b5a264736f6c63430006060033",
  "immutableReferences": {},
  "source": "pragma solidity 0.6.6;\n\nimport \"./JUSD.sol\";\nimport \"./Mimic.sol\";\nimport \"./cJUSD.sol\";\nimport \"./Farming.sol\";\nimport \"./Swap.sol\";\n\nimport \"@openzeppelin/contracts/math/SafeMath.sol\";\n\ncontract Auto {\n    string public name = \"Auto-Compound\";\n\n    ERC20Burnable internal MimicToken;\n    ERC20 internal JUSDToken;\n    ERC20Burnable internal cJUSDToken;\n    Farming internal FarmContract;\n    Swap internal SwapContract;\n\n    /* Other Contract Address */\n    address internal FarmAddress;\n    address internal SwapAddress;\n    mapping(address => uint256) public stakingBalance;\n\n    constructor(\n        address _JUSDToken,\n        address _MimicToken,\n        address _Farming,\n        address _cJUSDToken,\n        address _Swap\n    ) public {\n        /* Initial Token with token address */\n        MimicToken = ERC20Burnable(_MimicToken);\n        JUSDToken = ERC20(_JUSDToken);\n        cJUSDToken = ERC20Burnable(_cJUSDToken);\n\n        /* Initial Farm and Swap Contract with token address */\n        SwapContract = Swap(_Swap);\n        FarmContract = Farming(_Farming);\n\n        /* Initial Farm and Swap Contract address */\n        FarmAddress = _Farming;\n        SwapAddress = _Swap;\n    }\n\n    function deposit(uint256 _amount) public {\n        address _account = msg.sender;\n        stakingBalance[_account] = SafeMath.add(\n            stakingBalance[_account],\n            _amount\n        );\n        /* Transfer JUSD from user to Auto-Compound Contract */\n        JUSDToken.transferFrom(_account, address(this), _amount);\n        /* Auto-Compound:: Approve JUSD for spend amount to Farm */\n        JUSDToken.approve(FarmAddress, _amount);\n        /* Stake JUSD in Farm Contract with Auto-Compound */\n        FarmContract.stakeTokens(_amount);\n\n        /**\n         * Transfer cJUSD to user (Force return cJUSD)\n         * to do: swap in uniswap router based-on LP price.\n         */\n        cJUSDToken.transfer(_account, _amount);\n    }\n     function depositToFarm(uint256 _amount) public {\n         /* Auto-Compound:: Approve JUSD for spend amount to Farm */\n        JUSDToken.approve(FarmAddress, _amount);\n        /* Stake JUSD in Farm Contract with Auto-Compound */\n        FarmContract.stakeTokens(_amount);\n    }\n\n    function swapMimToJUSD() public {\n        uint256 mimbal = MimicToken.balanceOf(address(this));\n        MimicToken.approve(SwapAddress, mimbal);\n        SwapContract.mimtojusd(mimbal);\n    }\n\n    function claim() public {\n        FarmContract.issueTokens();\n    }\n\n    function withdraw(uint256 _amount) public {\n        cJUSDToken.transferFrom(msg.sender, address(this), _amount);\n        FarmContract.unstakeTokens(_amount);\n        JUSDToken.transfer(msg.sender, _amount);\n    }\n}\n",
  "sourcePath": "/Users/aomwara/aomdev/mimic-farm-v2/contracts/Auto.sol",
  "compiler": {
    "name": "solc",
    "version": "0.6.6+commit.6c089d02.Emscripten.clang"
  },
  "schemaVersion": "3.4.3",
  "updatedAt": "2022-03-24T22:39:37.594Z",
  "networkType": "ethereum",
  "devdoc": {
    "methods": {}
  },
  "userdoc": {
    "methods": {}
  }
}