{
  "contractName": "Auto",
  "abi": [
    {
      "inputs": [
        {
          "internalType": "address",
          "name": "_JUSDToken",
          "type": "address"
        },
        {
          "internalType": "address",
          "name": "_MimicToken",
          "type": "address"
        },
        {
          "internalType": "address",
          "name": "_Farming",
          "type": "address"
        },
        {
          "internalType": "address",
          "name": "_cJUSDToken",
          "type": "address"
        },
        {
          "internalType": "address",
          "name": "_Swap",
          "type": "address"
        }
      ],
      "stateMutability": "nonpayable",
      "type": "constructor"
    },
    {
      "inputs": [],
      "name": "name",
      "outputs": [
        {
          "internalType": "string",
          "name": "",
          "type": "string"
        }
      ],
      "stateMutability": "view",
      "type": "function"
    },
    {
      "inputs": [
        {
          "internalType": "address",
          "name": "",
          "type": "address"
        }
      ],
      "name": "stakingBalance",
      "outputs": [
        {
          "internalType": "uint256",
          "name": "",
          "type": "uint256"
        }
      ],
      "stateMutability": "view",
      "type": "function"
    },
    {
      "inputs": [
        {
          "internalType": "uint256",
          "name": "_amount",
          "type": "uint256"
        },
        {
          "internalType": "address",
          "name": "_token",
          "type": "address"
        }
      ],
      "name": "deposit",
      "outputs": [],
      "stateMutability": "nonpayable",
      "type": "function"
    },
    {
      "inputs": [
        {
          "internalType": "uint256",
          "name": "_amount",
          "type": "uint256"
        },
        {
          "internalType": "address",
          "name": "_token",
          "type": "address"
        }
      ],
      "name": "depositToFarm",
      "outputs": [],
      "stateMutability": "nonpayable",
      "type": "function"
    },
    {
      "inputs": [],
      "name": "swapMimToJUSD",
      "outputs": [],
      "stateMutability": "nonpayable",
      "type": "function"
    },
    {
      "inputs": [
        {
          "internalType": "address",
          "name": "_token",
          "type": "address"
        }
      ],
      "name": "claim",
      "outputs": [],
      "stateMutability": "nonpayable",
      "type": "function"
    },
    {
      "inputs": [
        {
          "internalType": "uint256",
          "name": "_amount",
          "type": "uint256"
        },
        {
          "internalType": "address",
          "name": "_token",
          "type": "address"
        }
      ],
      "name": "withdraw",
      "outputs": [],
      "stateMutability": "nonpayable",
      "type": "function"
    },
    {
      "inputs": [],
      "name": "getcJUSDBalance",
      "outputs": [
        {
          "internalType": "uint256",
          "name": "",
          "type": "uint256"
        }
      ],
      "stateMutability": "nonpayable",
      "type": "function"
    },
    {
      "inputs": [],
      "name": "getJUSDBalance",
      "outputs": [
        {
          "internalType": "uint256",
          "name": "",
          "type": "uint256"
        }
      ],
      "stateMutability": "nonpayable",
      "type": "function"
    }
  ],
  "bytecode": "0x60806040526040518060400160405280600d81526020017f4175746f2d436f6d706f756e6400000000000000000000000000000000000000815250600090805190602001906200005192919062000290565b503480156200005f57600080fd5b506040516200158c3803806200158c833981810160405260a08110156200008557600080fd5b81019080805190602001909291908051906020019092919080519060200190929190805190602001909291908051906020019092919050505083600160006101000a81548173ffffffffffffffffffffffffffffffffffffffff021916908373ffffffffffffffffffffffffffffffffffffffff16021790555084600260006101000a81548173ffffffffffffffffffffffffffffffffffffffff021916908373ffffffffffffffffffffffffffffffffffffffff16021790555081600360006101000a81548173ffffffffffffffffffffffffffffffffffffffff021916908373ffffffffffffffffffffffffffffffffffffffff16021790555080600560006101000a81548173ffffffffffffffffffffffffffffffffffffffff021916908373ffffffffffffffffffffffffffffffffffffffff16021790555082600460006101000a81548173ffffffffffffffffffffffffffffffffffffffff021916908373ffffffffffffffffffffffffffffffffffffffff16021790555082600660006101000a81548173ffffffffffffffffffffffffffffffffffffffff021916908373ffffffffffffffffffffffffffffffffffffffff16021790555080600760006101000a81548173ffffffffffffffffffffffffffffffffffffffff021916908373ffffffffffffffffffffffffffffffffffffffff16021790555050505050506200033f565b828054600181600116156101000203166002900490600052602060002090601f016020900481019282601f10620002d357805160ff191683800117855562000304565b8280016001018555821562000304579182015b8281111562000303578251825591602001919060010190620002e6565b5b50905062000313919062000317565b5090565b6200033c91905b80821115620003385760008160009055506001016200031e565b5090565b90565b61123d806200034f6000396000f3fe608060405234801561001057600080fd5b50600436106100915760003560e01c8063127dab3911610066578063127dab391461018f5780631e83409a146101ad578063458169a5146101f157806345bc78ab1461023f5780636e553f651461029757610091565b8062c2a24b14610096578062f714ce146100b457806306fdde03146101025780630778240914610185575b600080fd5b61009e6102e5565b6040518082815260200191505060405180910390f35b610100600480360360408110156100ca57600080fd5b8101908080359060200190929190803573ffffffffffffffffffffffffffffffffffffffff1690602001909291905050506103c6565b005b61010a61068f565b6040518080602001828103825283818151815260200191508051906020019080838360005b8381101561014a57808201518184015260208101905061012f565b50505050905090810190601f1680156101775780820380516001836020036101000a031916815260200191505b509250505060405180910390f35b61018d61072d565b005b6101976109a2565b6040518082815260200191505060405180910390f35b6101ef600480360360208110156101c357600080fd5b81019080803573ffffffffffffffffffffffffffffffffffffffff169060200190929190505050610a83565b005b61023d6004803603604081101561020757600080fd5b8101908080359060200190929190803573ffffffffffffffffffffffffffffffffffffffff169060200190929190505050610b3f565b005b6102816004803603602081101561025557600080fd5b81019080803573ffffffffffffffffffffffffffffffffffffffff169060200190929190505050610d0b565b6040518082815260200191505060405180910390f35b6102e3600480360360408110156102ad57600080fd5b8101908080359060200190929190803573ffffffffffffffffffffffffffffffffffffffff169060200190929190505050610d23565b005b6000600360009054906101000a900473ffffffffffffffffffffffffffffffffffffffff1673ffffffffffffffffffffffffffffffffffffffff166370a08231306040518263ffffffff1660e01b8152600401808273ffffffffffffffffffffffffffffffffffffffff1673ffffffffffffffffffffffffffffffffffffffff16815260200191505060206040518083038186803b15801561038657600080fd5b505afa15801561039a573d6000803e3d6000fd5b505050506040513d60208110156103b057600080fd5b8101908080519060200190929190505050905090565b6000339050600360009054906101000a900473ffffffffffffffffffffffffffffffffffffffff1673ffffffffffffffffffffffffffffffffffffffff166323b872dd8230866040518463ffffffff1660e01b8152600401808473ffffffffffffffffffffffffffffffffffffffff1673ffffffffffffffffffffffffffffffffffffffff1681526020018373ffffffffffffffffffffffffffffffffffffffff1673ffffffffffffffffffffffffffffffffffffffff1681526020018281526020019350505050602060405180830381600087803b1580156104a857600080fd5b505af11580156104bc573d6000803e3d6000fd5b505050506040513d60208110156104d257600080fd5b810190808051906020019092919050505050600460009054906101000a900473ffffffffffffffffffffffffffffffffffffffff1673ffffffffffffffffffffffffffffffffffffffff166384d269ad84846040518363ffffffff1660e01b8152600401808381526020018273ffffffffffffffffffffffffffffffffffffffff1673ffffffffffffffffffffffffffffffffffffffff16815260200192505050600060405180830381600087803b15801561058d57600080fd5b505af11580156105a1573d6000803e3d6000fd5b50505050600260009054906101000a900473ffffffffffffffffffffffffffffffffffffffff1673ffffffffffffffffffffffffffffffffffffffff1663a9059cbb82856040518363ffffffff1660e01b8152600401808373ffffffffffffffffffffffffffffffffffffffff1673ffffffffffffffffffffffffffffffffffffffff16815260200182815260200192505050602060405180830381600087803b15801561064e57600080fd5b505af1158015610662573d6000803e3d6000fd5b505050506040513d602081101561067857600080fd5b810190808051906020019092919050505050505050565b60008054600181600116156101000203166002900480601f0160208091040260200160405190810160405280929190818152602001828054600181600116156101000203166002900480156107255780601f106106fa57610100808354040283529160200191610725565b820191906000526020600020905b81548152906001019060200180831161070857829003601f168201915b505050505081565b6000600160009054906101000a900473ffffffffffffffffffffffffffffffffffffffff1673ffffffffffffffffffffffffffffffffffffffff166370a08231306040518263ffffffff1660e01b8152600401808273ffffffffffffffffffffffffffffffffffffffff1673ffffffffffffffffffffffffffffffffffffffff16815260200191505060206040518083038186803b1580156107ce57600080fd5b505afa1580156107e2573d6000803e3d6000fd5b505050506040513d60208110156107f857600080fd5b81019080805190602001909291905050509050600160009054906101000a900473ffffffffffffffffffffffffffffffffffffffff1673ffffffffffffffffffffffffffffffffffffffff1663095ea7b3600760009054906101000a900473ffffffffffffffffffffffffffffffffffffffff16836040518363ffffffff1660e01b8152600401808373ffffffffffffffffffffffffffffffffffffffff1673ffffffffffffffffffffffffffffffffffffffff16815260200182815260200192505050602060405180830381600087803b1580156108d657600080fd5b505af11580156108ea573d6000803e3d6000fd5b505050506040513d602081101561090057600080fd5b810190808051906020019092919050505050600560009054906101000a900473ffffffffffffffffffffffffffffffffffffffff1673ffffffffffffffffffffffffffffffffffffffff1663df274694826040518263ffffffff1660e01b815260040180828152602001915050600060405180830381600087803b15801561098757600080fd5b505af115801561099b573d6000803e3d6000fd5b5050505050565b6000600260009054906101000a900473ffffffffffffffffffffffffffffffffffffffff1673ffffffffffffffffffffffffffffffffffffffff166370a08231306040518263ffffffff1660e01b8152600401808273ffffffffffffffffffffffffffffffffffffffff1673ffffffffffffffffffffffffffffffffffffffff16815260200191505060206040518083038186803b158015610a4357600080fd5b505afa158015610a57573d6000803e3d6000fd5b505050506040513d6020811015610a6d57600080fd5b8101908080519060200190929190505050905090565b600460009054906101000a900473ffffffffffffffffffffffffffffffffffffffff1673ffffffffffffffffffffffffffffffffffffffff16633ff54c71826040518263ffffffff1660e01b8152600401808273ffffffffffffffffffffffffffffffffffffffff1673ffffffffffffffffffffffffffffffffffffffff168152602001915050600060405180830381600087803b158015610b2457600080fd5b505af1158015610b38573d6000803e3d6000fd5b5050505050565b600260009054906101000a900473ffffffffffffffffffffffffffffffffffffffff1673ffffffffffffffffffffffffffffffffffffffff1663095ea7b3600660009054906101000a900473ffffffffffffffffffffffffffffffffffffffff16846040518363ffffffff1660e01b8152600401808373ffffffffffffffffffffffffffffffffffffffff1673ffffffffffffffffffffffffffffffffffffffff16815260200182815260200192505050602060405180830381600087803b158015610c0a57600080fd5b505af1158015610c1e573d6000803e3d6000fd5b505050506040513d6020811015610c3457600080fd5b810190808051906020019092919050505050600460009054906101000a900473ffffffffffffffffffffffffffffffffffffffff1673ffffffffffffffffffffffffffffffffffffffff16630bea440d83836040518363ffffffff1660e01b8152600401808381526020018273ffffffffffffffffffffffffffffffffffffffff1673ffffffffffffffffffffffffffffffffffffffff16815260200192505050600060405180830381600087803b158015610cef57600080fd5b505af1158015610d03573d6000803e3d6000fd5b505050505050565b60086020528060005260406000206000915090505481565b6000339050610d71600860008373ffffffffffffffffffffffffffffffffffffffff1673ffffffffffffffffffffffffffffffffffffffff168152602001908152602001600020548461117f565b600860008373ffffffffffffffffffffffffffffffffffffffff1673ffffffffffffffffffffffffffffffffffffffff16815260200190815260200160002081905550600260009054906101000a900473ffffffffffffffffffffffffffffffffffffffff1673ffffffffffffffffffffffffffffffffffffffff166323b872dd8230866040518463ffffffff1660e01b8152600401808473ffffffffffffffffffffffffffffffffffffffff1673ffffffffffffffffffffffffffffffffffffffff1681526020018373ffffffffffffffffffffffffffffffffffffffff1673ffffffffffffffffffffffffffffffffffffffff1681526020018281526020019350505050602060405180830381600087803b158015610e9157600080fd5b505af1158015610ea5573d6000803e3d6000fd5b505050506040513d6020811015610ebb57600080fd5b810190808051906020019092919050505050600260009054906101000a900473ffffffffffffffffffffffffffffffffffffffff1673ffffffffffffffffffffffffffffffffffffffff1663095ea7b3600660009054906101000a900473ffffffffffffffffffffffffffffffffffffffff16856040518363ffffffff1660e01b8152600401808373ffffffffffffffffffffffffffffffffffffffff1673ffffffffffffffffffffffffffffffffffffffff16815260200182815260200192505050602060405180830381600087803b158015610f9857600080fd5b505af1158015610fac573d6000803e3d6000fd5b505050506040513d6020811015610fc257600080fd5b810190808051906020019092919050505050600460009054906101000a900473ffffffffffffffffffffffffffffffffffffffff1673ffffffffffffffffffffffffffffffffffffffff16630bea440d84846040518363ffffffff1660e01b8152600401808381526020018273ffffffffffffffffffffffffffffffffffffffff1673ffffffffffffffffffffffffffffffffffffffff16815260200192505050600060405180830381600087803b15801561107d57600080fd5b505af1158015611091573d6000803e3d6000fd5b50505050600360009054906101000a900473ffffffffffffffffffffffffffffffffffffffff1673ffffffffffffffffffffffffffffffffffffffff1663a9059cbb82856040518363ffffffff1660e01b8152600401808373ffffffffffffffffffffffffffffffffffffffff1673ffffffffffffffffffffffffffffffffffffffff16815260200182815260200192505050602060405180830381600087803b15801561113e57600080fd5b505af1158015611152573d6000803e3d6000fd5b505050506040513d602081101561116857600080fd5b810190808051906020019092919050505050505050565b6000808284019050838110156111fd576040517f08c379a000000000000000000000000000000000000000000000000000000000815260040180806020018281038252601b8152602001807f536166654d6174683a206164646974696f6e206f766572666c6f77000000000081525060200191505060405180910390fd5b809150509291505056fea2646970667358221220e99380e2db92cc4613d2fdbac481e052840b20585c34092dd16ef14c5485312b64736f6c63430006060033",
  "immutableReferences": {},
  "source": "pragma solidity 0.6.6;\r\n\r\nimport \"./JUSD.sol\";\r\nimport \"./Mimic.sol\";\r\nimport \"./cJUSD.sol\";\r\nimport \"./Farming.sol\";\r\nimport \"./Swap.sol\";\r\n\r\nimport \"@openzeppelin/contracts/math/SafeMath.sol\";\r\n\r\ncontract Auto {\r\n    string public name = \"Auto-Compound\";\r\n\r\n    ERC20Burnable internal MimicToken;\r\n    ERC20 internal JUSDToken;\r\n    ERC20Burnable internal cJUSDToken;\r\n    Farming internal FarmContract;\r\n    Swap internal SwapContract;\r\n\r\n    /* Other Contract Address */\r\n    address internal FarmAddress;\r\n    address internal SwapAddress;\r\n    mapping(address => uint256) public stakingBalance;\r\n\r\n    constructor(\r\n        address _JUSDToken,\r\n        address _MimicToken,\r\n        address _Farming,\r\n        address _cJUSDToken,\r\n        address _Swap\r\n    ) public {\r\n        /* Initial Token with token address */\r\n        MimicToken = ERC20Burnable(_MimicToken);\r\n        JUSDToken = ERC20(_JUSDToken);\r\n        cJUSDToken = ERC20Burnable(_cJUSDToken);\r\n\r\n        /* Initial Farm and Swap Contract with token address */\r\n        SwapContract = Swap(_Swap);\r\n        FarmContract = Farming(_Farming);\r\n\r\n        /* Initial Farm and Swap Contract address */\r\n        FarmAddress = _Farming;\r\n        SwapAddress = _Swap;\r\n    }\r\n\r\n    function deposit(uint256 _amount , address _token) public {\r\n        address _account = msg.sender;\r\n        stakingBalance[_account] = SafeMath.add(\r\n            stakingBalance[_account],\r\n            _amount\r\n        );\r\n        /* Transfer JUSD from user to Auto-Compound Contract */\r\n        JUSDToken.transferFrom(_account, address(this), _amount);\r\n        /* Auto-Compound:: Approve JUSD for spend amount to Farm */\r\n        JUSDToken.approve(FarmAddress, _amount);\r\n        /* Stake JUSD in Farm Contract with Auto-Compound */\r\n        FarmContract.stakeTokens(_amount, _token);\r\n\r\n        /**\r\n         * Transfer cJUSD to user (Force return cJUSD)\r\n         * to do: swap in uniswap router based-on LP price.\r\n         */\r\n        cJUSDToken.transfer(_account, _amount);\r\n    }\r\n\r\n    function depositToFarm(uint256 _amount , address _token) public {\r\n        /* Auto-Compound:: Approve JUSD for spend amount to Farm */\r\n        JUSDToken.approve(FarmAddress, _amount);\r\n        /* Stake JUSD in Farm Contract with Auto-Compound */\r\n        FarmContract.stakeTokens(_amount , _token);\r\n    }\r\n\r\n    function swapMimToJUSD() public {\r\n        uint256 mimbal = MimicToken.balanceOf(address(this));\r\n        MimicToken.approve(SwapAddress, mimbal);\r\n        SwapContract.mimtojusd(mimbal);\r\n    }\r\n\r\n    function claim(address _token) public {\r\n        FarmContract.issueTokens(_token);\r\n    }\r\n\r\n    function withdraw(uint256 _amount , address _token) public {\r\n        address _account = msg.sender;\r\n        cJUSDToken.transferFrom(_account, address(this), _amount);\r\n        FarmContract.unstakeTokens(_amount , _token);\r\n        JUSDToken.transfer(_account, _amount);\r\n    }\r\n\r\n    function getcJUSDBalance() public returns (uint256) {\r\n        return cJUSDToken.balanceOf(address(this));\r\n    }\r\n\r\n    function getJUSDBalance() public returns (uint256) {\r\n        return JUSDToken.balanceOf(address(this));\r\n    }\r\n}\r\n",
  "sourcePath": "/mnt/c/Users/PUNNAWICHSILPKITCHAR/desktop/dev-mimic/mimic-farm-v2/contracts/Auto.sol",
  "compiler": {
    "name": "solc",
    "version": "0.6.6+commit.6c089d02.Emscripten.clang"
  },
  "schemaVersion": "3.4.6",
  "updatedAt": "2022-04-04T09:47:20.657Z",
  "devdoc": {
    "methods": {}
  },
  "userdoc": {
    "methods": {}
  }
}