{
  "contractName": "Auto",
  "abi": [
    {
      "inputs": [
        {
          "internalType": "address",
          "name": "_JUSDToken",
          "type": "address"
        },
        {
          "internalType": "address",
          "name": "_MimicToken",
          "type": "address"
        },
        {
          "internalType": "address",
          "name": "_Farming",
          "type": "address"
        },
        {
          "internalType": "address",
          "name": "_cJUSDToken",
          "type": "address"
        },
        {
          "internalType": "address",
          "name": "_Swap",
          "type": "address"
        }
      ],
      "stateMutability": "nonpayable",
      "type": "constructor"
    },
    {
      "inputs": [],
      "name": "name",
      "outputs": [
        {
          "internalType": "string",
          "name": "",
          "type": "string"
        }
      ],
      "stateMutability": "view",
      "type": "function",
      "constant": true
    },
    {
      "inputs": [
        {
          "internalType": "uint256",
          "name": "_amount",
          "type": "uint256"
        }
      ],
      "name": "deposit",
      "outputs": [],
      "stateMutability": "nonpayable",
      "type": "function"
    },
    {
      "inputs": [],
      "name": "swapmim",
      "outputs": [],
      "stateMutability": "nonpayable",
      "type": "function"
    },
    {
      "inputs": [],
      "name": "claim",
      "outputs": [],
      "stateMutability": "nonpayable",
      "type": "function"
    }
  ],
  "bytecode": "0x60806040526040518060400160405280600d81526020017f4175746f2d436f6d706f756e64000000000000000000000000000000000000008152506000908051906020019061004f929190610289565b5034801561005c57600080fd5b506040516109ca3803806109ca833981810160405260a081101561007f57600080fd5b81019080805190602001909291908051906020019092919080519060200190929190805190602001909291908051906020019092919050505083600160006101000a81548173ffffffffffffffffffffffffffffffffffffffff021916908373ffffffffffffffffffffffffffffffffffffffff16021790555084600260006101000a81548173ffffffffffffffffffffffffffffffffffffffff021916908373ffffffffffffffffffffffffffffffffffffffff16021790555081600360006101000a81548173ffffffffffffffffffffffffffffffffffffffff021916908373ffffffffffffffffffffffffffffffffffffffff16021790555080600560006101000a81548173ffffffffffffffffffffffffffffffffffffffff021916908373ffffffffffffffffffffffffffffffffffffffff16021790555082600460006101000a81548173ffffffffffffffffffffffffffffffffffffffff021916908373ffffffffffffffffffffffffffffffffffffffff16021790555082600660006101000a81548173ffffffffffffffffffffffffffffffffffffffff021916908373ffffffffffffffffffffffffffffffffffffffff16021790555080600760006101000a81548173ffffffffffffffffffffffffffffffffffffffff021916908373ffffffffffffffffffffffffffffffffffffffff160217905550505050505061032e565b828054600181600116156101000203166002900490600052602060002090601f016020900481019282601f106102ca57805160ff19168380011785556102f8565b828001600101855582156102f8579182015b828111156102f75782518255916020019190600101906102dc565b5b5090506103059190610309565b5090565b61032b91905b8082111561032757600081600090555060010161030f565b5090565b90565b61068d8061033d6000396000f3fe608060405234801561001057600080fd5b506004361061004c5760003560e01c806306fdde03146100515780634e71d92d146100d4578063b6b55f25146100de578063d35f47d31461010c575b600080fd5b610059610116565b6040518080602001828103825283818151815260200191508051906020019080838360005b8381101561009957808201518184015260208101905061007e565b50505050905090810190601f1680156100c65780820380516001836020036101000a031916815260200191505b509250505060405180910390f35b6100dc6101b4565b005b61010a600480360360208110156100f457600080fd5b8101908080359060200190929190505050610238565b005b6101146105d3565b005b60008054600181600116156101000203166002900480601f0160208091040260200160405190810160405280929190818152602001828054600181600116156101000203166002900480156101ac5780601f10610181576101008083540402835291602001916101ac565b820191906000526020600020905b81548152906001019060200180831161018f57829003601f168201915b505050505081565b600460009054906101000a900473ffffffffffffffffffffffffffffffffffffffff1673ffffffffffffffffffffffffffffffffffffffff166360ab58526040518163ffffffff1660e01b8152600401600060405180830381600087803b15801561021e57600080fd5b505af1158015610232573d6000803e3d6000fd5b50505050565b6000339050600260009054906101000a900473ffffffffffffffffffffffffffffffffffffffff1673ffffffffffffffffffffffffffffffffffffffff166323b872dd8230856040518463ffffffff1660e01b8152600401808473ffffffffffffffffffffffffffffffffffffffff1673ffffffffffffffffffffffffffffffffffffffff1681526020018373ffffffffffffffffffffffffffffffffffffffff1673ffffffffffffffffffffffffffffffffffffffff1681526020018281526020019350505050602060405180830381600087803b15801561031a57600080fd5b505af115801561032e573d6000803e3d6000fd5b505050506040513d602081101561034457600080fd5b810190808051906020019092919050505050600260009054906101000a900473ffffffffffffffffffffffffffffffffffffffff1673ffffffffffffffffffffffffffffffffffffffff1663095ea7b3600660009054906101000a900473ffffffffffffffffffffffffffffffffffffffff16846040518363ffffffff1660e01b8152600401808373ffffffffffffffffffffffffffffffffffffffff1673ffffffffffffffffffffffffffffffffffffffff16815260200182815260200192505050602060405180830381600087803b15801561042157600080fd5b505af1158015610435573d6000803e3d6000fd5b505050506040513d602081101561044b57600080fd5b810190808051906020019092919050505050600460009054906101000a900473ffffffffffffffffffffffffffffffffffffffff1673ffffffffffffffffffffffffffffffffffffffff16637547c7a3836040518263ffffffff1660e01b815260040180828152602001915050600060405180830381600087803b1580156104d257600080fd5b505af11580156104e6573d6000803e3d6000fd5b50505050600360009054906101000a900473ffffffffffffffffffffffffffffffffffffffff1673ffffffffffffffffffffffffffffffffffffffff1663a9059cbb82846040518363ffffffff1660e01b8152600401808373ffffffffffffffffffffffffffffffffffffffff1673ffffffffffffffffffffffffffffffffffffffff16815260200182815260200192505050602060405180830381600087803b15801561059357600080fd5b505af11580156105a7573d6000803e3d6000fd5b505050506040513d60208110156105bd57600080fd5b8101908080519060200190929190505050505050565b600460009054906101000a900473ffffffffffffffffffffffffffffffffffffffff1673ffffffffffffffffffffffffffffffffffffffff166360ab58526040518163ffffffff1660e01b8152600401600060405180830381600087803b15801561063d57600080fd5b505af1158015610651573d6000803e3d6000fd5b5050505056fea26469706673582212209882471c178ccd68705bb0d40fc5c4a04e1cce54a2e90689bc36dc549249049264736f6c63430006060033",
  "immutableReferences": {},
  "source": "pragma solidity 0.6.6;\n\nimport \"./JUSD.sol\";\nimport \"./Mimic.sol\";\nimport \"./cJUSD.sol\";\nimport \"./Farming.sol\";\nimport \"./Swap.sol\";\n\ncontract Auto {\n    string public name = \"Auto-Compound\";\n\n    ERC20Burnable internal MimicToken;\n    ERC20 internal JUSDToken;\n    ERC20Burnable internal cJUSDToken;\n    Farming internal FarmContract;\n    Swap internal SwapContract;\n\n    /* Other Contract Address */\n    address internal FarmAddress;\n    address internal SwapAddress;\n\n    constructor(\n        address _JUSDToken,\n        address _MimicToken,\n        address _Farming,\n        address _cJUSDToken,\n        address _Swap\n    ) public {\n        /* Initial Token with token address */\n        MimicToken = ERC20Burnable(_MimicToken);\n        JUSDToken = ERC20(_JUSDToken);\n        cJUSDToken = ERC20Burnable(_cJUSDToken);\n\n        /* Initial Farm and Swap Contract with token address */\n        SwapContract = Swap(_Swap);\n        FarmContract = Farming(_Farming);\n\n        /* Initial Farm and Swap Contract address */\n        FarmAddress = _Farming;\n        SwapAddress = _Swap;\n    }\n\n    function deposit(uint256 _amount) public {\n        address _account = msg.sender;\n        /* Transfer JUSD from user to Auto-Compound Contract */\n        JUSDToken.transferFrom(_account, address(this), _amount);\n        /* Auto-Compound:: Approve JUSD for spend amount to Farm */\n        JUSDToken.approve(FarmAddress, _amount);\n        /* Stake JUSD in Farm Contract with Auto-Compound */\n        FarmContract.stakeTokens(_amount);\n\n        /**\n         * Transfer cJUSD to user (Force return cJUSD)\n         * to do: swap in uniswap router based-on LP price.\n         */\n        cJUSDToken.transfer(_account, _amount);\n    }\n\n    function swapmim() public {\n        FarmContract.issueTokens();\n        // uint256 mimbal = MimicToken.balanceOf(address(this));\n        // MimicToken.approve(adrswap, mimbal);\n        //swapp.mimtojusd(mimbal);\n    }\n\n    function claim() public {\n        FarmContract.issueTokens();\n    }\n}\n",
  "sourcePath": "/Users/aomwara/aomdev/mimic-farm-v2/contracts/Auto.sol",
  "compiler": {
    "name": "solc",
    "version": "0.6.6+commit.6c089d02.Emscripten.clang"
  },
  "schemaVersion": "3.4.3",
  "updatedAt": "2022-03-23T22:50:49.519Z",
  "networkType": "ethereum",
  "devdoc": {
    "methods": {}
  },
  "userdoc": {
    "methods": {}
  }
}