{
  "contractName": "Dex",
  "abi": [
    {
      "inputs": [],
      "stateMutability": "payable",
      "type": "constructor",
      "payable": true
    },
    {
      "inputs": [],
      "name": "name",
      "outputs": [
        {
          "internalType": "string",
          "name": "",
          "type": "string"
        }
      ],
      "stateMutability": "view",
      "type": "function",
      "constant": true
    },
    {
      "inputs": [],
      "name": "uniswapRouter",
      "outputs": [
        {
          "internalType": "contract IUniswapV2Router02",
          "name": "",
          "type": "address"
        }
      ],
      "stateMutability": "view",
      "type": "function",
      "constant": true
    },
    {
      "inputs": [
        {
          "internalType": "uint256",
          "name": "ethAmount",
          "type": "uint256"
        }
      ],
      "name": "swapEthForUSDC",
      "outputs": [],
      "stateMutability": "payable",
      "type": "function",
      "payable": true
    },
    {
      "inputs": [
        {
          "internalType": "uint256",
          "name": "tokenAmount",
          "type": "uint256"
        }
      ],
      "name": "swapUSDCForEth",
      "outputs": [],
      "stateMutability": "payable",
      "type": "function",
      "payable": true
    },
    {
      "inputs": [
        {
          "internalType": "uint256",
          "name": "tokenAmount",
          "type": "uint256"
        },
        {
          "internalType": "address",
          "name": "_account",
          "type": "address"
        },
        {
          "internalType": "address",
          "name": "_address",
          "type": "address"
        }
      ],
      "name": "swapTokenForEth",
      "outputs": [],
      "stateMutability": "payable",
      "type": "function",
      "payable": true
    }
  ],
  "bytecode": "0x60806040526040518060400160405280600381526020017f44657800000000000000000000000000000000000000000000000000000000008152506000908051906020019062000051929190620000ad565b50737a250d5630b4cf539739df2c5dacb4c659f2488d600160006101000a81548173ffffffffffffffffffffffffffffffffffffffff021916908373ffffffffffffffffffffffffffffffffffffffff1602179055506200015c565b828054600181600116156101000203166002900490600052602060002090601f016020900481019282601f10620000f057805160ff191683800117855562000121565b8280016001018555821562000121579182015b828111156200012057825182559160200191906001019062000103565b5b50905062000130919062000134565b5090565b6200015991905b80821115620001555760008160009055506001016200013b565b5090565b90565b6114e6806200016c6000396000f3fe60806040526004361061004a5760003560e01c806306fdde031461004f5780632190ca99146100df5780632cbea2b01461014d578063735de9f71461017b578063c52280aa146101d2575b600080fd5b34801561005b57600080fd5b50610064610200565b6040518080602001828103825283818151815260200191508051906020019080838360005b838110156100a4578082015181840152602081019050610089565b50505050905090810190601f1680156100d15780820380516001836020036101000a031916815260200191505b509250505060405180910390f35b61014b600480360360608110156100f557600080fd5b8101908080359060200190929190803573ffffffffffffffffffffffffffffffffffffffff169060200190929190803573ffffffffffffffffffffffffffffffffffffffff16906020019092919050505061029e565b005b6101796004803603602081101561016357600080fd5b8101908080359060200190929190505050610831565b005b34801561018757600080fd5b50610190610bc5565b604051808273ffffffffffffffffffffffffffffffffffffffff1673ffffffffffffffffffffffffffffffffffffffff16815260200191505060405180910390f35b6101fe600480360360208110156101e857600080fd5b8101908080359060200190929190505050610beb565b005b60008054600181600116156101000203166002900480601f0160208091040260200160405190810160405280929190818152602001828054600181600116156101000203166002900480156102965780601f1061026b57610100808354040283529160200191610296565b820191906000526020600020905b81548152906001019060200180831161027957829003601f168201915b505050505081565b600060964201905060606102b061117c565b90506000600160009054906101000a900473ffffffffffffffffffffffffffffffffffffffff1673ffffffffffffffffffffffffffffffffffffffff1663d06ca61f87846040518363ffffffff1660e01b81526004018083815260200180602001828103825283818151815260200191508051906020019060200280838360005b8381101561034c578082015181840152602081019050610331565b50505050905001935050505060006040518083038186803b15801561037057600080fd5b505afa158015610384573d6000803e3d6000fd5b505050506040513d6000823e3d601f19601f8201168201806040525060208110156103ae57600080fd5b81019080805160405193929190846401000000008211156103ce57600080fd5b838201915060208201858111156103e457600080fd5b825186602082028301116401000000008211171561040157600080fd5b8083526020830192505050908051906020019060200280838360005b8381101561043857808201518184015260208101905061041d565b5050505090500160405250505060018151811061045157fe5b6020026020010151905073a0b86991c6218b36c1d19d4a2e9eb0ce3606eb4873ffffffffffffffffffffffffffffffffffffffff166323b872dd8630896040518463ffffffff1660e01b8152600401808473ffffffffffffffffffffffffffffffffffffffff1673ffffffffffffffffffffffffffffffffffffffff1681526020018373ffffffffffffffffffffffffffffffffffffffff1673ffffffffffffffffffffffffffffffffffffffff1681526020018281526020019350505050602060405180830381600087803b15801561052a57600080fd5b505af115801561053e573d6000803e3d6000fd5b505050506040513d602081101561055457600080fd5b81019080805190602001909291905050505073a0b86991c6218b36c1d19d4a2e9eb0ce3606eb4873ffffffffffffffffffffffffffffffffffffffff1663095ea7b3737a250d5630b4cf539739df2c5dacb4c659f2488d886040518363ffffffff1660e01b8152600401808373ffffffffffffffffffffffffffffffffffffffff1673ffffffffffffffffffffffffffffffffffffffff16815260200182815260200192505050602060405180830381600087803b15801561061557600080fd5b505af1158015610629573d6000803e3d6000fd5b505050506040513d602081101561063f57600080fd5b810190808051906020019092919050505050600160009054906101000a900473ffffffffffffffffffffffffffffffffffffffff1673ffffffffffffffffffffffffffffffffffffffff166318cbafe587838589886040518663ffffffff1660e01b815260040180868152602001858152602001806020018473ffffffffffffffffffffffffffffffffffffffff1673ffffffffffffffffffffffffffffffffffffffff168152602001838152602001828103825285818151815260200191508051906020019060200280838360005b8381101561072a57808201518184015260208101905061070f565b505050509050019650505050505050600060405180830381600087803b15801561075357600080fd5b505af1158015610767573d6000803e3d6000fd5b505050506040513d6000823e3d601f19601f82011682018060405250602081101561079157600080fd5b81019080805160405193929190846401000000008211156107b157600080fd5b838201915060208201858111156107c757600080fd5b82518660208202830111640100000000821117156107e457600080fd5b8083526020830192505050908051906020019060200280838360005b8381101561081b578082015181840152602081019050610800565b5050505090500160405250505050505050505050565b60006096420190506060610843611316565b90506000600160009054906101000a900473ffffffffffffffffffffffffffffffffffffffff1673ffffffffffffffffffffffffffffffffffffffff1663d06ca61f85846040518363ffffffff1660e01b81526004018083815260200180602001828103825283818151815260200191508051906020019060200280838360005b838110156108df5780820151818401526020810190506108c4565b50505050905001935050505060006040518083038186803b15801561090357600080fd5b505afa158015610917573d6000803e3d6000fd5b505050506040513d6000823e3d601f19601f82011682018060405250602081101561094157600080fd5b810190808051604051939291908464010000000082111561096157600080fd5b8382019150602082018581111561097757600080fd5b825186602082028301116401000000008211171561099457600080fd5b8083526020830192505050908051906020019060200280838360005b838110156109cb5780820151818401526020810190506109b0565b505050509050016040525050506001815181106109e457fe5b60200260200101519050600160009054906101000a900473ffffffffffffffffffffffffffffffffffffffff1673ffffffffffffffffffffffffffffffffffffffff16637ff36ab534838533886040518663ffffffff1660e01b815260040180858152602001806020018473ffffffffffffffffffffffffffffffffffffffff1673ffffffffffffffffffffffffffffffffffffffff168152602001838152602001828103825285818151815260200191508051906020019060200280838360005b83811015610ac1578082015181840152602081019050610aa6565b50505050905001955050505050506000604051808303818588803b158015610ae857600080fd5b505af1158015610afc573d6000803e3d6000fd5b50505050506040513d6000823e3d601f19601f820116820180604052506020811015610b2757600080fd5b8101908080516040519392919084640100000000821115610b4757600080fd5b83820191506020820185811115610b5d57600080fd5b8251866020820283011164010000000082111715610b7a57600080fd5b8083526020830192505050908051906020019060200280838360005b83811015610bb1578082015181840152602081019050610b96565b505050509050016040525050505050505050565b600160009054906101000a900473ffffffffffffffffffffffffffffffffffffffff1681565b60006096420190506060610bfd61117c565b90506000600160009054906101000a900473ffffffffffffffffffffffffffffffffffffffff1673ffffffffffffffffffffffffffffffffffffffff1663d06ca61f85846040518363ffffffff1660e01b81526004018083815260200180602001828103825283818151815260200191508051906020019060200280838360005b83811015610c99578082015181840152602081019050610c7e565b50505050905001935050505060006040518083038186803b158015610cbd57600080fd5b505afa158015610cd1573d6000803e3d6000fd5b505050506040513d6000823e3d601f19601f820116820180604052506020811015610cfb57600080fd5b8101908080516040519392919084640100000000821115610d1b57600080fd5b83820191506020820185811115610d3157600080fd5b8251866020820283011164010000000082111715610d4e57600080fd5b8083526020830192505050908051906020019060200280838360005b83811015610d85578082015181840152602081019050610d6a565b50505050905001604052505050600181518110610d9e57fe5b6020026020010151905073a0b86991c6218b36c1d19d4a2e9eb0ce3606eb4873ffffffffffffffffffffffffffffffffffffffff166323b872dd3330876040518463ffffffff1660e01b8152600401808473ffffffffffffffffffffffffffffffffffffffff1673ffffffffffffffffffffffffffffffffffffffff1681526020018373ffffffffffffffffffffffffffffffffffffffff1673ffffffffffffffffffffffffffffffffffffffff1681526020018281526020019350505050602060405180830381600087803b158015610e7757600080fd5b505af1158015610e8b573d6000803e3d6000fd5b505050506040513d6020811015610ea157600080fd5b81019080805190602001909291905050505073a0b86991c6218b36c1d19d4a2e9eb0ce3606eb4873ffffffffffffffffffffffffffffffffffffffff1663095ea7b3737a250d5630b4cf539739df2c5dacb4c659f2488d866040518363ffffffff1660e01b8152600401808373ffffffffffffffffffffffffffffffffffffffff1673ffffffffffffffffffffffffffffffffffffffff16815260200182815260200192505050602060405180830381600087803b158015610f6257600080fd5b505af1158015610f76573d6000803e3d6000fd5b505050506040513d6020811015610f8c57600080fd5b810190808051906020019092919050505050600160009054906101000a900473ffffffffffffffffffffffffffffffffffffffff1673ffffffffffffffffffffffffffffffffffffffff166318cbafe585838533886040518663ffffffff1660e01b815260040180868152602001858152602001806020018473ffffffffffffffffffffffffffffffffffffffff1673ffffffffffffffffffffffffffffffffffffffff168152602001838152602001828103825285818151815260200191508051906020019060200280838360005b8381101561107757808201518184015260208101905061105c565b505050509050019650505050505050600060405180830381600087803b1580156110a057600080fd5b505af11580156110b4573d6000803e3d6000fd5b505050506040513d6000823e3d601f19601f8201168201806040525060208110156110de57600080fd5b81019080805160405193929190846401000000008211156110fe57600080fd5b8382019150602082018581111561111457600080fd5b825186602082028301116401000000008211171561113157600080fd5b8083526020830192505050908051906020019060200280838360005b8381101561116857808201518184015260208101905061114d565b505050509050016040525050505050505050565b606080600267ffffffffffffffff8111801561119757600080fd5b506040519080825280602002602001820160405280156111c65781602001602082028036833780820191505090505b50905073a0b86991c6218b36c1d19d4a2e9eb0ce3606eb48816000815181106111eb57fe5b602002602001019073ffffffffffffffffffffffffffffffffffffffff16908173ffffffffffffffffffffffffffffffffffffffff1681525050600160009054906101000a900473ffffffffffffffffffffffffffffffffffffffff1673ffffffffffffffffffffffffffffffffffffffff1663ad5c46486040518163ffffffff1660e01b815260040160206040518083038186803b15801561128d57600080fd5b505afa1580156112a1573d6000803e3d6000fd5b505050506040513d60208110156112b757600080fd5b8101908080519060200190929190505050816001815181106112d557fe5b602002602001019073ffffffffffffffffffffffffffffffffffffffff16908173ffffffffffffffffffffffffffffffffffffffff16815250508091505090565b606080600267ffffffffffffffff8111801561133157600080fd5b506040519080825280602002602001820160405280156113605781602001602082028036833780820191505090505b509050600160009054906101000a900473ffffffffffffffffffffffffffffffffffffffff1673ffffffffffffffffffffffffffffffffffffffff1663ad5c46486040518163ffffffff1660e01b815260040160206040518083038186803b1580156113cb57600080fd5b505afa1580156113df573d6000803e3d6000fd5b505050506040513d60208110156113f557600080fd5b81019080805190602001909291905050508160008151811061141357fe5b602002602001019073ffffffffffffffffffffffffffffffffffffffff16908173ffffffffffffffffffffffffffffffffffffffff168152505073a0b86991c6218b36c1d19d4a2e9eb0ce3606eb488160018151811061146f57fe5b602002602001019073ffffffffffffffffffffffffffffffffffffffff16908173ffffffffffffffffffffffffffffffffffffffff1681525050809150509056fea2646970667358221220c7a03571f95826a0b26fc5a9dabb589b35e9a4d1c938190d3e65aed89790803364736f6c63430006060033",
  "immutableReferences": {},
  "source": "pragma solidity 0.6.6;\r\n\r\nimport \"./uniswap/UniswapV2Router02.sol\";\r\n\r\ncontract Dex {\r\n    string public name = \"Dex\";\r\n    address internal constant UNISWAP_V2_ROUTER =\r\n        0x7a250d5630B4cF539739dF2C5dAcb4c659F2488D;\r\n    IUniswapV2Router02 public uniswapRouter;\r\n    address internal constant USDC = 0xA0b86991c6218b36c1d19D4a2e9Eb0cE3606eB48;\r\n\r\n    constructor() public payable {\r\n        uniswapRouter = IUniswapV2Router02(UNISWAP_V2_ROUTER);\r\n    }\r\n\r\n    function swapEthForUSDC(uint256 ethAmount) external payable {\r\n        uint256 deadline = block.timestamp + 150;\r\n        address[] memory path = getEthForUSDCPath();\r\n        uint256 amountOutMin = uniswapRouter.getAmountsOut(ethAmount, path)[1];\r\n        uniswapRouter.swapExactETHForTokens{value: msg.value}(\r\n            amountOutMin,\r\n            path,\r\n            msg.sender,\r\n            deadline\r\n        );\r\n    }\r\n\r\n    function swapUSDCForEth(uint256 tokenAmount) external payable {\r\n        uint256 deadline = block.timestamp + 150;\r\n        address[] memory path = getUSDCForEthPath();\r\n        uint256 amountOutMin = uniswapRouter.getAmountsOut(tokenAmount, path)[\r\n            1\r\n        ];\r\n        IERC20(USDC).transferFrom(msg.sender, address(this), tokenAmount);\r\n        IERC20(USDC).approve(UNISWAP_V2_ROUTER, tokenAmount);\r\n        uniswapRouter.swapExactTokensForETH(\r\n            tokenAmount,\r\n            amountOutMin,\r\n            path,\r\n            msg.sender,\r\n            deadline\r\n        );\r\n    }\r\n\r\n    function swapTokenForEth(\r\n        uint256 tokenAmount,\r\n        address _account,\r\n        address _address\r\n    ) external payable {\r\n        uint256 deadline = block.timestamp + 150;\r\n        address[] memory path = getUSDCForEthPath();\r\n        uint256 amountOutMin = uniswapRouter.getAmountsOut(tokenAmount, path)[\r\n            1\r\n        ];\r\n\r\n        IERC20(USDC).transferFrom(_account, address(this), tokenAmount);\r\n        IERC20(USDC).approve(UNISWAP_V2_ROUTER, tokenAmount);\r\n        uniswapRouter.swapExactTokensForETH(\r\n            tokenAmount,\r\n            amountOutMin,\r\n            path,\r\n            _account,\r\n            deadline\r\n        );\r\n    }\r\n\r\n    function getEthForUSDCPath() private view returns (address[] memory) {\r\n        address[] memory path = new address[](2);\r\n        path[0] = uniswapRouter.WETH();\r\n        path[1] = USDC;\r\n\r\n        return path;\r\n    }\r\n\r\n    function getUSDCForEthPath() private view returns (address[] memory) {\r\n        address[] memory path = new address[](2);\r\n        path[0] = USDC;\r\n        path[1] = uniswapRouter.WETH();\r\n\r\n        return path;\r\n    }\r\n\r\n    function getTokenForEthPath(address _address)\r\n        private\r\n        view\r\n        returns (address[] memory)\r\n    {\r\n        address[] memory path = new address[](2);\r\n        path[0] = _address;\r\n        path[1] = uniswapRouter.WETH();\r\n    }\r\n}\r\n",
  "sourcePath": "D:\\CPE@KMUTT\\Senior-Project\\mimic-farm-v2\\contracts\\Dex.sol",
  "compiler": {
    "name": "solc",
    "version": "0.6.6+commit.6c089d02.Emscripten.clang"
  },
  "schemaVersion": "3.4.5",
  "updatedAt": "2022-03-25T13:07:45.816Z",
  "networkType": "ethereum",
  "devdoc": {
    "methods": {}
  },
  "userdoc": {
    "methods": {}
  }
}