{
  "contractName": "Dex",
  "abi": [
    {
      "inputs": [],
      "stateMutability": "payable",
      "type": "constructor",
      "payable": true
    },
    {
      "inputs": [],
      "name": "name",
      "outputs": [
        {
          "internalType": "string",
          "name": "",
          "type": "string"
        }
      ],
      "stateMutability": "view",
      "type": "function",
      "constant": true
    },
    {
      "inputs": [],
      "name": "uniswapRouter",
      "outputs": [
        {
          "internalType": "contract IUniswapV2Router02",
          "name": "",
          "type": "address"
        }
      ],
      "stateMutability": "view",
      "type": "function",
      "constant": true
    },
    {
      "inputs": [
        {
          "internalType": "uint256",
          "name": "ethAmount",
          "type": "uint256"
        }
      ],
      "name": "swapEthForUSDC",
      "outputs": [],
      "stateMutability": "payable",
      "type": "function",
      "payable": true
    },
    {
      "inputs": [
        {
          "internalType": "uint256",
          "name": "tokenAmount",
          "type": "uint256"
        }
      ],
      "name": "swapUSDCForEth",
      "outputs": [],
      "stateMutability": "payable",
      "type": "function",
      "payable": true
    }
  ],
  "bytecode": "0x60806040526040518060400160405280600381526020017f44657800000000000000000000000000000000000000000000000000000000008152506000908051906020019061004f9291906100aa565b50737a250d5630b4cf539739df2c5dacb4c659f2488d600160006101000a81548173ffffffffffffffffffffffffffffffffffffffff021916908373ffffffffffffffffffffffffffffffffffffffff16021790555061014f565b828054600181600116156101000203166002900490600052602060002090601f016020900481019282601f106100eb57805160ff1916838001178555610119565b82800160010185558215610119579182015b828111156101185782518255916020019190600101906100fd565b5b509050610126919061012a565b5090565b61014c91905b80821115610148576000816000905550600101610130565b5090565b90565b610eda8061015e6000396000f3fe60806040526004361061003f5760003560e01c806306fdde03146100445780632cbea2b0146100d4578063735de9f714610102578063c52280aa14610159575b600080fd5b34801561005057600080fd5b50610059610187565b6040518080602001828103825283818151815260200191508051906020019080838360005b8381101561009957808201518184015260208101905061007e565b50505050905090810190601f1680156100c65780820380516001836020036101000a031916815260200191505b509250505060405180910390f35b610100600480360360208110156100ea57600080fd5b8101908080359060200190929190505050610225565b005b34801561010e57600080fd5b506101176105b9565b604051808273ffffffffffffffffffffffffffffffffffffffff1673ffffffffffffffffffffffffffffffffffffffff16815260200191505060405180910390f35b6101856004803603602081101561016f57600080fd5b81019080803590602001909291905050506105df565b005b60008054600181600116156101000203166002900480601f01602080910402602001604051908101604052809291908181526020018280546001816001161561010002031660029004801561021d5780601f106101f25761010080835404028352916020019161021d565b820191906000526020600020905b81548152906001019060200180831161020057829003601f168201915b505050505081565b60006096420190506060610237610b70565b90506000600160009054906101000a900473ffffffffffffffffffffffffffffffffffffffff1673ffffffffffffffffffffffffffffffffffffffff1663d06ca61f85846040518363ffffffff1660e01b81526004018083815260200180602001828103825283818151815260200191508051906020019060200280838360005b838110156102d35780820151818401526020810190506102b8565b50505050905001935050505060006040518083038186803b1580156102f757600080fd5b505afa15801561030b573d6000803e3d6000fd5b505050506040513d6000823e3d601f19601f82011682018060405250602081101561033557600080fd5b810190808051604051939291908464010000000082111561035557600080fd5b8382019150602082018581111561036b57600080fd5b825186602082028301116401000000008211171561038857600080fd5b8083526020830192505050908051906020019060200280838360005b838110156103bf5780820151818401526020810190506103a4565b505050509050016040525050506001815181106103d857fe5b60200260200101519050600160009054906101000a900473ffffffffffffffffffffffffffffffffffffffff1673ffffffffffffffffffffffffffffffffffffffff16637ff36ab534838533886040518663ffffffff1660e01b815260040180858152602001806020018473ffffffffffffffffffffffffffffffffffffffff1673ffffffffffffffffffffffffffffffffffffffff168152602001838152602001828103825285818151815260200191508051906020019060200280838360005b838110156104b557808201518184015260208101905061049a565b50505050905001955050505050506000604051808303818588803b1580156104dc57600080fd5b505af11580156104f0573d6000803e3d6000fd5b50505050506040513d6000823e3d601f19601f82011682018060405250602081101561051b57600080fd5b810190808051604051939291908464010000000082111561053b57600080fd5b8382019150602082018581111561055157600080fd5b825186602082028301116401000000008211171561056e57600080fd5b8083526020830192505050908051906020019060200280838360005b838110156105a557808201518184015260208101905061058a565b505050509050016040525050505050505050565b600160009054906101000a900473ffffffffffffffffffffffffffffffffffffffff1681565b600060964201905060606105f1610d0a565b90506000600160009054906101000a900473ffffffffffffffffffffffffffffffffffffffff1673ffffffffffffffffffffffffffffffffffffffff1663d06ca61f85846040518363ffffffff1660e01b81526004018083815260200180602001828103825283818151815260200191508051906020019060200280838360005b8381101561068d578082015181840152602081019050610672565b50505050905001935050505060006040518083038186803b1580156106b157600080fd5b505afa1580156106c5573d6000803e3d6000fd5b505050506040513d6000823e3d601f19601f8201168201806040525060208110156106ef57600080fd5b810190808051604051939291908464010000000082111561070f57600080fd5b8382019150602082018581111561072557600080fd5b825186602082028301116401000000008211171561074257600080fd5b8083526020830192505050908051906020019060200280838360005b8381101561077957808201518184015260208101905061075e565b5050505090500160405250505060018151811061079257fe5b6020026020010151905073a0b86991c6218b36c1d19d4a2e9eb0ce3606eb4873ffffffffffffffffffffffffffffffffffffffff166323b872dd3330876040518463ffffffff1660e01b8152600401808473ffffffffffffffffffffffffffffffffffffffff1673ffffffffffffffffffffffffffffffffffffffff1681526020018373ffffffffffffffffffffffffffffffffffffffff1673ffffffffffffffffffffffffffffffffffffffff1681526020018281526020019350505050602060405180830381600087803b15801561086b57600080fd5b505af115801561087f573d6000803e3d6000fd5b505050506040513d602081101561089557600080fd5b81019080805190602001909291905050505073a0b86991c6218b36c1d19d4a2e9eb0ce3606eb4873ffffffffffffffffffffffffffffffffffffffff1663095ea7b3737a250d5630b4cf539739df2c5dacb4c659f2488d866040518363ffffffff1660e01b8152600401808373ffffffffffffffffffffffffffffffffffffffff1673ffffffffffffffffffffffffffffffffffffffff16815260200182815260200192505050602060405180830381600087803b15801561095657600080fd5b505af115801561096a573d6000803e3d6000fd5b505050506040513d602081101561098057600080fd5b810190808051906020019092919050505050600160009054906101000a900473ffffffffffffffffffffffffffffffffffffffff1673ffffffffffffffffffffffffffffffffffffffff166318cbafe585838533886040518663ffffffff1660e01b815260040180868152602001858152602001806020018473ffffffffffffffffffffffffffffffffffffffff1673ffffffffffffffffffffffffffffffffffffffff168152602001838152602001828103825285818151815260200191508051906020019060200280838360005b83811015610a6b578082015181840152602081019050610a50565b505050509050019650505050505050600060405180830381600087803b158015610a9457600080fd5b505af1158015610aa8573d6000803e3d6000fd5b505050506040513d6000823e3d601f19601f820116820180604052506020811015610ad257600080fd5b8101908080516040519392919084640100000000821115610af257600080fd5b83820191506020820185811115610b0857600080fd5b8251866020820283011164010000000082111715610b2557600080fd5b8083526020830192505050908051906020019060200280838360005b83811015610b5c578082015181840152602081019050610b41565b505050509050016040525050505050505050565b606080600267ffffffffffffffff81118015610b8b57600080fd5b50604051908082528060200260200182016040528015610bba5781602001602082028036833780820191505090505b509050600160009054906101000a900473ffffffffffffffffffffffffffffffffffffffff1673ffffffffffffffffffffffffffffffffffffffff1663ad5c46486040518163ffffffff1660e01b815260040160206040518083038186803b158015610c2557600080fd5b505afa158015610c39573d6000803e3d6000fd5b505050506040513d6020811015610c4f57600080fd5b810190808051906020019092919050505081600081518110610c6d57fe5b602002602001019073ffffffffffffffffffffffffffffffffffffffff16908173ffffffffffffffffffffffffffffffffffffffff168152505073a0b86991c6218b36c1d19d4a2e9eb0ce3606eb4881600181518110610cc957fe5b602002602001019073ffffffffffffffffffffffffffffffffffffffff16908173ffffffffffffffffffffffffffffffffffffffff16815250508091505090565b606080600267ffffffffffffffff81118015610d2557600080fd5b50604051908082528060200260200182016040528015610d545781602001602082028036833780820191505090505b50905073a0b86991c6218b36c1d19d4a2e9eb0ce3606eb4881600081518110610d7957fe5b602002602001019073ffffffffffffffffffffffffffffffffffffffff16908173ffffffffffffffffffffffffffffffffffffffff1681525050600160009054906101000a900473ffffffffffffffffffffffffffffffffffffffff1673ffffffffffffffffffffffffffffffffffffffff1663ad5c46486040518163ffffffff1660e01b815260040160206040518083038186803b158015610e1b57600080fd5b505afa158015610e2f573d6000803e3d6000fd5b505050506040513d6020811015610e4557600080fd5b810190808051906020019092919050505081600181518110610e6357fe5b602002602001019073ffffffffffffffffffffffffffffffffffffffff16908173ffffffffffffffffffffffffffffffffffffffff1681525050809150509056fea26469706673582212202cb26a4e76bd02d48939624fa7b88c7e087cfd19c96f01fa2cdd3dfcf521126864736f6c63430006060033",
  "immutableReferences": {},
  "source": "pragma solidity 0.6.6;\n\nimport \"@uniswap/v2-periphery/contracts/UniswapV2Router02.sol\";\n\ncontract Dex {\n    string public name = \"Dex\";\n    address internal constant UNISWAP_V2_ROUTER =\n        0x7a250d5630B4cF539739dF2C5dAcb4c659F2488D;\n    IUniswapV2Router02 public uniswapRouter;\n    address internal constant USDC = 0xA0b86991c6218b36c1d19D4a2e9Eb0cE3606eB48;\n\n    constructor() public payable {\n        uniswapRouter = IUniswapV2Router02(UNISWAP_V2_ROUTER);\n    }\n\n    function swapEthForUSDC(uint256 ethAmount) external payable {\n        uint256 deadline = block.timestamp + 150;\n        address[] memory path = getEthForUSDCPath();\n        uint256 amountOutMin = uniswapRouter.getAmountsOut(ethAmount, path)[1];\n        uniswapRouter.swapExactETHForTokens{value: msg.value}(\n            amountOutMin,\n            path,\n            msg.sender,\n            deadline\n        );\n    }\n\n    function swapUSDCForEth(uint256 tokenAmount) external payable {\n        uint256 deadline = block.timestamp + 150;\n        address[] memory path = getUSDCForEthPath();\n        uint256 amountOutMin = uniswapRouter.getAmountsOut(tokenAmount, path)[\n            1\n        ];\n        IERC20(USDC).transferFrom(msg.sender, address(this), tokenAmount);\n        IERC20(USDC).approve(UNISWAP_V2_ROUTER, tokenAmount);\n        uniswapRouter.swapExactTokensForETH(\n            tokenAmount,\n            amountOutMin,\n            path,\n            msg.sender,\n            deadline\n        );\n    }\n\n    function getEthForUSDCPath() private view returns (address[] memory) {\n        address[] memory path = new address[](2);\n        path[0] = uniswapRouter.WETH();\n        path[1] = USDC;\n\n        return path;\n    }\n\n    function getUSDCForEthPath() private view returns (address[] memory) {\n        address[] memory path = new address[](2);\n        path[0] = USDC;\n        path[1] = uniswapRouter.WETH();\n\n        return path;\n    }\n}\n",
  "sourcePath": "/Users/aomwara/aomdev/mimic-farm-v2/contracts/Dex.sol",
  "compiler": {
    "name": "solc",
    "version": "0.6.6+commit.6c089d02.Emscripten.clang"
  },
  "schemaVersion": "3.4.3",
  "updatedAt": "2022-03-18T00:04:59.071Z",
  "networkType": "ethereum",
  "devdoc": {
    "methods": {}
  },
  "userdoc": {
    "methods": {}
  }
}