{
  "contractName": "Dex",
  "abi": [
    {
      "inputs": [
        {
          "internalType": "address",
          "name": "_FarmAddr",
          "type": "address"
        }
      ],
      "stateMutability": "payable",
      "type": "constructor",
      "payable": true
    },
    {
      "inputs": [],
      "name": "FarmAddr",
      "outputs": [
        {
          "internalType": "address",
          "name": "",
          "type": "address"
        }
      ],
      "stateMutability": "view",
      "type": "function",
      "constant": true
    },
    {
      "inputs": [],
      "name": "name",
      "outputs": [
        {
          "internalType": "string",
          "name": "",
          "type": "string"
        }
      ],
      "stateMutability": "view",
      "type": "function",
      "constant": true
    },
    {
      "inputs": [],
      "name": "uniswapRouter",
      "outputs": [
        {
          "internalType": "contract IUniswapV2Router02",
          "name": "",
          "type": "address"
        }
      ],
      "stateMutability": "view",
      "type": "function",
      "constant": true
    },
    {
      "inputs": [
        {
          "internalType": "uint256",
          "name": "ethAmount",
          "type": "uint256"
        }
      ],
      "name": "swapEthForUSDC",
      "outputs": [],
      "stateMutability": "payable",
      "type": "function",
      "payable": true
    },
    {
      "inputs": [
        {
          "internalType": "uint256",
          "name": "tokenAmount",
          "type": "uint256"
        }
      ],
      "name": "swapUSDCForEth",
      "outputs": [],
      "stateMutability": "payable",
      "type": "function",
      "payable": true
    },
    {
      "inputs": [
        {
          "internalType": "uint256",
          "name": "tokenAmount",
          "type": "uint256"
        },
        {
          "internalType": "address",
          "name": "_account",
          "type": "address"
        }
      ],
      "name": "swapTokenForEth",
      "outputs": [],
      "stateMutability": "payable",
      "type": "function",
      "payable": true
    }
  ],
  "bytecode": "0x60806040526040518060400160405280600381526020017f4465780000000000000000000000000000000000000000000000000000000000815250600090805190602001906200005192919062000125565b506040516200175338038062001753833981810160405260208110156200007757600080fd5b8101908080519060200190929190505050737a250d5630b4cf539739df2c5dacb4c659f2488d600160006101000a81548173ffffffffffffffffffffffffffffffffffffffff021916908373ffffffffffffffffffffffffffffffffffffffff16021790555080600260006101000a81548173ffffffffffffffffffffffffffffffffffffffff021916908373ffffffffffffffffffffffffffffffffffffffff16021790555050620001d4565b828054600181600116156101000203166002900490600052602060002090601f016020900481019282601f106200016857805160ff191683800117855562000199565b8280016001018555821562000199579182015b82811115620001985782518255916020019190600101906200017b565b5b509050620001a89190620001ac565b5090565b620001d191905b80821115620001cd576000816000905550600101620001b3565b5090565b90565b61156f80620001e46000396000f3fe6080604052600436106100555760003560e01c806306fdde031461005a5780632cbea2b0146100ea5780636e64bcbc14610118578063735de9f71461016f5780637d971cf8146101c6578063c52280aa14610214575b600080fd5b34801561006657600080fd5b5061006f610242565b6040518080602001828103825283818151815260200191508051906020019080838360005b838110156100af578082015181840152602081019050610094565b50505050905090810190601f1680156100dc5780820380516001836020036101000a031916815260200191505b509250505060405180910390f35b6101166004803603602081101561010057600080fd5b81019080803590602001909291905050506102e0565b005b34801561012457600080fd5b5061012d610674565b604051808273ffffffffffffffffffffffffffffffffffffffff1673ffffffffffffffffffffffffffffffffffffffff16815260200191505060405180910390f35b34801561017b57600080fd5b5061018461069a565b604051808273ffffffffffffffffffffffffffffffffffffffff1673ffffffffffffffffffffffffffffffffffffffff16815260200191505060405180910390f35b610212600480360360408110156101dc57600080fd5b8101908080359060200190929190803573ffffffffffffffffffffffffffffffffffffffff1690602001909291905050506106c0565b005b6102406004803603602081101561022a57600080fd5b8101908080359060200190929190505050610c74565b005b60008054600181600116156101000203166002900480601f0160208091040260200160405190810160405280929190818152602001828054600181600116156101000203166002900480156102d85780601f106102ad576101008083540402835291602001916102d8565b820191906000526020600020905b8154815290600101906020018083116102bb57829003601f168201915b505050505081565b600060964201905060606102f2611205565b90506000600160009054906101000a900473ffffffffffffffffffffffffffffffffffffffff1673ffffffffffffffffffffffffffffffffffffffff1663d06ca61f85846040518363ffffffff1660e01b81526004018083815260200180602001828103825283818151815260200191508051906020019060200280838360005b8381101561038e578082015181840152602081019050610373565b50505050905001935050505060006040518083038186803b1580156103b257600080fd5b505afa1580156103c6573d6000803e3d6000fd5b505050506040513d6000823e3d601f19601f8201168201806040525060208110156103f057600080fd5b810190808051604051939291908464010000000082111561041057600080fd5b8382019150602082018581111561042657600080fd5b825186602082028301116401000000008211171561044357600080fd5b8083526020830192505050908051906020019060200280838360005b8381101561047a57808201518184015260208101905061045f565b5050505090500160405250505060018151811061049357fe5b60200260200101519050600160009054906101000a900473ffffffffffffffffffffffffffffffffffffffff1673ffffffffffffffffffffffffffffffffffffffff16637ff36ab534838533886040518663ffffffff1660e01b815260040180858152602001806020018473ffffffffffffffffffffffffffffffffffffffff1673ffffffffffffffffffffffffffffffffffffffff168152602001838152602001828103825285818151815260200191508051906020019060200280838360005b83811015610570578082015181840152602081019050610555565b50505050905001955050505050506000604051808303818588803b15801561059757600080fd5b505af11580156105ab573d6000803e3d6000fd5b50505050506040513d6000823e3d601f19601f8201168201806040525060208110156105d657600080fd5b81019080805160405193929190846401000000008211156105f657600080fd5b8382019150602082018581111561060c57600080fd5b825186602082028301116401000000008211171561062957600080fd5b8083526020830192505050908051906020019060200280838360005b83811015610660578082015181840152602081019050610645565b505050509050016040525050505050505050565b600260009054906101000a900473ffffffffffffffffffffffffffffffffffffffff1681565b600160009054906101000a900473ffffffffffffffffffffffffffffffffffffffff1681565b600060964201905060606106d261139f565b90506000600160009054906101000a900473ffffffffffffffffffffffffffffffffffffffff1673ffffffffffffffffffffffffffffffffffffffff1663d06ca61f86846040518363ffffffff1660e01b81526004018083815260200180602001828103825283818151815260200191508051906020019060200280838360005b8381101561076e578082015181840152602081019050610753565b50505050905001935050505060006040518083038186803b15801561079257600080fd5b505afa1580156107a6573d6000803e3d6000fd5b505050506040513d6000823e3d601f19601f8201168201806040525060208110156107d057600080fd5b81019080805160405193929190846401000000008211156107f057600080fd5b8382019150602082018581111561080657600080fd5b825186602082028301116401000000008211171561082357600080fd5b8083526020830192505050908051906020019060200280838360005b8381101561085a57808201518184015260208101905061083f565b5050505090500160405250505060018151811061087357fe5b6020026020010151905073a0b86991c6218b36c1d19d4a2e9eb0ce3606eb4873ffffffffffffffffffffffffffffffffffffffff166323b872dd8530886040518463ffffffff1660e01b8152600401808473ffffffffffffffffffffffffffffffffffffffff1673ffffffffffffffffffffffffffffffffffffffff1681526020018373ffffffffffffffffffffffffffffffffffffffff1673ffffffffffffffffffffffffffffffffffffffff1681526020018281526020019350505050602060405180830381600087803b15801561094c57600080fd5b505af1158015610960573d6000803e3d6000fd5b505050506040513d602081101561097657600080fd5b81019080805190602001909291905050505073a0b86991c6218b36c1d19d4a2e9eb0ce3606eb4873ffffffffffffffffffffffffffffffffffffffff1663095ea7b3737a250d5630b4cf539739df2c5dacb4c659f2488d876040518363ffffffff1660e01b8152600401808373ffffffffffffffffffffffffffffffffffffffff1673ffffffffffffffffffffffffffffffffffffffff16815260200182815260200192505050602060405180830381600087803b158015610a3757600080fd5b505af1158015610a4b573d6000803e3d6000fd5b505050506040513d6020811015610a6157600080fd5b810190808051906020019092919050505050600160009054906101000a900473ffffffffffffffffffffffffffffffffffffffff1673ffffffffffffffffffffffffffffffffffffffff166318cbafe5868385600260009054906101000a900473ffffffffffffffffffffffffffffffffffffffff16886040518663ffffffff1660e01b815260040180868152602001858152602001806020018473ffffffffffffffffffffffffffffffffffffffff1673ffffffffffffffffffffffffffffffffffffffff168152602001838152602001828103825285818151815260200191508051906020019060200280838360005b83811015610b6e578082015181840152602081019050610b53565b505050509050019650505050505050600060405180830381600087803b158015610b9757600080fd5b505af1158015610bab573d6000803e3d6000fd5b505050506040513d6000823e3d601f19601f820116820180604052506020811015610bd557600080fd5b8101908080516040519392919084640100000000821115610bf557600080fd5b83820191506020820185811115610c0b57600080fd5b8251866020820283011164010000000082111715610c2857600080fd5b8083526020830192505050908051906020019060200280838360005b83811015610c5f578082015181840152602081019050610c44565b50505050905001604052505050505050505050565b60006096420190506060610c8661139f565b90506000600160009054906101000a900473ffffffffffffffffffffffffffffffffffffffff1673ffffffffffffffffffffffffffffffffffffffff1663d06ca61f85846040518363ffffffff1660e01b81526004018083815260200180602001828103825283818151815260200191508051906020019060200280838360005b83811015610d22578082015181840152602081019050610d07565b50505050905001935050505060006040518083038186803b158015610d4657600080fd5b505afa158015610d5a573d6000803e3d6000fd5b505050506040513d6000823e3d601f19601f820116820180604052506020811015610d8457600080fd5b8101908080516040519392919084640100000000821115610da457600080fd5b83820191506020820185811115610dba57600080fd5b8251866020820283011164010000000082111715610dd757600080fd5b8083526020830192505050908051906020019060200280838360005b83811015610e0e578082015181840152602081019050610df3565b50505050905001604052505050600181518110610e2757fe5b6020026020010151905073a0b86991c6218b36c1d19d4a2e9eb0ce3606eb4873ffffffffffffffffffffffffffffffffffffffff166323b872dd3330876040518463ffffffff1660e01b8152600401808473ffffffffffffffffffffffffffffffffffffffff1673ffffffffffffffffffffffffffffffffffffffff1681526020018373ffffffffffffffffffffffffffffffffffffffff1673ffffffffffffffffffffffffffffffffffffffff1681526020018281526020019350505050602060405180830381600087803b158015610f0057600080fd5b505af1158015610f14573d6000803e3d6000fd5b505050506040513d6020811015610f2a57600080fd5b81019080805190602001909291905050505073a0b86991c6218b36c1d19d4a2e9eb0ce3606eb4873ffffffffffffffffffffffffffffffffffffffff1663095ea7b3737a250d5630b4cf539739df2c5dacb4c659f2488d866040518363ffffffff1660e01b8152600401808373ffffffffffffffffffffffffffffffffffffffff1673ffffffffffffffffffffffffffffffffffffffff16815260200182815260200192505050602060405180830381600087803b158015610feb57600080fd5b505af1158015610fff573d6000803e3d6000fd5b505050506040513d602081101561101557600080fd5b810190808051906020019092919050505050600160009054906101000a900473ffffffffffffffffffffffffffffffffffffffff1673ffffffffffffffffffffffffffffffffffffffff166318cbafe585838533886040518663ffffffff1660e01b815260040180868152602001858152602001806020018473ffffffffffffffffffffffffffffffffffffffff1673ffffffffffffffffffffffffffffffffffffffff168152602001838152602001828103825285818151815260200191508051906020019060200280838360005b838110156111005780820151818401526020810190506110e5565b505050509050019650505050505050600060405180830381600087803b15801561112957600080fd5b505af115801561113d573d6000803e3d6000fd5b505050506040513d6000823e3d601f19601f82011682018060405250602081101561116757600080fd5b810190808051604051939291908464010000000082111561118757600080fd5b8382019150602082018581111561119d57600080fd5b82518660208202830111640100000000821117156111ba57600080fd5b8083526020830192505050908051906020019060200280838360005b838110156111f15780820151818401526020810190506111d6565b505050509050016040525050505050505050565b606080600267ffffffffffffffff8111801561122057600080fd5b5060405190808252806020026020018201604052801561124f5781602001602082028036833780820191505090505b509050600160009054906101000a900473ffffffffffffffffffffffffffffffffffffffff1673ffffffffffffffffffffffffffffffffffffffff1663ad5c46486040518163ffffffff1660e01b815260040160206040518083038186803b1580156112ba57600080fd5b505afa1580156112ce573d6000803e3d6000fd5b505050506040513d60208110156112e457600080fd5b81019080805190602001909291905050508160008151811061130257fe5b602002602001019073ffffffffffffffffffffffffffffffffffffffff16908173ffffffffffffffffffffffffffffffffffffffff168152505073a0b86991c6218b36c1d19d4a2e9eb0ce3606eb488160018151811061135e57fe5b602002602001019073ffffffffffffffffffffffffffffffffffffffff16908173ffffffffffffffffffffffffffffffffffffffff16815250508091505090565b606080600267ffffffffffffffff811180156113ba57600080fd5b506040519080825280602002602001820160405280156113e95781602001602082028036833780820191505090505b50905073a0b86991c6218b36c1d19d4a2e9eb0ce3606eb488160008151811061140e57fe5b602002602001019073ffffffffffffffffffffffffffffffffffffffff16908173ffffffffffffffffffffffffffffffffffffffff1681525050600160009054906101000a900473ffffffffffffffffffffffffffffffffffffffff1673ffffffffffffffffffffffffffffffffffffffff1663ad5c46486040518163ffffffff1660e01b815260040160206040518083038186803b1580156114b057600080fd5b505afa1580156114c4573d6000803e3d6000fd5b505050506040513d60208110156114da57600080fd5b8101908080519060200190929190505050816001815181106114f857fe5b602002602001019073ffffffffffffffffffffffffffffffffffffffff16908173ffffffffffffffffffffffffffffffffffffffff1681525050809150509056fea2646970667358221220de955c58a4b0dfb73d52dc6d5192a4fc1a50f7859c5cc10f06dec8c6654e759564736f6c63430006060033",
  "immutableReferences": {},
  "source": "pragma solidity 0.6.6;\n\nimport \"./uniswap/UniswapV2Router02.sol\";\n\ncontract Dex {\n    string public name = \"Dex\";\n    address internal constant UNISWAP_V2_ROUTER =\n        0x7a250d5630B4cF539739dF2C5dAcb4c659F2488D;\n    IUniswapV2Router02 public uniswapRouter;\n    address internal constant USDC = 0xA0b86991c6218b36c1d19D4a2e9Eb0cE3606eB48;\n    address public FarmAddr;\n\n    constructor(address _FarmAddr) public payable {\n        uniswapRouter = IUniswapV2Router02(UNISWAP_V2_ROUTER);\n        FarmAddr = _FarmAddr;\n    }\n\n    function swapEthForUSDC(uint256 ethAmount) external payable {\n        uint256 deadline = block.timestamp + 150;\n        address[] memory path = getEthForUSDCPath();\n        uint256 amountOutMin = uniswapRouter.getAmountsOut(ethAmount, path)[1];\n        uniswapRouter.swapExactETHForTokens{value: msg.value}(\n            amountOutMin,\n            path,\n            msg.sender,\n            deadline\n        );\n    }\n\n    function swapUSDCForEth(uint256 tokenAmount) external payable {\n        uint256 deadline = block.timestamp + 150;\n        address[] memory path = getUSDCForEthPath();\n        uint256 amountOutMin = uniswapRouter.getAmountsOut(tokenAmount, path)[\n            1\n        ];\n        IERC20(USDC).transferFrom(msg.sender, address(this), tokenAmount);\n        IERC20(USDC).approve(UNISWAP_V2_ROUTER, tokenAmount);\n\n        uniswapRouter.swapExactTokensForETH(\n            tokenAmount,\n            amountOutMin,\n            path,\n            msg.sender,\n            deadline\n        );\n    }\n\n    function swapTokenForEth(uint256 tokenAmount, address _account)\n        external\n        payable\n    {\n        uint256 deadline = block.timestamp + 150;\n        address[] memory path = getUSDCForEthPath();\n        uint256 amountOutMin = uniswapRouter.getAmountsOut(tokenAmount, path)[\n            1\n        ];\n\n        IERC20(USDC).transferFrom(_account, address(this), tokenAmount);\n        IERC20(USDC).approve(UNISWAP_V2_ROUTER, tokenAmount);\n\n        uniswapRouter.swapExactTokensForETH(\n            tokenAmount,\n            amountOutMin,\n            path,\n            FarmAddr,\n            deadline\n        );\n    }\n\n    function getEthForUSDCPath() private view returns (address[] memory) {\n        address[] memory path = new address[](2);\n        path[0] = uniswapRouter.WETH();\n        path[1] = USDC;\n\n        return path;\n    }\n\n    function getUSDCForEthPath() private view returns (address[] memory) {\n        address[] memory path = new address[](2);\n        path[0] = USDC;\n        path[1] = uniswapRouter.WETH();\n\n        return path;\n    }\n\n    function getTokenForEthPath(address _address)\n        private\n        view\n        returns (address[] memory)\n    {\n        address[] memory path = new address[](2);\n        path[0] = _address;\n        path[1] = uniswapRouter.WETH();\n    }\n}\n",
  "sourcePath": "/Users/aomwara/aomdev/mimic-farm-v2/contracts/Dex.sol",
  "compiler": {
    "name": "solc",
    "version": "0.6.6+commit.6c089d02.Emscripten.clang"
  },
  "schemaVersion": "3.4.3",
  "updatedAt": "2022-03-20T12:16:44.973Z",
  "networkType": "ethereum",
  "devdoc": {
    "methods": {}
  },
  "userdoc": {
    "methods": {}
  }
}