{
  "contractName": "ERC20Utils",
  "abi": [
    {
      "inputs": [
        {
          "internalType": "address",
          "name": "_token",
          "type": "address"
        },
        {
          "internalType": "address",
          "name": "_account",
          "type": "address"
        }
      ],
      "name": "balanceOf",
      "outputs": [
        {
          "internalType": "uint256",
          "name": "",
          "type": "uint256"
        }
      ],
      "stateMutability": "view",
      "type": "function",
      "constant": true
    },
    {
      "inputs": [
        {
          "internalType": "address",
          "name": "_token",
          "type": "address"
        },
        {
          "internalType": "address",
          "name": "_account",
          "type": "address"
        },
        {
          "internalType": "uint256",
          "name": "_amount",
          "type": "uint256"
        }
      ],
      "name": "approve",
      "outputs": [],
      "stateMutability": "nonpayable",
      "type": "function"
    },
    {
      "inputs": [
        {
          "internalType": "address",
          "name": "_token",
          "type": "address"
        },
        {
          "internalType": "address",
          "name": "_sender",
          "type": "address"
        },
        {
          "internalType": "address",
          "name": "_recipient",
          "type": "address"
        },
        {
          "internalType": "uint256",
          "name": "_amount",
          "type": "uint256"
        }
      ],
      "name": "transferFrom",
      "outputs": [],
      "stateMutability": "nonpayable",
      "type": "function"
    },
    {
      "inputs": [
        {
          "internalType": "address",
          "name": "_token",
          "type": "address"
        },
        {
          "internalType": "address",
          "name": "_recipient",
          "type": "address"
        },
        {
          "internalType": "uint256",
          "name": "_amount",
          "type": "uint256"
        }
      ],
      "name": "transfer",
      "outputs": [],
      "stateMutability": "nonpayable",
      "type": "function"
    },
    {
      "inputs": [
        {
          "internalType": "address",
          "name": "_token",
          "type": "address"
        }
      ],
      "name": "totalSupply",
      "outputs": [],
      "stateMutability": "view",
      "type": "function",
      "constant": true
    },
    {
      "inputs": [
        {
          "internalType": "address",
          "name": "_token",
          "type": "address"
        }
      ],
      "name": "name",
      "outputs": [],
      "stateMutability": "view",
      "type": "function",
      "constant": true
    },
    {
      "inputs": [
        {
          "internalType": "address",
          "name": "_token",
          "type": "address"
        }
      ],
      "name": "symbol",
      "outputs": [],
      "stateMutability": "view",
      "type": "function",
      "constant": true
    },
    {
      "inputs": [
        {
          "internalType": "address",
          "name": "_token",
          "type": "address"
        }
      ],
      "name": "decimals",
      "outputs": [],
      "stateMutability": "view",
      "type": "function",
      "constant": true
    },
    {
      "inputs": [
        {
          "internalType": "address",
          "name": "_token",
          "type": "address"
        },
        {
          "internalType": "address",
          "name": "_owner",
          "type": "address"
        },
        {
          "internalType": "address",
          "name": "_spender",
          "type": "address"
        }
      ],
      "name": "allowance",
      "outputs": [],
      "stateMutability": "view",
      "type": "function",
      "constant": true
    },
    {
      "inputs": [
        {
          "internalType": "address",
          "name": "_token",
          "type": "address"
        },
        {
          "internalType": "address",
          "name": "_spender",
          "type": "address"
        },
        {
          "internalType": "uint256",
          "name": "_addedValue",
          "type": "uint256"
        }
      ],
      "name": "increaseAllowance",
      "outputs": [],
      "stateMutability": "nonpayable",
      "type": "function"
    },
    {
      "inputs": [
        {
          "internalType": "address",
          "name": "_token",
          "type": "address"
        },
        {
          "internalType": "address",
          "name": "_spender",
          "type": "address"
        },
        {
          "internalType": "uint256",
          "name": "_subtractedValue",
          "type": "uint256"
        }
      ],
      "name": "decreaseAllowance",
      "outputs": [],
      "stateMutability": "nonpayable",
      "type": "function"
    }
  ],
  "bytecode": "0x608060405234801561001057600080fd5b50610e9c806100206000396000f3fe608060405234801561001057600080fd5b50600436106100a95760003560e01c8063beabacc811610071578063beabacc8146102b6578063d449a83214610324578063d73b1dc914610368578063e1f21c67146103d6578063e4dc2aa414610444578063f7888aec14610488576100a9565b806301984892146100ae57806315dacbea146100f25780636c43a2ca14610180578063927da105146101ee578063a86e357614610272575b600080fd5b6100f0600480360360208110156100c457600080fd5b81019080803573ffffffffffffffffffffffffffffffffffffffff169060200190929190505050610500565b005b61017e6004803603608081101561010857600080fd5b81019080803573ffffffffffffffffffffffffffffffffffffffff169060200190929190803573ffffffffffffffffffffffffffffffffffffffff169060200190929190803573ffffffffffffffffffffffffffffffffffffffff16906020019092919080359060200190929190505050610643565b005b6101ec6004803603606081101561019657600080fd5b81019080803573ffffffffffffffffffffffffffffffffffffffff169060200190929190803573ffffffffffffffffffffffffffffffffffffffff16906020019092919080359060200190929190505050610740565b005b6102706004803603606081101561020457600080fd5b81019080803573ffffffffffffffffffffffffffffffffffffffff169060200190929190803573ffffffffffffffffffffffffffffffffffffffff169060200190929190803573ffffffffffffffffffffffffffffffffffffffff169060200190929190505050610808565b005b6102b46004803603602081101561028857600080fd5b81019080803573ffffffffffffffffffffffffffffffffffffffff1690602001909291905050506108fa565b005b610322600480360360608110156102cc57600080fd5b81019080803573ffffffffffffffffffffffffffffffffffffffff169060200190929190803573ffffffffffffffffffffffffffffffffffffffff16906020019092919080359060200190929190505050610a3d565b005b6103666004803603602081101561033a57600080fd5b81019080803573ffffffffffffffffffffffffffffffffffffffff169060200190929190505050610b05565b005b6103d46004803603606081101561037e57600080fd5b81019080803573ffffffffffffffffffffffffffffffffffffffff169060200190929190803573ffffffffffffffffffffffffffffffffffffffff16906020019092919080359060200190929190505050610b8a565b005b610442600480360360608110156103ec57600080fd5b81019080803573ffffffffffffffffffffffffffffffffffffffff169060200190929190803573ffffffffffffffffffffffffffffffffffffffff16906020019092919080359060200190929190505050610c52565b005b6104866004803603602081101561045a57600080fd5b81019080803573ffffffffffffffffffffffffffffffffffffffff169060200190929190505050610d1a565b005b6104ea6004803603604081101561049e57600080fd5b81019080803573ffffffffffffffffffffffffffffffffffffffff169060200190929190803573ffffffffffffffffffffffffffffffffffffffff169060200190929190505050610d9f565b6040518082815260200191505060405180910390f35b8073ffffffffffffffffffffffffffffffffffffffff166306fdde036040518163ffffffff1660e01b815260040160006040518083038186803b15801561054657600080fd5b505afa15801561055a573d6000803e3d6000fd5b505050506040513d6000823e3d601f19601f82011682018060405250602081101561058457600080fd5b81019080805160405193929190846401000000008211156105a457600080fd5b838201915060208201858111156105ba57600080fd5b82518660018202830111640100000000821117156105d757600080fd5b8083526020830192505050908051906020019080838360005b8381101561060b5780820151818401526020810190506105f0565b50505050905090810190601f1680156106385780820380516001836020036101000a031916815260200191505b506040525050505050565b8373ffffffffffffffffffffffffffffffffffffffff166323b872dd8484846040518463ffffffff1660e01b8152600401808473ffffffffffffffffffffffffffffffffffffffff1673ffffffffffffffffffffffffffffffffffffffff1681526020018373ffffffffffffffffffffffffffffffffffffffff1673ffffffffffffffffffffffffffffffffffffffff1681526020018281526020019350505050602060405180830381600087803b1580156106fe57600080fd5b505af1158015610712573d6000803e3d6000fd5b505050506040513d602081101561072857600080fd5b81019080805190602001909291905050505050505050565b8273ffffffffffffffffffffffffffffffffffffffff16633950935183836040518363ffffffff1660e01b8152600401808373ffffffffffffffffffffffffffffffffffffffff1673ffffffffffffffffffffffffffffffffffffffff16815260200182815260200192505050602060405180830381600087803b1580156107c757600080fd5b505af11580156107db573d6000803e3d6000fd5b505050506040513d60208110156107f157600080fd5b810190808051906020019092919050505050505050565b8273ffffffffffffffffffffffffffffffffffffffff1663dd62ed3e83836040518363ffffffff1660e01b8152600401808373ffffffffffffffffffffffffffffffffffffffff1673ffffffffffffffffffffffffffffffffffffffff1681526020018273ffffffffffffffffffffffffffffffffffffffff1673ffffffffffffffffffffffffffffffffffffffff1681526020019250505060206040518083038186803b1580156108b957600080fd5b505afa1580156108cd573d6000803e3d6000fd5b505050506040513d60208110156108e357600080fd5b810190808051906020019092919050505050505050565b8073ffffffffffffffffffffffffffffffffffffffff166395d89b416040518163ffffffff1660e01b815260040160006040518083038186803b15801561094057600080fd5b505afa158015610954573d6000803e3d6000fd5b505050506040513d6000823e3d601f19601f82011682018060405250602081101561097e57600080fd5b810190808051604051939291908464010000000082111561099e57600080fd5b838201915060208201858111156109b457600080fd5b82518660018202830111640100000000821117156109d157600080fd5b8083526020830192505050908051906020019080838360005b83811015610a055780820151818401526020810190506109ea565b50505050905090810190601f168015610a325780820380516001836020036101000a031916815260200191505b506040525050505050565b8273ffffffffffffffffffffffffffffffffffffffff1663a9059cbb83836040518363ffffffff1660e01b8152600401808373ffffffffffffffffffffffffffffffffffffffff1673ffffffffffffffffffffffffffffffffffffffff16815260200182815260200192505050602060405180830381600087803b158015610ac457600080fd5b505af1158015610ad8573d6000803e3d6000fd5b505050506040513d6020811015610aee57600080fd5b810190808051906020019092919050505050505050565b8073ffffffffffffffffffffffffffffffffffffffff1663313ce5676040518163ffffffff1660e01b815260040160206040518083038186803b158015610b4b57600080fd5b505afa158015610b5f573d6000803e3d6000fd5b505050506040513d6020811015610b7557600080fd5b81019080805190602001909291905050505050565b8273ffffffffffffffffffffffffffffffffffffffff1663a457c2d783836040518363ffffffff1660e01b8152600401808373ffffffffffffffffffffffffffffffffffffffff1673ffffffffffffffffffffffffffffffffffffffff16815260200182815260200192505050602060405180830381600087803b158015610c1157600080fd5b505af1158015610c25573d6000803e3d6000fd5b505050506040513d6020811015610c3b57600080fd5b810190808051906020019092919050505050505050565b8273ffffffffffffffffffffffffffffffffffffffff1663095ea7b383836040518363ffffffff1660e01b8152600401808373ffffffffffffffffffffffffffffffffffffffff1673ffffffffffffffffffffffffffffffffffffffff16815260200182815260200192505050602060405180830381600087803b158015610cd957600080fd5b505af1158015610ced573d6000803e3d6000fd5b505050506040513d6020811015610d0357600080fd5b810190808051906020019092919050505050505050565b8073ffffffffffffffffffffffffffffffffffffffff166318160ddd6040518163ffffffff1660e01b815260040160206040518083038186803b158015610d6057600080fd5b505afa158015610d74573d6000803e3d6000fd5b505050506040513d6020811015610d8a57600080fd5b81019080805190602001909291905050505050565b6000808373ffffffffffffffffffffffffffffffffffffffff166370a08231846040518263ffffffff1660e01b8152600401808273ffffffffffffffffffffffffffffffffffffffff1673ffffffffffffffffffffffffffffffffffffffff16815260200191505060206040518083038186803b158015610e1f57600080fd5b505afa158015610e33573d6000803e3d6000fd5b505050506040513d6020811015610e4957600080fd5b81019080805190602001909291905050509050809150509291505056fea26469706673582212205f080edb6ce6f2cd0b5fea43ef947bb20818f236527ecccdeab8fe100853fbcf64736f6c63430006060033",
  "immutableReferences": {},
  "source": "// SPDX-License-Identifier: MIT\n\npragma solidity ^0.6.6;\n\nimport \"@openzeppelin/contracts/token/ERC20/ERC20.sol\";\nimport \"@openzeppelin/contracts/math/SafeMath.sol\";\n\ncontract ERC20Utils {\n    using SafeMath for uint256;\n\n    function balanceOf(address _token, address _account)\n        public\n        view\n        returns (uint256)\n    {\n        uint256 balance = ERC20(_token).balanceOf(_account);\n        return balance;\n    }\n\n    function approve(\n        address _token,\n        address _account,\n        uint256 _amount\n    ) public {\n        ERC20(_token).approve(_account, _amount);\n    }\n\n    function transferFrom(\n        address _token,\n        address _sender,\n        address _recipient,\n        uint256 _amount\n    ) public {\n        ERC20(_token).transferFrom(_sender, _recipient, _amount);\n    }\n\n    function transfer(\n        address _token,\n        address _recipient,\n        uint256 _amount\n    ) public {\n        ERC20(_token).transfer(_recipient, _amount);\n    }\n\n    function totalSupply(address _token) public view {\n        ERC20(_token).totalSupply();\n    }\n\n    function name(address _token) public view {\n        ERC20(_token).name();\n    }\n\n    function symbol(address _token) public view {\n        ERC20(_token).symbol();\n    }\n\n    function decimals(address _token) public view {\n        ERC20(_token).decimals();\n    }\n\n    function allowance(\n        address _token,\n        address _owner,\n        address _spender\n    ) public view {\n        ERC20(_token).allowance(_owner, _spender);\n    }\n\n    function increaseAllowance(\n        address _token,\n        address _spender,\n        uint256 _addedValue\n    ) public {\n        ERC20(_token).increaseAllowance(_spender, _addedValue);\n    }\n\n    function decreaseAllowance(\n        address _token,\n        address _spender,\n        uint256 _subtractedValue\n    ) public {\n        ERC20(_token).decreaseAllowance(_spender, _subtractedValue);\n    }\n}\n",
  "sourcePath": "/Users/aomwara/aomdev/mimic-farm-v2/contracts/ERC20Utils.sol",
  "compiler": {
    "name": "solc",
    "version": "0.6.6+commit.6c089d02.Emscripten.clang"
  },
  "schemaVersion": "3.4.3",
  "updatedAt": "2022-04-09T16:11:05.325Z",
  "networkType": "ethereum",
  "devdoc": {
    "methods": {}
  },
  "userdoc": {
    "methods": {}
  }
}