{
  "contractName": "ERC20Utils",
  "abi": [
    {
      "inputs": [
        {
          "internalType": "address",
          "name": "_token",
          "type": "address"
        },
        {
          "internalType": "address",
          "name": "_account",
          "type": "address"
        }
      ],
      "name": "balance",
      "outputs": [],
      "stateMutability": "nonpayable",
      "type": "function"
    },
    {
      "inputs": [
        {
          "internalType": "address",
          "name": "_token",
          "type": "address"
        },
        {
          "internalType": "address",
          "name": "_account",
          "type": "address"
        },
        {
          "internalType": "uint256",
          "name": "_amount",
          "type": "uint256"
        }
      ],
      "name": "approve",
      "outputs": [],
      "stateMutability": "nonpayable",
      "type": "function"
    }
  ],
  "bytecode": "0x608060405234801561001057600080fd5b506102c8806100206000396000f3fe608060405234801561001057600080fd5b50600436106100365760003560e01c8063b203bb991461003b578063e1f21c671461009f575b600080fd5b61009d6004803603604081101561005157600080fd5b81019080803573ffffffffffffffffffffffffffffffffffffffff169060200190929190803573ffffffffffffffffffffffffffffffffffffffff16906020019092919050505061010d565b005b61010b600480360360608110156100b557600080fd5b81019080803573ffffffffffffffffffffffffffffffffffffffff169060200190929190803573ffffffffffffffffffffffffffffffffffffffff169060200190929190803590602001909291905050506101ca565b005b8173ffffffffffffffffffffffffffffffffffffffff166370a08231826040518263ffffffff1660e01b8152600401808273ffffffffffffffffffffffffffffffffffffffff1673ffffffffffffffffffffffffffffffffffffffff16815260200191505060206040518083038186803b15801561018a57600080fd5b505afa15801561019e573d6000803e3d6000fd5b505050506040513d60208110156101b457600080fd5b8101908080519060200190929190505050505050565b8273ffffffffffffffffffffffffffffffffffffffff1663095ea7b383836040518363ffffffff1660e01b8152600401808373ffffffffffffffffffffffffffffffffffffffff1673ffffffffffffffffffffffffffffffffffffffff16815260200182815260200192505050602060405180830381600087803b15801561025157600080fd5b505af1158015610265573d6000803e3d6000fd5b505050506040513d602081101561027b57600080fd5b81019080805190602001909291905050505050505056fea264697066735822122034db8dd2ca8f4c95b40d0b98ac6f95b1d4baa49fb692595dd5861961efd4229264736f6c63430006060033",
  "immutableReferences": {},
  "source": "// SPDX-License-Identifier: MIT\r\n\r\npragma solidity ^0.6.6;\r\n\r\nimport \"@openzeppelin/contracts/token/ERC20/ERC20.sol\";\r\n\r\ncontract ERC20Utils{\r\n    function balance (address _token , address _account) public{\r\n        ERC20(_token).balanceOf(_account);\r\n    }\r\n    function approve (address _token , address _account , uint256 _amount) public {\r\n        ERC20(_token).approve(_account, _amount);\r\n    }\r\n}\r\n\r\n",
  "sourcePath": "/mnt/c/Users/PUNNAWICHSILPKITCHAR/Desktop/dev-mimic/mimic-farm-v2/contracts/ERC20Utils.sol",
  "compiler": {
    "name": "solc",
    "version": "0.6.6+commit.6c089d02.Emscripten.clang"
  },
  "schemaVersion": "3.4.6",
  "updatedAt": "2022-04-06T16:05:37.630Z",
  "devdoc": {
    "methods": {}
  },
  "userdoc": {
    "methods": {}
  }
}