{
  "contractName": "ERC20Utils",
  "abi": [
    {
      "inputs": [
        {
          "internalType": "address",
          "name": "_token",
          "type": "address"
        },
        {
          "internalType": "address",
          "name": "_account",
          "type": "address"
        }
      ],
      "name": "balanceOf",
      "outputs": [
        {
          "internalType": "uint256",
          "name": "",
          "type": "uint256"
        }
      ],
      "stateMutability": "view",
      "type": "function",
      "constant": true
    },
    {
      "inputs": [
        {
          "internalType": "address",
          "name": "_token",
          "type": "address"
        },
        {
          "internalType": "address",
          "name": "_spender",
          "type": "address"
        },
        {
          "internalType": "uint256",
          "name": "_amount",
          "type": "uint256"
        }
      ],
      "name": "approve",
      "outputs": [
        {
          "internalType": "bool",
          "name": "",
          "type": "bool"
        }
      ],
      "stateMutability": "payable",
      "type": "function",
      "payable": true
    },
    {
      "inputs": [
        {
          "internalType": "address",
          "name": "_token",
          "type": "address"
        },
        {
          "internalType": "address",
          "name": "_sender",
          "type": "address"
        },
        {
          "internalType": "address",
          "name": "_recipient",
          "type": "address"
        },
        {
          "internalType": "uint256",
          "name": "_amount",
          "type": "uint256"
        }
      ],
      "name": "transferFrom",
      "outputs": [],
      "stateMutability": "nonpayable",
      "type": "function"
    },
    {
      "inputs": [
        {
          "internalType": "address",
          "name": "_token",
          "type": "address"
        },
        {
          "internalType": "address",
          "name": "_recipient",
          "type": "address"
        },
        {
          "internalType": "uint256",
          "name": "_amount",
          "type": "uint256"
        }
      ],
      "name": "transfer",
      "outputs": [],
      "stateMutability": "nonpayable",
      "type": "function"
    },
    {
      "inputs": [
        {
          "internalType": "address",
          "name": "_token",
          "type": "address"
        }
      ],
      "name": "totalSupply",
      "outputs": [
        {
          "internalType": "uint256",
          "name": "",
          "type": "uint256"
        }
      ],
      "stateMutability": "view",
      "type": "function",
      "constant": true
    },
    {
      "inputs": [
        {
          "internalType": "address",
          "name": "_token",
          "type": "address"
        }
      ],
      "name": "name",
      "outputs": [
        {
          "internalType": "string",
          "name": "",
          "type": "string"
        }
      ],
      "stateMutability": "view",
      "type": "function",
      "constant": true
    },
    {
      "inputs": [
        {
          "internalType": "address",
          "name": "_token",
          "type": "address"
        }
      ],
      "name": "symbol",
      "outputs": [
        {
          "internalType": "string",
          "name": "",
          "type": "string"
        }
      ],
      "stateMutability": "view",
      "type": "function",
      "constant": true
    },
    {
      "inputs": [
        {
          "internalType": "address",
          "name": "_token",
          "type": "address"
        }
      ],
      "name": "decimals",
      "outputs": [
        {
          "internalType": "uint8",
          "name": "",
          "type": "uint8"
        }
      ],
      "stateMutability": "view",
      "type": "function",
      "constant": true
    },
    {
      "inputs": [
        {
          "internalType": "address",
          "name": "_token",
          "type": "address"
        },
        {
          "internalType": "address",
          "name": "_owner",
          "type": "address"
        },
        {
          "internalType": "address",
          "name": "_spender",
          "type": "address"
        }
      ],
      "name": "allowance",
      "outputs": [
        {
          "internalType": "uint256",
          "name": "",
          "type": "uint256"
        }
      ],
      "stateMutability": "view",
      "type": "function",
      "constant": true
    },
    {
      "inputs": [
        {
          "internalType": "address",
          "name": "_token",
          "type": "address"
        },
        {
          "internalType": "address",
          "name": "_spender",
          "type": "address"
        },
        {
          "internalType": "uint256",
          "name": "_addedValue",
          "type": "uint256"
        }
      ],
      "name": "increaseAllowance",
      "outputs": [],
      "stateMutability": "nonpayable",
      "type": "function"
    },
    {
      "inputs": [
        {
          "internalType": "address",
          "name": "_token",
          "type": "address"
        },
        {
          "internalType": "address",
          "name": "_spender",
          "type": "address"
        },
        {
          "internalType": "uint256",
          "name": "_subtractedValue",
          "type": "uint256"
        }
      ],
      "name": "decreaseAllowance",
      "outputs": [],
      "stateMutability": "nonpayable",
      "type": "function"
    }
  ],
  "bytecode": "0x608060405234801561001057600080fd5b50611076806100206000396000f3fe60806040526004361061009c5760003560e01c8063beabacc811610064578063beabacc8146103f0578063d449a8321461046b578063d73b1dc9146104d6578063e1f21c6714610551578063e4dc2aa4146105d7578063f7888aec1461063c5761009c565b806301984892146100a157806315dacbea1461016b5780636c43a2ca14610206578063927da10514610281578063a86e357614610326575b600080fd5b3480156100ad57600080fd5b506100f0600480360360208110156100c457600080fd5b81019080803573ffffffffffffffffffffffffffffffffffffffff1690602001909291905050506106c1565b6040518080602001828103825283818151815260200191508051906020019080838360005b83811015610130578082015181840152602081019050610115565b50505050905090810190601f16801561015d5780820380516001836020036101000a031916815260200191505b509250505060405180910390f35b34801561017757600080fd5b506102046004803603608081101561018e57600080fd5b81019080803573ffffffffffffffffffffffffffffffffffffffff169060200190929190803573ffffffffffffffffffffffffffffffffffffffff169060200190929190803573ffffffffffffffffffffffffffffffffffffffff16906020019092919080359060200190929190505050610809565b005b34801561021257600080fd5b5061027f6004803603606081101561022957600080fd5b81019080803573ffffffffffffffffffffffffffffffffffffffff169060200190929190803573ffffffffffffffffffffffffffffffffffffffff16906020019092919080359060200190929190505050610906565b005b34801561028d57600080fd5b50610310600480360360608110156102a457600080fd5b81019080803573ffffffffffffffffffffffffffffffffffffffff169060200190929190803573ffffffffffffffffffffffffffffffffffffffff169060200190929190803573ffffffffffffffffffffffffffffffffffffffff1690602001909291905050506109ce565b6040518082815260200191505060405180910390f35b34801561033257600080fd5b506103756004803603602081101561034957600080fd5b81019080803573ffffffffffffffffffffffffffffffffffffffff169060200190929190505050610ac5565b6040518080602001828103825283818151815260200191508051906020019080838360005b838110156103b557808201518184015260208101905061039a565b50505050905090810190601f1680156103e25780820380516001836020036101000a031916815260200191505b509250505060405180910390f35b3480156103fc57600080fd5b506104696004803603606081101561041357600080fd5b81019080803573ffffffffffffffffffffffffffffffffffffffff169060200190929190803573ffffffffffffffffffffffffffffffffffffffff16906020019092919080359060200190929190505050610c0d565b005b34801561047757600080fd5b506104ba6004803603602081101561048e57600080fd5b81019080803573ffffffffffffffffffffffffffffffffffffffff169060200190929190505050610cd5565b604051808260ff1660ff16815260200191505060405180910390f35b3480156104e257600080fd5b5061054f600480360360608110156104f957600080fd5b81019080803573ffffffffffffffffffffffffffffffffffffffff169060200190929190803573ffffffffffffffffffffffffffffffffffffffff16906020019092919080359060200190929190505050610d5f565b005b6105bd6004803603606081101561056757600080fd5b81019080803573ffffffffffffffffffffffffffffffffffffffff169060200190929190803573ffffffffffffffffffffffffffffffffffffffff16906020019092919080359060200190929190505050610e27565b604051808215151515815260200191505060405180910390f35b3480156105e357600080fd5b50610626600480360360208110156105fa57600080fd5b81019080803573ffffffffffffffffffffffffffffffffffffffff169060200190929190505050610ef4565b6040518082815260200191505060405180910390f35b34801561064857600080fd5b506106ab6004803603604081101561065f57600080fd5b81019080803573ffffffffffffffffffffffffffffffffffffffff169060200190929190803573ffffffffffffffffffffffffffffffffffffffff169060200190929190505050610f7e565b6040518082815260200191505060405180910390f35b60608173ffffffffffffffffffffffffffffffffffffffff166306fdde036040518163ffffffff1660e01b815260040160006040518083038186803b15801561070957600080fd5b505afa15801561071d573d6000803e3d6000fd5b505050506040513d6000823e3d601f19601f82011682018060405250602081101561074757600080fd5b810190808051604051939291908464010000000082111561076757600080fd5b8382019150602082018581111561077d57600080fd5b825186600182028301116401000000008211171561079a57600080fd5b8083526020830192505050908051906020019080838360005b838110156107ce5780820151818401526020810190506107b3565b50505050905090810190601f1680156107fb5780820380516001836020036101000a031916815260200191505b506040525050509050919050565b8373ffffffffffffffffffffffffffffffffffffffff166323b872dd8484846040518463ffffffff1660e01b8152600401808473ffffffffffffffffffffffffffffffffffffffff1673ffffffffffffffffffffffffffffffffffffffff1681526020018373ffffffffffffffffffffffffffffffffffffffff1673ffffffffffffffffffffffffffffffffffffffff1681526020018281526020019350505050602060405180830381600087803b1580156108c457600080fd5b505af11580156108d8573d6000803e3d6000fd5b505050506040513d60208110156108ee57600080fd5b81019080805190602001909291905050505050505050565b8273ffffffffffffffffffffffffffffffffffffffff16633950935183836040518363ffffffff1660e01b8152600401808373ffffffffffffffffffffffffffffffffffffffff1673ffffffffffffffffffffffffffffffffffffffff16815260200182815260200192505050602060405180830381600087803b15801561098d57600080fd5b505af11580156109a1573d6000803e3d6000fd5b505050506040513d60208110156109b757600080fd5b810190808051906020019092919050505050505050565b60008373ffffffffffffffffffffffffffffffffffffffff1663dd62ed3e84846040518363ffffffff1660e01b8152600401808373ffffffffffffffffffffffffffffffffffffffff1673ffffffffffffffffffffffffffffffffffffffff1681526020018273ffffffffffffffffffffffffffffffffffffffff1673ffffffffffffffffffffffffffffffffffffffff1681526020019250505060206040518083038186803b158015610a8157600080fd5b505afa158015610a95573d6000803e3d6000fd5b505050506040513d6020811015610aab57600080fd5b810190808051906020019092919050505090509392505050565b60608173ffffffffffffffffffffffffffffffffffffffff166395d89b416040518163ffffffff1660e01b815260040160006040518083038186803b158015610b0d57600080fd5b505afa158015610b21573d6000803e3d6000fd5b505050506040513d6000823e3d601f19601f820116820180604052506020811015610b4b57600080fd5b8101908080516040519392919084640100000000821115610b6b57600080fd5b83820191506020820185811115610b8157600080fd5b8251866001820283011164010000000082111715610b9e57600080fd5b8083526020830192505050908051906020019080838360005b83811015610bd2578082015181840152602081019050610bb7565b50505050905090810190601f168015610bff5780820380516001836020036101000a031916815260200191505b506040525050509050919050565b8273ffffffffffffffffffffffffffffffffffffffff1663a9059cbb83836040518363ffffffff1660e01b8152600401808373ffffffffffffffffffffffffffffffffffffffff1673ffffffffffffffffffffffffffffffffffffffff16815260200182815260200192505050602060405180830381600087803b158015610c9457600080fd5b505af1158015610ca8573d6000803e3d6000fd5b505050506040513d6020811015610cbe57600080fd5b810190808051906020019092919050505050505050565b60008173ffffffffffffffffffffffffffffffffffffffff1663313ce5676040518163ffffffff1660e01b815260040160206040518083038186803b158015610d1d57600080fd5b505afa158015610d31573d6000803e3d6000fd5b505050506040513d6020811015610d4757600080fd5b81019080805190602001909291905050509050919050565b8273ffffffffffffffffffffffffffffffffffffffff1663a457c2d783836040518363ffffffff1660e01b8152600401808373ffffffffffffffffffffffffffffffffffffffff1673ffffffffffffffffffffffffffffffffffffffff16815260200182815260200192505050602060405180830381600087803b158015610de657600080fd5b505af1158015610dfa573d6000803e3d6000fd5b505050506040513d6020811015610e1057600080fd5b810190808051906020019092919050505050505050565b60008373ffffffffffffffffffffffffffffffffffffffff1663095ea7b384846040518363ffffffff1660e01b8152600401808373ffffffffffffffffffffffffffffffffffffffff1673ffffffffffffffffffffffffffffffffffffffff16815260200182815260200192505050602060405180830381600087803b158015610eb057600080fd5b505af1158015610ec4573d6000803e3d6000fd5b505050506040513d6020811015610eda57600080fd5b810190808051906020019092919050505090509392505050565b60008173ffffffffffffffffffffffffffffffffffffffff166318160ddd6040518163ffffffff1660e01b815260040160206040518083038186803b158015610f3c57600080fd5b505afa158015610f50573d6000803e3d6000fd5b505050506040513d6020811015610f6657600080fd5b81019080805190602001909291905050509050919050565b60008273ffffffffffffffffffffffffffffffffffffffff166370a08231836040518263ffffffff1660e01b8152600401808273ffffffffffffffffffffffffffffffffffffffff1673ffffffffffffffffffffffffffffffffffffffff16815260200191505060206040518083038186803b158015610ffd57600080fd5b505afa158015611011573d6000803e3d6000fd5b505050506040513d602081101561102757600080fd5b810190808051906020019092919050505090509291505056fea264697066735822122062d2406762c6f9fe9374ca89f259d1e4ea3ec8a35c6bd09e5923f0cfef2d8db864736f6c63430006060033",
  "immutableReferences": {},
  "source": "// SPDX-License-Identifier: MIT\n\npragma solidity ^0.6.6;\n\nimport \"@openzeppelin/contracts/token/ERC20/ERC20.sol\";\nimport \"@openzeppelin/contracts/math/SafeMath.sol\";\n\ncontract ERC20Utils {\n    using SafeMath for uint256;\n\n    function balanceOf(address _token, address _account)\n        public\n        view\n        returns (uint256)\n    {\n        return ERC20(_token).balanceOf(_account);\n    }\n\n    function approve(\n        address _token,\n        address _spender,\n        uint256 _amount\n    ) public payable returns (bool) {\n        return ERC20(_token).approve(_spender, _amount);\n    }\n\n    function transferFrom(\n        address _token,\n        address _sender,\n        address _recipient,\n        uint256 _amount\n    ) public {\n        ERC20(_token).transferFrom(_sender, _recipient, _amount);\n    }\n\n    function transfer(\n        address _token,\n        address _recipient,\n        uint256 _amount\n    ) public {\n        ERC20(_token).transfer(_recipient, _amount);\n    }\n\n    function totalSupply(address _token) public view returns (uint256) {\n        return ERC20(_token).totalSupply();\n    }\n\n    function name(address _token) public view returns (string memory) {\n        return ERC20(_token).name();\n    }\n\n    function symbol(address _token) public view returns (string memory) {\n        return ERC20(_token).symbol();\n    }\n\n    function decimals(address _token) public view returns (uint8) {\n        return ERC20(_token).decimals();\n    }\n\n    function allowance(\n        address _token,\n        address _owner,\n        address _spender\n    ) public view returns (uint256) {\n        return ERC20(_token).allowance(_owner, _spender);\n    }\n\n    function increaseAllowance(\n        address _token,\n        address _spender,\n        uint256 _addedValue\n    ) public {\n        ERC20(_token).increaseAllowance(_spender, _addedValue);\n    }\n\n    function decreaseAllowance(\n        address _token,\n        address _spender,\n        uint256 _subtractedValue\n    ) public {\n        ERC20(_token).decreaseAllowance(_spender, _subtractedValue);\n    }\n}\n",
  "sourcePath": "/Users/aomwara/aomdev/mimic-farm-v2/contracts/ERC20Utils.sol",
  "compiler": {
    "name": "solc",
    "version": "0.6.6+commit.6c089d02.Emscripten.clang"
  },
  "schemaVersion": "3.4.3",
  "updatedAt": "2022-04-10T20:32:07.001Z",
  "networkType": "ethereum",
  "devdoc": {
    "methods": {}
  },
  "userdoc": {
    "methods": {}
  }
}