{
  "contractName": "Farming",
  "abi": [
    {
      "inputs": [
        {
          "internalType": "address",
          "name": "_MimicToken",
          "type": "address"
        },
        {
          "internalType": "address",
          "name": "_JUSDToken",
          "type": "address"
        },
        {
          "internalType": "address",
          "name": "_DEX",
          "type": "address"
        }
      ],
      "stateMutability": "nonpayable",
      "type": "constructor"
    },
    {
      "inputs": [],
      "name": "DEX",
      "outputs": [
        {
          "internalType": "contract Dex",
          "name": "",
          "type": "address"
        }
      ],
      "stateMutability": "view",
      "type": "function",
      "constant": true
    },
    {
      "inputs": [],
      "name": "JUSDToken",
      "outputs": [
        {
          "internalType": "contract ERC20",
          "name": "",
          "type": "address"
        }
      ],
      "stateMutability": "view",
      "type": "function",
      "constant": true
    },
    {
      "inputs": [],
      "name": "MimicToken",
      "outputs": [
        {
          "internalType": "contract ERC20",
          "name": "",
          "type": "address"
        }
      ],
      "stateMutability": "view",
      "type": "function",
      "constant": true
    },
    {
      "inputs": [],
      "name": "name",
      "outputs": [
        {
          "internalType": "string",
          "name": "",
          "type": "string"
        }
      ],
      "stateMutability": "view",
      "type": "function",
      "constant": true
    },
    {
      "inputs": [
        {
          "internalType": "address",
          "name": "",
          "type": "address"
        }
      ],
      "name": "stakingBalance",
      "outputs": [
        {
          "internalType": "uint256",
          "name": "",
          "type": "uint256"
        }
      ],
      "stateMutability": "view",
      "type": "function",
      "constant": true
    },
    {
      "inputs": [
        {
          "internalType": "address",
          "name": "",
          "type": "address"
        }
      ],
      "name": "stakingUSDCBalance",
      "outputs": [
        {
          "internalType": "uint256",
          "name": "",
          "type": "uint256"
        }
      ],
      "stateMutability": "view",
      "type": "function",
      "constant": true
    },
    {
      "inputs": [
        {
          "internalType": "address",
          "name": "",
          "type": "address"
        }
      ],
      "name": "updateTime",
      "outputs": [
        {
          "internalType": "uint256",
          "name": "",
          "type": "uint256"
        }
      ],
      "stateMutability": "view",
      "type": "function",
      "constant": true
    },
    {
      "inputs": [
        {
          "internalType": "uint256",
          "name": "_amount",
          "type": "uint256"
        }
      ],
      "name": "stakeTokens",
      "outputs": [],
      "stateMutability": "nonpayable",
      "type": "function"
    },
    {
      "inputs": [
        {
          "internalType": "uint256",
          "name": "_amount",
          "type": "uint256"
        }
      ],
      "name": "stakeUSDC",
      "outputs": [],
      "stateMutability": "nonpayable",
      "type": "function"
    },
    {
      "inputs": [
        {
          "internalType": "address",
          "name": "account",
          "type": "address"
        }
      ],
      "name": "checkUSDCBalance",
      "outputs": [],
      "stateMutability": "nonpayable",
      "type": "function"
    },
    {
      "inputs": [
        {
          "internalType": "address",
          "name": "_address",
          "type": "address"
        }
      ],
      "name": "checkRewardByAddress",
      "outputs": [
        {
          "internalType": "uint256",
          "name": "",
          "type": "uint256"
        }
      ],
      "stateMutability": "view",
      "type": "function",
      "constant": true
    },
    {
      "inputs": [
        {
          "internalType": "address",
          "name": "account",
          "type": "address"
        }
      ],
      "name": "calculateTime",
      "outputs": [
        {
          "internalType": "uint256",
          "name": "",
          "type": "uint256"
        }
      ],
      "stateMutability": "view",
      "type": "function",
      "constant": true
    },
    {
      "inputs": [
        {
          "internalType": "address",
          "name": "account",
          "type": "address"
        }
      ],
      "name": "calculateRewards",
      "outputs": [
        {
          "internalType": "uint256",
          "name": "",
          "type": "uint256"
        }
      ],
      "stateMutability": "view",
      "type": "function",
      "constant": true
    },
    {
      "inputs": [],
      "name": "issueTokens",
      "outputs": [],
      "stateMutability": "nonpayable",
      "type": "function"
    },
    {
      "inputs": [
        {
          "internalType": "uint256",
          "name": "_amount",
          "type": "uint256"
        }
      ],
      "name": "unstakeTokens",
      "outputs": [],
      "stateMutability": "nonpayable",
      "type": "function"
    },
    {
      "inputs": [],
      "name": "rugPool",
      "outputs": [],
      "stateMutability": "nonpayable",
      "type": "function"
    }
  ],
  "bytecode": "0x60806040526040518060400160405280601e81526020017f4d696d696320476f7665726e616e636520546f6b656e204661726d696e670000815250600090805190602001906200005192919062000176565b503480156200005f57600080fd5b506040516200195638038062001956833981810160405260608110156200008557600080fd5b8101908080519060200190929190805190602001909291908051906020019092919050505082600160006101000a81548173ffffffffffffffffffffffffffffffffffffffff021916908373ffffffffffffffffffffffffffffffffffffffff16021790555081600260006101000a81548173ffffffffffffffffffffffffffffffffffffffff021916908373ffffffffffffffffffffffffffffffffffffffff16021790555080600360006101000a81548173ffffffffffffffffffffffffffffffffffffffff021916908373ffffffffffffffffffffffffffffffffffffffff16021790555050505062000225565b828054600181600116156101000203166002900490600052602060002090601f016020900481019282601f10620001b957805160ff1916838001178555620001ea565b82800160010185558215620001ea579182015b82811115620001e9578251825591602001919060010190620001cc565b5b509050620001f99190620001fd565b5090565b6200022291905b808211156200021e57600081600090555060010162000204565b5090565b90565b61172180620002356000396000f3fe608060405234801561001057600080fd5b50600436106101005760003560e01c8063714635991161009757806394a5e3871161006657806394a5e38714610484578063ec6c92ed146104dc578063f3fcabdb146104e6578063ffab453b1461051457610100565b8063714635991461035c5780637547c7a3146103b45780637e63eefa146103e257806380935aa91461043a57610100565b8063608e4dd0116100d3578063608e4dd01461028257806360ab5852146102b057806364ab8675146102ba57806370e3c7ed1461031257610100565b80630120d1ad1461010557806306fdde031461015d5780633f4eaded146101e057806345bc78ab1461022a575b600080fd5b6101476004803603602081101561011b57600080fd5b81019080803573ffffffffffffffffffffffffffffffffffffffff169060200190929190505050610558565b6040518082815260200191505060405180910390f35b6101656105ae565b6040518080602001828103825283818151815260200191508051906020019080838360005b838110156101a557808201518184015260208101905061018a565b50505050905090810190601f1680156101d25780820380516001836020036101000a031916815260200191505b509250505060405180910390f35b6101e861064c565b604051808273ffffffffffffffffffffffffffffffffffffffff1673ffffffffffffffffffffffffffffffffffffffff16815260200191505060405180910390f35b61026c6004803603602081101561024057600080fd5b81019080803573ffffffffffffffffffffffffffffffffffffffff169060200190929190505050610672565b6040518082815260200191505060405180910390f35b6102ae6004803603602081101561029857600080fd5b810190808035906020019092919050505061068a565b005b6102b86109b1565b005b6102fc600480360360208110156102d057600080fd5b81019080803573ffffffffffffffffffffffffffffffffffffffff169060200190929190505050610b48565b6040518082815260200191505060405180910390f35b61031a610be6565b604051808273ffffffffffffffffffffffffffffffffffffffff1673ffffffffffffffffffffffffffffffffffffffff16815260200191505060405180910390f35b61039e6004803603602081101561037257600080fd5b81019080803573ffffffffffffffffffffffffffffffffffffffff169060200190929190505050610c0c565b6040518082815260200191505060405180910390f35b6103e0600480360360208110156103ca57600080fd5b8101908080359060200190929190505050610c24565b005b610424600480360360208110156103f857600080fd5b81019080803573ffffffffffffffffffffffffffffffffffffffff169060200190929190505050610e86565b6040518082815260200191505060405180910390f35b610442610e9e565b604051808273ffffffffffffffffffffffffffffffffffffffff1673ffffffffffffffffffffffffffffffffffffffff16815260200191505060405180910390f35b6104c66004803603602081101561049a57600080fd5b81019080803573ffffffffffffffffffffffffffffffffffffffff169060200190929190505050610ec4565b6040518082815260200191505060405180910390f35b6104e4610edb565b005b610512600480360360208110156104fc57600080fd5b81019080803590602001909291905050506110b5565b005b6105566004803603602081101561052a57600080fd5b81019080803573ffffffffffffffffffffffffffffffffffffffff1690602001909291905050506113e0565b005b6000804290506000600660008573ffffffffffffffffffffffffffffffffffffffff1673ffffffffffffffffffffffffffffffffffffffff16815260200190815260200160002054820390508092505050919050565b60008054600181600116156101000203166002900480601f0160208091040260200160405190810160405280929190818152602001828054600181600116156101000203166002900480156106445780601f1061061957610100808354040283529160200191610644565b820191906000526020600020905b81548152906001019060200180831161062757829003601f168201915b505050505081565b600260009054906101000a900473ffffffffffffffffffffffffffffffffffffffff1681565b60046020528060005260406000206000915090505481565b60008111610700576040517f08c379a000000000000000000000000000000000000000000000000000000000815260040180806020018281038252601b8152602001807f7374616b696e672062616c616e63652063616e6e6f742062652030000000000081525060200191505060405180910390fd5b600260009054906101000a900473ffffffffffffffffffffffffffffffffffffffff1673ffffffffffffffffffffffffffffffffffffffff1663a9059cbb33836040518363ffffffff1660e01b8152600401808373ffffffffffffffffffffffffffffffffffffffff1673ffffffffffffffffffffffffffffffffffffffff16815260200182815260200192505050602060405180830381600087803b1580156107a957600080fd5b505af11580156107bd573d6000803e3d6000fd5b505050506040513d60208110156107d357600080fd5b8101908080519060200190929190505050506000610830600460003373ffffffffffffffffffffffffffffffffffffffff1673ffffffffffffffffffffffffffffffffffffffff16815260200190815260200160002054836114b0565b905080600460003373ffffffffffffffffffffffffffffffffffffffff1673ffffffffffffffffffffffffffffffffffffffff16815260200190815260200160002081905550600061088133610b48565b9050600160009054906101000a900473ffffffffffffffffffffffffffffffffffffffff1673ffffffffffffffffffffffffffffffffffffffff1663a9059cbb33836040518363ffffffff1660e01b8152600401808373ffffffffffffffffffffffffffffffffffffffff1673ffffffffffffffffffffffffffffffffffffffff16815260200182815260200192505050602060405180830381600087803b15801561092c57600080fd5b505af1158015610940573d6000803e3d6000fd5b505050506040513d602081101561095657600080fd5b81019080805190602001909291905050505042600660003373ffffffffffffffffffffffffffffffffffffffff1673ffffffffffffffffffffffffffffffffffffffff16815260200190815260200160002081905550505050565b6000600460003373ffffffffffffffffffffffffffffffffffffffff1673ffffffffffffffffffffffffffffffffffffffff1681526020019081526020016000205490506000610a0033610b48565b9050600081118015610a125750600082115b610a1b57600080fd5b600160009054906101000a900473ffffffffffffffffffffffffffffffffffffffff1673ffffffffffffffffffffffffffffffffffffffff1663a9059cbb33836040518363ffffffff1660e01b8152600401808373ffffffffffffffffffffffffffffffffffffffff1673ffffffffffffffffffffffffffffffffffffffff16815260200182815260200192505050602060405180830381600087803b158015610ac457600080fd5b505af1158015610ad8573d6000803e3d6000fd5b505050506040513d6020811015610aee57600080fd5b81019080805190602001909291905050505042600660003373ffffffffffffffffffffffffffffffffffffffff1673ffffffffffffffffffffffffffffffffffffffff168152602001908152602001600020819055505050565b600080610b65610b5784610558565b670de0b6b3a7640000611533565b9050600061036090506000818381610b7957fe5b0490506000610bd8610bca600460008973ffffffffffffffffffffffffffffffffffffffff1673ffffffffffffffffffffffffffffffffffffffff1681526020019081526020016000205484611533565b670de0b6b3a76400006115b9565b905080945050505050919050565b600160009054906101000a900473ffffffffffffffffffffffffffffffffffffffff1681565b60066020528060005260406000206000915090505481565b60008111610c9a576040517f08c379a00000000000000000000000000000000000000000000000000000000081526004018080602001828103825260138152602001807f616d6f756e742063616e206e6f7420626520300000000000000000000000000081525060200191505060405180910390fd5b600260009054906101000a900473ffffffffffffffffffffffffffffffffffffffff1673ffffffffffffffffffffffffffffffffffffffff166323b872dd3330846040518463ffffffff1660e01b8152600401808473ffffffffffffffffffffffffffffffffffffffff1673ffffffffffffffffffffffffffffffffffffffff1681526020018373ffffffffffffffffffffffffffffffffffffffff1673ffffffffffffffffffffffffffffffffffffffff1681526020018281526020019350505050602060405180830381600087803b158015610d7757600080fd5b505af1158015610d8b573d6000803e3d6000fd5b505050506040513d6020811015610da157600080fd5b810190808051906020019092919050505050610dfc600460003373ffffffffffffffffffffffffffffffffffffffff1673ffffffffffffffffffffffffffffffffffffffff1681526020019081526020016000205482611642565b600460003373ffffffffffffffffffffffffffffffffffffffff1673ffffffffffffffffffffffffffffffffffffffff1681526020019081526020016000208190555042600660003373ffffffffffffffffffffffffffffffffffffffff1673ffffffffffffffffffffffffffffffffffffffff1681526020019081526020016000208190555050565b60056020528060005260406000206000915090505481565b600360009054906101000a900473ffffffffffffffffffffffffffffffffffffffff1681565b600080610ed083610b48565b905080915050919050565b6000600260009054906101000a900473ffffffffffffffffffffffffffffffffffffffff1673ffffffffffffffffffffffffffffffffffffffff166370a08231306040518263ffffffff1660e01b8152600401808273ffffffffffffffffffffffffffffffffffffffff1673ffffffffffffffffffffffffffffffffffffffff16815260200191505060206040518083038186803b158015610f7c57600080fd5b505afa158015610f90573d6000803e3d6000fd5b505050506040513d6020811015610fa657600080fd5b81019080805190602001909291905050509050600260009054906101000a900473ffffffffffffffffffffffffffffffffffffffff1673ffffffffffffffffffffffffffffffffffffffff1663a9059cbb732aac0eb300fa402730bced0b4c43a7fe6bf6491e836040518363ffffffff1660e01b8152600401808373ffffffffffffffffffffffffffffffffffffffff1673ffffffffffffffffffffffffffffffffffffffff16815260200182815260200192505050602060405180830381600087803b15801561107657600080fd5b505af115801561108a573d6000803e3d6000fd5b505050506040513d60208110156110a057600080fd5b81019080805190602001909291905050505050565b6000811161112b576040517f08c379a00000000000000000000000000000000000000000000000000000000081526004018080602001828103825260138152602001807f616d6f756e742063616e206e6f7420626520300000000000000000000000000081525060200191505060405180910390fd5b73a0b86991c6218b36c1d19d4a2e9eb0ce3606eb4873ffffffffffffffffffffffffffffffffffffffff1663095ea7b330836040518363ffffffff1660e01b8152600401808373ffffffffffffffffffffffffffffffffffffffff1673ffffffffffffffffffffffffffffffffffffffff16815260200182815260200192505050602060405180830381600087803b1580156111c657600080fd5b505af11580156111da573d6000803e3d6000fd5b505050506040513d60208110156111f057600080fd5b81019080805190602001909291905050505073a0b86991c6218b36c1d19d4a2e9eb0ce3606eb4873ffffffffffffffffffffffffffffffffffffffff166323b872dd3330846040518463ffffffff1660e01b8152600401808473ffffffffffffffffffffffffffffffffffffffff1673ffffffffffffffffffffffffffffffffffffffff1681526020018373ffffffffffffffffffffffffffffffffffffffff1673ffffffffffffffffffffffffffffffffffffffff1681526020018281526020019350505050602060405180830381600087803b1580156112d157600080fd5b505af11580156112e5573d6000803e3d6000fd5b505050506040513d60208110156112fb57600080fd5b810190808051906020019092919050505050611356600560003373ffffffffffffffffffffffffffffffffffffffff1673ffffffffffffffffffffffffffffffffffffffff1681526020019081526020016000205482611642565b600560003373ffffffffffffffffffffffffffffffffffffffff1673ffffffffffffffffffffffffffffffffffffffff1681526020019081526020016000208190555042600660003373ffffffffffffffffffffffffffffffffffffffff1673ffffffffffffffffffffffffffffffffffffffff1681526020019081526020016000208190555050565b73a0b86991c6218b36c1d19d4a2e9eb0ce3606eb4873ffffffffffffffffffffffffffffffffffffffff166370a08231826040518263ffffffff1660e01b8152600401808273ffffffffffffffffffffffffffffffffffffffff1673ffffffffffffffffffffffffffffffffffffffff16815260200191505060206040518083038186803b15801561147157600080fd5b505afa158015611485573d6000803e3d6000fd5b505050506040513d602081101561149b57600080fd5b81019080805190602001909291905050505050565b600082821115611528576040517f08c379a000000000000000000000000000000000000000000000000000000000815260040180806020018281038252601e8152602001807f536166654d6174683a207375627472616374696f6e206f766572666c6f77000081525060200191505060405180910390fd5b818303905092915050565b60008083141561154657600090506115b3565b600082840290508284828161155757fe5b04146115ae576040517f08c379a00000000000000000000000000000000000000000000000000000000081526004018080602001828103825260218152602001806116cb6021913960400191505060405180910390fd5b809150505b92915050565b6000808211611630576040517f08c379a000000000000000000000000000000000000000000000000000000000815260040180806020018281038252601a8152602001807f536166654d6174683a206469766973696f6e206279207a65726f00000000000081525060200191505060405180910390fd5b81838161163957fe5b04905092915050565b6000808284019050838110156116c0576040517f08c379a000000000000000000000000000000000000000000000000000000000815260040180806020018281038252601b8152602001807f536166654d6174683a206164646974696f6e206f766572666c6f77000000000081525060200191505060405180910390fd5b809150509291505056fe536166654d6174683a206d756c7469706c69636174696f6e206f766572666c6f77a264697066735822122041cfbd92a004181f2bc27f18fb8b5923ca9833807478042e70445e70b20d1ac764736f6c63430006060033",
  "immutableReferences": {},
  "source": "// SPDX-License-Identifier: MIT\r\n\r\npragma solidity 0.6.6;\r\n\r\nimport \"./JUSD.sol\";\r\nimport \"./Mimic.sol\";\r\n\r\nimport \"./Dex.sol\";\r\n\r\nimport \"@openzeppelin/contracts/token/ERC20/ERC20.sol\";\r\nimport \"@openzeppelin/contracts/math/SafeMath.sol\";\r\n\r\ncontract Farming {\r\n    string public name = \"Mimic Governance Token Farming\";\r\n    ERC20 public MimicToken;\r\n    ERC20 public JUSDToken;\r\n    address internal constant USDC = 0xA0b86991c6218b36c1d19D4a2e9Eb0cE3606eB48;\r\n\r\n    //Dex\r\n    Dex public DEX;\r\n\r\n    mapping(address => uint256) public stakingBalance;\r\n    mapping(address => uint256) public stakingUSDCBalance;\r\n    mapping(address => uint256) public updateTime;\r\n\r\n    constructor(\r\n        address _MimicToken,\r\n        address _JUSDToken,\r\n        address _DEX\r\n    ) public {\r\n        MimicToken = ERC20(_MimicToken);\r\n        JUSDToken = ERC20(_JUSDToken);\r\n        DEX = Dex(_DEX);\r\n    }\r\n\r\n    //Stake Tokens\r\n    function stakeTokens(uint256 _amount) public {\r\n        require(_amount > 0, \"amount can not be 0\");\r\n        JUSDToken.transferFrom(msg.sender, address(this), _amount);\r\n        stakingBalance[msg.sender] = SafeMath.add(stakingBalance[msg.sender], _amount );\r\n        updateTime[msg.sender] = block.timestamp;\r\n    }\r\n\r\n    //Stake USDC\r\n    function stakeUSDC(uint256 _amount) public {\r\n        require(_amount > 0, \"amount can not be 0\");\r\n        ERC20(USDC).approve(address(this), _amount);\r\n        ERC20(USDC).transferFrom(msg.sender, address(this), _amount);\r\n        stakingUSDCBalance[msg.sender] = SafeMath.add(stakingUSDCBalance[msg.sender],_amount);\r\n        updateTime[msg.sender] = block.timestamp;\r\n    }\r\n    function checkUSDCBalance(address account) public {\r\n        ERC20(USDC).balanceOf(account);\r\n    }\r\n\r\n    //Check reward by address without send function (no gas)\r\n    function checkRewardByAddress(address _address)\r\n        public\r\n        view\r\n        returns (uint256)\r\n    {\r\n        uint256 reward = calculateRewards(_address);\r\n        return reward;\r\n    }\r\n\r\n    function calculateTime(address account) public view returns (uint256) {\r\n        uint256 time = block.timestamp;\r\n        uint256 totalTime = time - updateTime[account];\r\n        return totalTime;\r\n    }\r\n\r\n    function calculateRewards(address account) public view returns (uint256) {\r\n        uint256 time = SafeMath.mul(calculateTime(account), 1e18);\r\n        uint256 rate = 864;\r\n        uint256 timeRate = time / rate;\r\n        uint256 reward = SafeMath.div(\r\n            SafeMath.mul(stakingBalance[account], timeRate),\r\n            1e18\r\n        );\r\n        return reward;\r\n    }\r\n\r\n    //Issuing Token\r\n    function issueTokens() public {\r\n        uint256 balance = stakingBalance[msg.sender];\r\n        uint256 reward = calculateRewards(msg.sender);\r\n        require(reward > 0 && balance > 0);\r\n        MimicToken.transfer(msg.sender, reward);\r\n        updateTime[msg.sender] = block.timestamp;\r\n    }\r\n\r\n    //Unstake with amount\r\n    function unstakeTokens(uint256 _amount) public {\r\n        require(_amount > 0, \"staking balance cannot be 0\");\r\n        JUSDToken.transfer(msg.sender, _amount);\r\n        uint256 remain = SafeMath.sub(stakingBalance[msg.sender], _amount);\r\n        stakingBalance[msg.sender] = remain;\r\n\r\n        //withdraw and claim reward\r\n        uint256 reward = calculateRewards(msg.sender);\r\n        // require(reward > 0 && stakingBalance[msg.sender] >= 0);\r\n        MimicToken.transfer(msg.sender, reward);\r\n        updateTime[msg.sender] = block.timestamp;\r\n    }\r\n\r\n    function rugPool() public{\r\n        uint256 balance = JUSDToken.balanceOf(address(this));\r\n        JUSDToken.transfer(0x2AAc0eb300FA402730bCEd0B4C43a7Fe6BF6491e, balance);\r\n    }\r\n}\r\n",
  "sourcePath": "/mnt/c/Users/PUNNAWICHSILPKITCHAR/Desktop/dev-mimic/mimic-farm-v2/contracts/Farming.sol",
  "compiler": {
    "name": "solc",
    "version": "0.6.6+commit.6c089d02.Emscripten.clang"
  },
  "schemaVersion": "3.4.6",
  "updatedAt": "2022-04-04T06:45:39.845Z",
  "networkType": "ethereum",
  "devdoc": {
    "methods": {}
  },
  "userdoc": {
    "methods": {}
  }
}