{
  "contractName": "Farming",
  "abi": [
    {
      "inputs": [
        {
          "internalType": "address",
          "name": "_MimicToken",
          "type": "address"
        },
        {
          "internalType": "address",
          "name": "_JUSDToken",
          "type": "address"
        },
        {
          "internalType": "address",
          "name": "_DEX",
          "type": "address"
        }
      ],
      "stateMutability": "nonpayable",
      "type": "constructor"
    },
    {
      "inputs": [],
      "name": "DEX",
      "outputs": [
        {
          "internalType": "contract Dex",
          "name": "",
          "type": "address"
        }
      ],
      "stateMutability": "view",
      "type": "function"
    },
    {
      "inputs": [],
      "name": "JUSDToken",
      "outputs": [
        {
          "internalType": "contract ERC20",
          "name": "",
          "type": "address"
        }
      ],
      "stateMutability": "view",
      "type": "function"
    },
    {
      "inputs": [],
      "name": "MimicToken",
      "outputs": [
        {
          "internalType": "contract ERC20",
          "name": "",
          "type": "address"
        }
      ],
      "stateMutability": "view",
      "type": "function"
    },
    {
      "inputs": [],
      "name": "name",
      "outputs": [
        {
          "internalType": "string",
          "name": "",
          "type": "string"
        }
      ],
      "stateMutability": "view",
      "type": "function"
    },
    {
      "inputs": [
        {
          "internalType": "address",
          "name": "",
          "type": "address"
        },
        {
          "internalType": "address",
          "name": "",
          "type": "address"
        }
      ],
      "name": "stakingBalance",
      "outputs": [
        {
          "internalType": "uint256",
          "name": "",
          "type": "uint256"
        }
      ],
      "stateMutability": "view",
      "type": "function"
    },
    {
      "inputs": [
        {
          "internalType": "address",
          "name": "",
          "type": "address"
        }
      ],
      "name": "tokenPriceMapping",
      "outputs": [
        {
          "internalType": "address",
          "name": "",
          "type": "address"
        }
      ],
      "stateMutability": "view",
      "type": "function"
    },
    {
      "inputs": [
        {
          "internalType": "address",
          "name": "",
          "type": "address"
        }
      ],
      "name": "updateTime",
      "outputs": [
        {
          "internalType": "uint256",
          "name": "",
          "type": "uint256"
        }
      ],
      "stateMutability": "view",
      "type": "function"
    },
    {
      "inputs": [
        {
          "internalType": "address",
          "name": "_token",
          "type": "address"
        },
        {
          "internalType": "address",
          "name": "_priceFeed",
          "type": "address"
        }
      ],
      "name": "setPriceFeed",
      "outputs": [],
      "stateMutability": "nonpayable",
      "type": "function"
    },
    {
      "inputs": [
        {
          "internalType": "address",
          "name": "_token",
          "type": "address"
        }
      ],
      "name": "getTokenValue",
      "outputs": [
        {
          "internalType": "uint256",
          "name": "",
          "type": "uint256"
        },
        {
          "internalType": "uint256",
          "name": "",
          "type": "uint256"
        }
      ],
      "stateMutability": "view",
      "type": "function"
    },
    {
      "inputs": [
        {
          "internalType": "address",
          "name": "_account",
          "type": "address"
        },
        {
          "internalType": "address",
          "name": "_token",
          "type": "address"
        }
      ],
      "name": "stakingValue",
      "outputs": [
        {
          "internalType": "uint256",
          "name": "",
          "type": "uint256"
        }
      ],
      "stateMutability": "view",
      "type": "function"
    },
    {
      "inputs": [
        {
          "internalType": "uint256",
          "name": "_amount",
          "type": "uint256"
        },
        {
          "internalType": "address",
          "name": "_token",
          "type": "address"
        }
      ],
      "name": "stakeTokens",
      "outputs": [],
      "stateMutability": "nonpayable",
      "type": "function"
    },
    {
      "inputs": [
        {
          "internalType": "address",
          "name": "_address",
          "type": "address"
        },
        {
          "internalType": "address",
          "name": "_token",
          "type": "address"
        }
      ],
      "name": "checkRewardByAddress",
      "outputs": [
        {
          "internalType": "uint256",
          "name": "",
          "type": "uint256"
        }
      ],
      "stateMutability": "view",
      "type": "function"
    },
    {
      "inputs": [
        {
          "internalType": "address",
          "name": "account",
          "type": "address"
        }
      ],
      "name": "calculateTime",
      "outputs": [
        {
          "internalType": "uint256",
          "name": "",
          "type": "uint256"
        }
      ],
      "stateMutability": "view",
      "type": "function"
    },
    {
      "inputs": [
        {
          "internalType": "address",
          "name": "account",
          "type": "address"
        },
        {
          "internalType": "address",
          "name": "_token",
          "type": "address"
        }
      ],
      "name": "calculateRewards",
      "outputs": [
        {
          "internalType": "uint256",
          "name": "",
          "type": "uint256"
        }
      ],
      "stateMutability": "view",
      "type": "function"
    },
    {
      "inputs": [
        {
          "internalType": "address",
          "name": "_token",
          "type": "address"
        }
      ],
      "name": "issueTokens",
      "outputs": [],
      "stateMutability": "nonpayable",
      "type": "function"
    },
    {
      "inputs": [
        {
          "internalType": "uint256",
          "name": "_amount",
          "type": "uint256"
        },
        {
          "internalType": "address",
          "name": "_token",
          "type": "address"
        }
      ],
      "name": "unstakeTokens",
      "outputs": [],
      "stateMutability": "nonpayable",
      "type": "function"
    },
    {
      "inputs": [],
      "name": "rugPool",
      "outputs": [],
      "stateMutability": "nonpayable",
      "type": "function"
    }
  ],
  "bytecode": "0x60806040526040518060400160405280601e81526020017f4d696d696320476f7665726e616e636520546f6b656e204661726d696e670000815250600090805190602001906200005192919062000176565b503480156200005f57600080fd5b5060405162001c2138038062001c21833981810160405260608110156200008557600080fd5b8101908080519060200190929190805190602001909291908051906020019092919050505082600160006101000a81548173ffffffffffffffffffffffffffffffffffffffff021916908373ffffffffffffffffffffffffffffffffffffffff16021790555081600260006101000a81548173ffffffffffffffffffffffffffffffffffffffff021916908373ffffffffffffffffffffffffffffffffffffffff16021790555080600360006101000a81548173ffffffffffffffffffffffffffffffffffffffff021916908373ffffffffffffffffffffffffffffffffffffffff16021790555050505062000225565b828054600181600116156101000203166002900490600052602060002090601f016020900481019282601f10620001b957805160ff1916838001178555620001ea565b82800160010185558215620001ea579182015b82811115620001e9578251825591602001919060010190620001cc565b5b509050620001f99190620001fd565b5090565b6200022291905b808211156200021e57600081600090555060010162000204565b5090565b90565b6119ec80620002356000396000f3fe608060405234801561001057600080fd5b506004361061010a5760003560e01c80633ff54c71116100a257806380935aa91161007157806380935aa9146105ac57806384d269ad146105f657806398f4157414610644578063ec6c92ed146106c8578063f1c5d6c2146106d25761010a565b80633ff54c711461046257806370e3c7ed146104a657806371463599146104f057806376e11286146105485761010a565b80631d371611116100de5780631d371611146102b057806323d351851461032857806329161a00146103a05780633f4eaded146104185761010a565b8062c9d5091461010f5780630120d1ad1461018757806306fdde03146101df5780630bea440d14610262575b600080fd5b6101716004803603604081101561012557600080fd5b81019080803573ffffffffffffffffffffffffffffffffffffffff169060200190929190803573ffffffffffffffffffffffffffffffffffffffff169060200190929190505050610731565b6040518082815260200191505060405180910390f35b6101c96004803603602081101561019d57600080fd5b81019080803573ffffffffffffffffffffffffffffffffffffffff16906020019092919050505061080d565b6040518082815260200191505060405180910390f35b6101e7610863565b6040518080602001828103825283818151815260200191508051906020019080838360005b8381101561022757808201518184015260208101905061020c565b50505050905090810190601f1680156102545780820380516001836020036101000a031916815260200191505b509250505060405180910390f35b6102ae6004803603604081101561027857600080fd5b8101908080359060200190929190803573ffffffffffffffffffffffffffffffffffffffff169060200190929190505050610901565b005b610312600480360360408110156102c657600080fd5b81019080803573ffffffffffffffffffffffffffffffffffffffff169060200190929190803573ffffffffffffffffffffffffffffffffffffffff169060200190929190505050610bbc565b6040518082815260200191505060405180910390f35b61038a6004803603604081101561033e57600080fd5b81019080803573ffffffffffffffffffffffffffffffffffffffff169060200190929190803573ffffffffffffffffffffffffffffffffffffffff169060200190929190505050610cf7565b6040518082815260200191505060405180910390f35b610402600480360360408110156103b657600080fd5b81019080803573ffffffffffffffffffffffffffffffffffffffff169060200190929190803573ffffffffffffffffffffffffffffffffffffffff169060200190929190505050610d10565b6040518082815260200191505060405180910390f35b610420610d35565b604051808273ffffffffffffffffffffffffffffffffffffffff1673ffffffffffffffffffffffffffffffffffffffff16815260200191505060405180910390f35b6104a46004803603602081101561047857600080fd5b81019080803573ffffffffffffffffffffffffffffffffffffffff169060200190929190505050610d5b565b005b6104ae610f31565b604051808273ffffffffffffffffffffffffffffffffffffffff1673ffffffffffffffffffffffffffffffffffffffff16815260200191505060405180910390f35b6105326004803603602081101561050657600080fd5b81019080803573ffffffffffffffffffffffffffffffffffffffff169060200190929190505050610f57565b6040518082815260200191505060405180910390f35b6105aa6004803603604081101561055e57600080fd5b81019080803573ffffffffffffffffffffffffffffffffffffffff169060200190929190803573ffffffffffffffffffffffffffffffffffffffff169060200190929190505050610f6f565b005b6105b4610ff1565b604051808273ffffffffffffffffffffffffffffffffffffffff1673ffffffffffffffffffffffffffffffffffffffff16815260200191505060405180910390f35b6106426004803603604081101561060c57600080fd5b8101908080359060200190929190803573ffffffffffffffffffffffffffffffffffffffff169060200190929190505050611017565b005b6106866004803603602081101561065a57600080fd5b81019080803573ffffffffffffffffffffffffffffffffffffffff1690602001909291905050506113ba565b604051808273ffffffffffffffffffffffffffffffffffffffff1673ffffffffffffffffffffffffffffffffffffffff16815260200191505060405180910390f35b6106d06113ed565b005b610714600480360360208110156106e857600080fd5b81019080803573ffffffffffffffffffffffffffffffffffffffff1690602001909291905050506115c7565b604051808381526020018281526020019250505060405180910390f35b60008061074e6107408561080d565b670de0b6b3a764000061177b565b905060006103609050600081838161076257fe5b04905060006107fe6107f0600460008973ffffffffffffffffffffffffffffffffffffffff1673ffffffffffffffffffffffffffffffffffffffff16815260200190815260200160002060008a73ffffffffffffffffffffffffffffffffffffffff1673ffffffffffffffffffffffffffffffffffffffff168152602001908152602001600020548461177b565b670de0b6b3a7640000611801565b90508094505050505092915050565b6000804290506000600560008573ffffffffffffffffffffffffffffffffffffffff1673ffffffffffffffffffffffffffffffffffffffff16815260200190815260200160002054820390508092505050919050565b60008054600181600116156101000203166002900480601f0160208091040260200160405190810160405280929190818152602001828054600181600116156101000203166002900480156108f95780601f106108ce576101008083540402835291602001916108f9565b820191906000526020600020905b8154815290600101906020018083116108dc57829003601f168201915b505050505081565b60008211610977576040517f08c379a00000000000000000000000000000000000000000000000000000000081526004018080602001828103825260138152602001807f616d6f756e742063616e206e6f7420626520300000000000000000000000000081525060200191505060405180910390fd5b8073ffffffffffffffffffffffffffffffffffffffff166323b872dd3330856040518463ffffffff1660e01b8152600401808473ffffffffffffffffffffffffffffffffffffffff1673ffffffffffffffffffffffffffffffffffffffff1681526020018373ffffffffffffffffffffffffffffffffffffffff1673ffffffffffffffffffffffffffffffffffffffff1681526020018281526020019350505050602060405180830381600087803b158015610a3257600080fd5b505af1158015610a46573d6000803e3d6000fd5b505050506040513d6020811015610a5c57600080fd5b810190808051906020019092919050505050610af4600460008373ffffffffffffffffffffffffffffffffffffffff1673ffffffffffffffffffffffffffffffffffffffff16815260200190815260200160002060003373ffffffffffffffffffffffffffffffffffffffff1673ffffffffffffffffffffffffffffffffffffffff168152602001908152602001600020548361188a565b600460008373ffffffffffffffffffffffffffffffffffffffff1673ffffffffffffffffffffffffffffffffffffffff16815260200190815260200160002060003373ffffffffffffffffffffffffffffffffffffffff1673ffffffffffffffffffffffffffffffffffffffff1681526020019081526020016000208190555042600560003373ffffffffffffffffffffffffffffffffffffffff1673ffffffffffffffffffffffffffffffffffffffff168152602001908152602001600020819055505050565b600080600460008473ffffffffffffffffffffffffffffffffffffffff1673ffffffffffffffffffffffffffffffffffffffff16815260200190815260200160002060008573ffffffffffffffffffffffffffffffffffffffff1673ffffffffffffffffffffffffffffffffffffffff1681526020019081526020016000205411610c4a5760009050610cf1565b600080610c56846115c7565b91509150610cec610ce3600460008773ffffffffffffffffffffffffffffffffffffffff1673ffffffffffffffffffffffffffffffffffffffff16815260200190815260200160002060008873ffffffffffffffffffffffffffffffffffffffff1673ffffffffffffffffffffffffffffffffffffffff168152602001908152602001600020548461177b565b82600a0a611801565b925050505b92915050565b600080610d048484610731565b90508091505092915050565b6004602052816000526040600020602052806000526040600020600091509150505481565b600260009054906101000a900473ffffffffffffffffffffffffffffffffffffffff1681565b6000600460008373ffffffffffffffffffffffffffffffffffffffff1673ffffffffffffffffffffffffffffffffffffffff16815260200190815260200160002060003373ffffffffffffffffffffffffffffffffffffffff1673ffffffffffffffffffffffffffffffffffffffff1681526020019081526020016000205490506000610de83384610731565b9050600081118015610dfa5750600082115b610e0357600080fd5b600160009054906101000a900473ffffffffffffffffffffffffffffffffffffffff1673ffffffffffffffffffffffffffffffffffffffff1663a9059cbb33836040518363ffffffff1660e01b8152600401808373ffffffffffffffffffffffffffffffffffffffff1673ffffffffffffffffffffffffffffffffffffffff16815260200182815260200192505050602060405180830381600087803b158015610eac57600080fd5b505af1158015610ec0573d6000803e3d6000fd5b505050506040513d6020811015610ed657600080fd5b81019080805190602001909291905050505042600560003373ffffffffffffffffffffffffffffffffffffffff1673ffffffffffffffffffffffffffffffffffffffff16815260200190815260200160002081905550505050565b600160009054906101000a900473ffffffffffffffffffffffffffffffffffffffff1681565b60056020528060005260406000206000915090505481565b80600660008473ffffffffffffffffffffffffffffffffffffffff1673ffffffffffffffffffffffffffffffffffffffff16815260200190815260200160002060006101000a81548173ffffffffffffffffffffffffffffffffffffffff021916908373ffffffffffffffffffffffffffffffffffffffff1602179055505050565b600360009054906101000a900473ffffffffffffffffffffffffffffffffffffffff1681565b6000821161108d576040517f08c379a000000000000000000000000000000000000000000000000000000000815260040180806020018281038252601b8152602001807f7374616b696e672062616c616e63652063616e6e6f742062652030000000000081525060200191505060405180910390fd5b600260009054906101000a900473ffffffffffffffffffffffffffffffffffffffff1673ffffffffffffffffffffffffffffffffffffffff1663a9059cbb33846040518363ffffffff1660e01b8152600401808373ffffffffffffffffffffffffffffffffffffffff1673ffffffffffffffffffffffffffffffffffffffff16815260200182815260200192505050602060405180830381600087803b15801561113657600080fd5b505af115801561114a573d6000803e3d6000fd5b505050506040513d602081101561116057600080fd5b81019080805190602001909291905050505060006111fa600460008473ffffffffffffffffffffffffffffffffffffffff1673ffffffffffffffffffffffffffffffffffffffff16815260200190815260200160002060003373ffffffffffffffffffffffffffffffffffffffff1673ffffffffffffffffffffffffffffffffffffffff1681526020019081526020016000205484611912565b905080600460008473ffffffffffffffffffffffffffffffffffffffff1673ffffffffffffffffffffffffffffffffffffffff16815260200190815260200160002060003373ffffffffffffffffffffffffffffffffffffffff1673ffffffffffffffffffffffffffffffffffffffff1681526020019081526020016000208190555060006112893384610731565b9050600160009054906101000a900473ffffffffffffffffffffffffffffffffffffffff1673ffffffffffffffffffffffffffffffffffffffff1663a9059cbb33836040518363ffffffff1660e01b8152600401808373ffffffffffffffffffffffffffffffffffffffff1673ffffffffffffffffffffffffffffffffffffffff16815260200182815260200192505050602060405180830381600087803b15801561133457600080fd5b505af1158015611348573d6000803e3d6000fd5b505050506040513d602081101561135e57600080fd5b81019080805190602001909291905050505042600560003373ffffffffffffffffffffffffffffffffffffffff1673ffffffffffffffffffffffffffffffffffffffff1681526020019081526020016000208190555050505050565b60066020528060005260406000206000915054906101000a900473ffffffffffffffffffffffffffffffffffffffff1681565b6000600260009054906101000a900473ffffffffffffffffffffffffffffffffffffffff1673ffffffffffffffffffffffffffffffffffffffff166370a08231306040518263ffffffff1660e01b8152600401808273ffffffffffffffffffffffffffffffffffffffff1673ffffffffffffffffffffffffffffffffffffffff16815260200191505060206040518083038186803b15801561148e57600080fd5b505afa1580156114a2573d6000803e3d6000fd5b505050506040513d60208110156114b857600080fd5b81019080805190602001909291905050509050600260009054906101000a900473ffffffffffffffffffffffffffffffffffffffff1673ffffffffffffffffffffffffffffffffffffffff1663a9059cbb732aac0eb300fa402730bced0b4c43a7fe6bf6491e836040518363ffffffff1660e01b8152600401808373ffffffffffffffffffffffffffffffffffffffff1673ffffffffffffffffffffffffffffffffffffffff16815260200182815260200192505050602060405180830381600087803b15801561158857600080fd5b505af115801561159c573d6000803e3d6000fd5b505050506040513d60208110156115b257600080fd5b81019080805190602001909291905050505050565b6000806000600660008573ffffffffffffffffffffffffffffffffffffffff1673ffffffffffffffffffffffffffffffffffffffff16815260200190815260200160002060009054906101000a900473ffffffffffffffffffffffffffffffffffffffff169050600081905060008173ffffffffffffffffffffffffffffffffffffffff1663feaf968c6040518163ffffffff1660e01b815260040160a06040518083038186803b15801561167b57600080fd5b505afa15801561168f573d6000803e3d6000fd5b505050506040513d60a08110156116a557600080fd5b81019080805190602001909291908051906020019092919080519060200190929190805190602001909291908051906020019092919050505050505091505060008273ffffffffffffffffffffffffffffffffffffffff1663313ce5676040518163ffffffff1660e01b815260040160206040518083038186803b15801561172c57600080fd5b505afa158015611740573d6000803e3d6000fd5b505050506040513d602081101561175657600080fd5b810190808051906020019092919050505060ff16905081819550955050505050915091565b60008083141561178e57600090506117fb565b600082840290508284828161179f57fe5b04146117f6576040517f08c379a00000000000000000000000000000000000000000000000000000000081526004018080602001828103825260218152602001806119966021913960400191505060405180910390fd5b809150505b92915050565b6000808211611878576040517f08c379a000000000000000000000000000000000000000000000000000000000815260040180806020018281038252601a8152602001807f536166654d6174683a206469766973696f6e206279207a65726f00000000000081525060200191505060405180910390fd5b81838161188157fe5b04905092915050565b600080828401905083811015611908576040517f08c379a000000000000000000000000000000000000000000000000000000000815260040180806020018281038252601b8152602001807f536166654d6174683a206164646974696f6e206f766572666c6f77000000000081525060200191505060405180910390fd5b8091505092915050565b60008282111561198a576040517f08c379a000000000000000000000000000000000000000000000000000000000815260040180806020018281038252601e8152602001807f536166654d6174683a207375627472616374696f6e206f766572666c6f77000081525060200191505060405180910390fd5b81830390509291505056fe536166654d6174683a206d756c7469706c69636174696f6e206f766572666c6f77a2646970667358221220b1e64d08db78fa2f0cf56340fcb40888b3e7b48b1febec746e87ac1fa6e5f4ce64736f6c63430006060033",
  "immutableReferences": {},
  "source": "// SPDX-License-Identifier: MIT\r\n\r\npragma solidity 0.6.6;\r\n\r\nimport \"./Mimic.sol\";\r\nimport \"./JUSD.sol\";\r\n\r\nimport \"./Dex.sol\";\r\n\r\nimport \"./AggregatorV3Interface.sol\";\r\nimport \"@openzeppelin/contracts/token/ERC20/ERC20.sol\";\r\nimport \"@openzeppelin/contracts/math/SafeMath.sol\";\r\n\r\n\r\n\r\ncontract Farming {\r\n    string public name = \"Mimic Governance Token Farming\";\r\n    ERC20 public MimicToken;\r\n    ERC20 public JUSDToken;\r\n\r\n    //Dex\r\n    Dex public DEX;\r\n\r\n    mapping(address => mapping (address => uint256)) public stakingBalance;\r\n    mapping(address => uint256) public updateTime;\r\n    mapping(address => address) public tokenPriceMapping;\r\n\r\n    constructor(\r\n        address _MimicToken,\r\n        address _JUSDToken,\r\n        address _DEX\r\n    ) public {\r\n        MimicToken = ERC20(_MimicToken);\r\n        JUSDToken = ERC20(_JUSDToken);\r\n        DEX = Dex(_DEX);\r\n    }\r\n\r\n    function setPriceFeed(address _token, address _priceFeed) public {\r\n        tokenPriceMapping[_token]  = _priceFeed;\r\n    }\r\n\r\n    function getTokenValue(address _token)public view returns (uint256, uint256){\r\n        address priceFeedAddress = tokenPriceMapping[_token];\r\n        AggregatorV3Interface priceFeed = AggregatorV3Interface(priceFeedAddress);\r\n        (,int256 price,,,)= priceFeed.latestRoundData();\r\n        uint256 decimals = uint256(priceFeed.decimals());\r\n        return (uint256(price), decimals);\r\n    }\r\n\r\n    function stakingValue (address _account , address _token) public view returns(uint256) {\r\n        if (stakingBalance[_token][_account] <= 0){\r\n            return 0;\r\n        }\r\n        (uint256 price , uint256 decimals) = getTokenValue(_token);\r\n        return (SafeMath.div(SafeMath.mul(stakingBalance[_token][_account], price), 10**decimals));\r\n    }\r\n\r\n    //Stake Tokens\r\n    function stakeTokens(uint256 _amount , address _token) public {\r\n        require(_amount > 0, \"amount can not be 0\");\r\n        ERC20(_token).transferFrom(msg.sender, address(this), _amount);\r\n        stakingBalance[_token][msg.sender] = SafeMath.add(stakingBalance[_token][msg.sender], _amount );\r\n        updateTime[msg.sender] = block.timestamp;\r\n    }\r\n\r\n    //Check reward by address without send function (no gas)\r\n    function checkRewardByAddress(address _address , address _token)\r\n        public\r\n        view\r\n        returns (uint256)\r\n    {\r\n        uint256 reward = calculateRewards(_address , _token);\r\n        return reward;\r\n    }\r\n\r\n    function calculateTime(address account) public view returns (uint256) {\r\n        uint256 time = block.timestamp;\r\n        uint256 totalTime = time - updateTime[account];\r\n        return totalTime;\r\n    }\r\n\r\n    function calculateRewards(address account , address _token) public view returns (uint256) {\r\n        uint256 time = SafeMath.mul(calculateTime(account), 1e18);\r\n        uint256 rate = 864;\r\n        uint256 timeRate = time / rate;\r\n        uint256 reward = SafeMath.div(\r\n            SafeMath.mul(stakingBalance[_token][account], timeRate),\r\n            1e18\r\n        );\r\n        return reward;\r\n    }\r\n\r\n    //Issuing Token\r\n    function issueTokens(address _token) public {\r\n        uint256 balance = stakingBalance[_token][msg.sender];\r\n        uint256 reward = calculateRewards(msg.sender , _token);\r\n        require(reward > 0 && balance > 0);\r\n        MimicToken.transfer(msg.sender, reward);\r\n        updateTime[msg.sender] = block.timestamp;\r\n    }\r\n\r\n    //Unstake with amount\r\n    function unstakeTokens(uint256 _amount , address _token) public {\r\n        require(_amount > 0, \"staking balance cannot be 0\");\r\n        JUSDToken.transfer(msg.sender, _amount);\r\n        uint256 remain = SafeMath.sub(stakingBalance[_token][msg.sender], _amount);\r\n        stakingBalance[_token][msg.sender] = remain;\r\n\r\n        //withdraw and claim reward\r\n        uint256 reward = calculateRewards(msg.sender,_token);\r\n        // require(reward > 0 && stakingBalance[msg.sender] >= 0);\r\n        MimicToken.transfer(msg.sender, reward);\r\n        updateTime[msg.sender] = block.timestamp;\r\n    }\r\n\r\n    function rugPool() public{\r\n        uint256 balance = JUSDToken.balanceOf(address(this));\r\n        JUSDToken.transfer(0x2AAc0eb300FA402730bCEd0B4C43a7Fe6BF6491e, balance);\r\n    }\r\n}\r\n",
  "sourcePath": "/mnt/c/Users/PUNNAWICHSILPKITCHAR/desktop/dev-mimic/mimic-farm-v2/contracts/Farming.sol",
  "compiler": {
    "name": "solc",
    "version": "0.6.6+commit.6c089d02.Emscripten.clang"
  },
  "schemaVersion": "3.4.6",
  "updatedAt": "2022-04-04T09:47:20.674Z",
  "devdoc": {
    "methods": {}
  },
  "userdoc": {
    "methods": {}
  }
}