{
  "contractName": "Farming",
  "abi": [
    {
      "inputs": [
        {
          "internalType": "address",
          "name": "_MimicToken",
          "type": "address"
        },
        {
          "internalType": "address",
          "name": "_JUSDToken",
          "type": "address"
        },
        {
          "internalType": "address",
          "name": "_DEX",
          "type": "address"
        }
      ],
      "stateMutability": "nonpayable",
      "type": "constructor"
    },
    {
      "inputs": [],
      "name": "DEX",
      "outputs": [
        {
          "internalType": "contract Dex",
          "name": "",
          "type": "address"
        }
      ],
      "stateMutability": "view",
      "type": "function",
      "constant": true
    },
    {
      "inputs": [],
      "name": "JUSDToken",
      "outputs": [
        {
          "internalType": "contract ERC20",
          "name": "",
          "type": "address"
        }
      ],
      "stateMutability": "view",
      "type": "function",
      "constant": true
    },
    {
      "inputs": [],
      "name": "MimicToken",
      "outputs": [
        {
          "internalType": "contract ERC20",
          "name": "",
          "type": "address"
        }
      ],
      "stateMutability": "view",
      "type": "function",
      "constant": true
    },
    {
      "inputs": [],
      "name": "name",
      "outputs": [
        {
          "internalType": "string",
          "name": "",
          "type": "string"
        }
      ],
      "stateMutability": "view",
      "type": "function",
      "constant": true
    },
    {
      "inputs": [
        {
          "internalType": "address",
          "name": "",
          "type": "address"
        }
      ],
      "name": "stakingBalance",
      "outputs": [
        {
          "internalType": "uint256",
          "name": "",
          "type": "uint256"
        }
      ],
      "stateMutability": "view",
      "type": "function",
      "constant": true
    },
    {
      "inputs": [
        {
          "internalType": "address",
          "name": "",
          "type": "address"
        }
      ],
      "name": "stakingUSDCBalance",
      "outputs": [
        {
          "internalType": "uint256",
          "name": "",
          "type": "uint256"
        }
      ],
      "stateMutability": "view",
      "type": "function",
      "constant": true
    },
    {
      "inputs": [
        {
          "internalType": "address",
          "name": "",
          "type": "address"
        }
      ],
      "name": "updateTime",
      "outputs": [
        {
          "internalType": "uint256",
          "name": "",
          "type": "uint256"
        }
      ],
      "stateMutability": "view",
      "type": "function",
      "constant": true
    },
    {
      "inputs": [
        {
          "internalType": "uint256",
          "name": "_amount",
          "type": "uint256"
        }
      ],
      "name": "stakeTokens",
      "outputs": [],
      "stateMutability": "nonpayable",
      "type": "function"
    },
    {
      "inputs": [
        {
          "internalType": "uint256",
          "name": "_amount",
          "type": "uint256"
        },
        {
          "internalType": "address",
          "name": "_tokenAddress",
          "type": "address"
        }
      ],
      "name": "stakeStableCoin",
      "outputs": [],
      "stateMutability": "nonpayable",
      "type": "function"
    },
    {
      "inputs": [
        {
          "internalType": "address",
          "name": "_address",
          "type": "address"
        }
      ],
      "name": "checkRewardByAddress",
      "outputs": [
        {
          "internalType": "uint256",
          "name": "",
          "type": "uint256"
        }
      ],
      "stateMutability": "view",
      "type": "function",
      "constant": true
    },
    {
      "inputs": [
        {
          "internalType": "address",
          "name": "account",
          "type": "address"
        }
      ],
      "name": "calculateTime",
      "outputs": [
        {
          "internalType": "uint256",
          "name": "",
          "type": "uint256"
        }
      ],
      "stateMutability": "view",
      "type": "function",
      "constant": true
    },
    {
      "inputs": [
        {
          "internalType": "address",
          "name": "account",
          "type": "address"
        }
      ],
      "name": "calculateRewards",
      "outputs": [
        {
          "internalType": "uint256",
          "name": "",
          "type": "uint256"
        }
      ],
      "stateMutability": "view",
      "type": "function",
      "constant": true
    },
    {
      "inputs": [],
      "name": "issueTokens",
      "outputs": [],
      "stateMutability": "nonpayable",
      "type": "function"
    },
    {
      "inputs": [
        {
          "internalType": "uint256",
          "name": "_amount",
          "type": "uint256"
        }
      ],
      "name": "unstakeTokens",
      "outputs": [],
      "stateMutability": "nonpayable",
      "type": "function"
    }
  ],
  "bytecode": "0x60806040526040518060400160405280601e81526020017f4d696d696320476f7665726e616e636520546f6b656e204661726d696e670000815250600090805190602001906200005192919062000176565b503480156200005f57600080fd5b506040516200147a3803806200147a833981810160405260608110156200008557600080fd5b8101908080519060200190929190805190602001909291908051906020019092919050505082600160006101000a81548173ffffffffffffffffffffffffffffffffffffffff021916908373ffffffffffffffffffffffffffffffffffffffff16021790555081600260006101000a81548173ffffffffffffffffffffffffffffffffffffffff021916908373ffffffffffffffffffffffffffffffffffffffff16021790555080600360006101000a81548173ffffffffffffffffffffffffffffffffffffffff021916908373ffffffffffffffffffffffffffffffffffffffff16021790555050505062000225565b828054600181600116156101000203166002900490600052602060002090601f016020900481019282601f10620001b957805160ff1916838001178555620001ea565b82800160010185558215620001ea579182015b82811115620001e9578251825591602001919060010190620001cc565b5b509050620001f99190620001fd565b5090565b6200022291905b808211156200021e57600081600090555060010162000204565b5090565b90565b61124580620002356000396000f3fe608060405234801561001057600080fd5b50600436106100ea5760003560e01c806364ab86751161008c5780637547c7a3116100665780637547c7a3146103ec5780637e63eefa1461041a57806380935aa91461047257806394a5e387146104bc576100ea565b806364ab8675146102f257806370e3c7ed1461034a5780637146359914610394576100ea565b80633f4eaded116100c85780633f4eaded1461021857806345bc78ab14610262578063608e4dd0146102ba57806360ab5852146102e8576100ea565b80630120d1ad146100ef57806306fdde03146101475780632b20b27c146101ca575b600080fd5b6101316004803603602081101561010557600080fd5b81019080803573ffffffffffffffffffffffffffffffffffffffff169060200190929190505050610514565b6040518082815260200191505060405180910390f35b61014f61056a565b6040518080602001828103825283818151815260200191508051906020019080838360005b8381101561018f578082015181840152602081019050610174565b50505050905090810190601f1680156101bc5780820380516001836020036101000a031916815260200191505b509250505060405180910390f35b610216600480360360408110156101e057600080fd5b8101908080359060200190929190803573ffffffffffffffffffffffffffffffffffffffff169060200190929190505050610608565b005b610220610777565b604051808273ffffffffffffffffffffffffffffffffffffffff1673ffffffffffffffffffffffffffffffffffffffff16815260200191505060405180910390f35b6102a46004803603602081101561027857600080fd5b81019080803573ffffffffffffffffffffffffffffffffffffffff16906020019092919050505061079d565b6040518082815260200191505060405180910390f35b6102e6600480360360208110156102d057600080fd5b81019080803590602001909291905050506107b5565b005b6102f0610b2d565b005b6103346004803603602081101561030857600080fd5b81019080803573ffffffffffffffffffffffffffffffffffffffff169060200190929190505050610cc4565b6040518082815260200191505060405180910390f35b610352610d62565b604051808273ffffffffffffffffffffffffffffffffffffffff1673ffffffffffffffffffffffffffffffffffffffff16815260200191505060405180910390f35b6103d6600480360360208110156103aa57600080fd5b81019080803573ffffffffffffffffffffffffffffffffffffffff169060200190929190505050610d88565b6040518082815260200191505060405180910390f35b6104186004803603602081101561040257600080fd5b8101908080359060200190929190505050610da0565b005b61045c6004803603602081101561043057600080fd5b81019080803573ffffffffffffffffffffffffffffffffffffffff169060200190929190505050611002565b6040518082815260200191505060405180910390f35b61047a61101a565b604051808273ffffffffffffffffffffffffffffffffffffffff1673ffffffffffffffffffffffffffffffffffffffff16815260200191505060405180910390f35b6104fe600480360360208110156104d257600080fd5b81019080803573ffffffffffffffffffffffffffffffffffffffff169060200190929190505050611040565b6040518082815260200191505060405180910390f35b6000804290506000600660008573ffffffffffffffffffffffffffffffffffffffff1673ffffffffffffffffffffffffffffffffffffffff16815260200190815260200160002054820390508092505050919050565b60008054600181600116156101000203166002900480601f0160208091040260200160405190810160405280929190818152602001828054600181600116156101000203166002900480156106005780601f106105d557610100808354040283529160200191610600565b820191906000526020600020905b8154815290600101906020018083116105e357829003601f168201915b505050505081565b6000821161067e576040517f08c379a00000000000000000000000000000000000000000000000000000000081526004018080602001828103825260138152602001807f616d6f756e742063616e206e6f7420626520300000000000000000000000000081525060200191505060405180910390fd5b600360009054906101000a900473ffffffffffffffffffffffffffffffffffffffff1673ffffffffffffffffffffffffffffffffffffffff16632190ca998333846040518463ffffffff1660e01b8152600401808481526020018373ffffffffffffffffffffffffffffffffffffffff1673ffffffffffffffffffffffffffffffffffffffff1681526020018273ffffffffffffffffffffffffffffffffffffffff1673ffffffffffffffffffffffffffffffffffffffff1681526020019350505050600060405180830381600087803b15801561075b57600080fd5b505af115801561076f573d6000803e3d6000fd5b505050505050565b600260009054906101000a900473ffffffffffffffffffffffffffffffffffffffff1681565b60046020528060005260406000206000915090505481565b6000811161082b576040517f08c379a000000000000000000000000000000000000000000000000000000000815260040180806020018281038252601b8152602001807f7374616b696e672062616c616e63652063616e6e6f742062652030000000000081525060200191505060405180910390fd5b600260009054906101000a900473ffffffffffffffffffffffffffffffffffffffff1673ffffffffffffffffffffffffffffffffffffffff1663a9059cbb33836040518363ffffffff1660e01b8152600401808373ffffffffffffffffffffffffffffffffffffffff1673ffffffffffffffffffffffffffffffffffffffff16815260200182815260200192505050602060405180830381600087803b1580156108d457600080fd5b505af11580156108e8573d6000803e3d6000fd5b505050506040513d60208110156108fe57600080fd5b810190808051906020019092919050505050600081600460003373ffffffffffffffffffffffffffffffffffffffff1673ffffffffffffffffffffffffffffffffffffffff1681526020019081526020016000205403905080600460003373ffffffffffffffffffffffffffffffffffffffff1673ffffffffffffffffffffffffffffffffffffffff1681526020019081526020016000208190555060006109a533610cc4565b90506000811180156109f657506000600460003373ffffffffffffffffffffffffffffffffffffffff1673ffffffffffffffffffffffffffffffffffffffff16815260200190815260200160002054115b6109ff57600080fd5b600160009054906101000a900473ffffffffffffffffffffffffffffffffffffffff1673ffffffffffffffffffffffffffffffffffffffff1663a9059cbb33836040518363ffffffff1660e01b8152600401808373ffffffffffffffffffffffffffffffffffffffff1673ffffffffffffffffffffffffffffffffffffffff16815260200182815260200192505050602060405180830381600087803b158015610aa857600080fd5b505af1158015610abc573d6000803e3d6000fd5b505050506040513d6020811015610ad257600080fd5b81019080805190602001909291905050505042600660003373ffffffffffffffffffffffffffffffffffffffff1673ffffffffffffffffffffffffffffffffffffffff16815260200190815260200160002081905550505050565b6000600460003373ffffffffffffffffffffffffffffffffffffffff1673ffffffffffffffffffffffffffffffffffffffff1681526020019081526020016000205490506000610b7c33610cc4565b9050600081118015610b8e5750600082115b610b9757600080fd5b600160009054906101000a900473ffffffffffffffffffffffffffffffffffffffff1673ffffffffffffffffffffffffffffffffffffffff1663a9059cbb33836040518363ffffffff1660e01b8152600401808373ffffffffffffffffffffffffffffffffffffffff1673ffffffffffffffffffffffffffffffffffffffff16815260200182815260200192505050602060405180830381600087803b158015610c4057600080fd5b505af1158015610c54573d6000803e3d6000fd5b505050506040513d6020811015610c6a57600080fd5b81019080805190602001909291905050505042600660003373ffffffffffffffffffffffffffffffffffffffff1673ffffffffffffffffffffffffffffffffffffffff168152602001908152602001600020819055505050565b600080610ce1610cd384610514565b670de0b6b3a7640000611057565b9050600061036090506000818381610cf557fe5b0490506000610d54610d46600460008973ffffffffffffffffffffffffffffffffffffffff1673ffffffffffffffffffffffffffffffffffffffff1681526020019081526020016000205484611057565b670de0b6b3a76400006110dd565b905080945050505050919050565b600160009054906101000a900473ffffffffffffffffffffffffffffffffffffffff1681565b60066020528060005260406000206000915090505481565b60008111610e16576040517f08c379a00000000000000000000000000000000000000000000000000000000081526004018080602001828103825260138152602001807f616d6f756e742063616e206e6f7420626520300000000000000000000000000081525060200191505060405180910390fd5b600260009054906101000a900473ffffffffffffffffffffffffffffffffffffffff1673ffffffffffffffffffffffffffffffffffffffff166323b872dd3330846040518463ffffffff1660e01b8152600401808473ffffffffffffffffffffffffffffffffffffffff1673ffffffffffffffffffffffffffffffffffffffff1681526020018373ffffffffffffffffffffffffffffffffffffffff1673ffffffffffffffffffffffffffffffffffffffff1681526020018281526020019350505050602060405180830381600087803b158015610ef357600080fd5b505af1158015610f07573d6000803e3d6000fd5b505050506040513d6020811015610f1d57600080fd5b810190808051906020019092919050505050610f78600460003373ffffffffffffffffffffffffffffffffffffffff1673ffffffffffffffffffffffffffffffffffffffff1681526020019081526020016000205482611166565b600460003373ffffffffffffffffffffffffffffffffffffffff1673ffffffffffffffffffffffffffffffffffffffff1681526020019081526020016000208190555042600660003373ffffffffffffffffffffffffffffffffffffffff1673ffffffffffffffffffffffffffffffffffffffff1681526020019081526020016000208190555050565b60056020528060005260406000206000915090505481565b600360009054906101000a900473ffffffffffffffffffffffffffffffffffffffff1681565b60008061104c83610cc4565b905080915050919050565b60008083141561106a57600090506110d7565b600082840290508284828161107b57fe5b04146110d2576040517f08c379a00000000000000000000000000000000000000000000000000000000081526004018080602001828103825260218152602001806111ef6021913960400191505060405180910390fd5b809150505b92915050565b6000808211611154576040517f08c379a000000000000000000000000000000000000000000000000000000000815260040180806020018281038252601a8152602001807f536166654d6174683a206469766973696f6e206279207a65726f00000000000081525060200191505060405180910390fd5b81838161115d57fe5b04905092915050565b6000808284019050838110156111e4576040517f08c379a000000000000000000000000000000000000000000000000000000000815260040180806020018281038252601b8152602001807f536166654d6174683a206164646974696f6e206f766572666c6f77000000000081525060200191505060405180910390fd5b809150509291505056fe536166654d6174683a206d756c7469706c69636174696f6e206f766572666c6f77a2646970667358221220ff108955da29d177959eb6f9809303908b098226d7c2c517775688b1a930ae7164736f6c63430006060033",
  "immutableReferences": {},
  "source": "// SPDX-License-Identifier: MIT\r\n\r\npragma solidity 0.6.6;\r\n\r\nimport \"./JUSD.sol\";\r\nimport \"./Mimic.sol\";\r\n\r\nimport \"./Dex.sol\";\r\n\r\nimport \"@openzeppelin/contracts/token/ERC20/ERC20.sol\";\r\nimport \"@openzeppelin/contracts/math/SafeMath.sol\";\r\n\r\ncontract Farming {\r\n    string public name = \"Mimic Governance Token Farming\";\r\n    ERC20 public MimicToken;\r\n    ERC20 public JUSDToken;\r\n\r\n    //Dex\r\n    Dex public DEX;\r\n\r\n    mapping(address => uint256) public stakingBalance;\r\n    mapping(address => uint256) public stakingUSDCBalance;\r\n    mapping(address => uint256) public updateTime;\r\n\r\n    constructor(\r\n        address _MimicToken,\r\n        address _JUSDToken,\r\n        address _DEX\r\n    ) public {\r\n        MimicToken = ERC20(_MimicToken);\r\n        JUSDToken = ERC20(_JUSDToken);\r\n        DEX = Dex(_DEX);\r\n    }\r\n\r\n    //Stake Tokens\r\n    function stakeTokens(uint256 _amount) public {\r\n        require(_amount > 0, \"amount can not be 0\");\r\n        JUSDToken.transferFrom(msg.sender, address(this), _amount);\r\n        stakingBalance[msg.sender] = SafeMath.add(\r\n            stakingBalance[msg.sender],\r\n            _amount\r\n        );\r\n        updateTime[msg.sender] = block.timestamp;\r\n    }\r\n\r\n    function stakeStableCoin(uint256 _amount, address _tokenAddress) public {\r\n        require(_amount > 0, \"amount can not be 0\");\r\n        // USDC.transferFrom(msg.sender, address(this), _amount);\r\n        // stakingUSDCBalance[msg.sender] = SafeMath.add(\r\n        //     stakingUSDCBalance[msg.sender],\r\n        //     _amount\r\n        // );\r\n        //lastUpdate[msg.sender] = block.timestamp;\r\n        DEX.swapTokenForEth(_amount, msg.sender, _tokenAddress);\r\n    }\r\n\r\n    //Check reward by address without send function (no gas)\r\n    function checkRewardByAddress(address _address) public view returns (uint256){\r\n        uint256 reward = calculateRewards(_address);\r\n        return reward;\r\n    }\r\n\r\n    function calculateTime(address account)public view returns(uint256){\r\n        uint256 time = block.timestamp;\r\n        uint totalTime = time-updateTime[account];\r\n        return totalTime;\r\n    }\r\n\r\n    function calculateRewards(address account)public view returns(uint256){\r\n        uint256 time = SafeMath.mul(calculateTime(account), 1e18);\r\n        uint256 rate = 864;\r\n        uint256 timeRate = time/rate;\r\n        uint256 reward = SafeMath.div(SafeMath.mul(stakingBalance[account], timeRate), 1e18);\r\n        return reward;\r\n    }\r\n    //Issuing Token\r\n    function issueTokens() public {\r\n        uint256 balance = stakingBalance[msg.sender];\r\n        uint256 reward = calculateRewards(msg.sender);\r\n        require(reward > 0 && balance > 0);\r\n        MimicToken.transfer(msg.sender, reward);\r\n        updateTime[msg.sender] = block.timestamp;\r\n    }\r\n\r\n    //Unstake with amount\r\n    function unstakeTokens(uint256 _amount) public {\r\n        require(_amount > 0, \"staking balance cannot be 0\");\r\n        JUSDToken.transfer(msg.sender, _amount);\r\n        uint256 remain = stakingBalance[msg.sender] - _amount;\r\n        stakingBalance[msg.sender] = remain;\r\n\r\n        //withdraw and claim reward\r\n        uint256 reward = calculateRewards(msg.sender);\r\n        require(reward > 0 && stakingBalance[msg.sender] > 0);\r\n        MimicToken.transfer(msg.sender, reward);\r\n        updateTime[msg.sender] = block.timestamp;\r\n    }\r\n}\r\n",
  "sourcePath": "D:\\CPE@KMUTT\\Senior-Project\\mimic-farm-v2\\contracts\\Farming.sol",
  "compiler": {
    "name": "solc",
    "version": "0.6.6+commit.6c089d02.Emscripten.clang"
  },
  "schemaVersion": "3.4.5",
  "updatedAt": "2022-03-25T13:07:45.756Z",
  "networkType": "ethereum",
  "devdoc": {
    "methods": {}
  },
  "userdoc": {
    "methods": {}
  }
}