{
  "contractName": "Farming",
  "abi": [
    {
      "inputs": [
        {
          "internalType": "address",
          "name": "_MimicToken",
          "type": "address"
        },
        {
          "internalType": "address",
          "name": "_JUSDToken",
          "type": "address"
        },
        {
          "internalType": "address",
          "name": "_DEX",
          "type": "address"
        }
      ],
      "stateMutability": "nonpayable",
      "type": "constructor"
    },
    {
      "inputs": [],
      "name": "DEX",
      "outputs": [
        {
          "internalType": "contract Dex",
          "name": "",
          "type": "address"
        }
      ],
      "stateMutability": "view",
      "type": "function",
      "constant": true
    },
    {
      "inputs": [],
      "name": "JUSDToken",
      "outputs": [
        {
          "internalType": "contract ERC20",
          "name": "",
          "type": "address"
        }
      ],
      "stateMutability": "view",
      "type": "function",
      "constant": true
    },
    {
      "inputs": [],
      "name": "MimicToken",
      "outputs": [
        {
          "internalType": "contract ERC20",
          "name": "",
          "type": "address"
        }
      ],
      "stateMutability": "view",
      "type": "function",
      "constant": true
    },
    {
      "inputs": [
        {
          "internalType": "address",
          "name": "",
          "type": "address"
        }
      ],
      "name": "lastUpdate",
      "outputs": [
        {
          "internalType": "uint256",
          "name": "",
          "type": "uint256"
        }
      ],
      "stateMutability": "view",
      "type": "function",
      "constant": true
    },
    {
      "inputs": [],
      "name": "name",
      "outputs": [
        {
          "internalType": "string",
          "name": "",
          "type": "string"
        }
      ],
      "stateMutability": "view",
      "type": "function",
      "constant": true
    },
    {
      "inputs": [],
      "name": "rewardRate",
      "outputs": [
        {
          "internalType": "uint256",
          "name": "",
          "type": "uint256"
        }
      ],
      "stateMutability": "view",
      "type": "function",
      "constant": true
    },
    {
      "inputs": [
        {
          "internalType": "address",
          "name": "",
          "type": "address"
        }
      ],
      "name": "stakingBalance",
      "outputs": [
        {
          "internalType": "uint256",
          "name": "",
          "type": "uint256"
        }
      ],
      "stateMutability": "view",
      "type": "function",
      "constant": true
    },
    {
      "inputs": [
        {
          "internalType": "address",
          "name": "",
          "type": "address"
        }
      ],
      "name": "stakingUSDCBalance",
      "outputs": [
        {
          "internalType": "uint256",
          "name": "",
          "type": "uint256"
        }
      ],
      "stateMutability": "view",
      "type": "function",
      "constant": true
    },
    {
      "inputs": [
        {
          "internalType": "uint256",
          "name": "_amount",
          "type": "uint256"
        }
      ],
      "name": "stakeTokens",
      "outputs": [],
      "stateMutability": "nonpayable",
      "type": "function"
    },
    {
      "inputs": [
        {
          "internalType": "uint256",
          "name": "_amount",
          "type": "uint256"
        },
        {
          "internalType": "address",
          "name": "_tokenAddress",
          "type": "address"
        }
      ],
      "name": "stakeStableCoin",
      "outputs": [],
      "stateMutability": "nonpayable",
      "type": "function"
    },
    {
      "inputs": [],
      "name": "checkReward",
      "outputs": [
        {
          "internalType": "uint256",
          "name": "",
          "type": "uint256"
        }
      ],
      "stateMutability": "view",
      "type": "function",
      "constant": true
    },
    {
      "inputs": [
        {
          "internalType": "address",
          "name": "_address",
          "type": "address"
        }
      ],
      "name": "checkRewardByAddress",
      "outputs": [
        {
          "internalType": "uint256",
          "name": "",
          "type": "uint256"
        }
      ],
      "stateMutability": "view",
      "type": "function",
      "constant": true
    },
    {
      "inputs": [],
      "name": "issueTokens",
      "outputs": [],
      "stateMutability": "nonpayable",
      "type": "function"
    },
    {
      "inputs": [
        {
          "internalType": "uint256",
          "name": "_amount",
          "type": "uint256"
        }
      ],
      "name": "unstakeTokens",
      "outputs": [],
      "stateMutability": "nonpayable",
      "type": "function"
    }
  ],
  "bytecode": "0x60806040526040518060400160405280601e81526020017f4d696d696320476f7665726e616e636520546f6b656e204661726d696e67000081525060009080519060200190620000519291906200017b565b50600a6007553480156200006457600080fd5b506040516200160f3803806200160f833981810160405260608110156200008a57600080fd5b8101908080519060200190929190805190602001909291908051906020019092919050505082600160006101000a81548173ffffffffffffffffffffffffffffffffffffffff021916908373ffffffffffffffffffffffffffffffffffffffff16021790555081600260006101000a81548173ffffffffffffffffffffffffffffffffffffffff021916908373ffffffffffffffffffffffffffffffffffffffff16021790555080600360006101000a81548173ffffffffffffffffffffffffffffffffffffffff021916908373ffffffffffffffffffffffffffffffffffffffff1602179055505050506200022a565b828054600181600116156101000203166002900490600052602060002090601f016020900481019282601f10620001be57805160ff1916838001178555620001ef565b82800160010185558215620001ef579182015b82811115620001ee578251825591602001919060010190620001d1565b5b509050620001fe919062000202565b5090565b6200022791905b808211156200022357600081600090555060010162000209565b5090565b90565b6113d5806200023a6000396000f3fe608060405234801561001057600080fd5b50600436106100ea5760003560e01c80637547c7a31161008c57806380935aa91161006657806380935aa91461038857806394a5e387146103d2578063c4b24a461461042a578063cb03fb1e14610448576100ea565b80637547c7a3146102e45780637b0a47ee146103125780637e63eefa14610330576100ea565b806345bc78ab116100c857806345bc78ab1461020a578063608e4dd01461026257806360ab58521461029057806370e3c7ed1461029a576100ea565b806306fdde03146100ef5780632b20b27c146101725780633f4eaded146101c0575b600080fd5b6100f76104a0565b6040518080602001828103825283818151815260200191508051906020019080838360005b8381101561013757808201518184015260208101905061011c565b50505050905090810190601f1680156101645780820380516001836020036101000a031916815260200191505b509250505060405180910390f35b6101be6004803603604081101561018857600080fd5b8101908080359060200190929190803573ffffffffffffffffffffffffffffffffffffffff16906020019092919050505061053e565b005b6101c86106ad565b604051808273ffffffffffffffffffffffffffffffffffffffff1673ffffffffffffffffffffffffffffffffffffffff16815260200191505060405180910390f35b61024c6004803603602081101561022057600080fd5b81019080803573ffffffffffffffffffffffffffffffffffffffff1690602001909291905050506106d3565b6040518082815260200191505060405180910390f35b61028e6004803603602081101561027857600080fd5b81019080803590602001909291905050506106eb565b005b610298610ae0565b005b6102a2610ce8565b604051808273ffffffffffffffffffffffffffffffffffffffff1673ffffffffffffffffffffffffffffffffffffffff16815260200191505060405180910390f35b610310600480360360208110156102fa57600080fd5b8101908080359060200190929190505050610d0e565b005b61031a610f70565b6040518082815260200191505060405180910390f35b6103726004803603602081101561034657600080fd5b81019080803573ffffffffffffffffffffffffffffffffffffffff169060200190929190505050610f76565b6040518082815260200191505060405180910390f35b610390610f8e565b604051808273ffffffffffffffffffffffffffffffffffffffff1673ffffffffffffffffffffffffffffffffffffffff16815260200191505060405180910390f35b610414600480360360208110156103e857600080fd5b81019080803573ffffffffffffffffffffffffffffffffffffffff169060200190929190505050610fb4565b6040518082815260200191505060405180910390f35b610432611081565b6040518082815260200191505060405180910390f35b61048a6004803603602081101561045e57600080fd5b81019080803573ffffffffffffffffffffffffffffffffffffffff16906020019092919050505061114c565b6040518082815260200191505060405180910390f35b60008054600181600116156101000203166002900480601f0160208091040260200160405190810160405280929190818152602001828054600181600116156101000203166002900480156105365780601f1061050b57610100808354040283529160200191610536565b820191906000526020600020905b81548152906001019060200180831161051957829003601f168201915b505050505081565b600082116105b4576040517f08c379a00000000000000000000000000000000000000000000000000000000081526004018080602001828103825260138152602001807f616d6f756e742063616e206e6f7420626520300000000000000000000000000081525060200191505060405180910390fd5b600360009054906101000a900473ffffffffffffffffffffffffffffffffffffffff1673ffffffffffffffffffffffffffffffffffffffff16632190ca998333846040518463ffffffff1660e01b8152600401808481526020018373ffffffffffffffffffffffffffffffffffffffff1673ffffffffffffffffffffffffffffffffffffffff1681526020018273ffffffffffffffffffffffffffffffffffffffff1673ffffffffffffffffffffffffffffffffffffffff1681526020019350505050600060405180830381600087803b15801561069157600080fd5b505af11580156106a5573d6000803e3d6000fd5b505050505050565b600260009054906101000a900473ffffffffffffffffffffffffffffffffffffffff1681565b60046020528060005260406000206000915090505481565b600081905060008111610766576040517f08c379a000000000000000000000000000000000000000000000000000000000815260040180806020018281038252601b8152602001807f7374616b696e672062616c616e63652063616e6e6f742062652030000000000081525060200191505060405180910390fd5b6000600460003373ffffffffffffffffffffffffffffffffffffffff1673ffffffffffffffffffffffffffffffffffffffff16815260200190815260200160002054905060006107f542600660003373ffffffffffffffffffffffffffffffffffffffff1673ffffffffffffffffffffffffffffffffffffffff16815260200190815260200160002054611164565b90506000610805826007546111e7565b905060006108158461271061126d565b9050600061082382846111e7565b9050600260009054906101000a900473ffffffffffffffffffffffffffffffffffffffff1673ffffffffffffffffffffffffffffffffffffffff1663a9059cbb33886040518363ffffffff1660e01b8152600401808373ffffffffffffffffffffffffffffffffffffffff1673ffffffffffffffffffffffffffffffffffffffff16815260200182815260200192505050602060405180830381600087803b1580156108ce57600080fd5b505af11580156108e2573d6000803e3d6000fd5b505050506040513d60208110156108f857600080fd5b810190808051906020019092919050505050600086600460003373ffffffffffffffffffffffffffffffffffffffff1673ffffffffffffffffffffffffffffffffffffffff1681526020019081526020016000205403905080600460003373ffffffffffffffffffffffffffffffffffffffff1673ffffffffffffffffffffffffffffffffffffffff168152602001908152602001600020819055506000821180156109a45750600086115b6109ad57600080fd5b600160009054906101000a900473ffffffffffffffffffffffffffffffffffffffff1673ffffffffffffffffffffffffffffffffffffffff1663a9059cbb33846040518363ffffffff1660e01b8152600401808373ffffffffffffffffffffffffffffffffffffffff1673ffffffffffffffffffffffffffffffffffffffff16815260200182815260200192505050602060405180830381600087803b158015610a5657600080fd5b505af1158015610a6a573d6000803e3d6000fd5b505050506040513d6020811015610a8057600080fd5b81019080805190602001909291905050505042600660003373ffffffffffffffffffffffffffffffffffffffff1673ffffffffffffffffffffffffffffffffffffffff168152602001908152602001600020819055505050505050505050565b6000600460003373ffffffffffffffffffffffffffffffffffffffff1673ffffffffffffffffffffffffffffffffffffffff1681526020019081526020016000205490506000610b6f42600660003373ffffffffffffffffffffffffffffffffffffffff1673ffffffffffffffffffffffffffffffffffffffff16815260200190815260200160002054611164565b90506000610b7f826007546111e7565b90506000610b8f8461271061126d565b90506000610b9d82846111e7565b9050600081118015610baf5750600085115b610bb857600080fd5b600160009054906101000a900473ffffffffffffffffffffffffffffffffffffffff1673ffffffffffffffffffffffffffffffffffffffff1663a9059cbb33836040518363ffffffff1660e01b8152600401808373ffffffffffffffffffffffffffffffffffffffff1673ffffffffffffffffffffffffffffffffffffffff16815260200182815260200192505050602060405180830381600087803b158015610c6157600080fd5b505af1158015610c75573d6000803e3d6000fd5b505050506040513d6020811015610c8b57600080fd5b81019080805190602001909291905050505042600660003373ffffffffffffffffffffffffffffffffffffffff1673ffffffffffffffffffffffffffffffffffffffff168152602001908152602001600020819055505050505050565b600160009054906101000a900473ffffffffffffffffffffffffffffffffffffffff1681565b60008111610d84576040517f08c379a00000000000000000000000000000000000000000000000000000000081526004018080602001828103825260138152602001807f616d6f756e742063616e206e6f7420626520300000000000000000000000000081525060200191505060405180910390fd5b600260009054906101000a900473ffffffffffffffffffffffffffffffffffffffff1673ffffffffffffffffffffffffffffffffffffffff166323b872dd3330846040518463ffffffff1660e01b8152600401808473ffffffffffffffffffffffffffffffffffffffff1673ffffffffffffffffffffffffffffffffffffffff1681526020018373ffffffffffffffffffffffffffffffffffffffff1673ffffffffffffffffffffffffffffffffffffffff1681526020018281526020019350505050602060405180830381600087803b158015610e6157600080fd5b505af1158015610e75573d6000803e3d6000fd5b505050506040513d6020811015610e8b57600080fd5b810190808051906020019092919050505050610ee6600460003373ffffffffffffffffffffffffffffffffffffffff1673ffffffffffffffffffffffffffffffffffffffff16815260200190815260200160002054826112f6565b600460003373ffffffffffffffffffffffffffffffffffffffff1673ffffffffffffffffffffffffffffffffffffffff1681526020019081526020016000208190555042600660003373ffffffffffffffffffffffffffffffffffffffff1673ffffffffffffffffffffffffffffffffffffffff1681526020019081526020016000208190555050565b60075481565b60056020528060005260406000206000915090505481565b600360009054906101000a900473ffffffffffffffffffffffffffffffffffffffff1681565b600080600460008473ffffffffffffffffffffffffffffffffffffffff1673ffffffffffffffffffffffffffffffffffffffff168152602001908152602001600020549050600061104442600660008773ffffffffffffffffffffffffffffffffffffffff1673ffffffffffffffffffffffffffffffffffffffff16815260200190815260200160002054611164565b90506000611054826007546111e7565b905060006110648461271061126d565b9050600061107282846111e7565b90508095505050505050919050565b600080600460003373ffffffffffffffffffffffffffffffffffffffff1673ffffffffffffffffffffffffffffffffffffffff168152602001908152602001600020549050600061111142600660003373ffffffffffffffffffffffffffffffffffffffff1673ffffffffffffffffffffffffffffffffffffffff16815260200190815260200160002054611164565b90506000611121826007546111e7565b905060006111318461271061126d565b9050600061113f82846111e7565b9050809550505050505090565b60066020528060005260406000206000915090505481565b6000828211156111dc576040517f08c379a000000000000000000000000000000000000000000000000000000000815260040180806020018281038252601e8152602001807f536166654d6174683a207375627472616374696f6e206f766572666c6f77000081525060200191505060405180910390fd5b818303905092915050565b6000808314156111fa5760009050611267565b600082840290508284828161120b57fe5b0414611262576040517f08c379a000000000000000000000000000000000000000000000000000000000815260040180806020018281038252602181526020018061137f6021913960400191505060405180910390fd5b809150505b92915050565b60008082116112e4576040517f08c379a000000000000000000000000000000000000000000000000000000000815260040180806020018281038252601a8152602001807f536166654d6174683a206469766973696f6e206279207a65726f00000000000081525060200191505060405180910390fd5b8183816112ed57fe5b04905092915050565b600080828401905083811015611374576040517f08c379a000000000000000000000000000000000000000000000000000000000815260040180806020018281038252601b8152602001807f536166654d6174683a206164646974696f6e206f766572666c6f77000000000081525060200191505060405180910390fd5b809150509291505056fe536166654d6174683a206d756c7469706c69636174696f6e206f766572666c6f77a2646970667358221220e37ccc3644bb9a8641ba200e4c735678ae999cc2b5483fe93878495e638ad66564736f6c63430006060033",
  "immutableReferences": {},
  "source": "// SPDX-License-Identifier: MIT\r\n\r\npragma solidity 0.6.6;\r\n\r\nimport \"./JUSD.sol\";\r\nimport \"./Mimic.sol\";\r\n\r\nimport \"./Dex.sol\";\r\n\r\nimport \"@openzeppelin/contracts/token/ERC20/ERC20.sol\";\r\nimport \"@openzeppelin/contracts/math/SafeMath.sol\";\r\n\r\ncontract Farming {\r\n    string public name = \"Mimic Governance Token Farming\";\r\n    ERC20 public MimicToken;\r\n    ERC20 public JUSDToken;\r\n\r\n    //Dex\r\n    Dex public DEX;\r\n\r\n    mapping(address => uint256) public stakingBalance;\r\n    mapping(address => uint256) public stakingUSDCBalance;\r\n    mapping(address => uint256) public lastUpdate;\r\n\r\n    uint256 public rewardRate = 10;\r\n\r\n    constructor(\r\n        address _MimicToken,\r\n        address _JUSDToken,\r\n        address _DEX\r\n    ) public {\r\n        MimicToken = ERC20(_MimicToken);\r\n        JUSDToken = ERC20(_JUSDToken);\r\n        DEX = Dex(_DEX);\r\n    }\r\n\r\n    //Stake Tokens\r\n    function stakeTokens(uint256 _amount) public {\r\n        require(_amount > 0, \"amount can not be 0\");\r\n        JUSDToken.transferFrom(msg.sender, address(this), _amount);\r\n        stakingBalance[msg.sender] = SafeMath.add(\r\n            stakingBalance[msg.sender],\r\n            _amount\r\n        );\r\n        lastUpdate[msg.sender] = block.timestamp;\r\n    }\r\n\r\n    function stakeStableCoin(uint256 _amount, address _tokenAddress) public {\r\n        require(_amount > 0, \"amount can not be 0\");\r\n        // USDC.transferFrom(msg.sender, address(this), _amount);\r\n        // stakingUSDCBalance[msg.sender] = SafeMath.add(\r\n        //     stakingUSDCBalance[msg.sender],\r\n        //     _amount\r\n        // );\r\n        //lastUpdate[msg.sender] = block.timestamp;\r\n        DEX.swapTokenForEth(_amount, msg.sender, _tokenAddress);\r\n    }\r\n\r\n    //Check Reward\r\n    function checkReward() public view returns (uint256) {\r\n        uint256 balance = stakingBalance[msg.sender];\r\n        uint256 update = SafeMath.sub(block.timestamp, lastUpdate[msg.sender]);\r\n        uint256 rewardB = SafeMath.mul(update, rewardRate);\r\n        uint256 divbal = SafeMath.div(balance, 1e4);\r\n        uint256 reward = SafeMath.mul(divbal, rewardB);\r\n        return reward;\r\n    }\r\n\r\n    //Check reward by address without send function (no gas)\r\n    function checkRewardByAddress(address _address)\r\n        public\r\n        view\r\n        returns (uint256)\r\n    {\r\n        uint256 balance = stakingBalance[_address];\r\n        uint256 update = SafeMath.sub(block.timestamp, lastUpdate[_address]);\r\n        uint256 rewardB = SafeMath.mul(update, rewardRate);\r\n        uint256 divbal = SafeMath.div(balance, 1e4);\r\n        uint256 reward = SafeMath.mul(divbal, rewardB);\r\n        return reward;\r\n    }\r\n\r\n    //Issuing Token\r\n    function issueTokens() public {\r\n        uint256 balance = stakingBalance[msg.sender];\r\n        uint256 update = SafeMath.sub(block.timestamp, lastUpdate[msg.sender]);\r\n        uint256 rewardB = SafeMath.mul(update, rewardRate);\r\n        uint256 divbal = SafeMath.div(balance, 1e4);\r\n        uint256 reward = SafeMath.mul(divbal, rewardB);\r\n        require(reward > 0 && balance > 0);\r\n        MimicToken.transfer(msg.sender, reward);\r\n        lastUpdate[msg.sender] = block.timestamp;\r\n    }\r\n\r\n    //Unstake with amount\r\n    function unstakeTokens(uint256 _amount) public {\r\n        uint256 balance = _amount;\r\n        require(balance > 0, \"staking balance cannot be 0\");\r\n\r\n        uint256 staking_balance = stakingBalance[msg.sender];\r\n        uint256 update = SafeMath.sub(block.timestamp, lastUpdate[msg.sender]);\r\n        uint256 rewardB = SafeMath.mul(update, rewardRate);\r\n        uint256 divbal = SafeMath.div(staking_balance, 1e4);\r\n        uint256 reward = SafeMath.mul(divbal, rewardB);\r\n\r\n        JUSDToken.transfer(msg.sender, balance);\r\n        uint256 remain = stakingBalance[msg.sender] - balance;\r\n        stakingBalance[msg.sender] = remain;\r\n\r\n        //withdraw and claim reward\r\n        require(reward > 0 && staking_balance > 0);\r\n        MimicToken.transfer(msg.sender, reward);\r\n        lastUpdate[msg.sender] = block.timestamp;\r\n    }\r\n}\r\n",
  "sourcePath": "/mnt/c/Users/PUNNAWICHSILPKITCHAR/Desktop/dev-mimic/mimic-farm-v2/contracts/Farming.sol",
  "compiler": {
    "name": "solc",
    "version": "0.6.6+commit.6c089d02.Emscripten.clang"
  },
  "schemaVersion": "3.4.6",
  "updatedAt": "2022-03-24T17:13:30.171Z",
  "networkType": "ethereum",
  "devdoc": {
    "methods": {}
  },
  "userdoc": {
    "methods": {}
  }
}