{
  "contractName": "Farming",
  "abi": [
    {
      "inputs": [
        {
          "internalType": "address",
          "name": "_daiToken",
          "type": "address"
        },
        {
          "internalType": "address",
          "name": "_dappToken",
          "type": "address"
        }
      ],
      "stateMutability": "nonpayable",
      "type": "constructor"
    },
    {
      "inputs": [
        {
          "internalType": "address",
          "name": "",
          "type": "address"
        }
      ],
      "name": "Stakingbalances",
      "outputs": [
        {
          "internalType": "uint256",
          "name": "",
          "type": "uint256"
        }
      ],
      "stateMutability": "view",
      "type": "function",
      "constant": true
    },
    {
      "inputs": [],
      "name": "daiToken",
      "outputs": [
        {
          "internalType": "contract ERC20",
          "name": "",
          "type": "address"
        }
      ],
      "stateMutability": "view",
      "type": "function",
      "constant": true
    },
    {
      "inputs": [],
      "name": "dappToken",
      "outputs": [
        {
          "internalType": "contract ERC20",
          "name": "",
          "type": "address"
        }
      ],
      "stateMutability": "view",
      "type": "function",
      "constant": true
    },
    {
      "inputs": [],
      "name": "lastUpdateTime",
      "outputs": [
        {
          "internalType": "uint256",
          "name": "",
          "type": "uint256"
        }
      ],
      "stateMutability": "view",
      "type": "function",
      "constant": true
    },
    {
      "inputs": [],
      "name": "name",
      "outputs": [
        {
          "internalType": "string",
          "name": "",
          "type": "string"
        }
      ],
      "stateMutability": "view",
      "type": "function",
      "constant": true
    },
    {
      "inputs": [],
      "name": "owner",
      "outputs": [
        {
          "internalType": "address",
          "name": "",
          "type": "address"
        }
      ],
      "stateMutability": "view",
      "type": "function",
      "constant": true
    },
    {
      "inputs": [],
      "name": "rewardPerTokenStored",
      "outputs": [
        {
          "internalType": "uint256",
          "name": "",
          "type": "uint256"
        }
      ],
      "stateMutability": "view",
      "type": "function",
      "constant": true
    },
    {
      "inputs": [],
      "name": "rewardRate",
      "outputs": [
        {
          "internalType": "uint256",
          "name": "",
          "type": "uint256"
        }
      ],
      "stateMutability": "view",
      "type": "function",
      "constant": true
    },
    {
      "inputs": [
        {
          "internalType": "address",
          "name": "",
          "type": "address"
        }
      ],
      "name": "rewards",
      "outputs": [
        {
          "internalType": "uint256",
          "name": "",
          "type": "uint256"
        }
      ],
      "stateMutability": "view",
      "type": "function",
      "constant": true
    },
    {
      "inputs": [],
      "name": "totalSupply",
      "outputs": [
        {
          "internalType": "uint256",
          "name": "",
          "type": "uint256"
        }
      ],
      "stateMutability": "view",
      "type": "function",
      "constant": true
    },
    {
      "inputs": [
        {
          "internalType": "address",
          "name": "",
          "type": "address"
        }
      ],
      "name": "userRewardPerTokenPaid",
      "outputs": [
        {
          "internalType": "uint256",
          "name": "",
          "type": "uint256"
        }
      ],
      "stateMutability": "view",
      "type": "function",
      "constant": true
    },
    {
      "inputs": [],
      "name": "rewardPerToken",
      "outputs": [
        {
          "internalType": "uint256",
          "name": "",
          "type": "uint256"
        }
      ],
      "stateMutability": "view",
      "type": "function",
      "constant": true
    },
    {
      "inputs": [
        {
          "internalType": "address",
          "name": "account",
          "type": "address"
        }
      ],
      "name": "earned",
      "outputs": [
        {
          "internalType": "uint256",
          "name": "",
          "type": "uint256"
        }
      ],
      "stateMutability": "view",
      "type": "function",
      "constant": true
    },
    {
      "inputs": [
        {
          "internalType": "uint256",
          "name": "_amount",
          "type": "uint256"
        }
      ],
      "name": "stake",
      "outputs": [],
      "stateMutability": "nonpayable",
      "type": "function"
    },
    {
      "inputs": [
        {
          "internalType": "uint256",
          "name": "_amount",
          "type": "uint256"
        }
      ],
      "name": "withdraw",
      "outputs": [],
      "stateMutability": "nonpayable",
      "type": "function"
    },
    {
      "inputs": [],
      "name": "getReward",
      "outputs": [],
      "stateMutability": "nonpayable",
      "type": "function"
    }
  ],
  "bytecode": "0x60806040526040518060400160405280600781526020017f4661726d696e6700000000000000000000000000000000000000000000000000815250600090805190602001906200005192919062000155565b5060646004553480156200006457600080fd5b50604051620014333803806200143383398181016040528101906200008a91906200021c565b81600360006101000a81548173ffffffffffffffffffffffffffffffffffffffff021916908373ffffffffffffffffffffffffffffffffffffffff16021790555080600260006101000a81548173ffffffffffffffffffffffffffffffffffffffff021916908373ffffffffffffffffffffffffffffffffffffffff16021790555033600160006101000a81548173ffffffffffffffffffffffffffffffffffffffff021916908373ffffffffffffffffffffffffffffffffffffffff160217905550505062000310565b828054620001639062000291565b90600052602060002090601f016020900481019282620001875760008555620001d3565b82601f10620001a257805160ff1916838001178555620001d3565b82800160010185558215620001d3579182015b82811115620001d2578251825591602001919060010190620001b5565b5b509050620001e29190620001e6565b5090565b5b8082111562000201576000816000905550600101620001e7565b5090565b6000815190506200021681620002f6565b92915050565b600080604083850312156200023057600080fd5b6000620002408582860162000205565b9250506020620002538582860162000205565b9150509250929050565b60006200026a8262000271565b9050919050565b600073ffffffffffffffffffffffffffffffffffffffff82169050919050565b60006002820490506001821680620002aa57607f821691505b60208210811415620002c157620002c0620002c7565b5b50919050565b7f4e487b7100000000000000000000000000000000000000000000000000000000600052602260045260246000fd5b62000301816200025d565b81146200030d57600080fd5b50565b61111380620003206000396000f3fe608060405234801561001057600080fd5b50600436106100ff5760003560e01c80638b87634711610097578063be22f54611610066578063be22f5461461029c578063c8f33c91146102ba578063cd3daf9d146102d8578063df136d65146102f6576100ff565b80638b876347146102025780638da5cb5b14610232578063a3e3315a14610250578063a694fc3a14610280576100ff565b80632e1a7d4d116100d35780632e1a7d4d146101a05780633d18b912146101bc5780635eb186f8146101c65780637b0a47ee146101e4576100ff565b80628cc2621461010457806306fdde03146101345780630700037d1461015257806318160ddd14610182575b600080fd5b61011e60048036038101906101199190610bd8565b610314565b60405161012b9190610db4565b60405180910390f35b61013c610416565b6040516101499190610d72565b60405180910390f35b61016c60048036038101906101679190610bd8565b6104a4565b6040516101799190610db4565b60405180910390f35b61018a6104bc565b6040516101979190610db4565b60405180910390f35b6101ba60048036038101906101b59190610c2a565b6104c2565b005b6101c461068d565b005b6101ce610872565b6040516101db9190610d57565b60405180910390f35b6101ec610898565b6040516101f99190610db4565b60405180910390f35b61021c60048036038101906102179190610bd8565b61089e565b6040516102299190610db4565b60405180910390f35b61023a6108b6565b6040516102479190610cdc565b60405180910390f35b61026a60048036038101906102659190610bd8565b6108dc565b6040516102779190610db4565b60405180910390f35b61029a60048036038101906102959190610c2a565b6108f4565b005b6102a4610b04565b6040516102b19190610d57565b60405180910390f35b6102c2610b2a565b6040516102cf9190610db4565b60405180910390f35b6102e0610b30565b6040516102ed9190610db4565b60405180910390f35b6102fe610b93565b60405161030b9190610db4565b60405180910390f35b6000600860008373ffffffffffffffffffffffffffffffffffffffff1673ffffffffffffffffffffffffffffffffffffffff16815260200190815260200160002054670de0b6b3a7640000600760008573ffffffffffffffffffffffffffffffffffffffff1673ffffffffffffffffffffffffffffffffffffffff168152602001908152602001600020546103a7610b30565b6103b19190610ecc565b600a60008673ffffffffffffffffffffffffffffffffffffffff1673ffffffffffffffffffffffffffffffffffffffff168152602001908152602001600020546103fb9190610e72565b6104059190610e41565b61040f9190610deb565b9050919050565b6000805461042390610f9f565b80601f016020809104026020016040519081016040528092919081815260200182805461044f90610f9f565b801561049c5780601f106104715761010080835404028352916020019161049c565b820191906000526020600020905b81548152906001019060200180831161047f57829003601f168201915b505050505081565b60086020528060005260406000206000915090505481565b60095481565b336104cb610b30565b600681905550426005819055506104e181610314565b600860008373ffffffffffffffffffffffffffffffffffffffff1673ffffffffffffffffffffffffffffffffffffffff16815260200190815260200160002081905550600654600760008373ffffffffffffffffffffffffffffffffffffffff1673ffffffffffffffffffffffffffffffffffffffff16815260200190815260200160002081905550816009600082825461057c9190610ecc565b9250508190555081600a60003373ffffffffffffffffffffffffffffffffffffffff1673ffffffffffffffffffffffffffffffffffffffff16815260200190815260200160002060008282546105d29190610ecc565b92505081905550600360009054906101000a900473ffffffffffffffffffffffffffffffffffffffff1673ffffffffffffffffffffffffffffffffffffffff1663a9059cbb33846040518363ffffffff1660e01b8152600401610636929190610d2e565b602060405180830381600087803b15801561065057600080fd5b505af1158015610664573d6000803e3d6000fd5b505050506040513d601f19601f820116820180604052508101906106889190610c01565b505050565b33610696610b30565b600681905550426005819055506106ac81610314565b600860008373ffffffffffffffffffffffffffffffffffffffff1673ffffffffffffffffffffffffffffffffffffffff16815260200190815260200160002081905550600654600760008373ffffffffffffffffffffffffffffffffffffffff1673ffffffffffffffffffffffffffffffffffffffff168152602001908152602001600020819055506000600860003373ffffffffffffffffffffffffffffffffffffffff1673ffffffffffffffffffffffffffffffffffffffff1681526020019081526020016000205490506000600860003373ffffffffffffffffffffffffffffffffffffffff1673ffffffffffffffffffffffffffffffffffffffff16815260200190815260200160002081905550600260009054906101000a900473ffffffffffffffffffffffffffffffffffffffff1673ffffffffffffffffffffffffffffffffffffffff1663a9059cbb33836040518363ffffffff1660e01b815260040161081b929190610d2e565b602060405180830381600087803b15801561083557600080fd5b505af1158015610849573d6000803e3d6000fd5b505050506040513d601f19601f8201168201806040525081019061086d9190610c01565b505050565b600260009054906101000a900473ffffffffffffffffffffffffffffffffffffffff1681565b60045481565b60076020528060005260406000206000915090505481565b600160009054906101000a900473ffffffffffffffffffffffffffffffffffffffff1681565b600a6020528060005260406000206000915090505481565b336108fd610b30565b6006819055504260058190555061091381610314565b600860008373ffffffffffffffffffffffffffffffffffffffff1673ffffffffffffffffffffffffffffffffffffffff16815260200190815260200160002081905550600654600760008373ffffffffffffffffffffffffffffffffffffffff1673ffffffffffffffffffffffffffffffffffffffff16815260200190815260200160002081905550600082116109df576040517f08c379a00000000000000000000000000000000000000000000000000000000081526004016109d690610d94565b60405180910390fd5b600360009054906101000a900473ffffffffffffffffffffffffffffffffffffffff1673ffffffffffffffffffffffffffffffffffffffff166323b872dd3330856040518463ffffffff1660e01b8152600401610a3e93929190610cf7565b602060405180830381600087803b158015610a5857600080fd5b505af1158015610a6c573d6000803e3d6000fd5b505050506040513d601f19601f82011682018060405250810190610a909190610c01565b5081600a60003373ffffffffffffffffffffffffffffffffffffffff1673ffffffffffffffffffffffffffffffffffffffff1681526020019081526020016000206000828254610ae09190610deb565b925050819055508160096000828254610af99190610deb565b925050819055505050565b600360009054906101000a900473ffffffffffffffffffffffffffffffffffffffff1681565b60055481565b6000806009541415610b455760009050610b90565b600954670de0b6b3a764000060045460055442610b629190610ecc565b610b6c9190610e72565b610b769190610e72565b610b809190610e41565b600654610b8d9190610deb565b90505b90565b60065481565b600081359050610ba881611098565b92915050565b600081519050610bbd816110af565b92915050565b600081359050610bd2816110c6565b92915050565b600060208284031215610bea57600080fd5b6000610bf884828501610b99565b91505092915050565b600060208284031215610c1357600080fd5b6000610c2184828501610bae565b91505092915050565b600060208284031215610c3c57600080fd5b6000610c4a84828501610bc3565b91505092915050565b610c5c81610f00565b82525050565b610c6b81610f48565b82525050565b6000610c7c82610dcf565b610c868185610dda565b9350610c96818560208601610f6c565b610c9f8161105e565b840191505092915050565b6000610cb7600f83610dda565b9150610cc28261106f565b602082019050919050565b610cd681610f3e565b82525050565b6000602082019050610cf16000830184610c53565b92915050565b6000606082019050610d0c6000830186610c53565b610d196020830185610c53565b610d266040830184610ccd565b949350505050565b6000604082019050610d436000830185610c53565b610d506020830184610ccd565b9392505050565b6000602082019050610d6c6000830184610c62565b92915050565b60006020820190508181036000830152610d8c8184610c71565b905092915050565b60006020820190508181036000830152610dad81610caa565b9050919050565b6000602082019050610dc96000830184610ccd565b92915050565b600081519050919050565b600082825260208201905092915050565b6000610df682610f3e565b9150610e0183610f3e565b9250827fffffffffffffffffffffffffffffffffffffffffffffffffffffffffffffffff03821115610e3657610e35610fd1565b5b828201905092915050565b6000610e4c82610f3e565b9150610e5783610f3e565b925082610e6757610e66611000565b5b828204905092915050565b6000610e7d82610f3e565b9150610e8883610f3e565b9250817fffffffffffffffffffffffffffffffffffffffffffffffffffffffffffffffff0483118215151615610ec157610ec0610fd1565b5b828202905092915050565b6000610ed782610f3e565b9150610ee283610f3e565b925082821015610ef557610ef4610fd1565b5b828203905092915050565b6000610f0b82610f1e565b9050919050565b60008115159050919050565b600073ffffffffffffffffffffffffffffffffffffffff82169050919050565b6000819050919050565b6000610f5382610f5a565b9050919050565b6000610f6582610f1e565b9050919050565b60005b83811015610f8a578082015181840152602081019050610f6f565b83811115610f99576000848401525b50505050565b60006002820490506001821680610fb757607f821691505b60208210811415610fcb57610fca61102f565b5b50919050565b7f4e487b7100000000000000000000000000000000000000000000000000000000600052601160045260246000fd5b7f4e487b7100000000000000000000000000000000000000000000000000000000600052601260045260246000fd5b7f4e487b7100000000000000000000000000000000000000000000000000000000600052602260045260246000fd5b6000601f19601f8301169050919050565b7f616d6f756e742063616e20626520300000000000000000000000000000000000600082015250565b6110a181610f00565b81146110ac57600080fd5b50565b6110b881610f12565b81146110c357600080fd5b50565b6110cf81610f3e565b81146110da57600080fd5b5056fea264697066735822122026d3083066ea65a231e98ee8d615f6c1063f9b52ab7a422a98620e80db4f159a64736f6c63430008040033",
  "immutableReferences": {},
  "source": "// SPDX-License-Identifier: MIT\r\npragma solidity ^0.8.4;\r\n\r\nimport \"./Dapptoken.sol\";\r\nimport \"./Daitoken.sol\";\r\nimport \"@openzeppelin/contracts/token/ERC20/ERC20.sol\";\r\ncontract Farming {\r\n    string public name = \"Farming\";\r\n    address public owner;\r\n    ERC20 public dappToken;\r\n    ERC20 public daiToken;\r\n\r\n    uint256 public rewardRate = 100;\r\n    uint256 public lastUpdateTime;\r\n    uint256 public rewardPerTokenStored;\r\n\r\n    mapping(address => uint256) public userRewardPerTokenPaid;\r\n    mapping(address => uint256) public rewards;\r\n\r\n    uint public totalSupply;\r\n    mapping(address => uint256) public Stakingbalances;\r\n\r\n    constructor(address _daiToken, address _dappToken){\r\n        daiToken = ERC20(_daiToken);\r\n        dappToken = ERC20(_dappToken);\r\n        owner = msg.sender;\r\n    }\r\n\r\n    function rewardPerToken() public view returns (uint) {\r\n        if (totalSupply == 0) {\r\n            return 0;\r\n        }\r\n        return\r\n            rewardPerTokenStored +\r\n            (((block.timestamp - lastUpdateTime) * rewardRate * 1e18) / totalSupply);\r\n    }\r\n\r\n    function earned(address account) public view returns (uint) {\r\n        return\r\n            ((Stakingbalances[account] *\r\n                (rewardPerToken() - userRewardPerTokenPaid[account])) / 1e18) +\r\n            rewards[account];\r\n    }\r\n\r\n    modifier updateReward(address account) {\r\n        rewardPerTokenStored = rewardPerToken();\r\n        lastUpdateTime = block.timestamp;\r\n\r\n        rewards[account] = earned(account);\r\n        userRewardPerTokenPaid[account] = rewardPerTokenStored;\r\n        _;\r\n    }\r\n    function stake(uint256 _amount) external updateReward(msg.sender) {\r\n        require(_amount > 0, \"amount can be 0\");\r\n        daiToken.transferFrom(msg.sender, address(this), _amount);\r\n        Stakingbalances[msg.sender] += _amount;\r\n        totalSupply += _amount;\r\n    }\r\n\r\n    function withdraw(uint _amount) external updateReward(msg.sender) {\r\n        totalSupply -= _amount;\r\n        Stakingbalances[msg.sender] -= _amount;\r\n        daiToken.transfer(msg.sender, _amount);\r\n    }\r\n\r\n    function getReward() external updateReward(msg.sender) {\r\n        uint reward = rewards[msg.sender];\r\n        rewards[msg.sender] = 0;\r\n        dappToken.transfer(msg.sender, reward);\r\n    }\r\n}\r\n",
  "sourcePath": "C:/Users/PUNNAWICHSILPKITCHAR/Desktop/dev-mimic/mimic-farm-v2/contracts/farm.sol",
  "compiler": {
    "name": "solc",
    "version": "0.8.4+commit.c7e474f2.Emscripten.clang"
  },
  "schemaVersion": "3.2.3",
  "updatedAt": "2022-03-15T17:07:35.118Z",
  "networkType": "ethereum",
  "devdoc": {
    "kind": "dev",
    "methods": {},
    "version": 1
  },
  "userdoc": {
    "kind": "user",
    "methods": {},
    "version": 1
  }
}