{
  "contractName": "Farming",
  "abi": [
    {
      "inputs": [
        {
          "internalType": "address",
          "name": "_MimicToken",
          "type": "address"
        },
        {
          "internalType": "address",
          "name": "_JUSDToken",
          "type": "address"
        },
        {
          "internalType": "address",
          "name": "_DEX",
          "type": "address"
        }
      ],
      "stateMutability": "nonpayable",
      "type": "constructor"
    },
    {
      "inputs": [],
      "name": "DEX",
      "outputs": [
        {
          "internalType": "contract Dex",
          "name": "",
          "type": "address"
        }
      ],
      "stateMutability": "view",
      "type": "function",
      "constant": true
    },
    {
      "inputs": [],
      "name": "JUSDToken",
      "outputs": [
        {
          "internalType": "contract ERC20",
          "name": "",
          "type": "address"
        }
      ],
      "stateMutability": "view",
      "type": "function",
      "constant": true
    },
    {
      "inputs": [],
      "name": "MimicToken",
      "outputs": [
        {
          "internalType": "contract ERC20",
          "name": "",
          "type": "address"
        }
      ],
      "stateMutability": "view",
      "type": "function",
      "constant": true
    },
    {
      "inputs": [],
      "name": "name",
      "outputs": [
        {
          "internalType": "string",
          "name": "",
          "type": "string"
        }
      ],
      "stateMutability": "view",
      "type": "function",
      "constant": true
    },
    {
      "inputs": [
        {
          "internalType": "address",
          "name": "",
          "type": "address"
        }
      ],
      "name": "stakingBalance",
      "outputs": [
        {
          "internalType": "uint256",
          "name": "",
          "type": "uint256"
        }
      ],
      "stateMutability": "view",
      "type": "function",
      "constant": true
    },
    {
      "inputs": [
        {
          "internalType": "address",
          "name": "",
          "type": "address"
        }
      ],
      "name": "stakingUSDCBalance",
      "outputs": [
        {
          "internalType": "uint256",
          "name": "",
          "type": "uint256"
        }
      ],
      "stateMutability": "view",
      "type": "function",
      "constant": true
    },
    {
      "inputs": [
        {
          "internalType": "address",
          "name": "",
          "type": "address"
        }
      ],
      "name": "updateTime",
      "outputs": [
        {
          "internalType": "uint256",
          "name": "",
          "type": "uint256"
        }
      ],
      "stateMutability": "view",
      "type": "function",
      "constant": true
    },
    {
      "inputs": [
        {
          "internalType": "uint256",
          "name": "_amount",
          "type": "uint256"
        }
      ],
      "name": "stakeTokens",
      "outputs": [],
      "stateMutability": "nonpayable",
      "type": "function"
    },
    {
      "inputs": [
        {
          "internalType": "uint256",
          "name": "_amount",
          "type": "uint256"
        }
      ],
      "name": "stakeUSDC",
      "outputs": [],
      "stateMutability": "nonpayable",
      "type": "function"
    },
    {
      "inputs": [
        {
          "internalType": "address",
          "name": "account",
          "type": "address"
        }
      ],
      "name": "checkUSDCBalance",
      "outputs": [],
      "stateMutability": "nonpayable",
      "type": "function"
    },
    {
      "inputs": [
        {
          "internalType": "address",
          "name": "_address",
          "type": "address"
        }
      ],
      "name": "checkRewardByAddress",
      "outputs": [
        {
          "internalType": "uint256",
          "name": "",
          "type": "uint256"
        }
      ],
      "stateMutability": "view",
      "type": "function",
      "constant": true
    },
    {
      "inputs": [
        {
          "internalType": "address",
          "name": "account",
          "type": "address"
        }
      ],
      "name": "calculateTime",
      "outputs": [
        {
          "internalType": "uint256",
          "name": "",
          "type": "uint256"
        }
      ],
      "stateMutability": "view",
      "type": "function",
      "constant": true
    },
    {
      "inputs": [
        {
          "internalType": "address",
          "name": "account",
          "type": "address"
        }
      ],
      "name": "calculateRewards",
      "outputs": [
        {
          "internalType": "uint256",
          "name": "",
          "type": "uint256"
        }
      ],
      "stateMutability": "view",
      "type": "function",
      "constant": true
    },
    {
      "inputs": [],
      "name": "issueTokens",
      "outputs": [],
      "stateMutability": "nonpayable",
      "type": "function"
    },
    {
      "inputs": [
        {
          "internalType": "uint256",
          "name": "_amount",
          "type": "uint256"
        }
      ],
      "name": "unstakeTokens",
      "outputs": [],
      "stateMutability": "nonpayable",
      "type": "function"
    }
  ],
  "bytecode": "0x60806040526040518060400160405280601e81526020017f4d696d696320476f7665726e616e636520546f6b656e204661726d696e670000815250600090805190602001906200005192919062000176565b503480156200005f57600080fd5b506040516200176738038062001767833981810160405260608110156200008557600080fd5b8101908080519060200190929190805190602001909291908051906020019092919050505082600160006101000a81548173ffffffffffffffffffffffffffffffffffffffff021916908373ffffffffffffffffffffffffffffffffffffffff16021790555081600260006101000a81548173ffffffffffffffffffffffffffffffffffffffff021916908373ffffffffffffffffffffffffffffffffffffffff16021790555080600360006101000a81548173ffffffffffffffffffffffffffffffffffffffff021916908373ffffffffffffffffffffffffffffffffffffffff16021790555050505062000225565b828054600181600116156101000203166002900490600052602060002090601f016020900481019282601f10620001b957805160ff1916838001178555620001ea565b82800160010185558215620001ea579182015b82811115620001e9578251825591602001919060010190620001cc565b5b509050620001f99190620001fd565b5090565b6200022291905b808211156200021e57600081600090555060010162000204565b5090565b90565b61153280620002356000396000f3fe608060405234801561001057600080fd5b50600436106100f55760003560e01c806370e3c7ed1161009757806380935aa91161006657806380935aa91461042f57806394a5e38714610479578063f3fcabdb146104d1578063ffab453b146104ff576100f5565b806370e3c7ed1461030757806371463599146103515780637547c7a3146103a95780637e63eefa146103d7576100f5565b806345bc78ab116100d357806345bc78ab1461021f578063608e4dd01461027757806360ab5852146102a557806364ab8675146102af576100f5565b80630120d1ad146100fa57806306fdde03146101525780633f4eaded146101d5575b600080fd5b61013c6004803603602081101561011057600080fd5b81019080803573ffffffffffffffffffffffffffffffffffffffff169060200190929190505050610543565b6040518082815260200191505060405180910390f35b61015a610599565b6040518080602001828103825283818151815260200191508051906020019080838360005b8381101561019a57808201518184015260208101905061017f565b50505050905090810190601f1680156101c75780820380516001836020036101000a031916815260200191505b509250505060405180910390f35b6101dd610637565b604051808273ffffffffffffffffffffffffffffffffffffffff1673ffffffffffffffffffffffffffffffffffffffff16815260200191505060405180910390f35b6102616004803603602081101561023557600080fd5b81019080803573ffffffffffffffffffffffffffffffffffffffff16906020019092919050505061065d565b6040518082815260200191505060405180910390f35b6102a36004803603602081101561028d57600080fd5b8101908080359060200190929190505050610675565b005b6102ad61099c565b005b6102f1600480360360208110156102c557600080fd5b81019080803573ffffffffffffffffffffffffffffffffffffffff169060200190929190505050610b33565b6040518082815260200191505060405180910390f35b61030f610bd1565b604051808273ffffffffffffffffffffffffffffffffffffffff1673ffffffffffffffffffffffffffffffffffffffff16815260200191505060405180910390f35b6103936004803603602081101561036757600080fd5b81019080803573ffffffffffffffffffffffffffffffffffffffff169060200190929190505050610bf7565b6040518082815260200191505060405180910390f35b6103d5600480360360208110156103bf57600080fd5b8101908080359060200190929190505050610c0f565b005b610419600480360360208110156103ed57600080fd5b81019080803573ffffffffffffffffffffffffffffffffffffffff169060200190929190505050610e71565b6040518082815260200191505060405180910390f35b610437610e89565b604051808273ffffffffffffffffffffffffffffffffffffffff1673ffffffffffffffffffffffffffffffffffffffff16815260200191505060405180910390f35b6104bb6004803603602081101561048f57600080fd5b81019080803573ffffffffffffffffffffffffffffffffffffffff169060200190929190505050610eaf565b6040518082815260200191505060405180910390f35b6104fd600480360360208110156104e757600080fd5b8101908080359060200190929190505050610ec6565b005b6105416004803603602081101561051557600080fd5b81019080803573ffffffffffffffffffffffffffffffffffffffff1690602001909291905050506111f1565b005b6000804290506000600660008573ffffffffffffffffffffffffffffffffffffffff1673ffffffffffffffffffffffffffffffffffffffff16815260200190815260200160002054820390508092505050919050565b60008054600181600116156101000203166002900480601f01602080910402602001604051908101604052809291908181526020018280546001816001161561010002031660029004801561062f5780601f106106045761010080835404028352916020019161062f565b820191906000526020600020905b81548152906001019060200180831161061257829003601f168201915b505050505081565b600260009054906101000a900473ffffffffffffffffffffffffffffffffffffffff1681565b60046020528060005260406000206000915090505481565b600081116106eb576040517f08c379a000000000000000000000000000000000000000000000000000000000815260040180806020018281038252601b8152602001807f7374616b696e672062616c616e63652063616e6e6f742062652030000000000081525060200191505060405180910390fd5b600260009054906101000a900473ffffffffffffffffffffffffffffffffffffffff1673ffffffffffffffffffffffffffffffffffffffff1663a9059cbb33836040518363ffffffff1660e01b8152600401808373ffffffffffffffffffffffffffffffffffffffff1673ffffffffffffffffffffffffffffffffffffffff16815260200182815260200192505050602060405180830381600087803b15801561079457600080fd5b505af11580156107a8573d6000803e3d6000fd5b505050506040513d60208110156107be57600080fd5b810190808051906020019092919050505050600061081b600460003373ffffffffffffffffffffffffffffffffffffffff1673ffffffffffffffffffffffffffffffffffffffff16815260200190815260200160002054836112c1565b905080600460003373ffffffffffffffffffffffffffffffffffffffff1673ffffffffffffffffffffffffffffffffffffffff16815260200190815260200160002081905550600061086c33610b33565b9050600160009054906101000a900473ffffffffffffffffffffffffffffffffffffffff1673ffffffffffffffffffffffffffffffffffffffff1663a9059cbb33836040518363ffffffff1660e01b8152600401808373ffffffffffffffffffffffffffffffffffffffff1673ffffffffffffffffffffffffffffffffffffffff16815260200182815260200192505050602060405180830381600087803b15801561091757600080fd5b505af115801561092b573d6000803e3d6000fd5b505050506040513d602081101561094157600080fd5b81019080805190602001909291905050505042600660003373ffffffffffffffffffffffffffffffffffffffff1673ffffffffffffffffffffffffffffffffffffffff16815260200190815260200160002081905550505050565b6000600460003373ffffffffffffffffffffffffffffffffffffffff1673ffffffffffffffffffffffffffffffffffffffff16815260200190815260200160002054905060006109eb33610b33565b90506000811180156109fd5750600082115b610a0657600080fd5b600160009054906101000a900473ffffffffffffffffffffffffffffffffffffffff1673ffffffffffffffffffffffffffffffffffffffff1663a9059cbb33836040518363ffffffff1660e01b8152600401808373ffffffffffffffffffffffffffffffffffffffff1673ffffffffffffffffffffffffffffffffffffffff16815260200182815260200192505050602060405180830381600087803b158015610aaf57600080fd5b505af1158015610ac3573d6000803e3d6000fd5b505050506040513d6020811015610ad957600080fd5b81019080805190602001909291905050505042600660003373ffffffffffffffffffffffffffffffffffffffff1673ffffffffffffffffffffffffffffffffffffffff168152602001908152602001600020819055505050565b600080610b50610b4284610543565b670de0b6b3a7640000611344565b9050600061036090506000818381610b6457fe5b0490506000610bc3610bb5600460008973ffffffffffffffffffffffffffffffffffffffff1673ffffffffffffffffffffffffffffffffffffffff1681526020019081526020016000205484611344565b670de0b6b3a76400006113ca565b905080945050505050919050565b600160009054906101000a900473ffffffffffffffffffffffffffffffffffffffff1681565b60066020528060005260406000206000915090505481565b60008111610c85576040517f08c379a00000000000000000000000000000000000000000000000000000000081526004018080602001828103825260138152602001807f616d6f756e742063616e206e6f7420626520300000000000000000000000000081525060200191505060405180910390fd5b600260009054906101000a900473ffffffffffffffffffffffffffffffffffffffff1673ffffffffffffffffffffffffffffffffffffffff166323b872dd3330846040518463ffffffff1660e01b8152600401808473ffffffffffffffffffffffffffffffffffffffff1673ffffffffffffffffffffffffffffffffffffffff1681526020018373ffffffffffffffffffffffffffffffffffffffff1673ffffffffffffffffffffffffffffffffffffffff1681526020018281526020019350505050602060405180830381600087803b158015610d6257600080fd5b505af1158015610d76573d6000803e3d6000fd5b505050506040513d6020811015610d8c57600080fd5b810190808051906020019092919050505050610de7600460003373ffffffffffffffffffffffffffffffffffffffff1673ffffffffffffffffffffffffffffffffffffffff1681526020019081526020016000205482611453565b600460003373ffffffffffffffffffffffffffffffffffffffff1673ffffffffffffffffffffffffffffffffffffffff1681526020019081526020016000208190555042600660003373ffffffffffffffffffffffffffffffffffffffff1673ffffffffffffffffffffffffffffffffffffffff1681526020019081526020016000208190555050565b60056020528060005260406000206000915090505481565b600360009054906101000a900473ffffffffffffffffffffffffffffffffffffffff1681565b600080610ebb83610b33565b905080915050919050565b60008111610f3c576040517f08c379a00000000000000000000000000000000000000000000000000000000081526004018080602001828103825260138152602001807f616d6f756e742063616e206e6f7420626520300000000000000000000000000081525060200191505060405180910390fd5b73a0b86991c6218b36c1d19d4a2e9eb0ce3606eb4873ffffffffffffffffffffffffffffffffffffffff1663095ea7b330836040518363ffffffff1660e01b8152600401808373ffffffffffffffffffffffffffffffffffffffff1673ffffffffffffffffffffffffffffffffffffffff16815260200182815260200192505050602060405180830381600087803b158015610fd757600080fd5b505af1158015610feb573d6000803e3d6000fd5b505050506040513d602081101561100157600080fd5b81019080805190602001909291905050505073a0b86991c6218b36c1d19d4a2e9eb0ce3606eb4873ffffffffffffffffffffffffffffffffffffffff166323b872dd3330846040518463ffffffff1660e01b8152600401808473ffffffffffffffffffffffffffffffffffffffff1673ffffffffffffffffffffffffffffffffffffffff1681526020018373ffffffffffffffffffffffffffffffffffffffff1673ffffffffffffffffffffffffffffffffffffffff1681526020018281526020019350505050602060405180830381600087803b1580156110e257600080fd5b505af11580156110f6573d6000803e3d6000fd5b505050506040513d602081101561110c57600080fd5b810190808051906020019092919050505050611167600560003373ffffffffffffffffffffffffffffffffffffffff1673ffffffffffffffffffffffffffffffffffffffff1681526020019081526020016000205482611453565b600560003373ffffffffffffffffffffffffffffffffffffffff1673ffffffffffffffffffffffffffffffffffffffff1681526020019081526020016000208190555042600660003373ffffffffffffffffffffffffffffffffffffffff1673ffffffffffffffffffffffffffffffffffffffff1681526020019081526020016000208190555050565b73a0b86991c6218b36c1d19d4a2e9eb0ce3606eb4873ffffffffffffffffffffffffffffffffffffffff166370a08231826040518263ffffffff1660e01b8152600401808273ffffffffffffffffffffffffffffffffffffffff1673ffffffffffffffffffffffffffffffffffffffff16815260200191505060206040518083038186803b15801561128257600080fd5b505afa158015611296573d6000803e3d6000fd5b505050506040513d60208110156112ac57600080fd5b81019080805190602001909291905050505050565b600082821115611339576040517f08c379a000000000000000000000000000000000000000000000000000000000815260040180806020018281038252601e8152602001807f536166654d6174683a207375627472616374696f6e206f766572666c6f77000081525060200191505060405180910390fd5b818303905092915050565b60008083141561135757600090506113c4565b600082840290508284828161136857fe5b04146113bf576040517f08c379a00000000000000000000000000000000000000000000000000000000081526004018080602001828103825260218152602001806114dc6021913960400191505060405180910390fd5b809150505b92915050565b6000808211611441576040517f08c379a000000000000000000000000000000000000000000000000000000000815260040180806020018281038252601a8152602001807f536166654d6174683a206469766973696f6e206279207a65726f00000000000081525060200191505060405180910390fd5b81838161144a57fe5b04905092915050565b6000808284019050838110156114d1576040517f08c379a000000000000000000000000000000000000000000000000000000000815260040180806020018281038252601b8152602001807f536166654d6174683a206164646974696f6e206f766572666c6f77000000000081525060200191505060405180910390fd5b809150509291505056fe536166654d6174683a206d756c7469706c69636174696f6e206f766572666c6f77a264697066735822122053a4e0cf012e9fa1ee2f6479e06fd458cd911db9414c0c7161362c0e655ae6be64736f6c63430006060033",
  "immutableReferences": {},
  "source": "// SPDX-License-Identifier: MIT\n\npragma solidity 0.6.6;\n\nimport \"./JUSD.sol\";\nimport \"./Mimic.sol\";\n\nimport \"./Dex.sol\";\n\nimport \"@openzeppelin/contracts/token/ERC20/ERC20.sol\";\nimport \"@openzeppelin/contracts/math/SafeMath.sol\";\n\ncontract Farming {\n    string public name = \"Mimic Governance Token Farming\";\n    ERC20 public MimicToken;\n    ERC20 public JUSDToken;\n    address internal constant USDC = 0xA0b86991c6218b36c1d19D4a2e9Eb0cE3606eB48;\n\n    //Dex\n    Dex public DEX;\n\n    mapping(address => uint256) public stakingBalance;\n    mapping(address => uint256) public stakingUSDCBalance;\n    mapping(address => uint256) public updateTime;\n\n    constructor(\n        address _MimicToken,\n        address _JUSDToken,\n        address _DEX\n    ) public {\n        MimicToken = ERC20(_MimicToken);\n        JUSDToken = ERC20(_JUSDToken);\n        DEX = Dex(_DEX);\n    }\n\n    //Stake Tokens\n    function stakeTokens(uint256 _amount) public {\n        require(_amount > 0, \"amount can not be 0\");\n        JUSDToken.transferFrom(msg.sender, address(this), _amount);\n        stakingBalance[msg.sender] = SafeMath.add(stakingBalance[msg.sender], _amount );\n        updateTime[msg.sender] = block.timestamp;\n    }\n\n    //Stake USDC\n    function stakeUSDC(uint256 _amount) public {\n        require(_amount > 0, \"amount can not be 0\");\n        ERC20(USDC).approve(address(this), _amount);\n        ERC20(USDC).transferFrom(msg.sender, address(this), _amount);\n        stakingUSDCBalance[msg.sender] = SafeMath.add(stakingUSDCBalance[msg.sender],_amount);\n        updateTime[msg.sender] = block.timestamp;\n    }\n    function checkUSDCBalance(address account) public {\n        ERC20(USDC).balanceOf(account);\n    }\n\n    //Check reward by address without send function (no gas)\n    function checkRewardByAddress(address _address)\n        public\n        view\n        returns (uint256)\n    {\n        uint256 reward = calculateRewards(_address);\n        return reward;\n    }\n\n    function calculateTime(address account) public view returns (uint256) {\n        uint256 time = block.timestamp;\n        uint256 totalTime = time - updateTime[account];\n        return totalTime;\n    }\n\n    function calculateRewards(address account) public view returns (uint256) {\n        uint256 time = SafeMath.mul(calculateTime(account), 1e18);\n        uint256 rate = 864;\n        uint256 timeRate = time / rate;\n        uint256 reward = SafeMath.div(\n            SafeMath.mul(stakingBalance[account], timeRate),\n            1e18\n        );\n        return reward;\n    }\n\n    //Issuing Token\n    function issueTokens() public {\n        uint256 balance = stakingBalance[msg.sender];\n        uint256 reward = calculateRewards(msg.sender);\n        require(reward > 0 && balance > 0);\n        MimicToken.transfer(msg.sender, reward);\n        updateTime[msg.sender] = block.timestamp;\n    }\n\n    //Unstake with amount\n    function unstakeTokens(uint256 _amount) public {\n        require(_amount > 0, \"staking balance cannot be 0\");\n        JUSDToken.transfer(msg.sender, _amount);\n        uint256 remain = SafeMath.sub(stakingBalance[msg.sender], _amount);\n        stakingBalance[msg.sender] = remain;\n\n        //withdraw and claim reward\n        uint256 reward = calculateRewards(msg.sender);\n        // require(reward > 0 && stakingBalance[msg.sender] >= 0);\n        MimicToken.transfer(msg.sender, reward);\n        updateTime[msg.sender] = block.timestamp;\n    }\n}\n",
  "sourcePath": "/Users/aomwara/aomdev/mimic-farm-v2/contracts/Farming.sol",
  "compiler": {
    "name": "solc",
    "version": "0.6.6+commit.6c089d02.Emscripten.clang"
  },
  "schemaVersion": "3.4.3",
  "updatedAt": "2022-03-26T16:16:37.839Z",
  "networkType": "ethereum",
  "devdoc": {
    "methods": {}
  },
  "userdoc": {
    "methods": {}
  }
}