{
  "contractName": "Farming",
  "abi": [
    {
      "inputs": [
        {
          "internalType": "address",
          "name": "_MimicToken",
          "type": "address"
        },
        {
          "internalType": "address",
          "name": "_JUSDToken",
          "type": "address"
        }
      ],
      "stateMutability": "nonpayable",
      "type": "constructor"
    },
    {
      "inputs": [],
      "name": "JUSDToken",
      "outputs": [
        {
          "internalType": "contract ERC20",
          "name": "",
          "type": "address"
        }
      ],
      "stateMutability": "view",
      "type": "function",
      "constant": true
    },
    {
      "inputs": [],
      "name": "MimicToken",
      "outputs": [
        {
          "internalType": "contract ERC20",
          "name": "",
          "type": "address"
        }
      ],
      "stateMutability": "view",
      "type": "function",
      "constant": true
    },
    {
      "inputs": [
        {
          "internalType": "address",
          "name": "",
          "type": "address"
        }
      ],
      "name": "lastUpdate",
      "outputs": [
        {
          "internalType": "uint256",
          "name": "",
          "type": "uint256"
        }
      ],
      "stateMutability": "view",
      "type": "function",
      "constant": true
    },
    {
      "inputs": [],
      "name": "name",
      "outputs": [
        {
          "internalType": "string",
          "name": "",
          "type": "string"
        }
      ],
      "stateMutability": "view",
      "type": "function",
      "constant": true
    },
    {
      "inputs": [],
      "name": "rewardRate",
      "outputs": [
        {
          "internalType": "uint256",
          "name": "",
          "type": "uint256"
        }
      ],
      "stateMutability": "view",
      "type": "function",
      "constant": true
    },
    {
      "inputs": [
        {
          "internalType": "address",
          "name": "",
          "type": "address"
        }
      ],
      "name": "stakingBalance",
      "outputs": [
        {
          "internalType": "uint256",
          "name": "",
          "type": "uint256"
        }
      ],
      "stateMutability": "view",
      "type": "function",
      "constant": true
    },
    {
      "inputs": [
        {
          "internalType": "uint256",
          "name": "_amount",
          "type": "uint256"
        }
      ],
      "name": "stakeTokens",
      "outputs": [],
      "stateMutability": "nonpayable",
      "type": "function"
    },
    {
      "inputs": [],
      "name": "checkReward",
      "outputs": [
        {
          "internalType": "uint256",
          "name": "",
          "type": "uint256"
        }
      ],
      "stateMutability": "view",
      "type": "function",
      "constant": true
    },
    {
      "inputs": [],
      "name": "issueTokens",
      "outputs": [],
      "stateMutability": "nonpayable",
      "type": "function"
    },
    {
      "inputs": [
        {
          "internalType": "uint256",
          "name": "_amount",
          "type": "uint256"
        }
      ],
      "name": "unstakeTokens",
      "outputs": [],
      "stateMutability": "nonpayable",
      "type": "function"
    }
  ],
  "bytecode": "0x60806040526040518060400160405280601e81526020017f4d696d696320476f7665726e616e636520546f6b656e204661726d696e6700008152506000908051906020019061004f929190610128565b50600a60055534801561006157600080fd5b50604051610f38380380610f388339818101604052604081101561008457600080fd5b81019080805190602001909291908051906020019092919050505081600160006101000a81548173ffffffffffffffffffffffffffffffffffffffff021916908373ffffffffffffffffffffffffffffffffffffffff16021790555080600260006101000a81548173ffffffffffffffffffffffffffffffffffffffff021916908373ffffffffffffffffffffffffffffffffffffffff16021790555050506101cd565b828054600181600116156101000203166002900490600052602060002090601f016020900481019282601f1061016957805160ff1916838001178555610197565b82800160010185558215610197579182015b8281111561019657825182559160200191906001019061017b565b5b5090506101a491906101a8565b5090565b6101ca91905b808211156101c65760008160009055506001016101ae565b5090565b90565b610d5c806101dc6000396000f3fe608060405234801561001057600080fd5b506004361061009e5760003560e01c806370e3c7ed1161006657806370e3c7ed146102005780637547c7a31461024a5780637b0a47ee14610278578063c4b24a4614610296578063cb03fb1e146102b45761009e565b806306fdde03146100a35780633f4eaded1461012657806345bc78ab14610170578063608e4dd0146101c857806360ab5852146101f6575b600080fd5b6100ab61030c565b6040518080602001828103825283818151815260200191508051906020019080838360005b838110156100eb5780820151818401526020810190506100d0565b50505050905090810190601f1680156101185780820380516001836020036101000a031916815260200191505b509250505060405180910390f35b61012e6103aa565b604051808273ffffffffffffffffffffffffffffffffffffffff1673ffffffffffffffffffffffffffffffffffffffff16815260200191505060405180910390f35b6101b26004803603602081101561018657600080fd5b81019080803573ffffffffffffffffffffffffffffffffffffffff1690602001909291905050506103d0565b6040518082815260200191505060405180910390f35b6101f4600480360360208110156101de57600080fd5b81019080803590602001909291905050506103e8565b005b6101fe6105d7565b005b6102086107df565b604051808273ffffffffffffffffffffffffffffffffffffffff1673ffffffffffffffffffffffffffffffffffffffff16815260200191505060405180910390f35b6102766004803603602081101561026057600080fd5b8101908080359060200190929190505050610805565b005b610280610a67565b6040518082815260200191505060405180910390f35b61029e610a6d565b6040518082815260200191505060405180910390f35b6102f6600480360360208110156102ca57600080fd5b81019080803573ffffffffffffffffffffffffffffffffffffffff169060200190929190505050610ad3565b6040518082815260200191505060405180910390f35b60008054600181600116156101000203166002900480601f0160208091040260200160405190810160405280929190818152602001828054600181600116156101000203166002900480156103a25780601f10610377576101008083540402835291602001916103a2565b820191906000526020600020905b81548152906001019060200180831161038557829003601f168201915b505050505081565b600260009054906101000a900473ffffffffffffffffffffffffffffffffffffffff1681565b60036020528060005260406000206000915090505481565b600081905060008111610463576040517f08c379a000000000000000000000000000000000000000000000000000000000815260040180806020018281038252601b8152602001807f7374616b696e672062616c616e63652063616e6e6f742062652030000000000081525060200191505060405180910390fd5b600260009054906101000a900473ffffffffffffffffffffffffffffffffffffffff1673ffffffffffffffffffffffffffffffffffffffff1663a9059cbb33836040518363ffffffff1660e01b8152600401808373ffffffffffffffffffffffffffffffffffffffff1673ffffffffffffffffffffffffffffffffffffffff16815260200182815260200192505050602060405180830381600087803b15801561050c57600080fd5b505af1158015610520573d6000803e3d6000fd5b505050506040513d602081101561053657600080fd5b810190808051906020019092919050505050600081600360003373ffffffffffffffffffffffffffffffffffffffff1673ffffffffffffffffffffffffffffffffffffffff1681526020019081526020016000205403905080600360003373ffffffffffffffffffffffffffffffffffffffff1673ffffffffffffffffffffffffffffffffffffffff16815260200190815260200160002081905550505050565b6000600360003373ffffffffffffffffffffffffffffffffffffffff1673ffffffffffffffffffffffffffffffffffffffff168152602001908152602001600020549050600061066642600460003373ffffffffffffffffffffffffffffffffffffffff1673ffffffffffffffffffffffffffffffffffffffff16815260200190815260200160002054610aeb565b9050600061067682600554610b6e565b9050600061068684612710610bf4565b905060006106948284610b6e565b90506000811180156106a65750600085115b6106af57600080fd5b600160009054906101000a900473ffffffffffffffffffffffffffffffffffffffff1673ffffffffffffffffffffffffffffffffffffffff1663a9059cbb33836040518363ffffffff1660e01b8152600401808373ffffffffffffffffffffffffffffffffffffffff1673ffffffffffffffffffffffffffffffffffffffff16815260200182815260200192505050602060405180830381600087803b15801561075857600080fd5b505af115801561076c573d6000803e3d6000fd5b505050506040513d602081101561078257600080fd5b81019080805190602001909291905050505042600460003373ffffffffffffffffffffffffffffffffffffffff1673ffffffffffffffffffffffffffffffffffffffff168152602001908152602001600020819055505050505050565b600160009054906101000a900473ffffffffffffffffffffffffffffffffffffffff1681565b6000811161087b576040517f08c379a00000000000000000000000000000000000000000000000000000000081526004018080602001828103825260138152602001807f616d6f756e742063616e206e6f7420626520300000000000000000000000000081525060200191505060405180910390fd5b600260009054906101000a900473ffffffffffffffffffffffffffffffffffffffff1673ffffffffffffffffffffffffffffffffffffffff166323b872dd3330846040518463ffffffff1660e01b8152600401808473ffffffffffffffffffffffffffffffffffffffff1673ffffffffffffffffffffffffffffffffffffffff1681526020018373ffffffffffffffffffffffffffffffffffffffff1673ffffffffffffffffffffffffffffffffffffffff1681526020018281526020019350505050602060405180830381600087803b15801561095857600080fd5b505af115801561096c573d6000803e3d6000fd5b505050506040513d602081101561098257600080fd5b8101908080519060200190929190505050506109dd600360003373ffffffffffffffffffffffffffffffffffffffff1673ffffffffffffffffffffffffffffffffffffffff1681526020019081526020016000205482610c7d565b600360003373ffffffffffffffffffffffffffffffffffffffff1673ffffffffffffffffffffffffffffffffffffffff1681526020019081526020016000208190555042600460003373ffffffffffffffffffffffffffffffffffffffff1673ffffffffffffffffffffffffffffffffffffffff1681526020019081526020016000208190555050565b60055481565b600080610ab942600460003373ffffffffffffffffffffffffffffffffffffffff1673ffffffffffffffffffffffffffffffffffffffff16815260200190815260200160002054610aeb565b90506000610ac982600554610b6e565b9050809250505090565b60046020528060005260406000206000915090505481565b600082821115610b63576040517f08c379a000000000000000000000000000000000000000000000000000000000815260040180806020018281038252601e8152602001807f536166654d6174683a207375627472616374696f6e206f766572666c6f77000081525060200191505060405180910390fd5b818303905092915050565b600080831415610b815760009050610bee565b6000828402905082848281610b9257fe5b0414610be9576040517f08c379a0000000000000000000000000000000000000000000000000000000008152600401808060200182810382526021815260200180610d066021913960400191505060405180910390fd5b809150505b92915050565b6000808211610c6b576040517f08c379a000000000000000000000000000000000000000000000000000000000815260040180806020018281038252601a8152602001807f536166654d6174683a206469766973696f6e206279207a65726f00000000000081525060200191505060405180910390fd5b818381610c7457fe5b04905092915050565b600080828401905083811015610cfb576040517f08c379a000000000000000000000000000000000000000000000000000000000815260040180806020018281038252601b8152602001807f536166654d6174683a206164646974696f6e206f766572666c6f77000000000081525060200191505060405180910390fd5b809150509291505056fe536166654d6174683a206d756c7469706c69636174696f6e206f766572666c6f77a26469706673582212203e850d3a3b9c8141942c46053f751c4d771327b3cd641db649d61dc85546c67964736f6c63430006060033",
  "immutableReferences": {},
  "source": "// SPDX-License-Identifier: MIT\n\npragma solidity 0.6.6;\n\nimport \"./JUSD.sol\";\nimport \"./Mimic.sol\";\nimport \"@openzeppelin/contracts/token/ERC20/ERC20.sol\";\nimport \"@openzeppelin/contracts/math/SafeMath.sol\";\n\ncontract Farming {\n    string public name = \"Mimic Governance Token Farming\";\n    ERC20 public MimicToken;\n    ERC20 public JUSDToken;\n\n    mapping(address => uint256) public stakingBalance;\n    mapping(address => uint256) public lastUpdate;\n\n    uint256 public rewardRate = 10;\n\n    constructor(address _MimicToken, address _JUSDToken) public {\n        MimicToken = ERC20(_MimicToken);\n        JUSDToken = ERC20(_JUSDToken);\n    }\n\n    //Stake Tokens\n    function stakeTokens(uint256 _amount) public {\n        require(_amount > 0, \"amount can not be 0\");\n        JUSDToken.transferFrom(msg.sender, address(this), _amount);\n        stakingBalance[msg.sender] = SafeMath.add(\n            stakingBalance[msg.sender],\n            _amount\n        );\n        lastUpdate[msg.sender] = block.timestamp;\n    }\n\n    //Check Reward\n    function checkReward() public view returns (uint256) {\n        uint256 update = SafeMath.sub(block.timestamp, lastUpdate[msg.sender]);\n        uint256 reward = SafeMath.mul(update, rewardRate);\n        return reward;\n    }\n\n    //Issuing Token\n    function issueTokens() public {\n        uint256 balance = stakingBalance[msg.sender];\n        uint256 update = SafeMath.sub(block.timestamp, lastUpdate[msg.sender]);\n        uint256 rewardB = SafeMath.mul(update, rewardRate);\n        uint256 divbal = SafeMath.div(balance, 1e4);\n        uint256 reward = SafeMath.mul(divbal, rewardB);\n        require(reward > 0 && balance > 0);\n        MimicToken.transfer(msg.sender, reward);\n        lastUpdate[msg.sender] = block.timestamp;\n    }\n\n    //Unstake with amount\n    function unstakeTokens(uint256 _amount) public {\n        uint256 balance = _amount;\n        require(balance > 0, \"staking balance cannot be 0\");\n        JUSDToken.transfer(msg.sender, balance);\n        uint256 remain = stakingBalance[msg.sender] - balance;\n        stakingBalance[msg.sender] = remain;\n    }\n}\n",
  "sourcePath": "/Users/aomwara/aomdev/mimic-farm-v2/contracts/Farming.sol",
  "compiler": {
    "name": "solc",
    "version": "0.6.6+commit.6c089d02.Emscripten.clang"
  },
  "schemaVersion": "3.4.3",
  "updatedAt": "2022-03-18T09:10:51.842Z",
  "networkType": "ethereum",
  "devdoc": {
    "methods": {}
  },
  "userdoc": {
    "methods": {}
  }
}