{
  "contractName": "Farming",
  "abi": [
    {
      "inputs": [
        {
          "internalType": "address",
          "name": "_MimicToken",
          "type": "address"
        },
        {
          "internalType": "address",
          "name": "_JUSDToken",
          "type": "address"
        }
      ],
      "stateMutability": "nonpayable",
      "type": "constructor"
    },
    {
      "inputs": [],
      "name": "JUSDToken",
      "outputs": [
        {
          "internalType": "contract ERC20",
          "name": "",
          "type": "address"
        }
      ],
      "stateMutability": "view",
      "type": "function",
      "constant": true
    },
    {
      "inputs": [],
      "name": "MimicToken",
      "outputs": [
        {
          "internalType": "contract ERC20",
          "name": "",
          "type": "address"
        }
      ],
      "stateMutability": "view",
      "type": "function",
      "constant": true
    },
    {
      "inputs": [
        {
          "internalType": "address",
          "name": "",
          "type": "address"
        }
      ],
      "name": "lastUpdate",
      "outputs": [
        {
          "internalType": "uint256",
          "name": "",
          "type": "uint256"
        }
      ],
      "stateMutability": "view",
      "type": "function",
      "constant": true
    },
    {
      "inputs": [],
      "name": "name",
      "outputs": [
        {
          "internalType": "string",
          "name": "",
          "type": "string"
        }
      ],
      "stateMutability": "view",
      "type": "function",
      "constant": true
    },
    {
      "inputs": [],
      "name": "rewardRate",
      "outputs": [
        {
          "internalType": "uint256",
          "name": "",
          "type": "uint256"
        }
      ],
      "stateMutability": "view",
      "type": "function",
      "constant": true
    },
    {
      "inputs": [
        {
          "internalType": "address",
          "name": "",
          "type": "address"
        }
      ],
      "name": "stakingBalance",
      "outputs": [
        {
          "internalType": "uint256",
          "name": "",
          "type": "uint256"
        }
      ],
      "stateMutability": "view",
      "type": "function",
      "constant": true
    },
    {
      "inputs": [
        {
          "internalType": "uint256",
          "name": "_amount",
          "type": "uint256"
        }
      ],
      "name": "stakeTokens",
      "outputs": [],
      "stateMutability": "nonpayable",
      "type": "function"
    },
    {
      "inputs": [],
      "name": "checkReward",
      "outputs": [
        {
          "internalType": "uint256",
          "name": "",
          "type": "uint256"
        }
      ],
      "stateMutability": "view",
      "type": "function",
      "constant": true
    },
    {
      "inputs": [],
      "name": "issueTokens",
      "outputs": [],
      "stateMutability": "nonpayable",
      "type": "function"
    },
    {
      "inputs": [
        {
          "internalType": "uint256",
          "name": "_amount",
          "type": "uint256"
        }
      ],
      "name": "unstakeTokens",
      "outputs": [],
      "stateMutability": "nonpayable",
      "type": "function"
    }
  ],
  "bytecode": "0x60806040526040518060400160405280601e81526020017f4d696d696320476f7665726e616e636520546f6b656e204661726d696e670000815250600090805190602001906200005192919062000114565b50600a6005553480156200006457600080fd5b506040516200117e3803806200117e83398181016040528101906200008a9190620001db565b81600160006101000a81548173ffffffffffffffffffffffffffffffffffffffff021916908373ffffffffffffffffffffffffffffffffffffffff16021790555080600260006101000a81548173ffffffffffffffffffffffffffffffffffffffff021916908373ffffffffffffffffffffffffffffffffffffffff1602179055505050620002cf565b828054620001229062000250565b90600052602060002090601f01602090048101928262000146576000855562000192565b82601f106200016157805160ff191683800117855562000192565b8280016001018555821562000192579182015b828111156200019157825182559160200191906001019062000174565b5b509050620001a19190620001a5565b5090565b5b80821115620001c0576000816000905550600101620001a6565b5090565b600081519050620001d581620002b5565b92915050565b60008060408385031215620001ef57600080fd5b6000620001ff85828601620001c4565b92505060206200021285828601620001c4565b9150509250929050565b6000620002298262000230565b9050919050565b600073ffffffffffffffffffffffffffffffffffffffff82169050919050565b600060028204905060018216806200026957607f821691505b6020821081141562000280576200027f62000286565b5b50919050565b7f4e487b7100000000000000000000000000000000000000000000000000000000600052602260045260246000fd5b620002c0816200021c565b8114620002cc57600080fd5b50565b610e9f80620002df6000396000f3fe608060405234801561001057600080fd5b506004361061009e5760003560e01c806370e3c7ed1161006657806370e3c7ed146101355780637547c7a3146101535780637b0a47ee1461016f578063c4b24a461461018d578063cb03fb1e146101ab5761009e565b806306fdde03146100a35780633f4eaded146100c157806345bc78ab146100df578063608e4dd01461010f57806360ab58521461012b575b600080fd5b6100ab6101db565b6040516100b89190610ab5565b60405180910390f35b6100c9610269565b6040516100d69190610a9a565b60405180910390f35b6100f960048036038101906100f49190610913565b61028f565b6040516101069190610b17565b60405180910390f35b61012960048036038101906101249190610965565b6102a7565b005b610133610437565b005b61013d61060a565b60405161014a9190610a9a565b60405180910390f35b61016d60048036038101906101689190610965565b610630565b005b6101776107f8565b6040516101849190610b17565b60405180910390f35b6101956107fe565b6040516101a29190610b17565b60405180910390f35b6101c560048036038101906101c09190610913565b610864565b6040516101d29190610b17565b60405180910390f35b600080546101e890610d02565b80601f016020809104026020016040519081016040528092919081815260200182805461021490610d02565b80156102615780601f1061023657610100808354040283529160200191610261565b820191906000526020600020905b81548152906001019060200180831161024457829003601f168201915b505050505081565b600260009054906101000a900473ffffffffffffffffffffffffffffffffffffffff1681565b60036020528060005260406000206000915090505481565b6000819050600081116102ef576040517f08c379a00000000000000000000000000000000000000000000000000000000081526004016102e690610af7565b60405180910390fd5b600260009054906101000a900473ffffffffffffffffffffffffffffffffffffffff1673ffffffffffffffffffffffffffffffffffffffff1663a9059cbb33836040518363ffffffff1660e01b815260040161034c929190610a71565b602060405180830381600087803b15801561036657600080fd5b505af115801561037a573d6000803e3d6000fd5b505050506040513d601f19601f8201168201806040525081019061039e919061093c565b50600081600360003373ffffffffffffffffffffffffffffffffffffffff1673ffffffffffffffffffffffffffffffffffffffff168152602001908152602001600020546103ec9190610c2f565b905080600360003373ffffffffffffffffffffffffffffffffffffffff1673ffffffffffffffffffffffffffffffffffffffff16815260200190815260200160002081905550505050565b6000600360003373ffffffffffffffffffffffffffffffffffffffff1673ffffffffffffffffffffffffffffffffffffffff16815260200190815260200160002054905060006104c642600460003373ffffffffffffffffffffffffffffffffffffffff1673ffffffffffffffffffffffffffffffffffffffff1681526020019081526020016000205461087c565b905060006104d682600554610892565b905060006104e6846127106108a8565b905060006104f48284610892565b90506000811180156105065750600085115b61050f57600080fd5b600160009054906101000a900473ffffffffffffffffffffffffffffffffffffffff1673ffffffffffffffffffffffffffffffffffffffff1663a9059cbb33836040518363ffffffff1660e01b815260040161056c929190610a71565b602060405180830381600087803b15801561058657600080fd5b505af115801561059a573d6000803e3d6000fd5b505050506040513d601f19601f820116820180604052508101906105be919061093c565b5042600460003373ffffffffffffffffffffffffffffffffffffffff1673ffffffffffffffffffffffffffffffffffffffff168152602001908152602001600020819055505050505050565b600160009054906101000a900473ffffffffffffffffffffffffffffffffffffffff1681565b60008111610673576040517f08c379a000000000000000000000000000000000000000000000000000000000815260040161066a90610ad7565b60405180910390fd5b600260009054906101000a900473ffffffffffffffffffffffffffffffffffffffff1673ffffffffffffffffffffffffffffffffffffffff166323b872dd3330846040518463ffffffff1660e01b81526004016106d293929190610a3a565b602060405180830381600087803b1580156106ec57600080fd5b505af1158015610700573d6000803e3d6000fd5b505050506040513d601f19601f82011682018060405250810190610724919061093c565b5061076e600360003373ffffffffffffffffffffffffffffffffffffffff1673ffffffffffffffffffffffffffffffffffffffff16815260200190815260200160002054826108be565b600360003373ffffffffffffffffffffffffffffffffffffffff1673ffffffffffffffffffffffffffffffffffffffff1681526020019081526020016000208190555042600460003373ffffffffffffffffffffffffffffffffffffffff1673ffffffffffffffffffffffffffffffffffffffff1681526020019081526020016000208190555050565b60055481565b60008061084a42600460003373ffffffffffffffffffffffffffffffffffffffff1673ffffffffffffffffffffffffffffffffffffffff1681526020019081526020016000205461087c565b9050600061085a82600554610892565b9050809250505090565b60046020528060005260406000206000915090505481565b6000818361088a9190610c2f565b905092915050565b600081836108a09190610bd5565b905092915050565b600081836108b69190610ba4565b905092915050565b600081836108cc9190610b4e565b905092915050565b6000813590506108e381610e24565b92915050565b6000815190506108f881610e3b565b92915050565b60008135905061090d81610e52565b92915050565b60006020828403121561092557600080fd5b6000610933848285016108d4565b91505092915050565b60006020828403121561094e57600080fd5b600061095c848285016108e9565b91505092915050565b60006020828403121561097757600080fd5b6000610985848285016108fe565b91505092915050565b61099781610c63565b82525050565b6109a681610cab565b82525050565b60006109b782610b32565b6109c18185610b3d565b93506109d1818560208601610ccf565b6109da81610dc1565b840191505092915050565b60006109f2601383610b3d565b91506109fd82610dd2565b602082019050919050565b6000610a15601b83610b3d565b9150610a2082610dfb565b602082019050919050565b610a3481610ca1565b82525050565b6000606082019050610a4f600083018661098e565b610a5c602083018561098e565b610a696040830184610a2b565b949350505050565b6000604082019050610a86600083018561098e565b610a936020830184610a2b565b9392505050565b6000602082019050610aaf600083018461099d565b92915050565b60006020820190508181036000830152610acf81846109ac565b905092915050565b60006020820190508181036000830152610af0816109e5565b9050919050565b60006020820190508181036000830152610b1081610a08565b9050919050565b6000602082019050610b2c6000830184610a2b565b92915050565b600081519050919050565b600082825260208201905092915050565b6000610b5982610ca1565b9150610b6483610ca1565b9250827fffffffffffffffffffffffffffffffffffffffffffffffffffffffffffffffff03821115610b9957610b98610d34565b5b828201905092915050565b6000610baf82610ca1565b9150610bba83610ca1565b925082610bca57610bc9610d63565b5b828204905092915050565b6000610be082610ca1565b9150610beb83610ca1565b9250817fffffffffffffffffffffffffffffffffffffffffffffffffffffffffffffffff0483118215151615610c2457610c23610d34565b5b828202905092915050565b6000610c3a82610ca1565b9150610c4583610ca1565b925082821015610c5857610c57610d34565b5b828203905092915050565b6000610c6e82610c81565b9050919050565b60008115159050919050565b600073ffffffffffffffffffffffffffffffffffffffff82169050919050565b6000819050919050565b6000610cb682610cbd565b9050919050565b6000610cc882610c81565b9050919050565b60005b83811015610ced578082015181840152602081019050610cd2565b83811115610cfc576000848401525b50505050565b60006002820490506001821680610d1a57607f821691505b60208210811415610d2e57610d2d610d92565b5b50919050565b7f4e487b7100000000000000000000000000000000000000000000000000000000600052601160045260246000fd5b7f4e487b7100000000000000000000000000000000000000000000000000000000600052601260045260246000fd5b7f4e487b7100000000000000000000000000000000000000000000000000000000600052602260045260246000fd5b6000601f19601f8301169050919050565b7f616d6f756e742063616e206e6f74206265203000000000000000000000000000600082015250565b7f7374616b696e672062616c616e63652063616e6e6f7420626520300000000000600082015250565b610e2d81610c63565b8114610e3857600080fd5b50565b610e4481610c75565b8114610e4f57600080fd5b50565b610e5b81610ca1565b8114610e6657600080fd5b5056fea26469706673582212203d0362756727cd146bc9e9d0652e4b1341b4a9741499228b4fb77114d540278e64736f6c63430008040033",
  "immutableReferences": {},
  "source": "// SPDX-License-Identifier: MIT\r\n\r\npragma solidity ^0.8.4;\r\n\r\nimport \"./JUSD.sol\";\r\nimport \"./Mimic.sol\";\r\nimport \"@openzeppelin/contracts/token/ERC20/ERC20.sol\";\r\nimport \"@openzeppelin/contracts/utils/math/SafeMath.sol\";\r\n\r\ncontract Farming {\r\n    string public name = \"Mimic Governance Token Farming\";\r\n    ERC20 public MimicToken;\r\n    ERC20 public JUSDToken;\r\n\r\n    mapping(address => uint256) public stakingBalance;\r\n    mapping(address => uint256) public lastUpdate;\r\n\r\n    uint256 public rewardRate = 10;\r\n\r\n    constructor(address _MimicToken, address _JUSDToken) {\r\n        MimicToken = ERC20(_MimicToken);\r\n        JUSDToken = ERC20(_JUSDToken);\r\n    }\r\n\r\n    //Stake Tokens\r\n    function stakeTokens(uint256 _amount) public {\r\n        require(_amount > 0, \"amount can not be 0\");\r\n        JUSDToken.transferFrom(msg.sender, address(this), _amount);\r\n        stakingBalance[msg.sender] = SafeMath.add(\r\n            stakingBalance[msg.sender],\r\n            _amount\r\n        );\r\n        lastUpdate[msg.sender] = block.timestamp;\r\n    }\r\n\r\n    //Check Reward\r\n    function checkReward() public view returns (uint256) {\r\n        uint256 update = SafeMath.sub(block.timestamp, lastUpdate[msg.sender]);\r\n        uint256 reward = SafeMath.mul(update, rewardRate);\r\n        return reward;\r\n    }\r\n\r\n    //Issuing Token\r\n    function issueTokens() public {\r\n        uint256 balance = stakingBalance[msg.sender];\r\n        uint256 update = SafeMath.sub(block.timestamp, lastUpdate[msg.sender]);\r\n        uint256 rewardB = SafeMath.mul(update, rewardRate);\r\n        uint256 divbal = SafeMath.div(balance, 1e4);\r\n        uint256 reward = SafeMath.mul(divbal, rewardB);\r\n        require(reward > 0 && balance > 0);\r\n        MimicToken.transfer(msg.sender, reward);\r\n        lastUpdate[msg.sender] = block.timestamp;\r\n    }\r\n\r\n    //Unstake with amount\r\n    function unstakeTokens(uint256 _amount) public {\r\n        uint256 balance = _amount;\r\n        require(balance > 0, \"staking balance cannot be 0\");\r\n        JUSDToken.transfer(msg.sender, balance);\r\n        uint256 remain = stakingBalance[msg.sender] - balance;\r\n        stakingBalance[msg.sender] = remain;\r\n    }\r\n}\r\n",
  "sourcePath": "C:/Users/PUNNAWICHSILPKITCHAR/Desktop/dev-mimic/mimic-farm-v2/contracts/Farming.sol",
  "compiler": {
    "name": "solc",
    "version": "0.8.4+commit.c7e474f2.Emscripten.clang"
  },
  "schemaVersion": "3.2.3",
  "updatedAt": "2022-03-17T14:59:01.870Z",
  "networkType": "ethereum",
  "devdoc": {
    "kind": "dev",
    "methods": {},
    "version": 1
  },
  "userdoc": {
    "kind": "user",
    "methods": {},
    "version": 1
  }
}