{
  "contractName": "Farming",
  "abi": [
    {
      "inputs": [
        {
          "internalType": "address",
          "name": "_MimicToken",
          "type": "address"
        },
        {
          "internalType": "address",
          "name": "_JUSDToken",
          "type": "address"
        },
        {
          "internalType": "address",
          "name": "_BUSD",
          "type": "address"
        },
        {
          "internalType": "address",
          "name": "_DAI",
          "type": "address"
        },
        {
          "internalType": "address",
          "name": "_USDC",
          "type": "address"
        },
        {
          "internalType": "address",
          "name": "_USDT",
          "type": "address"
        }
      ],
      "stateMutability": "nonpayable",
      "type": "constructor"
    },
    {
      "inputs": [],
      "name": "BUSD",
      "outputs": [
        {
          "internalType": "contract ERC20",
          "name": "",
          "type": "address"
        }
      ],
      "stateMutability": "view",
      "type": "function",
      "constant": true
    },
    {
      "inputs": [],
      "name": "DAI",
      "outputs": [
        {
          "internalType": "contract ERC20",
          "name": "",
          "type": "address"
        }
      ],
      "stateMutability": "view",
      "type": "function",
      "constant": true
    },
    {
      "inputs": [],
      "name": "DEX",
      "outputs": [
        {
          "internalType": "contract Dex",
          "name": "",
          "type": "address"
        }
      ],
      "stateMutability": "view",
      "type": "function",
      "constant": true
    },
    {
      "inputs": [],
      "name": "JUSDToken",
      "outputs": [
        {
          "internalType": "contract ERC20",
          "name": "",
          "type": "address"
        }
      ],
      "stateMutability": "view",
      "type": "function",
      "constant": true
    },
    {
      "inputs": [],
      "name": "MimicToken",
      "outputs": [
        {
          "internalType": "contract ERC20",
          "name": "",
          "type": "address"
        }
      ],
      "stateMutability": "view",
      "type": "function",
      "constant": true
    },
    {
      "inputs": [],
      "name": "USDC",
      "outputs": [
        {
          "internalType": "contract ERC20",
          "name": "",
          "type": "address"
        }
      ],
      "stateMutability": "view",
      "type": "function",
      "constant": true
    },
    {
      "inputs": [],
      "name": "USDT",
      "outputs": [
        {
          "internalType": "contract ERC20",
          "name": "",
          "type": "address"
        }
      ],
      "stateMutability": "view",
      "type": "function",
      "constant": true
    },
    {
      "inputs": [
        {
          "internalType": "address",
          "name": "",
          "type": "address"
        }
      ],
      "name": "lastUpdate",
      "outputs": [
        {
          "internalType": "uint256",
          "name": "",
          "type": "uint256"
        }
      ],
      "stateMutability": "view",
      "type": "function",
      "constant": true
    },
    {
      "inputs": [],
      "name": "name",
      "outputs": [
        {
          "internalType": "string",
          "name": "",
          "type": "string"
        }
      ],
      "stateMutability": "view",
      "type": "function",
      "constant": true
    },
    {
      "inputs": [],
      "name": "rewardRate",
      "outputs": [
        {
          "internalType": "uint256",
          "name": "",
          "type": "uint256"
        }
      ],
      "stateMutability": "view",
      "type": "function",
      "constant": true
    },
    {
      "inputs": [
        {
          "internalType": "address",
          "name": "",
          "type": "address"
        }
      ],
      "name": "stakingBalance",
      "outputs": [
        {
          "internalType": "uint256",
          "name": "",
          "type": "uint256"
        }
      ],
      "stateMutability": "view",
      "type": "function",
      "constant": true
    },
    {
      "inputs": [
        {
          "internalType": "address",
          "name": "",
          "type": "address"
        }
      ],
      "name": "stakingUSDCBalance",
      "outputs": [
        {
          "internalType": "uint256",
          "name": "",
          "type": "uint256"
        }
      ],
      "stateMutability": "view",
      "type": "function",
      "constant": true
    },
    {
      "inputs": [
        {
          "internalType": "address",
          "name": "_address",
          "type": "address"
        }
      ],
      "name": "setDexAddr",
      "outputs": [],
      "stateMutability": "nonpayable",
      "type": "function"
    },
    {
      "inputs": [
        {
          "internalType": "uint256",
          "name": "_amount",
          "type": "uint256"
        }
      ],
      "name": "stakeTokens",
      "outputs": [],
      "stateMutability": "nonpayable",
      "type": "function"
    },
    {
      "inputs": [
        {
          "internalType": "uint256",
          "name": "_amount",
          "type": "uint256"
        },
        {
          "internalType": "address",
          "name": "_tokenAddress",
          "type": "address"
        }
      ],
      "name": "stakeStableCoin",
      "outputs": [],
      "stateMutability": "nonpayable",
      "type": "function"
    },
    {
      "inputs": [],
      "name": "checkReward",
      "outputs": [
        {
          "internalType": "uint256",
          "name": "",
          "type": "uint256"
        }
      ],
      "stateMutability": "view",
      "type": "function",
      "constant": true
    },
    {
      "inputs": [],
      "name": "issueTokens",
      "outputs": [],
      "stateMutability": "nonpayable",
      "type": "function"
    },
    {
      "inputs": [
        {
          "internalType": "uint256",
          "name": "_amount",
          "type": "uint256"
        }
      ],
      "name": "unstakeTokens",
      "outputs": [],
      "stateMutability": "nonpayable",
      "type": "function"
    }
  ],
  "bytecode": "0x60806040526040518060400160405280601e81526020017f4d696d696320476f7665726e616e636520546f6b656e204661726d696e67000081525060009080519060200190620000519291906200025f565b50600a600b553480156200006457600080fd5b50604051620015a3380380620015a3833981810160405260c08110156200008a57600080fd5b8101908080519060200190929190805190602001909291908051906020019092919080519060200190929190805190602001909291908051906020019092919050505085600160006101000a81548173ffffffffffffffffffffffffffffffffffffffff021916908373ffffffffffffffffffffffffffffffffffffffff16021790555084600260006101000a81548173ffffffffffffffffffffffffffffffffffffffff021916908373ffffffffffffffffffffffffffffffffffffffff16021790555083600360006101000a81548173ffffffffffffffffffffffffffffffffffffffff021916908373ffffffffffffffffffffffffffffffffffffffff16021790555082600460006101000a81548173ffffffffffffffffffffffffffffffffffffffff021916908373ffffffffffffffffffffffffffffffffffffffff16021790555081600560006101000a81548173ffffffffffffffffffffffffffffffffffffffff021916908373ffffffffffffffffffffffffffffffffffffffff16021790555080600660006101000a81548173ffffffffffffffffffffffffffffffffffffffff021916908373ffffffffffffffffffffffffffffffffffffffff1602179055505050505050506200030e565b828054600181600116156101000203166002900490600052602060002090601f016020900481019282601f10620002a257805160ff1916838001178555620002d3565b82800160010185558215620002d3579182015b82811115620002d2578251825591602001919060010190620002b5565b5b509050620002e29190620002e6565b5090565b6200030b91905b8082111562000307576000816000905550600101620002ed565b5090565b90565b611285806200031e6000396000f3fe608060405234801561001057600080fd5b50600436106101165760003560e01c80637547c7a3116100a257806389a302711161007157806389a302711461048c578063c4b24a46146104d6578063c54e44eb146104f4578063cb03fb1e1461053e578063e0bab4c41461059657610116565b80637547c7a31461039e5780637b0a47ee146103cc5780637e63eefa146103ea57806380935aa91461044257610116565b8063484f4ea9116100e9578063484f4ea91461028e578063608e4dd0146102d857806360ab5852146103065780636b80f07b1461031057806370e3c7ed1461035457610116565b806306fdde031461011b5780632b20b27c1461019e5780633f4eaded146101ec57806345bc78ab14610236575b600080fd5b6101236105e0565b6040518080602001828103825283818151815260200191508051906020019080838360005b83811015610163578082015181840152602081019050610148565b50505050905090810190601f1680156101905780820380516001836020036101000a031916815260200191505b509250505060405180910390f35b6101ea600480360360408110156101b457600080fd5b8101908080359060200190929190803573ffffffffffffffffffffffffffffffffffffffff16906020019092919050505061067e565b005b6101f46107b9565b604051808273ffffffffffffffffffffffffffffffffffffffff1673ffffffffffffffffffffffffffffffffffffffff16815260200191505060405180910390f35b6102786004803603602081101561024c57600080fd5b81019080803573ffffffffffffffffffffffffffffffffffffffff1690602001909291905050506107df565b6040518082815260200191505060405180910390f35b6102966107f7565b604051808273ffffffffffffffffffffffffffffffffffffffff1673ffffffffffffffffffffffffffffffffffffffff16815260200191505060405180910390f35b610304600480360360208110156102ee57600080fd5b810190808035906020019092919050505061081d565b005b61030e610a0c565b005b6103526004803603602081101561032657600080fd5b81019080803573ffffffffffffffffffffffffffffffffffffffff169060200190929190505050610c14565b005b61035c610c58565b604051808273ffffffffffffffffffffffffffffffffffffffff1673ffffffffffffffffffffffffffffffffffffffff16815260200191505060405180910390f35b6103ca600480360360208110156103b457600080fd5b8101908080359060200190929190505050610c7e565b005b6103d4610ee0565b6040518082815260200191505060405180910390f35b61042c6004803603602081101561040057600080fd5b81019080803573ffffffffffffffffffffffffffffffffffffffff169060200190929190505050610ee6565b6040518082815260200191505060405180910390f35b61044a610efe565b604051808273ffffffffffffffffffffffffffffffffffffffff1673ffffffffffffffffffffffffffffffffffffffff16815260200191505060405180910390f35b610494610f24565b604051808273ffffffffffffffffffffffffffffffffffffffff1673ffffffffffffffffffffffffffffffffffffffff16815260200191505060405180910390f35b6104de610f4a565b6040518082815260200191505060405180910390f35b6104fc610fb0565b604051808273ffffffffffffffffffffffffffffffffffffffff1673ffffffffffffffffffffffffffffffffffffffff16815260200191505060405180910390f35b6105806004803603602081101561055457600080fd5b81019080803573ffffffffffffffffffffffffffffffffffffffff169060200190929190505050610fd6565b6040518082815260200191505060405180910390f35b61059e610fee565b604051808273ffffffffffffffffffffffffffffffffffffffff1673ffffffffffffffffffffffffffffffffffffffff16815260200191505060405180910390f35b60008054600181600116156101000203166002900480601f0160208091040260200160405190810160405280929190818152602001828054600181600116156101000203166002900480156106765780601f1061064b57610100808354040283529160200191610676565b820191906000526020600020905b81548152906001019060200180831161065957829003601f168201915b505050505081565b600082116106f4576040517f08c379a00000000000000000000000000000000000000000000000000000000081526004018080602001828103825260138152602001807f616d6f756e742063616e206e6f7420626520300000000000000000000000000081525060200191505060405180910390fd5b600760009054906101000a900473ffffffffffffffffffffffffffffffffffffffff1673ffffffffffffffffffffffffffffffffffffffff16637d971cf883336040518363ffffffff1660e01b8152600401808381526020018273ffffffffffffffffffffffffffffffffffffffff1673ffffffffffffffffffffffffffffffffffffffff16815260200192505050600060405180830381600087803b15801561079d57600080fd5b505af11580156107b1573d6000803e3d6000fd5b505050505050565b600260009054906101000a900473ffffffffffffffffffffffffffffffffffffffff1681565b60086020528060005260406000206000915090505481565b600360009054906101000a900473ffffffffffffffffffffffffffffffffffffffff1681565b600081905060008111610898576040517f08c379a000000000000000000000000000000000000000000000000000000000815260040180806020018281038252601b8152602001807f7374616b696e672062616c616e63652063616e6e6f742062652030000000000081525060200191505060405180910390fd5b600260009054906101000a900473ffffffffffffffffffffffffffffffffffffffff1673ffffffffffffffffffffffffffffffffffffffff1663a9059cbb33836040518363ffffffff1660e01b8152600401808373ffffffffffffffffffffffffffffffffffffffff1673ffffffffffffffffffffffffffffffffffffffff16815260200182815260200192505050602060405180830381600087803b15801561094157600080fd5b505af1158015610955573d6000803e3d6000fd5b505050506040513d602081101561096b57600080fd5b810190808051906020019092919050505050600081600860003373ffffffffffffffffffffffffffffffffffffffff1673ffffffffffffffffffffffffffffffffffffffff1681526020019081526020016000205403905080600860003373ffffffffffffffffffffffffffffffffffffffff1673ffffffffffffffffffffffffffffffffffffffff16815260200190815260200160002081905550505050565b6000600860003373ffffffffffffffffffffffffffffffffffffffff1673ffffffffffffffffffffffffffffffffffffffff1681526020019081526020016000205490506000610a9b42600a60003373ffffffffffffffffffffffffffffffffffffffff1673ffffffffffffffffffffffffffffffffffffffff16815260200190815260200160002054611014565b90506000610aab82600b54611097565b90506000610abb8461271061111d565b90506000610ac98284611097565b9050600081118015610adb5750600085115b610ae457600080fd5b600160009054906101000a900473ffffffffffffffffffffffffffffffffffffffff1673ffffffffffffffffffffffffffffffffffffffff1663a9059cbb33836040518363ffffffff1660e01b8152600401808373ffffffffffffffffffffffffffffffffffffffff1673ffffffffffffffffffffffffffffffffffffffff16815260200182815260200192505050602060405180830381600087803b158015610b8d57600080fd5b505af1158015610ba1573d6000803e3d6000fd5b505050506040513d6020811015610bb757600080fd5b81019080805190602001909291905050505042600a60003373ffffffffffffffffffffffffffffffffffffffff1673ffffffffffffffffffffffffffffffffffffffff168152602001908152602001600020819055505050505050565b80600760006101000a81548173ffffffffffffffffffffffffffffffffffffffff021916908373ffffffffffffffffffffffffffffffffffffffff16021790555050565b600160009054906101000a900473ffffffffffffffffffffffffffffffffffffffff1681565b60008111610cf4576040517f08c379a00000000000000000000000000000000000000000000000000000000081526004018080602001828103825260138152602001807f616d6f756e742063616e206e6f7420626520300000000000000000000000000081525060200191505060405180910390fd5b600260009054906101000a900473ffffffffffffffffffffffffffffffffffffffff1673ffffffffffffffffffffffffffffffffffffffff166323b872dd3330846040518463ffffffff1660e01b8152600401808473ffffffffffffffffffffffffffffffffffffffff1673ffffffffffffffffffffffffffffffffffffffff1681526020018373ffffffffffffffffffffffffffffffffffffffff1673ffffffffffffffffffffffffffffffffffffffff1681526020018281526020019350505050602060405180830381600087803b158015610dd157600080fd5b505af1158015610de5573d6000803e3d6000fd5b505050506040513d6020811015610dfb57600080fd5b810190808051906020019092919050505050610e56600860003373ffffffffffffffffffffffffffffffffffffffff1673ffffffffffffffffffffffffffffffffffffffff16815260200190815260200160002054826111a6565b600860003373ffffffffffffffffffffffffffffffffffffffff1673ffffffffffffffffffffffffffffffffffffffff1681526020019081526020016000208190555042600a60003373ffffffffffffffffffffffffffffffffffffffff1673ffffffffffffffffffffffffffffffffffffffff1681526020019081526020016000208190555050565b600b5481565b60096020528060005260406000206000915090505481565b600760009054906101000a900473ffffffffffffffffffffffffffffffffffffffff1681565b600560009054906101000a900473ffffffffffffffffffffffffffffffffffffffff1681565b600080610f9642600a60003373ffffffffffffffffffffffffffffffffffffffff1673ffffffffffffffffffffffffffffffffffffffff16815260200190815260200160002054611014565b90506000610fa682600b54611097565b9050809250505090565b600660009054906101000a900473ffffffffffffffffffffffffffffffffffffffff1681565b600a6020528060005260406000206000915090505481565b600460009054906101000a900473ffffffffffffffffffffffffffffffffffffffff1681565b60008282111561108c576040517f08c379a000000000000000000000000000000000000000000000000000000000815260040180806020018281038252601e8152602001807f536166654d6174683a207375627472616374696f6e206f766572666c6f77000081525060200191505060405180910390fd5b818303905092915050565b6000808314156110aa5760009050611117565b60008284029050828482816110bb57fe5b0414611112576040517f08c379a000000000000000000000000000000000000000000000000000000000815260040180806020018281038252602181526020018061122f6021913960400191505060405180910390fd5b809150505b92915050565b6000808211611194576040517f08c379a000000000000000000000000000000000000000000000000000000000815260040180806020018281038252601a8152602001807f536166654d6174683a206469766973696f6e206279207a65726f00000000000081525060200191505060405180910390fd5b81838161119d57fe5b04905092915050565b600080828401905083811015611224576040517f08c379a000000000000000000000000000000000000000000000000000000000815260040180806020018281038252601b8152602001807f536166654d6174683a206164646974696f6e206f766572666c6f77000000000081525060200191505060405180910390fd5b809150509291505056fe536166654d6174683a206d756c7469706c69636174696f6e206f766572666c6f77a264697066735822122050fd0d16d0cbab05f15fd45d8b6232f8a4f4ec4660ffaa95dc0605c7922d713d64736f6c63430006060033",
  "immutableReferences": {},
  "source": "// SPDX-License-Identifier: MIT\n\npragma solidity 0.6.6;\n\nimport \"./JUSD.sol\";\nimport \"./Mimic.sol\";\nimport \"./StableCoin/BUSD.sol\";\nimport \"./StableCoin/DAI.sol\";\nimport \"./StableCoin/USDC.sol\";\nimport \"./StableCoin/USDT.sol\";\n\nimport \"./Dex.sol\";\n\nimport \"@openzeppelin/contracts/token/ERC20/ERC20.sol\";\nimport \"@openzeppelin/contracts/math/SafeMath.sol\";\n\ncontract Farming {\n    string public name = \"Mimic Governance Token Farming\";\n    ERC20 public MimicToken;\n    ERC20 public JUSDToken;\n\n    //Stable Coin\n    ERC20 public BUSD;\n    ERC20 public DAI;\n    ERC20 public USDC;\n    ERC20 public USDT;\n\n    //Dex\n    Dex public DEX;\n\n    mapping(address => uint256) public stakingBalance;\n    mapping(address => uint256) public stakingUSDCBalance;\n    mapping(address => uint256) public lastUpdate;\n\n    uint256 public rewardRate = 10;\n\n    constructor(\n        address _MimicToken,\n        address _JUSDToken,\n        address _BUSD,\n        address _DAI,\n        address _USDC,\n        address _USDT\n    ) public {\n        MimicToken = ERC20(_MimicToken);\n        JUSDToken = ERC20(_JUSDToken);\n\n        BUSD = ERC20(_BUSD);\n        DAI = ERC20(_DAI);\n        USDC = ERC20(_USDC);\n        USDT = ERC20(_USDT);\n    }\n\n    function setDexAddr(address _address) public {\n        DEX = Dex(_address);\n    }\n\n    //Stake Tokens\n    function stakeTokens(uint256 _amount) public {\n        require(_amount > 0, \"amount can not be 0\");\n        JUSDToken.transferFrom(msg.sender, address(this), _amount);\n        stakingBalance[msg.sender] = SafeMath.add(\n            stakingBalance[msg.sender],\n            _amount\n        );\n        lastUpdate[msg.sender] = block.timestamp;\n    }\n\n    function stakeStableCoin(uint256 _amount, address _tokenAddress) public {\n        require(_amount > 0, \"amount can not be 0\");\n        // USDC.transferFrom(msg.sender, address(this), _amount);\n        // stakingUSDCBalance[msg.sender] = SafeMath.add(\n        //     stakingUSDCBalance[msg.sender],\n        //     _amount\n        // );\n        // lastUpdate[msg.sender] = block.timestamp;\n        DEX.swapTokenForEth(_amount, msg.sender);\n    }\n\n    //Check Reward\n    function checkReward() public view returns (uint256) {\n        uint256 update = SafeMath.sub(block.timestamp, lastUpdate[msg.sender]);\n        uint256 reward = SafeMath.mul(update, rewardRate);\n        return reward;\n    }\n\n    //Issuing Token\n    function issueTokens() public {\n        uint256 balance = stakingBalance[msg.sender];\n        uint256 update = SafeMath.sub(block.timestamp, lastUpdate[msg.sender]);\n        uint256 rewardB = SafeMath.mul(update, rewardRate);\n        uint256 divbal = SafeMath.div(balance, 1e4);\n        uint256 reward = SafeMath.mul(divbal, rewardB);\n        require(reward > 0 && balance > 0);\n        MimicToken.transfer(msg.sender, reward);\n        lastUpdate[msg.sender] = block.timestamp;\n    }\n\n    //Unstake with amount\n    function unstakeTokens(uint256 _amount) public {\n        uint256 balance = _amount;\n        require(balance > 0, \"staking balance cannot be 0\");\n        JUSDToken.transfer(msg.sender, balance);\n        uint256 remain = stakingBalance[msg.sender] - balance;\n        stakingBalance[msg.sender] = remain;\n    }\n}\n",
  "sourcePath": "/Users/aomwara/aomdev/mimic-farm-v2/contracts/Farming.sol",
  "compiler": {
    "name": "solc",
    "version": "0.6.6+commit.6c089d02.Emscripten.clang"
  },
  "schemaVersion": "3.4.3",
  "updatedAt": "2022-03-20T12:16:44.968Z",
  "networkType": "ethereum",
  "devdoc": {
    "methods": {}
  },
  "userdoc": {
    "methods": {}
  }
}