{
  "contractName": "Faucet",
  "abi": [
    {
      "inputs": [
        {
          "internalType": "address",
          "name": "_daiToken",
          "type": "address"
        }
      ],
      "stateMutability": "nonpayable",
      "type": "constructor"
    },
    {
      "inputs": [],
      "name": "daiToken",
      "outputs": [
        {
          "internalType": "contract ERC20",
          "name": "",
          "type": "address"
        }
      ],
      "stateMutability": "view",
      "type": "function",
      "constant": true
    },
    {
      "inputs": [],
      "name": "claim",
      "outputs": [],
      "stateMutability": "nonpayable",
      "type": "function"
    }
  ],
  "bytecode": "0x608060405234801561001057600080fd5b506040516103cf3803806103cf8339818101604052810190610032919061008d565b806000806101000a81548173ffffffffffffffffffffffffffffffffffffffff021916908373ffffffffffffffffffffffffffffffffffffffff160217905550506100ff565b600081519050610087816100e8565b92915050565b60006020828403121561009f57600080fd5b60006100ad84828501610078565b91505092915050565b60006100c1826100c8565b9050919050565b600073ffffffffffffffffffffffffffffffffffffffff82169050919050565b6100f1816100b6565b81146100fc57600080fd5b50565b6102c18061010e6000396000f3fe608060405234801561001057600080fd5b50600436106100365760003560e01c80634e71d92d1461003b578063be22f54614610045575b600080fd5b610043610063565b005b61004d610123565b60405161005a91906101db565b60405180910390f35b600033905060008054906101000a900473ffffffffffffffffffffffffffffffffffffffff1673ffffffffffffffffffffffffffffffffffffffff1663a9059cbb8269021e19e0c9bab24000006040518363ffffffff1660e01b81526004016100cd9291906101b2565b602060405180830381600087803b1580156100e757600080fd5b505af11580156100fb573d6000803e3d6000fd5b505050506040513d601f19601f8201168201806040525081019061011f919061015c565b5050565b60008054906101000a900473ffffffffffffffffffffffffffffffffffffffff1681565b60008151905061015681610274565b92915050565b60006020828403121561016e57600080fd5b600061017c84828501610147565b91505092915050565b61018e816101f6565b82525050565b61019d8161023e565b82525050565b6101ac81610262565b82525050565b60006040820190506101c76000830185610185565b6101d460208301846101a3565b9392505050565b60006020820190506101f06000830184610194565b92915050565b600061020182610214565b9050919050565b60008115159050919050565b600073ffffffffffffffffffffffffffffffffffffffff82169050919050565b6000819050919050565b600061024982610250565b9050919050565b600061025b82610214565b9050919050565b600061026d82610234565b9050919050565b61027d81610208565b811461028857600080fd5b5056fea2646970667358221220ee9a0009b56b6565cab5684cfeaafe7767e260d08fd3decb027266937669fe0364736f6c63430008040033",
  "immutableReferences": {},
  "source": "// SPDX-License-Identifier: MIT\r\n\r\npragma solidity ^0.8.4;\r\n\r\nimport \"./Daitoken.sol\";\r\nimport \"@openzeppelin/contracts/token/ERC20/ERC20.sol\";\r\n\r\ncontract Faucet{\r\n    ERC20 public daiToken;\r\n\r\n    constructor(address _daiToken) {\r\n        daiToken = ERC20(_daiToken);\r\n    }\r\n\r\n    function claim () public{\r\n        address recipient = msg.sender;\r\n        daiToken.transfer(recipient, 10000*1e18);\r\n    }\r\n}",
  "sourcePath": "C:/Users/PUNNAWICHSILPKITCHAR/Desktop/dev-mimic/mimic-farm-v2/contracts/Faucet.sol",
  "compiler": {
    "name": "solc",
    "version": "0.8.4+commit.c7e474f2.Emscripten.clang"
  },
  "schemaVersion": "3.2.3",
  "updatedAt": "2022-03-14T15:14:38.145Z",
  "networkType": "ethereum",
  "devdoc": {
    "kind": "dev",
    "methods": {},
    "version": 1
  },
  "userdoc": {
    "kind": "user",
    "methods": {},
    "version": 1
  }
}