{
  "contractName": "Faucet",
  "abi": [
    {
      "inputs": [
        {
          "internalType": "address",
          "name": "_JUSDToken",
          "type": "address"
        }
      ],
      "stateMutability": "nonpayable",
      "type": "constructor"
    },
    {
      "inputs": [],
      "name": "JUSDToken",
      "outputs": [
        {
          "internalType": "contract ERC20",
          "name": "",
          "type": "address"
        }
      ],
      "stateMutability": "view",
      "type": "function",
      "constant": true
    },
    {
      "inputs": [],
      "name": "claim",
      "outputs": [],
      "stateMutability": "nonpayable",
      "type": "function"
    },
    {
      "inputs": [
        {
          "internalType": "address",
          "name": "recipient",
          "type": "address"
        }
      ],
      "name": "distributeToken",
      "outputs": [],
      "stateMutability": "nonpayable",
      "type": "function"
    }
  ],
  "bytecode": "0x608060405234801561001057600080fd5b506040516105063803806105068339818101604052810190610032919061008d565b806000806101000a81548173ffffffffffffffffffffffffffffffffffffffff021916908373ffffffffffffffffffffffffffffffffffffffff160217905550506100ff565b600081519050610087816100e8565b92915050565b60006020828403121561009f57600080fd5b60006100ad84828501610078565b91505092915050565b60006100c1826100c8565b9050919050565b600073ffffffffffffffffffffffffffffffffffffffff82169050919050565b6100f1816100b6565b81146100fc57600080fd5b50565b6103f88061010e6000396000f3fe608060405234801561001057600080fd5b50600436106100415760003560e01c80633f4eaded146100465780634e71d92d1461006457806386d740371461006e575b600080fd5b61004e61008a565b60405161005b91906102fb565b60405180910390f35b61006c6100ae565b005b61008860048036038101906100839190610253565b61016e565b005b60008054906101000a900473ffffffffffffffffffffffffffffffffffffffff1681565b600033905060008054906101000a900473ffffffffffffffffffffffffffffffffffffffff1673ffffffffffffffffffffffffffffffffffffffff1663a9059cbb8269021e19e0c9bab24000006040518363ffffffff1660e01b81526004016101189291906102d2565b602060405180830381600087803b15801561013257600080fd5b505af1158015610146573d6000803e3d6000fd5b505050506040513d601f19601f8201168201806040525081019061016a919061027c565b5050565b60008054906101000a900473ffffffffffffffffffffffffffffffffffffffff1673ffffffffffffffffffffffffffffffffffffffff1663a9059cbb8269021e19e0c9bab24000006040518363ffffffff1660e01b81526004016101d39291906102d2565b602060405180830381600087803b1580156101ed57600080fd5b505af1158015610201573d6000803e3d6000fd5b505050506040513d601f19601f82011682018060405250810190610225919061027c565b5050565b60008135905061023881610394565b92915050565b60008151905061024d816103ab565b92915050565b60006020828403121561026557600080fd5b600061027384828501610229565b91505092915050565b60006020828403121561028e57600080fd5b600061029c8482850161023e565b91505092915050565b6102ae81610316565b82525050565b6102bd8161035e565b82525050565b6102cc81610382565b82525050565b60006040820190506102e760008301856102a5565b6102f460208301846102c3565b9392505050565b600060208201905061031060008301846102b4565b92915050565b600061032182610334565b9050919050565b60008115159050919050565b600073ffffffffffffffffffffffffffffffffffffffff82169050919050565b6000819050919050565b600061036982610370565b9050919050565b600061037b82610334565b9050919050565b600061038d82610354565b9050919050565b61039d81610316565b81146103a857600080fd5b50565b6103b481610328565b81146103bf57600080fd5b5056fea2646970667358221220e1aa8f37337c222b57d3c290f3b8d53d70c74f5d28b5192f32d2dc40b079d2f364736f6c63430008040033",
  "immutableReferences": {},
  "source": "// SPDX-License-Identifier: MIT\n\npragma solidity ^0.8.4;\n\nimport \"./JUSD.sol\";\nimport \"@openzeppelin/contracts/token/ERC20/ERC20.sol\";\n\ncontract Faucet {\n    ERC20 public JUSDToken;\n\n    constructor(address _JUSDToken) {\n        JUSDToken = ERC20(_JUSDToken);\n    }\n\n    function claim() public {\n        address recipient = msg.sender;\n        JUSDToken.transfer(recipient, 10000 * 1e18);\n    }\n\n    function distributeToken(address recipient) public {\n        JUSDToken.transfer(recipient, 10000 * 1e18);\n    }\n}\n",
  "sourcePath": "/Users/aomwara/aomdev/mimic-farm-v2/contracts/Faucet.sol",
  "compiler": {
    "name": "solc",
    "version": "0.8.4+commit.c7e474f2.Emscripten.clang"
  },
  "schemaVersion": "3.4.3",
  "updatedAt": "2022-03-17T21:29:47.467Z",
  "networkType": "ethereum",
  "devdoc": {
    "kind": "dev",
    "methods": {},
    "version": 1
  },
  "userdoc": {
    "kind": "user",
    "methods": {},
    "version": 1
  }
}