{
  "contractName": "Faucet",
  "abi": [
    {
      "inputs": [
        {
          "internalType": "address",
          "name": "_daiToken",
          "type": "address"
        }
      ],
      "stateMutability": "nonpayable",
      "type": "constructor"
    },
    {
      "inputs": [],
      "name": "daiToken",
      "outputs": [
        {
          "internalType": "contract ERC20",
          "name": "",
          "type": "address"
        }
      ],
      "stateMutability": "view",
      "type": "function",
      "constant": true
    },
    {
      "inputs": [],
      "name": "claim",
      "outputs": [],
      "stateMutability": "nonpayable",
      "type": "function"
    },
    {
      "inputs": [
        {
          "internalType": "address",
          "name": "recipient",
          "type": "address"
        }
      ],
      "name": "distributeToken",
      "outputs": [],
      "stateMutability": "nonpayable",
      "type": "function"
    }
  ],
  "bytecode": "0x608060405234801561001057600080fd5b506040516105063803806105068339818101604052810190610032919061008d565b806000806101000a81548173ffffffffffffffffffffffffffffffffffffffff021916908373ffffffffffffffffffffffffffffffffffffffff160217905550506100ff565b600081519050610087816100e8565b92915050565b60006020828403121561009f57600080fd5b60006100ad84828501610078565b91505092915050565b60006100c1826100c8565b9050919050565b600073ffffffffffffffffffffffffffffffffffffffff82169050919050565b6100f1816100b6565b81146100fc57600080fd5b50565b6103f88061010e6000396000f3fe608060405234801561001057600080fd5b50600436106100415760003560e01c80634e71d92d1461004657806386d7403714610050578063be22f5461461006c575b600080fd5b61004e61008a565b005b61006a60048036038101906100659190610253565b61014a565b005b610074610205565b60405161008191906102fb565b60405180910390f35b600033905060008054906101000a900473ffffffffffffffffffffffffffffffffffffffff1673ffffffffffffffffffffffffffffffffffffffff1663a9059cbb8269021e19e0c9bab24000006040518363ffffffff1660e01b81526004016100f49291906102d2565b602060405180830381600087803b15801561010e57600080fd5b505af1158015610122573d6000803e3d6000fd5b505050506040513d601f19601f82011682018060405250810190610146919061027c565b5050565b60008054906101000a900473ffffffffffffffffffffffffffffffffffffffff1673ffffffffffffffffffffffffffffffffffffffff1663a9059cbb8269021e19e0c9bab24000006040518363ffffffff1660e01b81526004016101af9291906102d2565b602060405180830381600087803b1580156101c957600080fd5b505af11580156101dd573d6000803e3d6000fd5b505050506040513d601f19601f82011682018060405250810190610201919061027c565b5050565b60008054906101000a900473ffffffffffffffffffffffffffffffffffffffff1681565b60008135905061023881610394565b92915050565b60008151905061024d816103ab565b92915050565b60006020828403121561026557600080fd5b600061027384828501610229565b91505092915050565b60006020828403121561028e57600080fd5b600061029c8482850161023e565b91505092915050565b6102ae81610316565b82525050565b6102bd8161035e565b82525050565b6102cc81610382565b82525050565b60006040820190506102e760008301856102a5565b6102f460208301846102c3565b9392505050565b600060208201905061031060008301846102b4565b92915050565b600061032182610334565b9050919050565b60008115159050919050565b600073ffffffffffffffffffffffffffffffffffffffff82169050919050565b6000819050919050565b600061036982610370565b9050919050565b600061037b82610334565b9050919050565b600061038d82610354565b9050919050565b61039d81610316565b81146103a857600080fd5b50565b6103b481610328565b81146103bf57600080fd5b5056fea26469706673582212208b9d871cafe197897df2cda12fb987526cf6a6371eca6300e1a1a260d4e3060664736f6c63430008040033",
  "immutableReferences": {},
  "source": "// SPDX-License-Identifier: MIT\n\npragma solidity ^0.8.4;\n\nimport \"./Daitoken.sol\";\nimport \"@openzeppelin/contracts/token/ERC20/ERC20.sol\";\n\ncontract Faucet {\n    ERC20 public daiToken;\n\n    constructor(address _daiToken) {\n        daiToken = ERC20(_daiToken);\n    }\n\n    function claim() public {\n        address recipient = msg.sender;\n        daiToken.transfer(recipient, 10000 * 1e18);\n    }\n\n    function distributeToken(address recipient) public {\n        daiToken.transfer(recipient, 10000 * 1e18);\n    }\n}\n",
  "sourcePath": "/Users/aomwara/aomdev/mimic-farm-v2/contracts/Faucet.sol",
  "compiler": {
    "name": "solc",
    "version": "0.8.4+commit.c7e474f2.Emscripten.clang"
  },
  "schemaVersion": "3.4.3",
  "updatedAt": "2022-03-14T21:14:52.967Z",
  "networkType": "ethereum",
  "devdoc": {
    "kind": "dev",
    "methods": {},
    "version": 1
  },
  "userdoc": {
    "kind": "user",
    "methods": {},
    "version": 1
  }
}