{
  "contractName": "Manager",
  "abi": [
    {
      "anonymous": false,
      "inputs": [
        {
          "indexed": true,
          "internalType": "address",
          "name": "previousOwner",
          "type": "address"
        },
        {
          "indexed": true,
          "internalType": "address",
          "name": "newOwner",
          "type": "address"
        }
      ],
      "name": "OwnershipTransferred",
      "type": "event"
    },
    {
      "inputs": [
        {
          "internalType": "uint256",
          "name": "",
          "type": "uint256"
        }
      ],
      "name": "mintWhitelisted",
      "outputs": [
        {
          "internalType": "address",
          "name": "",
          "type": "address"
        }
      ],
      "stateMutability": "view",
      "type": "function",
      "constant": true
    },
    {
      "inputs": [],
      "name": "owner",
      "outputs": [
        {
          "internalType": "address",
          "name": "",
          "type": "address"
        }
      ],
      "stateMutability": "view",
      "type": "function",
      "constant": true
    },
    {
      "inputs": [],
      "name": "renounceOwnership",
      "outputs": [],
      "stateMutability": "nonpayable",
      "type": "function"
    },
    {
      "inputs": [
        {
          "internalType": "address",
          "name": "newOwner",
          "type": "address"
        }
      ],
      "name": "transferOwnership",
      "outputs": [],
      "stateMutability": "nonpayable",
      "type": "function"
    },
    {
      "inputs": [
        {
          "internalType": "uint256",
          "name": "",
          "type": "uint256"
        }
      ],
      "name": "whitelisted",
      "outputs": [
        {
          "internalType": "address",
          "name": "",
          "type": "address"
        }
      ],
      "stateMutability": "view",
      "type": "function",
      "constant": true
    },
    {
      "inputs": [
        {
          "internalType": "address",
          "name": "_token",
          "type": "address"
        }
      ],
      "name": "addWhitelisted",
      "outputs": [],
      "stateMutability": "nonpayable",
      "type": "function"
    },
    {
      "inputs": [
        {
          "internalType": "address",
          "name": "_token",
          "type": "address"
        }
      ],
      "name": "removeWhitelisted",
      "outputs": [],
      "stateMutability": "nonpayable",
      "type": "function"
    },
    {
      "inputs": [
        {
          "internalType": "address",
          "name": "_token",
          "type": "address"
        }
      ],
      "name": "findWhitedlisted",
      "outputs": [
        {
          "internalType": "uint256",
          "name": "",
          "type": "uint256"
        }
      ],
      "stateMutability": "view",
      "type": "function",
      "constant": true
    },
    {
      "inputs": [],
      "name": "getWhitelisted",
      "outputs": [
        {
          "internalType": "address[]",
          "name": "",
          "type": "address[]"
        }
      ],
      "stateMutability": "view",
      "type": "function",
      "constant": true
    },
    {
      "inputs": [
        {
          "internalType": "uint256",
          "name": "i",
          "type": "uint256"
        }
      ],
      "name": "removeByIndex",
      "outputs": [],
      "stateMutability": "nonpayable",
      "type": "function"
    },
    {
      "inputs": [
        {
          "internalType": "address",
          "name": "_token",
          "type": "address"
        }
      ],
      "name": "checkWhitelisted",
      "outputs": [
        {
          "internalType": "bool",
          "name": "",
          "type": "bool"
        }
      ],
      "stateMutability": "view",
      "type": "function",
      "constant": true
    },
    {
      "inputs": [
        {
          "internalType": "address",
          "name": "_token",
          "type": "address"
        }
      ],
      "name": "addMintWhitelisted",
      "outputs": [],
      "stateMutability": "nonpayable",
      "type": "function"
    },
    {
      "inputs": [
        {
          "internalType": "address",
          "name": "_token",
          "type": "address"
        }
      ],
      "name": "checkMintWhitelisted",
      "outputs": [
        {
          "internalType": "bool",
          "name": "",
          "type": "bool"
        }
      ],
      "stateMutability": "view",
      "type": "function",
      "constant": true
    },
    {
      "inputs": [
        {
          "internalType": "address",
          "name": "_token",
          "type": "address"
        },
        {
          "internalType": "uint256",
          "name": "_amount",
          "type": "uint256"
        }
      ],
      "name": "checkDecimals",
      "outputs": [
        {
          "internalType": "uint256",
          "name": "",
          "type": "uint256"
        }
      ],
      "stateMutability": "view",
      "type": "function",
      "constant": true
    },
    {
      "inputs": [
        {
          "internalType": "address",
          "name": "_token",
          "type": "address"
        },
        {
          "internalType": "uint256",
          "name": "_amount",
          "type": "uint256"
        }
      ],
      "name": "decimalsBack",
      "outputs": [
        {
          "internalType": "uint256",
          "name": "",
          "type": "uint256"
        }
      ],
      "stateMutability": "view",
      "type": "function",
      "constant": true
    }
  ],
  "bytecode": "0x608060405234801561001057600080fd5b5060006100216100c460201b60201c565b9050806000806101000a81548173ffffffffffffffffffffffffffffffffffffffff021916908373ffffffffffffffffffffffffffffffffffffffff1602179055508073ffffffffffffffffffffffffffffffffffffffff16600073ffffffffffffffffffffffffffffffffffffffff167f8be0079c531659141344cd1fd0a4f28419497f9722a3daafe3b4186f6b6457e060405160405180910390a3506100cc565b600033905090565b6112ec806100db6000396000f3fe608060405234801561001057600080fd5b50600436106100f55760003560e01c8063715018a6116100975780638da5cb5b116100665780638da5cb5b146104265780639b372b2b1461045a578063f2fde38b146104b9578063f653e8e5146104fd576100f5565b8063715018a6146103485780638818ca18146103525780638bddb0a6146103b45780638c6fd8ec146103f8576100f5565b80633d4efe09116100d35780633d4efe09146101dc578063590c19dd14610234578063594bf2af1461028e5780635f9405ce146102f0576100f5565b806310154bad146100fa57806320d8dad01461013e578063291d954914610198575b600080fd5b61013c6004803603602081101561011057600080fd5b81019080803573ffffffffffffffffffffffffffffffffffffffff169060200190929190505050610555565b005b6101806004803603602081101561015457600080fd5b81019080803573ffffffffffffffffffffffffffffffffffffffff16906020019092919050505061067d565b60405180821515815260200191505060405180910390f35b6101da600480360360208110156101ae57600080fd5b81019080803573ffffffffffffffffffffffffffffffffffffffff16906020019092919050505061071f565b005b610208600480360360208110156101f257600080fd5b81019080803590602001909291905050506107e8565b604051808273ffffffffffffffffffffffffffffffffffffffff16815260200191505060405180910390f35b6102766004803603602081101561024a57600080fd5b81019080803573ffffffffffffffffffffffffffffffffffffffff169060200190929190505050610827565b60405180821515815260200191505060405180910390f35b6102da600480360360408110156102a457600080fd5b81019080803573ffffffffffffffffffffffffffffffffffffffff169060200190929190803590602001909291905050506108c9565b6040518082815260200191505060405180910390f35b61031c6004803603602081101561030657600080fd5b810190808035906020019092919050505061098c565b604051808273ffffffffffffffffffffffffffffffffffffffff16815260200191505060405180910390f35b6103506109cb565b005b61039e6004803603604081101561036857600080fd5b81019080803573ffffffffffffffffffffffffffffffffffffffff16906020019092919080359060200190929190505050610b38565b6040518082815260200191505060405180910390f35b6103f6600480360360208110156103ca57600080fd5b81019080803573ffffffffffffffffffffffffffffffffffffffff169060200190929190505050610c10565b005b6104246004803603602081101561040e57600080fd5b8101908080359060200190929190505050610d38565b005b61042e610e27565b604051808273ffffffffffffffffffffffffffffffffffffffff16815260200191505060405180910390f35b610462610e50565b6040518080602001828103825283818151815260200191508051906020019060200280838360005b838110156104a557808201518184015260208101905061048a565b505050509050019250505060405180910390f35b6104fb600480360360208110156104cf57600080fd5b81019080803573ffffffffffffffffffffffffffffffffffffffff169060200190929190505050610ede565b005b61053f6004803603602081101561051357600080fd5b81019080803573ffffffffffffffffffffffffffffffffffffffff1690602001909291905050506110d0565b6040518082815260200191505060405180910390f35b61055d611158565b73ffffffffffffffffffffffffffffffffffffffff1661057b610e27565b73ffffffffffffffffffffffffffffffffffffffff1614610604576040517f08c379a00000000000000000000000000000000000000000000000000000000081526004018080602001828103825260208152602001807f4f776e61626c653a2063616c6c6572206973206e6f7420746865206f776e657281525060200191505060405180910390fd5b61060d8161067d565b1561061757600080fd5b6001819080600181540180825580915050600190039060005260206000200160009091909190916101000a81548173ffffffffffffffffffffffffffffffffffffffff021916908373ffffffffffffffffffffffffffffffffffffffff16021790555050565b600080600090505b600180549050811015610714578273ffffffffffffffffffffffffffffffffffffffff16600182815481106106b657fe5b9060005260206000200160009054906101000a900473ffffffffffffffffffffffffffffffffffffffff1673ffffffffffffffffffffffffffffffffffffffff16141561070757600191505061071a565b8080600101915050610685565b50600090505b919050565b610727611158565b73ffffffffffffffffffffffffffffffffffffffff16610745610e27565b73ffffffffffffffffffffffffffffffffffffffff16146107ce576040517f08c379a00000000000000000000000000000000000000000000000000000000081526004018080602001828103825260208152602001807f4f776e61626c653a2063616c6c6572206973206e6f7420746865206f776e657281525060200191505060405180910390fd5b60006107d9826110d0565b90506107e481610d38565b5050565b600181815481106107f857600080fd5b906000526020600020016000915054906101000a900473ffffffffffffffffffffffffffffffffffffffff1681565b600080600090505b6002805490508110156108be578273ffffffffffffffffffffffffffffffffffffffff166002828154811061086057fe5b9060005260206000200160009054906101000a900473ffffffffffffffffffffffffffffffffffffffff1673ffffffffffffffffffffffffffffffffffffffff1614156108b15760019150506108c4565b808060010191505061082f565b50600090505b919050565b6000808373ffffffffffffffffffffffffffffffffffffffff1663313ce5676040518163ffffffff1660e01b815260040160206040518083038186803b15801561091257600080fd5b505afa158015610926573d6000803e3d6000fd5b505050506040513d602081101561093c57600080fd5b810190808051906020019092919050505060ff1690506012811461098157600081601203905061097881600a0a8561116090919063ffffffff16565b92505050610986565b829150505b92915050565b6002818154811061099c57600080fd5b906000526020600020016000915054906101000a900473ffffffffffffffffffffffffffffffffffffffff1681565b6109d3611158565b73ffffffffffffffffffffffffffffffffffffffff166109f1610e27565b73ffffffffffffffffffffffffffffffffffffffff1614610a7a576040517f08c379a00000000000000000000000000000000000000000000000000000000081526004018080602001828103825260208152602001807f4f776e61626c653a2063616c6c6572206973206e6f7420746865206f776e657281525060200191505060405180910390fd5b600073ffffffffffffffffffffffffffffffffffffffff1660008054906101000a900473ffffffffffffffffffffffffffffffffffffffff1673ffffffffffffffffffffffffffffffffffffffff167f8be0079c531659141344cd1fd0a4f28419497f9722a3daafe3b4186f6b6457e060405160405180910390a360008060006101000a81548173ffffffffffffffffffffffffffffffffffffffff021916908373ffffffffffffffffffffffffffffffffffffffff160217905550565b6000808373ffffffffffffffffffffffffffffffffffffffff1663313ce5676040518163ffffffff1660e01b815260040160206040518083038186803b158015610b8157600080fd5b505afa158015610b95573d6000803e3d6000fd5b505050506040513d6020811015610bab57600080fd5b810190808051906020019092919050505060ff1690506012811415610bd35782915050610c0a565b60128114610c085760008160120390506000610bfb82600a0a866111e690919063ffffffff16565b9050809350505050610c0a565b505b92915050565b610c18611158565b73ffffffffffffffffffffffffffffffffffffffff16610c36610e27565b73ffffffffffffffffffffffffffffffffffffffff1614610cbf576040517f08c379a00000000000000000000000000000000000000000000000000000000081526004018080602001828103825260208152602001807f4f776e61626c653a2063616c6c6572206973206e6f7420746865206f776e657281525060200191505060405180910390fd5b610cc881610827565b15610cd257600080fd5b6002819080600181540180825580915050600190039060005260206000200160009091909190916101000a81548173ffffffffffffffffffffffffffffffffffffffff021916908373ffffffffffffffffffffffffffffffffffffffff16021790555050565b5b6001808054905003811015610de457600180820181548110610d5757fe5b9060005260206000200160009054906101000a900473ffffffffffffffffffffffffffffffffffffffff1660018281548110610d8f57fe5b9060005260206000200160006101000a81548173ffffffffffffffffffffffffffffffffffffffff021916908373ffffffffffffffffffffffffffffffffffffffff1602179055508080600101915050610d39565b6001805480610def57fe5b6001900381819060005260206000200160006101000a81549073ffffffffffffffffffffffffffffffffffffffff0219169055905550565b60008060009054906101000a900473ffffffffffffffffffffffffffffffffffffffff16905090565b60606001805480602002602001604051908101604052809291908181526020018280548015610ed457602002820191906000526020600020905b8160009054906101000a900473ffffffffffffffffffffffffffffffffffffffff1673ffffffffffffffffffffffffffffffffffffffff1681526020019060010190808311610e8a575b5050505050905090565b610ee6611158565b73ffffffffffffffffffffffffffffffffffffffff16610f04610e27565b73ffffffffffffffffffffffffffffffffffffffff1614610f8d576040517f08c379a00000000000000000000000000000000000000000000000000000000081526004018080602001828103825260208152602001807f4f776e61626c653a2063616c6c6572206973206e6f7420746865206f776e657281525060200191505060405180910390fd5b600073ffffffffffffffffffffffffffffffffffffffff168173ffffffffffffffffffffffffffffffffffffffff161415611013576040517f08c379a00000000000000000000000000000000000000000000000000000000081526004018080602001828103825260268152602001806112706026913960400191505060405180910390fd5b8073ffffffffffffffffffffffffffffffffffffffff1660008054906101000a900473ffffffffffffffffffffffffffffffffffffffff1673ffffffffffffffffffffffffffffffffffffffff167f8be0079c531659141344cd1fd0a4f28419497f9722a3daafe3b4186f6b6457e060405160405180910390a3806000806101000a81548173ffffffffffffffffffffffffffffffffffffffff021916908373ffffffffffffffffffffffffffffffffffffffff16021790555050565b600080600090505b8273ffffffffffffffffffffffffffffffffffffffff16600182815481106110fc57fe5b9060005260206000200160009054906101000a900473ffffffffffffffffffffffffffffffffffffffff1673ffffffffffffffffffffffffffffffffffffffff161461114f5780806001019150506110d8565b80915050919050565b600033905090565b60008083141561117357600090506111e0565b600082840290508284828161118457fe5b04146111db576040517f08c379a00000000000000000000000000000000000000000000000000000000081526004018080602001828103825260218152602001806112966021913960400191505060405180910390fd5b809150505b92915050565b600080821161125d576040517f08c379a000000000000000000000000000000000000000000000000000000000815260040180806020018281038252601a8152602001807f536166654d6174683a206469766973696f6e206279207a65726f00000000000081525060200191505060405180910390fd5b81838161126657fe5b0490509291505056fe4f776e61626c653a206e6577206f776e657220697320746865207a65726f2061646472657373536166654d6174683a206d756c7469706c69636174696f6e206f766572666c6f77a2646970667358221220497e33995f44851b7823cb815abd07ad48dca97907d18c7f6a626fdea02145f164736f6c63430007060033",
  "immutableReferences": {},
  "source": "// SPDX-License-Identifier: MIT\n\npragma solidity 0.7.6;\n\nimport \"@openzeppelin/contracts/access/Ownable.sol\";\nimport \"@openzeppelin/contracts/token/ERC20/ERC20.sol\";\nimport \"@openzeppelin/contracts/math/SafeMath.sol\";\nimport \"@openzeppelin/contracts/token/ERC20/SafeERC20.sol\";\n\ncontract Manager is Ownable {\n    using SafeERC20 for ERC20;\n    using SafeMath for uint256;\n\n    address[] public whitelisted;\n    address[] public mintWhitelisted;\n   function addWhitelisted(address _token) public onlyOwner {\n        require(!checkWhitelisted(_token));\n        whitelisted.push(_token);\n    }\n\n    function removeWhitelisted(address _token) public onlyOwner {\n        uint256 i = findWhitedlisted(_token);\n        removeByIndex(i);\n    }\n\n    function findWhitedlisted(address _token) public view returns (uint256) {\n        uint256 i = 0;\n        while (whitelisted[i] != _token) {\n            i++;\n        }\n        return i;\n    }\n\n    function getWhitelisted() public view returns (address[] memory) {\n        return whitelisted;\n    }\n\n    function removeByIndex(uint256 i) public {\n        while (i < whitelisted.length - 1) {\n            whitelisted[i] = whitelisted[i + 1];\n            i++;\n        }\n        whitelisted.pop();\n    }\n\n    function checkWhitelisted(address _token) public view returns (bool) {\n        for (uint256 i = 0; i < whitelisted.length; i++) {\n            if (whitelisted[i] == _token) {\n                return true;\n            }\n        }\n        return false;\n    }\n\n     function addMintWhitelisted(address _token) public onlyOwner {\n        require(!checkMintWhitelisted(_token));\n        mintWhitelisted.push(_token);\n    }\n\n    function checkMintWhitelisted(address _token) public view returns (bool) {\n        for (uint256 i = 0; i < mintWhitelisted.length; i++) {\n            if (mintWhitelisted[i] == _token) {\n                return true;\n            }\n        }\n        return false;\n    }\n\n\n    function checkDecimals(address _token , uint256 _amount) public view returns(uint256) {\n    uint256 decimals = ERC20(_token).decimals();\n    if(decimals != 18){\n        uint256 remain = 18 - decimals;\n        return _amount.mul(10 ** remain);\n    }\n    else {\n        return _amount;\n    } \n    }\n    function decimalsBack(address _token , uint256 _amount) public view returns(uint256){\n        uint256 decimals  = ERC20(_token).decimals();\n        if(decimals == 18){\n            return _amount;\n        }\n        else if (decimals != 18) {\n            uint256 remain = 18 - decimals;\n            uint256 deci = _amount.div(10**remain);\n            return deci;\n    }\n    }\n}\n",
  "sourcePath": "/Users/aomwara/aomdev/mimic-farm-v2/contracts/Manager.sol",
  "compiler": {
    "name": "solc",
    "version": "0.7.6+commit.7338295f.Emscripten.clang"
  },
  "schemaVersion": "3.4.3",
  "updatedAt": "2022-05-06T21:13:38.078Z",
  "networkType": "ethereum",
  "devdoc": {
    "kind": "dev",
    "methods": {
      "owner()": {
        "details": "Returns the address of the current owner."
      },
      "renounceOwnership()": {
        "details": "Leaves the contract without owner. It will not be possible to call `onlyOwner` functions anymore. Can only be called by the current owner. NOTE: Renouncing ownership will leave the contract without an owner, thereby removing any functionality that is only available to the owner."
      },
      "transferOwnership(address)": {
        "details": "Transfers ownership of the contract to a new account (`newOwner`). Can only be called by the current owner."
      }
    },
    "version": 1
  },
  "userdoc": {
    "kind": "user",
    "methods": {},
    "version": 1
  }
}