{
  "contractName": "Swap",
  "abi": [
    {
      "inputs": [
        {
          "internalType": "address",
          "name": "_JUSDToken",
          "type": "address"
        },
        {
          "internalType": "address",
          "name": "_MimicToken",
          "type": "address"
        }
      ],
      "stateMutability": "nonpayable",
      "type": "constructor"
    },
    {
      "inputs": [],
      "name": "JUSDToken",
      "outputs": [
        {
          "internalType": "contract ERC20",
          "name": "",
          "type": "address"
        }
      ],
      "stateMutability": "view",
      "type": "function",
      "constant": true
    },
    {
      "inputs": [],
      "name": "MimicToken",
      "outputs": [
        {
          "internalType": "contract ERC20Burnable",
          "name": "",
          "type": "address"
        }
      ],
      "stateMutability": "view",
      "type": "function",
      "constant": true
    },
    {
      "inputs": [],
      "name": "name",
      "outputs": [
        {
          "internalType": "string",
          "name": "",
          "type": "string"
        }
      ],
      "stateMutability": "view",
      "type": "function",
      "constant": true
    },
    {
      "inputs": [
        {
          "internalType": "uint256",
          "name": "number",
          "type": "uint256"
        }
      ],
      "name": "random",
      "outputs": [
        {
          "internalType": "uint256",
          "name": "",
          "type": "uint256"
        }
      ],
      "stateMutability": "view",
      "type": "function",
      "constant": true
    },
    {
      "inputs": [
        {
          "internalType": "uint256",
          "name": "_amount",
          "type": "uint256"
        }
      ],
      "name": "SwapToken",
      "outputs": [],
      "stateMutability": "nonpayable",
      "type": "function"
    }
  ],
  "bytecode": "0x60806040526040518060400160405280600481526020017f537761700000000000000000000000000000000000000000000000000000000081525060009080519060200190620000519291906200010f565b503480156200005f57600080fd5b5060405162000a9238038062000a928339818101604052810190620000859190620001d6565b81600160006101000a81548173ffffffffffffffffffffffffffffffffffffffff021916908373ffffffffffffffffffffffffffffffffffffffff16021790555080600260006101000a81548173ffffffffffffffffffffffffffffffffffffffff021916908373ffffffffffffffffffffffffffffffffffffffff1602179055505050620002ca565b8280546200011d906200024b565b90600052602060002090601f0160209004810192826200014157600085556200018d565b82601f106200015c57805160ff19168380011785556200018d565b828001600101855582156200018d579182015b828111156200018c5782518255916020019190600101906200016f565b5b5090506200019c9190620001a0565b5090565b5b80821115620001bb576000816000905550600101620001a1565b5090565b600081519050620001d081620002b0565b92915050565b60008060408385031215620001ea57600080fd5b6000620001fa85828601620001bf565b92505060206200020d85828601620001bf565b9150509250929050565b600062000224826200022b565b9050919050565b600073ffffffffffffffffffffffffffffffffffffffff82169050919050565b600060028204905060018216806200026457607f821691505b602082108114156200027b576200027a62000281565b5b50919050565b7f4e487b7100000000000000000000000000000000000000000000000000000000600052602260045260246000fd5b620002bb8162000217565b8114620002c757600080fd5b50565b6107b880620002da6000396000f3fe608060405234801561001057600080fd5b50600436106100575760003560e01c806306fdde031461005c5780633f4eaded1461007a57806370e3c7ed14610098578063b0e01b2e146100b6578063b863bd37146100d2575b600080fd5b610064610102565b604051610071919061052b565b60405180910390f35b610082610190565b60405161008f9190610510565b60405180910390f35b6100a06101b6565b6040516100ad91906104f5565b60405180910390f35b6100d060048036038101906100cb91906103eb565b6101dc565b005b6100ec60048036038101906100e791906103eb565b610342565b6040516100f9919061054d565b60405180910390f35b6000805461010f90610678565b80601f016020809104026020016040519081016040528092919081815260200182805461013b90610678565b80156101885780601f1061015d57610100808354040283529160200191610188565b820191906000526020600020905b81548152906001019060200180831161016b57829003601f168201915b505050505081565b600160009054906101000a900473ffffffffffffffffffffffffffffffffffffffff1681565b600260009054906101000a900473ffffffffffffffffffffffffffffffffffffffff1681565b6000819050600260009054906101000a900473ffffffffffffffffffffffffffffffffffffffff1673ffffffffffffffffffffffffffffffffffffffff166379cc679033836040518363ffffffff1660e01b815260040161023e9291906104cc565b600060405180830381600087803b15801561025857600080fd5b505af115801561026c573d6000803e3d6000fd5b50505050600061027c600a610342565b9050600061028a8383610382565b9050600160009054906101000a900473ffffffffffffffffffffffffffffffffffffffff1673ffffffffffffffffffffffffffffffffffffffff1663a9059cbb33836040518363ffffffff1660e01b81526004016102e99291906104cc565b602060405180830381600087803b15801561030357600080fd5b505af1158015610317573d6000803e3d6000fd5b505050506040513d601f19601f8201168201806040525081019061033b91906103c2565b5050505050565b60008142446040516020016103589291906104a0565b6040516020818303038152906040528051906020012060001c61037b91906106b4565b9050919050565b600081836103909190610584565b905092915050565b6000815190506103a781610754565b92915050565b6000813590506103bc8161076b565b92915050565b6000602082840312156103d457600080fd5b60006103e284828501610398565b91505092915050565b6000602082840312156103fd57600080fd5b600061040b848285016103ad565b91505092915050565b61041d816105b5565b82525050565b61042c816105fd565b82525050565b61043b81610621565b82525050565b600061044c82610568565b6104568185610573565b9350610466818560208601610645565b61046f81610743565b840191505092915050565b610483816105f3565b82525050565b61049a610495826105f3565b6106aa565b82525050565b60006104ac8285610489565b6020820191506104bc8284610489565b6020820191508190509392505050565b60006040820190506104e16000830185610414565b6104ee602083018461047a565b9392505050565b600060208201905061050a6000830184610423565b92915050565b60006020820190506105256000830184610432565b92915050565b600060208201905081810360008301526105458184610441565b905092915050565b6000602082019050610562600083018461047a565b92915050565b600081519050919050565b600082825260208201905092915050565b600061058f826105f3565b915061059a836105f3565b9250826105aa576105a96106e5565b5b828204905092915050565b60006105c0826105d3565b9050919050565b60008115159050919050565b600073ffffffffffffffffffffffffffffffffffffffff82169050919050565b6000819050919050565b60006106088261060f565b9050919050565b600061061a826105d3565b9050919050565b600061062c82610633565b9050919050565b600061063e826105d3565b9050919050565b60005b83811015610663578082015181840152602081019050610648565b83811115610672576000848401525b50505050565b6000600282049050600182168061069057607f821691505b602082108114156106a4576106a3610714565b5b50919050565b6000819050919050565b60006106bf826105f3565b91506106ca836105f3565b9250826106da576106d96106e5565b5b828206905092915050565b7f4e487b7100000000000000000000000000000000000000000000000000000000600052601260045260246000fd5b7f4e487b7100000000000000000000000000000000000000000000000000000000600052602260045260246000fd5b6000601f19601f8301169050919050565b61075d816105c7565b811461076857600080fd5b50565b610774816105f3565b811461077f57600080fd5b5056fea264697066735822122042cbff35a40c94ef72535be7b1d5c355e76963d7e9bf4d054eadfa1418e2efb964736f6c63430008040033",
  "immutableReferences": {},
  "source": "// SPDX-License-Identifier: MIT\r\n\r\npragma solidity ^0.8.4;\r\n\r\nimport \"./JUSD.sol\";\r\nimport \"./Mimic.sol\";\r\nimport \"@openzeppelin/contracts/utils/math/SafeMath.sol\";\r\n\r\ncontract Swap {\r\n    string public name = \"Swap\";\r\n    ERC20 public JUSDToken;\r\n    ERC20Burnable public MimicToken;\r\n\r\n    constructor(address _JUSDToken, address _MimicToken) {\r\n        JUSDToken = ERC20(_JUSDToken);\r\n        MimicToken = ERC20Burnable(_MimicToken);\r\n    }\r\n    \r\n    function random(uint256 number) public view returns(uint256){\r\n        return uint256(keccak256(abi.encodePacked(block.timestamp,block.difficulty))) % number;\r\n    }\r\n\r\n    function SwapToken(uint256 _amount) public {\r\n        uint256 balance = _amount;\r\n        MimicToken.burnFrom(msg.sender, balance);\r\n        uint256 ran = random(10);\r\n        uint256 rate = SafeMath.div(balance,ran);\r\n        JUSDToken.transfer(msg.sender,rate);\r\n    }\r\n}\r\n",
  "sourcePath": "C:/Users/PUNNAWICHSILPKITCHAR/Desktop/dev-mimic/mimic-farm-v2/contracts/Swap.sol",
  "compiler": {
    "name": "solc",
    "version": "0.8.4+commit.c7e474f2.Emscripten.clang"
  },
  "schemaVersion": "3.2.3",
  "updatedAt": "2022-03-17T14:59:01.873Z",
  "networkType": "ethereum",
  "devdoc": {
    "kind": "dev",
    "methods": {},
    "version": 1
  },
  "userdoc": {
    "kind": "user",
    "methods": {},
    "version": 1
  }
}