{
  "contractName": "Swap",
  "abi": [
    {
      "inputs": [
        {
          "internalType": "address",
          "name": "_JUSDToken",
          "type": "address"
        },
        {
          "internalType": "address",
          "name": "_MimicToken",
          "type": "address"
        }
      ],
      "stateMutability": "nonpayable",
      "type": "constructor"
    },
    {
      "inputs": [],
      "name": "JUSDToken",
      "outputs": [
        {
          "internalType": "contract ERC20",
          "name": "",
          "type": "address"
        }
      ],
      "stateMutability": "view",
      "type": "function"
    },
    {
      "inputs": [],
      "name": "MimicToken",
      "outputs": [
        {
          "internalType": "contract ERC20Burnable",
          "name": "",
          "type": "address"
        }
      ],
      "stateMutability": "view",
      "type": "function"
    },
    {
      "inputs": [],
      "name": "name",
      "outputs": [
        {
          "internalType": "string",
          "name": "",
          "type": "string"
        }
      ],
      "stateMutability": "view",
      "type": "function"
    },
    {
      "inputs": [
        {
          "internalType": "uint256",
          "name": "_amount",
          "type": "uint256"
        }
      ],
      "name": "SwapToken",
      "outputs": [],
      "stateMutability": "nonpayable",
      "type": "function"
    },
    {
      "inputs": [
        {
          "internalType": "uint256",
          "name": "_amount",
          "type": "uint256"
        }
      ],
      "name": "swapToJUSD",
      "outputs": [],
      "stateMutability": "nonpayable",
      "type": "function"
    },
    {
      "inputs": [
        {
          "internalType": "uint256",
          "name": "_amount",
          "type": "uint256"
        }
      ],
      "name": "mimToJUSD",
      "outputs": [],
      "stateMutability": "nonpayable",
      "type": "function"
    }
  ],
  "bytecode": "0x60806040526040518060400160405280600481526020017f53776170000000000000000000000000000000000000000000000000000000008152506000908051906020019061004f929190610123565b5034801561005c57600080fd5b50604051610bc4380380610bc48339818101604052604081101561007f57600080fd5b81019080805190602001909291908051906020019092919050505081600160006101000a81548173ffffffffffffffffffffffffffffffffffffffff021916908373ffffffffffffffffffffffffffffffffffffffff16021790555080600260006101000a81548173ffffffffffffffffffffffffffffffffffffffff021916908373ffffffffffffffffffffffffffffffffffffffff16021790555050506101c8565b828054600181600116156101000203166002900490600052602060002090601f016020900481019282601f1061016457805160ff1916838001178555610192565b82800160010185558215610192579182015b82811115610191578251825591602001919060010190610176565b5b50905061019f91906101a3565b5090565b6101c591905b808211156101c15760008160009055506001016101a9565b5090565b90565b6109ed806101d76000396000f3fe608060405234801561001057600080fd5b50600436106100625760003560e01c806306fdde03146100675780633f4eaded146100ea57806370e3c7ed14610134578063b0e01b2e1461017e578063c5290afd146101ac578063c8ee61a6146101da575b600080fd5b61006f610208565b6040518080602001828103825283818151815260200191508051906020019080838360005b838110156100af578082015181840152602081019050610094565b50505050905090810190601f1680156100dc5780820380516001836020036101000a031916815260200191505b509250505060405180910390f35b6100f26102a6565b604051808273ffffffffffffffffffffffffffffffffffffffff1673ffffffffffffffffffffffffffffffffffffffff16815260200191505060405180910390f35b61013c6102cc565b604051808273ffffffffffffffffffffffffffffffffffffffff1673ffffffffffffffffffffffffffffffffffffffff16815260200191505060405180910390f35b6101aa6004803603602081101561019457600080fd5b81019080803590602001909291905050506102f2565b005b6101d8600480360360208110156101c257600080fd5b81019080803590602001909291905050506104df565b005b610206600480360360208110156101f057600080fd5b81019080803590602001909291905050506105c7565b005b60008054600181600116156101000203166002900480601f01602080910402602001604051908101604052809291908181526020018280546001816001161561010002031660029004801561029e5780601f106102735761010080835404028352916020019161029e565b820191906000526020600020905b81548152906001019060200180831161028157829003601f168201915b505050505081565b600160009054906101000a900473ffffffffffffffffffffffffffffffffffffffff1681565b600260009054906101000a900473ffffffffffffffffffffffffffffffffffffffff1681565b6000819050600260009054906101000a900473ffffffffffffffffffffffffffffffffffffffff1673ffffffffffffffffffffffffffffffffffffffff166379cc679033836040518363ffffffff1660e01b8152600401808373ffffffffffffffffffffffffffffffffffffffff1673ffffffffffffffffffffffffffffffffffffffff16815260200182815260200192505050600060405180830381600087803b1580156103a057600080fd5b505af11580156103b4573d6000803e3d6000fd5b5050505060006103c26107e1565b905060006103d9828461088790919063ffffffff16565b905060006103f160648361091090919063ffffffff16565b9050600160009054906101000a900473ffffffffffffffffffffffffffffffffffffffff1673ffffffffffffffffffffffffffffffffffffffff1663a9059cbb33836040518363ffffffff1660e01b8152600401808373ffffffffffffffffffffffffffffffffffffffff1673ffffffffffffffffffffffffffffffffffffffff16815260200182815260200192505050602060405180830381600087803b15801561049c57600080fd5b505af11580156104b0573d6000803e3d6000fd5b505050506040513d60208110156104c657600080fd5b8101908080519060200190929190505050505050505050565b600160009054906101000a900473ffffffffffffffffffffffffffffffffffffffff1673ffffffffffffffffffffffffffffffffffffffff1663a9059cbb33836040518363ffffffff1660e01b8152600401808373ffffffffffffffffffffffffffffffffffffffff1673ffffffffffffffffffffffffffffffffffffffff16815260200182815260200192505050602060405180830381600087803b15801561058857600080fd5b505af115801561059c573d6000803e3d6000fd5b505050506040513d60208110156105b257600080fd5b81019080805190602001909291905050505050565b60006105dd600a8361088790919063ffffffff16565b9050600260009054906101000a900473ffffffffffffffffffffffffffffffffffffffff1673ffffffffffffffffffffffffffffffffffffffff166323b872dd3330846040518463ffffffff1660e01b8152600401808473ffffffffffffffffffffffffffffffffffffffff1673ffffffffffffffffffffffffffffffffffffffff1681526020018373ffffffffffffffffffffffffffffffffffffffff1673ffffffffffffffffffffffffffffffffffffffff1681526020018281526020019350505050602060405180830381600087803b1580156106bc57600080fd5b505af11580156106d0573d6000803e3d6000fd5b505050506040513d60208110156106e657600080fd5b810190808051906020019092919050505050600160009054906101000a900473ffffffffffffffffffffffffffffffffffffffff1673ffffffffffffffffffffffffffffffffffffffff1663a9059cbb33836040518363ffffffff1660e01b8152600401808373ffffffffffffffffffffffffffffffffffffffff1673ffffffffffffffffffffffffffffffffffffffff16815260200182815260200192505050602060405180830381600087803b1580156107a157600080fd5b505af11580156107b5573d6000803e3d6000fd5b505050506040513d60208110156107cb57600080fd5b8101908080519060200190929190505050505050565b6000806103844233604051602001808381526020018273ffffffffffffffffffffffffffffffffffffffff1673ffffffffffffffffffffffffffffffffffffffff1660601b8152601401807f6d696d6963000000000000000000000000000000000000000000000000000000815250600501925050506040516020818303038152906040528051906020012060001c8161087757fe5b0690506064810190508091505090565b60008082116108fe576040517f08c379a000000000000000000000000000000000000000000000000000000000815260040180806020018281038252601a8152602001807f536166654d6174683a206469766973696f6e206279207a65726f00000000000081525060200191505060405180910390fd5b81838161090757fe5b04905092915050565b6000808314156109235760009050610990565b600082840290508284828161093457fe5b041461098b576040517f08c379a00000000000000000000000000000000000000000000000000000000081526004018080602001828103825260218152602001806109976021913960400191505060405180910390fd5b809150505b9291505056fe536166654d6174683a206d756c7469706c69636174696f6e206f766572666c6f77a26469706673582212207821c6cab14da405af33c449ed9d12f5ef8d5c83740c9c3ca10f8ea6f646e4e064736f6c63430006060033",
  "immutableReferences": {},
  "source": "// SPDX-License-Identifier: MIT\r\n\r\npragma solidity 0.6.6;\r\n\r\nimport \"./JUSD.sol\";\r\nimport \"./Mimic.sol\";\r\nimport \"@openzeppelin/contracts/math/SafeMath.sol\";\r\n\r\ncontract Swap {\r\n    using SafeMath for uint256;\r\n    string public name = \"Swap\";\r\n    ERC20 public JUSDToken;\r\n    ERC20Burnable public MimicToken;\r\n\r\n    constructor(address _JUSDToken, address _MimicToken) public {\r\n        JUSDToken = ERC20(_JUSDToken);\r\n        MimicToken = ERC20Burnable(_MimicToken);\r\n    }\r\n\r\n    function random() internal view returns (uint256) {\r\n        uint256 ran = uint256(\r\n            keccak256(abi.encodePacked(block.timestamp, msg.sender, \"mimic\"))\r\n        ) % 900;\r\n        ran = ran + 100;\r\n        return ran;\r\n    }\r\n\r\n    function SwapToken(uint256 _amount) public {\r\n        uint256 balance = _amount;\r\n        MimicToken.burnFrom(msg.sender, balance);\r\n        uint256 ran = random();\r\n        uint256 div = balance.div(ran);\r\n        uint256 rate = div.mul(1e2);\r\n        JUSDToken.transfer(msg.sender, rate);\r\n    }\r\n\r\n    function swapToJUSD (uint256 _amount) public {\r\n        JUSDToken.transfer(msg.sender , _amount);\r\n    }\r\n    function mimToJUSD(uint256 _amount) public {\r\n        uint256 balance = _amount.div(10);\r\n        MimicToken.transferFrom(msg.sender, address(this),balance);\r\n        JUSDToken.transfer(msg.sender, balance);\r\n    }\r\n}\r\n",
  "sourcePath": "/mnt/c/Users/PUNNAWICHSILPKITCHAR/Desktop/dev-mimic/mimic-finance-core/contracts/Swap.sol",
  "compiler": {
    "name": "solc",
    "version": "0.6.6+commit.6c089d02.Emscripten.clang"
  },
  "schemaVersion": "3.4.6",
  "updatedAt": "2022-04-16T09:17:15.888Z",
  "devdoc": {
    "methods": {}
  },
  "userdoc": {
    "methods": {}
  }
}