{
  "contractName": "Swap",
  "abi": [
    {
      "inputs": [
        {
          "internalType": "address",
          "name": "_JUSDToken",
          "type": "address"
        },
        {
          "internalType": "address",
          "name": "_MimicToken",
          "type": "address"
        }
      ],
      "stateMutability": "nonpayable",
      "type": "constructor"
    },
    {
      "inputs": [],
      "name": "JUSDToken",
      "outputs": [
        {
          "internalType": "contract ERC20",
          "name": "",
          "type": "address"
        }
      ],
      "stateMutability": "view",
      "type": "function",
      "constant": true
    },
    {
      "inputs": [],
      "name": "MimicToken",
      "outputs": [
        {
          "internalType": "contract ERC20Burnable",
          "name": "",
          "type": "address"
        }
      ],
      "stateMutability": "view",
      "type": "function",
      "constant": true
    },
    {
      "inputs": [],
      "name": "name",
      "outputs": [
        {
          "internalType": "string",
          "name": "",
          "type": "string"
        }
      ],
      "stateMutability": "view",
      "type": "function",
      "constant": true
    },
    {
      "inputs": [
        {
          "internalType": "uint256",
          "name": "_amount",
          "type": "uint256"
        }
      ],
      "name": "SwapToken",
      "outputs": [],
      "stateMutability": "nonpayable",
      "type": "function"
    }
  ],
  "bytecode": "0x60806040526040518060400160405280600481526020017f53776170000000000000000000000000000000000000000000000000000000008152506000908051906020019061004f929190610123565b5034801561005c57600080fd5b5060405161083e38038061083e8339818101604052604081101561007f57600080fd5b81019080805190602001909291908051906020019092919050505081600160006101000a81548173ffffffffffffffffffffffffffffffffffffffff021916908373ffffffffffffffffffffffffffffffffffffffff16021790555080600260006101000a81548173ffffffffffffffffffffffffffffffffffffffff021916908373ffffffffffffffffffffffffffffffffffffffff16021790555050506101c8565b828054600181600116156101000203166002900490600052602060002090601f016020900481019282601f1061016457805160ff1916838001178555610192565b82800160010185558215610192579182015b82811115610191578251825591602001919060010190610176565b5b50905061019f91906101a3565b5090565b6101c591905b808211156101c15760008160009055506001016101a9565b5090565b90565b610667806101d76000396000f3fe608060405234801561001057600080fd5b506004361061004c5760003560e01c806306fdde03146100515780633f4eaded146100d457806370e3c7ed1461011e578063b0e01b2e14610168575b600080fd5b610059610196565b6040518080602001828103825283818151815260200191508051906020019080838360005b8381101561009957808201518184015260208101905061007e565b50505050905090810190601f1680156100c65780820380516001836020036101000a031916815260200191505b509250505060405180910390f35b6100dc610234565b604051808273ffffffffffffffffffffffffffffffffffffffff1673ffffffffffffffffffffffffffffffffffffffff16815260200191505060405180910390f35b61012661025a565b604051808273ffffffffffffffffffffffffffffffffffffffff1673ffffffffffffffffffffffffffffffffffffffff16815260200191505060405180910390f35b6101946004803603602081101561017e57600080fd5b8101908080359060200190929190505050610280565b005b60008054600181600116156101000203166002900480601f01602080910402602001604051908101604052809291908181526020018280546001816001161561010002031660029004801561022c5780601f106102015761010080835404028352916020019161022c565b820191906000526020600020905b81548152906001019060200180831161020f57829003601f168201915b505050505081565b600160009054906101000a900473ffffffffffffffffffffffffffffffffffffffff1681565b600260009054906101000a900473ffffffffffffffffffffffffffffffffffffffff1681565b6000819050600260009054906101000a900473ffffffffffffffffffffffffffffffffffffffff1673ffffffffffffffffffffffffffffffffffffffff166379cc679033836040518363ffffffff1660e01b8152600401808373ffffffffffffffffffffffffffffffffffffffff1673ffffffffffffffffffffffffffffffffffffffff16815260200182815260200192505050600060405180830381600087803b15801561032e57600080fd5b505af1158015610342573d6000803e3d6000fd5b50505050600061035061045b565b9050600061035e8383610501565b9050600061036d82606461058a565b9050600160009054906101000a900473ffffffffffffffffffffffffffffffffffffffff1673ffffffffffffffffffffffffffffffffffffffff1663a9059cbb33836040518363ffffffff1660e01b8152600401808373ffffffffffffffffffffffffffffffffffffffff1673ffffffffffffffffffffffffffffffffffffffff16815260200182815260200192505050602060405180830381600087803b15801561041857600080fd5b505af115801561042c573d6000803e3d6000fd5b505050506040513d602081101561044257600080fd5b8101908080519060200190929190505050505050505050565b6000806103844233604051602001808381526020018273ffffffffffffffffffffffffffffffffffffffff1673ffffffffffffffffffffffffffffffffffffffff1660601b8152601401807f6d696d6963000000000000000000000000000000000000000000000000000000815250600501925050506040516020818303038152906040528051906020012060001c816104f157fe5b0690506064810190508091505090565b6000808211610578576040517f08c379a000000000000000000000000000000000000000000000000000000000815260040180806020018281038252601a8152602001807f536166654d6174683a206469766973696f6e206279207a65726f00000000000081525060200191505060405180910390fd5b81838161058157fe5b04905092915050565b60008083141561059d576000905061060a565b60008284029050828482816105ae57fe5b0414610605576040517f08c379a00000000000000000000000000000000000000000000000000000000081526004018080602001828103825260218152602001806106116021913960400191505060405180910390fd5b809150505b9291505056fe536166654d6174683a206d756c7469706c69636174696f6e206f766572666c6f77a264697066735822122080f042ce2c560a15fd730e94561599674973879953d40e9d02ce6f417265ae2f64736f6c63430006060033",
  "immutableReferences": {},
  "source": "// SPDX-License-Identifier: MIT\n\npragma solidity 0.6.6;\n\nimport \"./JUSD.sol\";\nimport \"./Mimic.sol\";\nimport \"@openzeppelin/contracts/math/SafeMath.sol\";\n\ncontract Swap {\n    string public name = \"Swap\";\n    ERC20 public JUSDToken;\n    ERC20Burnable public MimicToken;\n\n    constructor(address _JUSDToken, address _MimicToken) public {\n        JUSDToken = ERC20(_JUSDToken);\n        MimicToken = ERC20Burnable(_MimicToken);\n    }\n\n    function random() internal returns (uint256) {\n        uint256 ran = uint256(\n            keccak256(abi.encodePacked(block.timestamp, msg.sender, \"mimic\"))\n        ) % 900;\n        ran = ran + 100;\n        return ran;\n    }\n\n    function SwapToken(uint256 _amount) public {\n        uint256 balance = _amount;\n        MimicToken.burnFrom(msg.sender, balance);\n        uint256 ran = random();\n        uint256 div = SafeMath.div(balance, ran);\n        uint256 rate = SafeMath.mul(div, 1e2);\n        JUSDToken.transfer(msg.sender, rate);\n    }\n}\n",
  "sourcePath": "/Users/aomwara/aomdev/mimic-farm-v2/contracts/Swap.sol",
  "compiler": {
    "name": "solc",
    "version": "0.6.6+commit.6c089d02.Emscripten.clang"
  },
  "schemaVersion": "3.4.3",
  "updatedAt": "2022-03-20T12:16:44.971Z",
  "networkType": "ethereum",
  "devdoc": {
    "methods": {}
  },
  "userdoc": {
    "methods": {}
  }
}