{
  "contractName": "Swap",
  "abi": [
    {
      "inputs": [
        {
          "internalType": "address",
          "name": "_JUSDToken",
          "type": "address"
        },
        {
          "internalType": "address",
          "name": "_MimicToken",
          "type": "address"
        }
      ],
      "stateMutability": "nonpayable",
      "type": "constructor"
    },
    {
      "inputs": [],
      "name": "JUSDToken",
      "outputs": [
        {
          "internalType": "contract ERC20",
          "name": "",
          "type": "address"
        }
      ],
      "stateMutability": "view",
      "type": "function",
      "constant": true
    },
    {
      "inputs": [],
      "name": "MimicToken",
      "outputs": [
        {
          "internalType": "contract ERC20Burnable",
          "name": "",
          "type": "address"
        }
      ],
      "stateMutability": "view",
      "type": "function",
      "constant": true
    },
    {
      "inputs": [],
      "name": "name",
      "outputs": [
        {
          "internalType": "string",
          "name": "",
          "type": "string"
        }
      ],
      "stateMutability": "view",
      "type": "function",
      "constant": true
    },
    {
      "inputs": [
        {
          "internalType": "uint256",
          "name": "_amount",
          "type": "uint256"
        }
      ],
      "name": "SwapToken",
      "outputs": [],
      "stateMutability": "nonpayable",
      "type": "function"
    }
  ],
  "bytecode": "0x60806040526040518060400160405280600481526020017f537761700000000000000000000000000000000000000000000000000000000081525060009080519060200190620000519291906200010f565b503480156200005f57600080fd5b5060405162000bfd38038062000bfd8339818101604052810190620000859190620001d6565b81600160006101000a81548173ffffffffffffffffffffffffffffffffffffffff021916908373ffffffffffffffffffffffffffffffffffffffff16021790555080600260006101000a81548173ffffffffffffffffffffffffffffffffffffffff021916908373ffffffffffffffffffffffffffffffffffffffff1602179055505050620002ca565b8280546200011d906200024b565b90600052602060002090601f0160209004810192826200014157600085556200018d565b82601f106200015c57805160ff19168380011785556200018d565b828001600101855582156200018d579182015b828111156200018c5782518255916020019190600101906200016f565b5b5090506200019c9190620001a0565b5090565b5b80821115620001bb576000816000905550600101620001a1565b5090565b600081519050620001d081620002b0565b92915050565b60008060408385031215620001ea57600080fd5b6000620001fa85828601620001bf565b92505060206200020d85828601620001bf565b9150509250929050565b600062000224826200022b565b9050919050565b600073ffffffffffffffffffffffffffffffffffffffff82169050919050565b600060028204905060018216806200026457607f821691505b602082108114156200027b576200027a62000281565b5b50919050565b7f4e487b7100000000000000000000000000000000000000000000000000000000600052602260045260246000fd5b620002bb8162000217565b8114620002c757600080fd5b50565b61092380620002da6000396000f3fe608060405234801561001057600080fd5b506004361061004c5760003560e01c806306fdde03146100515780633f4eaded1461006f57806370e3c7ed1461008d578063b0e01b2e146100ab575b600080fd5b6100596100c7565b604051610066919061056d565b60405180910390f35b610077610155565b6040516100849190610552565b60405180910390f35b61009561017b565b6040516100a29190610537565b60405180910390f35b6100c560048036038101906100c091906103e8565b6101a1565b005b600080546100d49061075a565b80601f01602080910402602001604051908101604052809291908181526020018280546101009061075a565b801561014d5780601f106101225761010080835404028352916020019161014d565b820191906000526020600020905b81548152906001019060200180831161013057829003601f168201915b505050505081565b600160009054906101000a900473ffffffffffffffffffffffffffffffffffffffff1681565b600260009054906101000a900473ffffffffffffffffffffffffffffffffffffffff1681565b6000819050600260009054906101000a900473ffffffffffffffffffffffffffffffffffffffff1673ffffffffffffffffffffffffffffffffffffffff166379cc679033836040518363ffffffff1660e01b815260040161020392919061050e565b600060405180830381600087803b15801561021d57600080fd5b505af1158015610231573d6000803e3d6000fd5b50505050600061023f610315565b9050600061024d8383610369565b9050600061025c82606461037f565b9050600160009054906101000a900473ffffffffffffffffffffffffffffffffffffffff1673ffffffffffffffffffffffffffffffffffffffff1663a9059cbb33836040518363ffffffff1660e01b81526004016102bb92919061050e565b602060405180830381600087803b1580156102d557600080fd5b505af11580156102e9573d6000803e3d6000fd5b505050506040513d601f19601f8201168201806040525081019061030d91906103bf565b505050505050565b600080610384423360405160200161032e9291906104d7565b6040516020818303038152906040528051906020012060001c61035191906107ba565b905060648161036091906105b6565b90508091505090565b60008183610377919061060c565b905092915050565b6000818361038d919061063d565b905092915050565b6000815190506103a4816108bf565b92915050565b6000813590506103b9816108d6565b92915050565b6000602082840312156103d157600080fd5b60006103df84828501610395565b91505092915050565b6000602082840312156103fa57600080fd5b6000610408848285016103aa565b91505092915050565b61041a81610697565b82525050565b61043161042c82610697565b61078c565b82525050565b610440816106df565b82525050565b61044f81610703565b82525050565b60006104608261058f565b61046a818561059a565b935061047a818560208601610727565b61048381610878565b840191505092915050565b600061049b6005836105ab565b91506104a682610896565b600582019050919050565b6104ba816106d5565b82525050565b6104d16104cc826106d5565b6107b0565b82525050565b60006104e382856104c0565b6020820191506104f38284610420565b6014820191506105028261048e565b91508190509392505050565b60006040820190506105236000830185610411565b61053060208301846104b1565b9392505050565b600060208201905061054c6000830184610437565b92915050565b60006020820190506105676000830184610446565b92915050565b600060208201905081810360008301526105878184610455565b905092915050565b600081519050919050565b600082825260208201905092915050565b600081905092915050565b60006105c1826106d5565b91506105cc836106d5565b9250827fffffffffffffffffffffffffffffffffffffffffffffffffffffffffffffffff03821115610601576106006107eb565b5b828201905092915050565b6000610617826106d5565b9150610622836106d5565b9250826106325761063161081a565b5b828204905092915050565b6000610648826106d5565b9150610653836106d5565b9250817fffffffffffffffffffffffffffffffffffffffffffffffffffffffffffffffff048311821515161561068c5761068b6107eb565b5b828202905092915050565b60006106a2826106b5565b9050919050565b60008115159050919050565b600073ffffffffffffffffffffffffffffffffffffffff82169050919050565b6000819050919050565b60006106ea826106f1565b9050919050565b60006106fc826106b5565b9050919050565b600061070e82610715565b9050919050565b6000610720826106b5565b9050919050565b60005b8381101561074557808201518184015260208101905061072a565b83811115610754576000848401525b50505050565b6000600282049050600182168061077257607f821691505b6020821081141561078657610785610849565b5b50919050565b60006107978261079e565b9050919050565b60006107a982610889565b9050919050565b6000819050919050565b60006107c5826106d5565b91506107d0836106d5565b9250826107e0576107df61081a565b5b828206905092915050565b7f4e487b7100000000000000000000000000000000000000000000000000000000600052601160045260246000fd5b7f4e487b7100000000000000000000000000000000000000000000000000000000600052601260045260246000fd5b7f4e487b7100000000000000000000000000000000000000000000000000000000600052602260045260246000fd5b6000601f19601f8301169050919050565b60008160601b9050919050565b7f6d696d6963000000000000000000000000000000000000000000000000000000600082015250565b6108c8816106a9565b81146108d357600080fd5b50565b6108df816106d5565b81146108ea57600080fd5b5056fea26469706673582212209817ae772d4c8fd2d869f2869dcb125135fed6c6ba418f31994a29dbd14e1ad964736f6c63430008040033",
  "immutableReferences": {},
  "source": "// SPDX-License-Identifier: MIT\n\npragma solidity ^0.8.4;\n\nimport \"./JUSD.sol\";\nimport \"./Mimic.sol\";\nimport \"@openzeppelin/contracts/utils/math/SafeMath.sol\";\n\ncontract Swap {\n    string public name = \"Swap\";\n    ERC20 public JUSDToken;\n    ERC20Burnable public MimicToken;\n\n    constructor(address _JUSDToken, address _MimicToken) {\n        JUSDToken = ERC20(_JUSDToken);\n        MimicToken = ERC20Burnable(_MimicToken);\n    }\n    \n    function random() internal returns (uint) {\n    uint ran = uint(keccak256(abi.encodePacked(block.timestamp, msg.sender,\"mimic\"))) % 900;\n    ran = ran + 100;\n    return ran;\n    }\n\n    function SwapToken(uint256 _amount) public {\n        uint256 balance = _amount;\n        MimicToken.burnFrom(msg.sender, balance);\n        uint256 ran = random();\n        uint256 div = SafeMath.div(balance,ran);\n        uint256 rate = SafeMath.mul(div, 1e2);\n        JUSDToken.transfer(msg.sender,rate);\n    }\n}\n",
  "sourcePath": "/Users/aomwara/aomdev/mimic-farm-v2/contracts/Swap.sol",
  "compiler": {
    "name": "solc",
    "version": "0.8.4+commit.c7e474f2.Emscripten.clang"
  },
  "schemaVersion": "3.4.3",
  "updatedAt": "2022-03-17T20:06:04.761Z",
  "networkType": "ethereum",
  "devdoc": {
    "kind": "dev",
    "methods": {},
    "version": 1
  },
  "userdoc": {
    "kind": "user",
    "methods": {},
    "version": 1
  }
}