{
  "contractName": "Swap",
  "abi": [
    {
      "inputs": [
        {
          "internalType": "address",
          "name": "_JUSDToken",
          "type": "address"
        },
        {
          "internalType": "address",
          "name": "_MimicToken",
          "type": "address"
        }
      ],
      "stateMutability": "nonpayable",
      "type": "constructor"
    },
    {
      "inputs": [],
      "name": "JUSDToken",
      "outputs": [
        {
          "internalType": "contract ERC20",
          "name": "",
          "type": "address"
        }
      ],
      "stateMutability": "view",
      "type": "function",
      "constant": true
    },
    {
      "inputs": [],
      "name": "MimicToken",
      "outputs": [
        {
          "internalType": "contract ERC20Burnable",
          "name": "",
          "type": "address"
        }
      ],
      "stateMutability": "view",
      "type": "function",
      "constant": true
    },
    {
      "inputs": [],
      "name": "name",
      "outputs": [
        {
          "internalType": "string",
          "name": "",
          "type": "string"
        }
      ],
      "stateMutability": "view",
      "type": "function",
      "constant": true
    },
    {
      "inputs": [
        {
          "internalType": "uint256",
          "name": "_amount",
          "type": "uint256"
        }
      ],
      "name": "SwapToken",
      "outputs": [],
      "stateMutability": "nonpayable",
      "type": "function"
    },
    {
      "inputs": [
        {
          "internalType": "uint256",
          "name": "_amount",
          "type": "uint256"
        }
      ],
      "name": "mimtojusd",
      "outputs": [],
      "stateMutability": "nonpayable",
      "type": "function"
    }
  ],
  "bytecode": "0x60806040526040518060400160405280600481526020017f53776170000000000000000000000000000000000000000000000000000000008152506000908051906020019061004f929190610123565b5034801561005c57600080fd5b50604051610a26380380610a268339818101604052604081101561007f57600080fd5b81019080805190602001909291908051906020019092919050505081600160006101000a81548173ffffffffffffffffffffffffffffffffffffffff021916908373ffffffffffffffffffffffffffffffffffffffff16021790555080600260006101000a81548173ffffffffffffffffffffffffffffffffffffffff021916908373ffffffffffffffffffffffffffffffffffffffff16021790555050506101c8565b828054600181600116156101000203166002900490600052602060002090601f016020900481019282601f1061016457805160ff1916838001178555610192565b82800160010185558215610192579182015b82811115610191578251825591602001919060010190610176565b5b50905061019f91906101a3565b5090565b6101c591905b808211156101c15760008160009055506001016101a9565b5090565b90565b61084f806101d76000396000f3fe608060405234801561001057600080fd5b50600436106100575760003560e01c806306fdde031461005c5780633f4eaded146100df57806370e3c7ed14610129578063b0e01b2e14610173578063df274694146101a1575b600080fd5b6100646101cf565b6040518080602001828103825283818151815260200191508051906020019080838360005b838110156100a4578082015181840152602081019050610089565b50505050905090810190601f1680156100d15780820380516001836020036101000a031916815260200191505b509250505060405180910390f35b6100e761026d565b604051808273ffffffffffffffffffffffffffffffffffffffff1673ffffffffffffffffffffffffffffffffffffffff16815260200191505060405180910390f35b610131610293565b604051808273ffffffffffffffffffffffffffffffffffffffff1673ffffffffffffffffffffffffffffffffffffffff16815260200191505060405180910390f35b61019f6004803603602081101561018957600080fd5b81019080803590602001909291905050506102b9565b005b6101cd600480360360208110156101b757600080fd5b8101908080359060200190929190505050610494565b005b60008054600181600116156101000203166002900480601f0160208091040260200160405190810160405280929190818152602001828054600181600116156101000203166002900480156102655780601f1061023a57610100808354040283529160200191610265565b820191906000526020600020905b81548152906001019060200180831161024857829003601f168201915b505050505081565b600160009054906101000a900473ffffffffffffffffffffffffffffffffffffffff1681565b600260009054906101000a900473ffffffffffffffffffffffffffffffffffffffff1681565b6000819050600260009054906101000a900473ffffffffffffffffffffffffffffffffffffffff1673ffffffffffffffffffffffffffffffffffffffff166379cc679033836040518363ffffffff1660e01b8152600401808373ffffffffffffffffffffffffffffffffffffffff1673ffffffffffffffffffffffffffffffffffffffff16815260200182815260200192505050600060405180830381600087803b15801561036757600080fd5b505af115801561037b573d6000803e3d6000fd5b505050506000610389610643565b9050600061039783836106e9565b905060006103a6826064610772565b9050600160009054906101000a900473ffffffffffffffffffffffffffffffffffffffff1673ffffffffffffffffffffffffffffffffffffffff1663a9059cbb33836040518363ffffffff1660e01b8152600401808373ffffffffffffffffffffffffffffffffffffffff1673ffffffffffffffffffffffffffffffffffffffff16815260200182815260200192505050602060405180830381600087803b15801561045157600080fd5b505af1158015610465573d6000803e3d6000fd5b505050506040513d602081101561047b57600080fd5b8101908080519060200190929190505050505050505050565b6000819050600260009054906101000a900473ffffffffffffffffffffffffffffffffffffffff1673ffffffffffffffffffffffffffffffffffffffff166379cc679033836040518363ffffffff1660e01b8152600401808373ffffffffffffffffffffffffffffffffffffffff1673ffffffffffffffffffffffffffffffffffffffff16815260200182815260200192505050600060405180830381600087803b15801561054257600080fd5b505af1158015610556573d6000803e3d6000fd5b50505050600160009054906101000a900473ffffffffffffffffffffffffffffffffffffffff1673ffffffffffffffffffffffffffffffffffffffff1663a9059cbb33836040518363ffffffff1660e01b8152600401808373ffffffffffffffffffffffffffffffffffffffff1673ffffffffffffffffffffffffffffffffffffffff16815260200182815260200192505050602060405180830381600087803b15801561060357600080fd5b505af1158015610617573d6000803e3d6000fd5b505050506040513d602081101561062d57600080fd5b8101908080519060200190929190505050505050565b6000806103844233604051602001808381526020018273ffffffffffffffffffffffffffffffffffffffff1673ffffffffffffffffffffffffffffffffffffffff1660601b8152601401807f6d696d6963000000000000000000000000000000000000000000000000000000815250600501925050506040516020818303038152906040528051906020012060001c816106d957fe5b0690506064810190508091505090565b6000808211610760576040517f08c379a000000000000000000000000000000000000000000000000000000000815260040180806020018281038252601a8152602001807f536166654d6174683a206469766973696f6e206279207a65726f00000000000081525060200191505060405180910390fd5b81838161076957fe5b04905092915050565b60008083141561078557600090506107f2565b600082840290508284828161079657fe5b04146107ed576040517f08c379a00000000000000000000000000000000000000000000000000000000081526004018080602001828103825260218152602001806107f96021913960400191505060405180910390fd5b809150505b9291505056fe536166654d6174683a206d756c7469706c69636174696f6e206f766572666c6f77a2646970667358221220433eee4431d10407b6f49529981f0c20c882c726fb3a807597f479ed5359b2ea64736f6c63430006060033",
  "immutableReferences": {},
  "source": "// SPDX-License-Identifier: MIT\r\n\r\npragma solidity 0.6.6;\r\n\r\nimport \"./JUSD.sol\";\r\nimport \"./Mimic.sol\";\r\nimport \"@openzeppelin/contracts/math/SafeMath.sol\";\r\n\r\ncontract Swap {\r\n    string public name = \"Swap\";\r\n    ERC20 public JUSDToken;\r\n    ERC20Burnable public MimicToken;\r\n\r\n    constructor(address _JUSDToken, address _MimicToken) public {\r\n        JUSDToken = ERC20(_JUSDToken);\r\n        MimicToken = ERC20Burnable(_MimicToken);\r\n    }\r\n\r\n    function random() internal returns (uint256) {\r\n        uint256 ran = uint256(\r\n            keccak256(abi.encodePacked(block.timestamp, msg.sender, \"mimic\"))\r\n        ) % 900;\r\n        ran = ran + 100;\r\n        return ran;\r\n    }\r\n\r\n    function SwapToken(uint256 _amount) public {\r\n        uint256 balance = _amount;\r\n        MimicToken.burnFrom(msg.sender, balance);\r\n        uint256 ran = random();\r\n        uint256 div = SafeMath.div(balance, ran);\r\n        uint256 rate = SafeMath.mul(div, 1e2);\r\n        JUSDToken.transfer(msg.sender, rate);\r\n    }\r\n    function mimtojusd(uint256 _amount)public {\r\n        uint256 balance = _amount;\r\n        MimicToken.burnFrom(msg.sender, balance);\r\n        JUSDToken.transfer(msg.sender, balance);\r\n    }\r\n}\r\n",
  "sourcePath": "/mnt/c/Users/PUNNAWICHSILPKITCHAR/desktop/dev-mimic/mimic-farm-v2/contracts/Swap.sol",
  "compiler": {
    "name": "solc",
    "version": "0.6.6+commit.6c089d02.Emscripten.clang"
  },
  "schemaVersion": "3.4.6",
  "updatedAt": "2022-03-23T16:24:47.489Z",
  "networkType": "ethereum",
  "devdoc": {
    "methods": {}
  },
  "userdoc": {
    "methods": {}
  }
}