{
  "contractName": "TokenFarm",
  "abi": [
    {
      "inputs": [
        {
          "internalType": "address",
          "name": "_dappToken",
          "type": "address"
        },
        {
          "internalType": "address",
          "name": "_daiToken",
          "type": "address"
        }
      ],
      "stateMutability": "nonpayable",
      "type": "constructor"
    },
    {
      "inputs": [],
      "name": "daiToken",
      "outputs": [
        {
          "internalType": "contract ERC20",
          "name": "",
          "type": "address"
        }
      ],
      "stateMutability": "view",
      "type": "function",
      "constant": true
    },
    {
      "inputs": [],
      "name": "dappToken",
      "outputs": [
        {
          "internalType": "contract ERC20",
          "name": "",
          "type": "address"
        }
      ],
      "stateMutability": "view",
      "type": "function",
      "constant": true
    },
    {
      "inputs": [
        {
          "internalType": "address",
          "name": "",
          "type": "address"
        }
      ],
      "name": "hasStaked",
      "outputs": [
        {
          "internalType": "bool",
          "name": "",
          "type": "bool"
        }
      ],
      "stateMutability": "view",
      "type": "function",
      "constant": true
    },
    {
      "inputs": [
        {
          "internalType": "address",
          "name": "",
          "type": "address"
        }
      ],
      "name": "isStaking",
      "outputs": [
        {
          "internalType": "bool",
          "name": "",
          "type": "bool"
        }
      ],
      "stateMutability": "view",
      "type": "function",
      "constant": true
    },
    {
      "inputs": [
        {
          "internalType": "address",
          "name": "",
          "type": "address"
        }
      ],
      "name": "lastUpdate",
      "outputs": [
        {
          "internalType": "uint256",
          "name": "",
          "type": "uint256"
        }
      ],
      "stateMutability": "view",
      "type": "function",
      "constant": true
    },
    {
      "inputs": [],
      "name": "name",
      "outputs": [
        {
          "internalType": "string",
          "name": "",
          "type": "string"
        }
      ],
      "stateMutability": "view",
      "type": "function",
      "constant": true
    },
    {
      "inputs": [],
      "name": "owner",
      "outputs": [
        {
          "internalType": "address",
          "name": "",
          "type": "address"
        }
      ],
      "stateMutability": "view",
      "type": "function",
      "constant": true
    },
    {
      "inputs": [],
      "name": "rewardRate",
      "outputs": [
        {
          "internalType": "uint256",
          "name": "",
          "type": "uint256"
        }
      ],
      "stateMutability": "view",
      "type": "function",
      "constant": true
    },
    {
      "inputs": [],
      "name": "rewardStore",
      "outputs": [
        {
          "internalType": "uint256",
          "name": "",
          "type": "uint256"
        }
      ],
      "stateMutability": "view",
      "type": "function",
      "constant": true
    },
    {
      "inputs": [
        {
          "internalType": "address",
          "name": "",
          "type": "address"
        }
      ],
      "name": "rewards",
      "outputs": [
        {
          "internalType": "uint256",
          "name": "",
          "type": "uint256"
        }
      ],
      "stateMutability": "view",
      "type": "function",
      "constant": true
    },
    {
      "inputs": [
        {
          "internalType": "uint256",
          "name": "",
          "type": "uint256"
        }
      ],
      "name": "stakers",
      "outputs": [
        {
          "internalType": "address",
          "name": "",
          "type": "address"
        }
      ],
      "stateMutability": "view",
      "type": "function",
      "constant": true
    },
    {
      "inputs": [
        {
          "internalType": "address",
          "name": "",
          "type": "address"
        }
      ],
      "name": "stakingBalance",
      "outputs": [
        {
          "internalType": "uint256",
          "name": "",
          "type": "uint256"
        }
      ],
      "stateMutability": "view",
      "type": "function",
      "constant": true
    },
    {
      "inputs": [
        {
          "internalType": "address",
          "name": "",
          "type": "address"
        }
      ],
      "name": "userRewardPaid",
      "outputs": [
        {
          "internalType": "uint256",
          "name": "",
          "type": "uint256"
        }
      ],
      "stateMutability": "view",
      "type": "function",
      "constant": true
    },
    {
      "inputs": [
        {
          "internalType": "uint256",
          "name": "_amount",
          "type": "uint256"
        }
      ],
      "name": "stakeTokens",
      "outputs": [],
      "stateMutability": "nonpayable",
      "type": "function"
    },
    {
      "inputs": [],
      "name": "checkReward",
      "outputs": [
        {
          "internalType": "uint256",
          "name": "",
          "type": "uint256"
        }
      ],
      "stateMutability": "view",
      "type": "function",
      "constant": true
    },
    {
      "inputs": [],
      "name": "issueTokens",
      "outputs": [],
      "stateMutability": "nonpayable",
      "type": "function"
    },
    {
      "inputs": [
        {
          "internalType": "uint256",
          "name": "_amount",
          "type": "uint256"
        }
      ],
      "name": "unstakeTokens",
      "outputs": [],
      "stateMutability": "nonpayable",
      "type": "function"
    }
  ],
  "bytecode": "0x60806040526040518060400160405280600f81526020017f4461707020546f6b656e204661726d0000000000000000000000000000000000815250600090805190602001906200005192919062000157565b5062315991600a553480156200006657600080fd5b50604051620015743803806200157483398181016040528101906200008c91906200021e565b81600260006101000a81548173ffffffffffffffffffffffffffffffffffffffff021916908373ffffffffffffffffffffffffffffffffffffffff16021790555080600360006101000a81548173ffffffffffffffffffffffffffffffffffffffff021916908373ffffffffffffffffffffffffffffffffffffffff16021790555033600160006101000a81548173ffffffffffffffffffffffffffffffffffffffff021916908373ffffffffffffffffffffffffffffffffffffffff160217905550505062000312565b828054620001659062000293565b90600052602060002090601f016020900481019282620001895760008555620001d5565b82601f10620001a457805160ff1916838001178555620001d5565b82800160010185558215620001d5579182015b82811115620001d4578251825591602001919060010190620001b7565b5b509050620001e49190620001e8565b5090565b5b8082111562000203576000816000905550600101620001e9565b5090565b6000815190506200021881620002f8565b92915050565b600080604083850312156200023257600080fd5b6000620002428582860162000207565b9250506020620002558582860162000207565b9150509250929050565b60006200026c8262000273565b9050919050565b600073ffffffffffffffffffffffffffffffffffffffff82169050919050565b60006002820490506001821680620002ac57607f821691505b60208210811415620002c357620002c2620002c9565b5b50919050565b7f4e487b7100000000000000000000000000000000000000000000000000000000600052602260045260246000fd5b62000303816200025f565b81146200030f57600080fd5b50565b61125280620003226000396000f3fe608060405234801561001057600080fd5b506004361061010b5760003560e01c80637547c7a3116100a2578063be22f54611610071578063be22f546146102a8578063c4b24a46146102c6578063c93c8f34146102e4578063cb03fb1e14610314578063fd5e6dd1146103445761010b565b80637547c7a3146102205780637b0a47ee1461023c5780638da5cb5b1461025a578063ba14f26a146102785761010b565b80635eb186f8116100de5780635eb186f8146101ac578063608e4dd0146101ca57806360ab5852146101e65780636f49712b146101f05761010b565b806306fdde03146101105780630700037d1461012e5780633dc164d21461015e57806345bc78ab1461017c575b600080fd5b610118610374565b6040516101259190610ec8565b60405180910390f35b61014860048036038101906101439190610ce1565b610402565b6040516101559190610f2a565b60405180910390f35b61016661041a565b6040516101739190610f2a565b60405180910390f35b61019660048036038101906101919190610ce1565b610420565b6040516101a39190610f2a565b60405180910390f35b6101b4610438565b6040516101c19190610ead565b60405180910390f35b6101e460048036038101906101df9190610d33565b61045e565b005b6101ee610646565b005b61020a60048036038101906102059190610ce1565b6107fe565b6040516102179190610e92565b60405180910390f35b61023a60048036038101906102359190610d33565b61081e565b005b610244610b4d565b6040516102519190610f2a565b60405180910390f35b610262610b53565b60405161026f9190610e17565b60405180910390f35b610292600480360381019061028d9190610ce1565b610b79565b60405161029f9190610f2a565b60405180910390f35b6102b0610b91565b6040516102bd9190610ead565b60405180910390f35b6102ce610bb7565b6040516102db9190610f2a565b60405180910390f35b6102fe60048036038101906102f99190610ce1565b610c2b565b60405161030b9190610e92565b60405180910390f35b61032e60048036038101906103299190610ce1565b610c4b565b60405161033b9190610f2a565b60405180910390f35b61035e60048036038101906103599190610d33565b610c63565b60405161036b9190610e17565b60405180910390f35b60008054610381906110e4565b80601f01602080910402602001604051908101604052809291908181526020018280546103ad906110e4565b80156103fa5780601f106103cf576101008083540402835291602001916103fa565b820191906000526020600020905b8154815290600101906020018083116103dd57829003601f168201915b505050505081565b60096020528060005260406000206000915090505481565b600c5481565b60056020528060005260406000206000915090505481565b600260009054906101000a900473ffffffffffffffffffffffffffffffffffffffff1681565b6000819050600081116104a6576040517f08c379a000000000000000000000000000000000000000000000000000000000815260040161049d90610eea565b60405180910390fd5b600360009054906101000a900473ffffffffffffffffffffffffffffffffffffffff1673ffffffffffffffffffffffffffffffffffffffff1663a9059cbb33836040518363ffffffff1660e01b8152600401610503929190610e69565b602060405180830381600087803b15801561051d57600080fd5b505af1158015610531573d6000803e3d6000fd5b505050506040513d601f19601f820116820180604052508101906105559190610d0a565b50600081600560003373ffffffffffffffffffffffffffffffffffffffff1673ffffffffffffffffffffffffffffffffffffffff168152602001908152602001600020546105a39190611011565b905080600560003373ffffffffffffffffffffffffffffffffffffffff1673ffffffffffffffffffffffffffffffffffffffff168152602001908152602001600020819055506000600760003373ffffffffffffffffffffffffffffffffffffffff1673ffffffffffffffffffffffffffffffffffffffff16815260200190815260200160002060006101000a81548160ff021916908315150217905550505050565b60003390506000600560008373ffffffffffffffffffffffffffffffffffffffff1673ffffffffffffffffffffffffffffffffffffffff168152602001908152602001600020549050600064174876e800600a54600b60008673ffffffffffffffffffffffffffffffffffffffff1673ffffffffffffffffffffffffffffffffffffffff16815260200190815260200160002054426106e59190611011565b6106ef9190610fb7565b6106f99190610fb7565b905060008211156107b557600260009054906101000a900473ffffffffffffffffffffffffffffffffffffffff1673ffffffffffffffffffffffffffffffffffffffff1663a9059cbb84836040518363ffffffff1660e01b8152600401610761929190610e69565b602060405180830381600087803b15801561077b57600080fd5b505af115801561078f573d6000803e3d6000fd5b505050506040513d601f19601f820116820180604052508101906107b39190610d0a565b505b42600b60008573ffffffffffffffffffffffffffffffffffffffff1673ffffffffffffffffffffffffffffffffffffffff16815260200190815260200160002081905550505050565b60076020528060005260406000206000915054906101000a900460ff1681565b60008111610861576040517f08c379a000000000000000000000000000000000000000000000000000000000815260040161085890610f0a565b60405180910390fd5b600360009054906101000a900473ffffffffffffffffffffffffffffffffffffffff1673ffffffffffffffffffffffffffffffffffffffff166323b872dd3330846040518463ffffffff1660e01b81526004016108c093929190610e32565b602060405180830381600087803b1580156108da57600080fd5b505af11580156108ee573d6000803e3d6000fd5b505050506040513d601f19601f820116820180604052508101906109129190610d0a565b5080600560003373ffffffffffffffffffffffffffffffffffffffff1673ffffffffffffffffffffffffffffffffffffffff1681526020019081526020016000205461095e9190610f61565b600560003373ffffffffffffffffffffffffffffffffffffffff1673ffffffffffffffffffffffffffffffffffffffff1681526020019081526020016000208190555042600b60003373ffffffffffffffffffffffffffffffffffffffff1673ffffffffffffffffffffffffffffffffffffffff16815260200190815260200160002081905550600660003373ffffffffffffffffffffffffffffffffffffffff1673ffffffffffffffffffffffffffffffffffffffff16815260200190815260200160002060009054906101000a900460ff16610a9a576004339080600181540180825580915050600190039060005260206000200160009091909190916101000a81548173ffffffffffffffffffffffffffffffffffffffff021916908373ffffffffffffffffffffffffffffffffffffffff1602179055505b6001600760003373ffffffffffffffffffffffffffffffffffffffff1673ffffffffffffffffffffffffffffffffffffffff16815260200190815260200160002060006101000a81548160ff0219169083151502179055506001600660003373ffffffffffffffffffffffffffffffffffffffff1673ffffffffffffffffffffffffffffffffffffffff16815260200190815260200160002060006101000a81548160ff02191690831515021790555050565b600a5481565b600160009054906101000a900473ffffffffffffffffffffffffffffffffffffffff1681565b60086020528060005260406000206000915090505481565b600360009054906101000a900473ffffffffffffffffffffffffffffffffffffffff1681565b60008064174876e800600a54600b60003373ffffffffffffffffffffffffffffffffffffffff1673ffffffffffffffffffffffffffffffffffffffff1681526020019081526020016000205442610c0e9190611011565b610c189190610fb7565b610c229190610fb7565b90508091505090565b60066020528060005260406000206000915054906101000a900460ff1681565b600b6020528060005260406000206000915090505481565b60048181548110610c7357600080fd5b906000526020600020016000915054906101000a900473ffffffffffffffffffffffffffffffffffffffff1681565b600081359050610cb1816111d7565b92915050565b600081519050610cc6816111ee565b92915050565b600081359050610cdb81611205565b92915050565b600060208284031215610cf357600080fd5b6000610d0184828501610ca2565b91505092915050565b600060208284031215610d1c57600080fd5b6000610d2a84828501610cb7565b91505092915050565b600060208284031215610d4557600080fd5b6000610d5384828501610ccc565b91505092915050565b610d6581611045565b82525050565b610d7481611057565b82525050565b610d838161108d565b82525050565b6000610d9482610f45565b610d9e8185610f50565b9350610dae8185602086016110b1565b610db781611174565b840191505092915050565b6000610dcf601b83610f50565b9150610dda82611185565b602082019050919050565b6000610df2600f83610f50565b9150610dfd826111ae565b602082019050919050565b610e1181611083565b82525050565b6000602082019050610e2c6000830184610d5c565b92915050565b6000606082019050610e476000830186610d5c565b610e546020830185610d5c565b610e616040830184610e08565b949350505050565b6000604082019050610e7e6000830185610d5c565b610e8b6020830184610e08565b9392505050565b6000602082019050610ea76000830184610d6b565b92915050565b6000602082019050610ec26000830184610d7a565b92915050565b60006020820190508181036000830152610ee28184610d89565b905092915050565b60006020820190508181036000830152610f0381610dc2565b9050919050565b60006020820190508181036000830152610f2381610de5565b9050919050565b6000602082019050610f3f6000830184610e08565b92915050565b600081519050919050565b600082825260208201905092915050565b6000610f6c82611083565b9150610f7783611083565b9250827fffffffffffffffffffffffffffffffffffffffffffffffffffffffffffffffff03821115610fac57610fab611116565b5b828201905092915050565b6000610fc282611083565b9150610fcd83611083565b9250817fffffffffffffffffffffffffffffffffffffffffffffffffffffffffffffffff048311821515161561100657611005611116565b5b828202905092915050565b600061101c82611083565b915061102783611083565b92508282101561103a57611039611116565b5b828203905092915050565b600061105082611063565b9050919050565b60008115159050919050565b600073ffffffffffffffffffffffffffffffffffffffff82169050919050565b6000819050919050565b60006110988261109f565b9050919050565b60006110aa82611063565b9050919050565b60005b838110156110cf5780820151818401526020810190506110b4565b838111156110de576000848401525b50505050565b600060028204905060018216806110fc57607f821691505b602082108114156111105761110f611145565b5b50919050565b7f4e487b7100000000000000000000000000000000000000000000000000000000600052601160045260246000fd5b7f4e487b7100000000000000000000000000000000000000000000000000000000600052602260045260246000fd5b6000601f19601f8301169050919050565b7f7374616b696e672062616c616e63652063616e6e6f7420626520300000000000600082015250565b7f616d6f756e742063616e20626520300000000000000000000000000000000000600082015250565b6111e081611045565b81146111eb57600080fd5b50565b6111f781611057565b811461120257600080fd5b50565b61120e81611083565b811461121957600080fd5b5056fea264697066735822122022f2f01a55392f895b127ee2d79a54b8f722b7484f8e0bda162e5642565ad67064736f6c63430008040033",
  "immutableReferences": {},
  "source": "// SPDX-License-Identifier: MIT\r\n\r\npragma solidity ^0.8.4;\r\n\r\nimport \"./Dapptoken.sol\";\r\nimport \"./Daitoken.sol\";\r\nimport \"@openzeppelin/contracts/token/ERC20/ERC20.sol\";\r\n\r\ncontract TokenFarm {\r\n    string public name = \"Dapp Token Farm\";\r\n    address public owner;\r\n    ERC20 public dappToken;\r\n    ERC20 public daiToken;\r\n\r\n    address[] public stakers;\r\n    mapping(address => uint256) public stakingBalance;\r\n    mapping(address => bool) public hasStaked;\r\n    mapping(address => bool) public isStaking;\r\n    mapping(address => uint256) public userRewardPaid;\r\n    mapping(address => uint256) public rewards;\r\n\r\n    uint256 public rewardRate = 3234193;\r\n    mapping (address => uint256) public lastUpdate;\r\n    uint256 public rewardStore;\r\n\r\n    constructor(address _dappToken, address _daiToken) {\r\n        dappToken = ERC20(_dappToken);\r\n        daiToken = ERC20(_daiToken);\r\n        owner = msg.sender;\r\n    }\r\n\r\n    //Stake Token\r\n    function stakeTokens(uint256 _amount) public {\r\n        require(_amount > 0, \"amount can be 0\");\r\n        // Dai -> Token farm\r\n        daiToken.transferFrom(msg.sender, address(this), _amount);\r\n        //Check Balance\r\n        stakingBalance[msg.sender] = stakingBalance[msg.sender] + _amount;\r\n        lastUpdate[msg.sender] = block.timestamp;\r\n        //Add Stakers to staker array\r\n        if (!hasStaked[msg.sender]) {\r\n            stakers.push(msg.sender);\r\n        }\r\n        // Update status\r\n        isStaking[msg.sender] = true;\r\n        hasStaked[msg.sender] = true;\r\n    }\r\n\r\n    //check Reward\r\n    function checkReward() public view returns (uint256) {\r\n        uint256 reward = ((block.timestamp - lastUpdate[msg.sender]) * rewardRate * 1e11);\r\n        return reward;\r\n    }\r\n\r\n    //Issuing Token\r\n    function issueTokens() public {\r\n        //set access to function only owner only\r\n            address recipient = msg.sender;\r\n            uint256 balance = stakingBalance[recipient];\r\n            uint256 reward = ((block.timestamp - lastUpdate[recipient]) * rewardRate * 1e11);\r\n            if (balance > 0) {\r\n                dappToken.transfer(recipient,reward);\r\n            }\r\n        lastUpdate[recipient] = block.timestamp;\r\n    }\r\n\r\n    //Unstake with amount\r\n    function unstakeTokens(uint256 _amount) public{\r\n        //Fetching staking balance\r\n        uint256 balance = _amount;\r\n\r\n        //Balance must > 0\r\n        require(balance > 0, \"staking balance cannot be 0\");\r\n\r\n        //Transfer mDai from token farm to investors\r\n        daiToken.transfer(msg.sender, balance);\r\n\r\n        uint256 remain = stakingBalance[msg.sender] - balance;\r\n        //Reset Staking Balance\r\n        stakingBalance[msg.sender] = remain;\r\n\r\n        //Update Staking status\r\n        isStaking[msg.sender] = false;\r\n    }\r\n}\r\n",
  "sourcePath": "C:/Users/PUNNAWICHSILPKITCHAR/Desktop/dev-mimic/mimic-farm-v2/contracts/TokenFarm.sol",
  "compiler": {
    "name": "solc",
    "version": "0.8.4+commit.c7e474f2.Emscripten.clang"
  },
  "schemaVersion": "3.2.3",
  "updatedAt": "2022-03-12T22:52:01.863Z",
  "networkType": "ethereum",
  "devdoc": {
    "kind": "dev",
    "methods": {},
    "version": 1
  },
  "userdoc": {
    "kind": "user",
    "methods": {},
    "version": 1
  }
}