{
  "contractName": "TokenFarm",
  "abi": [
    {
      "inputs": [
        {
          "internalType": "address",
          "name": "_dappToken",
          "type": "address"
        },
        {
          "internalType": "address",
          "name": "_daiToken",
          "type": "address"
        }
      ],
      "stateMutability": "nonpayable",
      "type": "constructor"
    },
    {
      "inputs": [],
      "name": "daiToken",
      "outputs": [
        {
          "internalType": "contract ERC20",
          "name": "",
          "type": "address"
        }
      ],
      "stateMutability": "view",
      "type": "function",
      "constant": true
    },
    {
      "inputs": [],
      "name": "dappToken",
      "outputs": [
        {
          "internalType": "contract ERC20",
          "name": "",
          "type": "address"
        }
      ],
      "stateMutability": "view",
      "type": "function",
      "constant": true
    },
    {
      "inputs": [
        {
          "internalType": "address",
          "name": "",
          "type": "address"
        }
      ],
      "name": "hasStaked",
      "outputs": [
        {
          "internalType": "bool",
          "name": "",
          "type": "bool"
        }
      ],
      "stateMutability": "view",
      "type": "function",
      "constant": true
    },
    {
      "inputs": [
        {
          "internalType": "address",
          "name": "",
          "type": "address"
        }
      ],
      "name": "isStaking",
      "outputs": [
        {
          "internalType": "bool",
          "name": "",
          "type": "bool"
        }
      ],
      "stateMutability": "view",
      "type": "function",
      "constant": true
    },
    {
      "inputs": [],
      "name": "lastUpdate",
      "outputs": [
        {
          "internalType": "uint256",
          "name": "",
          "type": "uint256"
        }
      ],
      "stateMutability": "view",
      "type": "function",
      "constant": true
    },
    {
      "inputs": [],
      "name": "name",
      "outputs": [
        {
          "internalType": "string",
          "name": "",
          "type": "string"
        }
      ],
      "stateMutability": "view",
      "type": "function",
      "constant": true
    },
    {
      "inputs": [],
      "name": "owner",
      "outputs": [
        {
          "internalType": "address",
          "name": "",
          "type": "address"
        }
      ],
      "stateMutability": "view",
      "type": "function",
      "constant": true
    },
    {
      "inputs": [],
      "name": "rewardRate",
      "outputs": [
        {
          "internalType": "uint256",
          "name": "",
          "type": "uint256"
        }
      ],
      "stateMutability": "view",
      "type": "function",
      "constant": true
    },
    {
      "inputs": [],
      "name": "rewardStore",
      "outputs": [
        {
          "internalType": "uint256",
          "name": "",
          "type": "uint256"
        }
      ],
      "stateMutability": "view",
      "type": "function",
      "constant": true
    },
    {
      "inputs": [
        {
          "internalType": "address",
          "name": "",
          "type": "address"
        }
      ],
      "name": "rewards",
      "outputs": [
        {
          "internalType": "uint256",
          "name": "",
          "type": "uint256"
        }
      ],
      "stateMutability": "view",
      "type": "function",
      "constant": true
    },
    {
      "inputs": [
        {
          "internalType": "uint256",
          "name": "",
          "type": "uint256"
        }
      ],
      "name": "stakers",
      "outputs": [
        {
          "internalType": "address",
          "name": "",
          "type": "address"
        }
      ],
      "stateMutability": "view",
      "type": "function",
      "constant": true
    },
    {
      "inputs": [
        {
          "internalType": "address",
          "name": "",
          "type": "address"
        }
      ],
      "name": "stakingBalance",
      "outputs": [
        {
          "internalType": "uint256",
          "name": "",
          "type": "uint256"
        }
      ],
      "stateMutability": "view",
      "type": "function",
      "constant": true
    },
    {
      "inputs": [
        {
          "internalType": "address",
          "name": "",
          "type": "address"
        }
      ],
      "name": "userRewardPaid",
      "outputs": [
        {
          "internalType": "uint256",
          "name": "",
          "type": "uint256"
        }
      ],
      "stateMutability": "view",
      "type": "function",
      "constant": true
    },
    {
      "inputs": [
        {
          "internalType": "uint256",
          "name": "_amount",
          "type": "uint256"
        }
      ],
      "name": "stakeTokens",
      "outputs": [],
      "stateMutability": "nonpayable",
      "type": "function"
    },
    {
      "inputs": [],
      "name": "rewardsPerToken",
      "outputs": [
        {
          "internalType": "uint256",
          "name": "",
          "type": "uint256"
        }
      ],
      "stateMutability": "view",
      "type": "function",
      "constant": true
    },
    {
      "inputs": [
        {
          "internalType": "address",
          "name": "account",
          "type": "address"
        }
      ],
      "name": "earned",
      "outputs": [
        {
          "internalType": "uint256",
          "name": "",
          "type": "uint256"
        }
      ],
      "stateMutability": "view",
      "type": "function",
      "constant": true
    },
    {
      "inputs": [],
      "name": "issueTokens",
      "outputs": [],
      "stateMutability": "nonpayable",
      "type": "function"
    },
    {
      "inputs": [
        {
          "internalType": "uint256",
          "name": "_amount",
          "type": "uint256"
        }
      ],
      "name": "unstakeTokens",
      "outputs": [],
      "stateMutability": "nonpayable",
      "type": "function"
    }
  ],
  "bytecode": "0x60806040526040518060400160405280600f81526020017f4461707020546f6b656e204661726d0000000000000000000000000000000000815250600090805190602001906200005192919062000159565b506064600a5542600b553480156200006857600080fd5b50604051620017f5380380620017f583398181016040528101906200008e919062000220565b81600260006101000a81548173ffffffffffffffffffffffffffffffffffffffff021916908373ffffffffffffffffffffffffffffffffffffffff16021790555080600360006101000a81548173ffffffffffffffffffffffffffffffffffffffff021916908373ffffffffffffffffffffffffffffffffffffffff16021790555033600160006101000a81548173ffffffffffffffffffffffffffffffffffffffff021916908373ffffffffffffffffffffffffffffffffffffffff160217905550505062000314565b828054620001679062000295565b90600052602060002090601f0160209004810192826200018b5760008555620001d7565b82601f10620001a657805160ff1916838001178555620001d7565b82800160010185558215620001d7579182015b82811115620001d6578251825591602001919060010190620001b9565b5b509050620001e69190620001ea565b5090565b5b8082111562000205576000816000905550600101620001eb565b5090565b6000815190506200021a81620002fa565b92915050565b600080604083850312156200023457600080fd5b6000620002448582860162000209565b9250506020620002578582860162000209565b9150509250929050565b60006200026e8262000275565b9050919050565b600073ffffffffffffffffffffffffffffffffffffffff82169050919050565b60006002820490506001821680620002ae57607f821691505b60208210811415620002c557620002c4620002cb565b5b50919050565b7f4e487b7100000000000000000000000000000000000000000000000000000000600052602260045260246000fd5b620003058162000261565b81146200031157600080fd5b50565b6114d180620003246000396000f3fe608060405234801561001057600080fd5b50600436106101155760003560e01c806370641a36116100a2578063ba14f26a11610071578063ba14f26a146102d0578063be22f54614610300578063c04637111461031e578063c93c8f341461033c578063fd5e6dd11461036c57610115565b806370641a361461025a5780637547c7a3146102785780637b0a47ee146102945780638da5cb5b146102b257610115565b806345bc78ab116100e957806345bc78ab146101b65780635eb186f8146101e6578063608e4dd01461020457806360ab5852146102205780636f49712b1461022a57610115565b80628cc2621461011a57806306fdde031461014a5780630700037d146101685780633dc164d214610198575b600080fd5b610134600480360381019061012f9190610f00565b61039c565b6040516101419190611149565b60405180910390f35b61015261049d565b60405161015f91906110e7565b60405180910390f35b610182600480360381019061017d9190610f00565b61052b565b60405161018f9190611149565b60405180910390f35b6101a0610543565b6040516101ad9190611149565b60405180910390f35b6101d060048036038101906101cb9190610f00565b610549565b6040516101dd9190611149565b60405180910390f35b6101ee610561565b6040516101fb91906110cc565b60405180910390f35b61021e60048036038101906102199190610f52565b610587565b005b610228610818565b005b610244600480360381019061023f9190610f00565b6109fd565b60405161025191906110b1565b60405180910390f35b610262610a1d565b60405161026f9190611149565b60405180910390f35b610292600480360381019061028d9190610f52565b610a5e565b005b61029c610df2565b6040516102a99190611149565b60405180910390f35b6102ba610df8565b6040516102c79190611036565b60405180910390f35b6102ea60048036038101906102e59190610f00565b610e1e565b6040516102f79190611149565b60405180910390f35b610308610e36565b60405161031591906110cc565b60405180910390f35b610326610e5c565b6040516103339190611149565b60405180910390f35b61035660048036038101906103519190610f00565b610e62565b60405161036391906110b1565b60405180910390f35b61038660048036038101906103819190610f52565b610e82565b6040516103939190611036565b60405180910390f35b6000600960008373ffffffffffffffffffffffffffffffffffffffff1673ffffffffffffffffffffffffffffffffffffffff16815260200190815260200160002054662386f26fc10000600860008573ffffffffffffffffffffffffffffffffffffffff1673ffffffffffffffffffffffffffffffffffffffff1681526020019081526020016000205461043091906111d6565b610438610a1d565b600560008673ffffffffffffffffffffffffffffffffffffffff1673ffffffffffffffffffffffffffffffffffffffff168152602001908152602001600020546104829190611207565b61048c9190611261565b6104969190611180565b9050919050565b600080546104aa90611334565b80601f01602080910402602001604051908101604052809291908181526020018280546104d690611334565b80156105235780601f106104f857610100808354040283529160200191610523565b820191906000526020600020905b81548152906001019060200180831161050657829003601f168201915b505050505081565b60096020528060005260406000206000915090505481565b600c5481565b60056020528060005260406000206000915090505481565b600260009054906101000a900473ffffffffffffffffffffffffffffffffffffffff1681565b33610590610a1d565b600c8190555042600b819055506105a68161039c565b600960008373ffffffffffffffffffffffffffffffffffffffff1673ffffffffffffffffffffffffffffffffffffffff16815260200190815260200160002081905550600c54600860008373ffffffffffffffffffffffffffffffffffffffff1673ffffffffffffffffffffffffffffffffffffffff16815260200190815260200160002081905550600082905060008111610677576040517f08c379a000000000000000000000000000000000000000000000000000000000815260040161066e90611109565b60405180910390fd5b600360009054906101000a900473ffffffffffffffffffffffffffffffffffffffff1673ffffffffffffffffffffffffffffffffffffffff1663a9059cbb33836040518363ffffffff1660e01b81526004016106d4929190611088565b602060405180830381600087803b1580156106ee57600080fd5b505af1158015610702573d6000803e3d6000fd5b505050506040513d601f19601f820116820180604052508101906107269190610f29565b50600081600560003373ffffffffffffffffffffffffffffffffffffffff1673ffffffffffffffffffffffffffffffffffffffff168152602001908152602001600020546107749190611261565b905080600560003373ffffffffffffffffffffffffffffffffffffffff1673ffffffffffffffffffffffffffffffffffffffff168152602001908152602001600020819055506000600760003373ffffffffffffffffffffffffffffffffffffffff1673ffffffffffffffffffffffffffffffffffffffff16815260200190815260200160002060006101000a81548160ff02191690831515021790555050505050565b33610821610a1d565b600c8190555042600b819055506108378161039c565b600960008373ffffffffffffffffffffffffffffffffffffffff1673ffffffffffffffffffffffffffffffffffffffff16815260200190815260200160002081905550600c54600860008373ffffffffffffffffffffffffffffffffffffffff1673ffffffffffffffffffffffffffffffffffffffff168152602001908152602001600020819055506000600960003373ffffffffffffffffffffffffffffffffffffffff1673ffffffffffffffffffffffffffffffffffffffff1681526020019081526020016000205490506000600960003373ffffffffffffffffffffffffffffffffffffffff1673ffffffffffffffffffffffffffffffffffffffff16815260200190815260200160002081905550600260009054906101000a900473ffffffffffffffffffffffffffffffffffffffff1673ffffffffffffffffffffffffffffffffffffffff1663a9059cbb33836040518363ffffffff1660e01b81526004016109a6929190611088565b602060405180830381600087803b1580156109c057600080fd5b505af11580156109d4573d6000803e3d6000fd5b505050506040513d601f19601f820116820180604052508101906109f89190610f29565b505050565b60076020528060005260406000206000915054906101000a900460ff1681565b6000662386f26fc10000600a54600b5442610a389190611261565b610a429190611207565b610a4c9190611207565b600c54610a599190611180565b905090565b33610a67610a1d565b600c8190555042600b81905550610a7d8161039c565b600960008373ffffffffffffffffffffffffffffffffffffffff1673ffffffffffffffffffffffffffffffffffffffff16815260200190815260200160002081905550600c54600860008373ffffffffffffffffffffffffffffffffffffffff1673ffffffffffffffffffffffffffffffffffffffff1681526020019081526020016000208190555060008211610b49576040517f08c379a0000000000000000000000000000000000000000000000000000000008152600401610b4090611129565b60405180910390fd5b600360009054906101000a900473ffffffffffffffffffffffffffffffffffffffff1673ffffffffffffffffffffffffffffffffffffffff166323b872dd3330856040518463ffffffff1660e01b8152600401610ba893929190611051565b602060405180830381600087803b158015610bc257600080fd5b505af1158015610bd6573d6000803e3d6000fd5b505050506040513d601f19601f82011682018060405250810190610bfa9190610f29565b5081600560003373ffffffffffffffffffffffffffffffffffffffff1673ffffffffffffffffffffffffffffffffffffffff16815260200190815260200160002054610c469190611180565b600560003373ffffffffffffffffffffffffffffffffffffffff1673ffffffffffffffffffffffffffffffffffffffff16815260200190815260200160002081905550600660003373ffffffffffffffffffffffffffffffffffffffff1673ffffffffffffffffffffffffffffffffffffffff16815260200190815260200160002060009054906101000a900460ff16610d3e576004339080600181540180825580915050600190039060005260206000200160009091909190916101000a81548173ffffffffffffffffffffffffffffffffffffffff021916908373ffffffffffffffffffffffffffffffffffffffff1602179055505b6001600760003373ffffffffffffffffffffffffffffffffffffffff1673ffffffffffffffffffffffffffffffffffffffff16815260200190815260200160002060006101000a81548160ff0219169083151502179055506001600660003373ffffffffffffffffffffffffffffffffffffffff1673ffffffffffffffffffffffffffffffffffffffff16815260200190815260200160002060006101000a81548160ff0219169083151502179055505050565b600a5481565b600160009054906101000a900473ffffffffffffffffffffffffffffffffffffffff1681565b60086020528060005260406000206000915090505481565b600360009054906101000a900473ffffffffffffffffffffffffffffffffffffffff1681565b600b5481565b60066020528060005260406000206000915054906101000a900460ff1681565b60048181548110610e9257600080fd5b906000526020600020016000915054906101000a900473ffffffffffffffffffffffffffffffffffffffff1681565b600081359050610ed081611456565b92915050565b600081519050610ee58161146d565b92915050565b600081359050610efa81611484565b92915050565b600060208284031215610f1257600080fd5b6000610f2084828501610ec1565b91505092915050565b600060208284031215610f3b57600080fd5b6000610f4984828501610ed6565b91505092915050565b600060208284031215610f6457600080fd5b6000610f7284828501610eeb565b91505092915050565b610f8481611295565b82525050565b610f93816112a7565b82525050565b610fa2816112dd565b82525050565b6000610fb382611164565b610fbd818561116f565b9350610fcd818560208601611301565b610fd6816113f3565b840191505092915050565b6000610fee601b8361116f565b9150610ff982611404565b602082019050919050565b6000611011600f8361116f565b915061101c8261142d565b602082019050919050565b611030816112d3565b82525050565b600060208201905061104b6000830184610f7b565b92915050565b60006060820190506110666000830186610f7b565b6110736020830185610f7b565b6110806040830184611027565b949350505050565b600060408201905061109d6000830185610f7b565b6110aa6020830184611027565b9392505050565b60006020820190506110c66000830184610f8a565b92915050565b60006020820190506110e16000830184610f99565b92915050565b600060208201905081810360008301526111018184610fa8565b905092915050565b6000602082019050818103600083015261112281610fe1565b9050919050565b6000602082019050818103600083015261114281611004565b9050919050565b600060208201905061115e6000830184611027565b92915050565b600081519050919050565b600082825260208201905092915050565b600061118b826112d3565b9150611196836112d3565b9250827fffffffffffffffffffffffffffffffffffffffffffffffffffffffffffffffff038211156111cb576111ca611366565b5b828201905092915050565b60006111e1826112d3565b91506111ec836112d3565b9250826111fc576111fb611395565b5b828204905092915050565b6000611212826112d3565b915061121d836112d3565b9250817fffffffffffffffffffffffffffffffffffffffffffffffffffffffffffffffff048311821515161561125657611255611366565b5b828202905092915050565b600061126c826112d3565b9150611277836112d3565b92508282101561128a57611289611366565b5b828203905092915050565b60006112a0826112b3565b9050919050565b60008115159050919050565b600073ffffffffffffffffffffffffffffffffffffffff82169050919050565b6000819050919050565b60006112e8826112ef565b9050919050565b60006112fa826112b3565b9050919050565b60005b8381101561131f578082015181840152602081019050611304565b8381111561132e576000848401525b50505050565b6000600282049050600182168061134c57607f821691505b602082108114156113605761135f6113c4565b5b50919050565b7f4e487b7100000000000000000000000000000000000000000000000000000000600052601160045260246000fd5b7f4e487b7100000000000000000000000000000000000000000000000000000000600052601260045260246000fd5b7f4e487b7100000000000000000000000000000000000000000000000000000000600052602260045260246000fd5b6000601f19601f8301169050919050565b7f7374616b696e672062616c616e63652063616e6e6f7420626520300000000000600082015250565b7f616d6f756e742063616e20626520300000000000000000000000000000000000600082015250565b61145f81611295565b811461146a57600080fd5b50565b611476816112a7565b811461148157600080fd5b50565b61148d816112d3565b811461149857600080fd5b5056fea2646970667358221220a7f67b6f1c921bfcdec2dd9724122e0b2f70039ff7435e4cc79e426c7f71a77264736f6c63430008040033",
  "immutableReferences": {},
  "source": "// SPDX-License-Identifier: MIT\r\n\r\npragma solidity ^0.8.4;\r\n\r\nimport \"./Dapptoken.sol\";\r\nimport \"./Daitoken.sol\";\r\nimport \"@openzeppelin/contracts/token/ERC20/ERC20.sol\";\r\n\r\ncontract TokenFarm {\r\n    string public name = \"Dapp Token Farm\";\r\n    address public owner;\r\n    ERC20 public dappToken;\r\n    ERC20 public daiToken;\r\n\r\n    address[] public stakers;\r\n    mapping(address => uint256) public stakingBalance;\r\n    mapping(address => bool) public hasStaked;\r\n    mapping(address => bool) public isStaking;\r\n    mapping(address => uint256) public userRewardPaid;\r\n    mapping(address => uint256) public rewards;\r\n\r\n    uint256 public rewardRate = 100;\r\n    uint256 public lastUpdate = block.timestamp;\r\n    uint256 public rewardStore;\r\n\r\n    constructor(address _dappToken, address _daiToken){\r\n        dappToken = ERC20(_dappToken);\r\n        daiToken = ERC20(_daiToken);\r\n        owner = msg.sender;\r\n    }\r\n\r\n    //Stake Token\r\n    function stakeTokens(uint256 _amount) external updateReward(msg.sender) {\r\n        require(_amount > 0, \"amount can be 0\");\r\n        // Dai -> Token farm\r\n        daiToken.transferFrom(msg.sender, address(this), _amount);\r\n        //Check Balance\r\n        stakingBalance[msg.sender] = stakingBalance[msg.sender] + _amount;\r\n        //Add Stakers to staker array\r\n        if (!hasStaked[msg.sender]) {\r\n            stakers.push(msg.sender);\r\n        }\r\n        // Update status\r\n        isStaking[msg.sender] = true;\r\n        hasStaked[msg.sender] = true;\r\n    }\r\n\r\n    function rewardsPerToken() public view returns (uint256){\r\n      return rewardStore+(((block.timestamp - lastUpdate)*rewardRate* 1e16));\r\n    }\r\n    function earned(address account) public view returns(uint256){\r\n        return (stakingBalance[account]*rewardsPerToken() - userRewardPaid[account]/1e16)+rewards[account];\r\n    }\r\n    modifier updateReward(address account) {\r\n        rewardStore = rewardsPerToken();\r\n        lastUpdate = block.timestamp;\r\n        rewards[account]=earned(account);\r\n        userRewardPaid[account]=rewardStore;\r\n        _;\r\n    }\r\n    //Issuing Token\r\n    function issueTokens() external updateReward(msg.sender) {\r\n        uint256 reward = rewards[msg.sender];\r\n        rewards[msg.sender]=0;\r\n        dappToken.transfer(msg.sender,reward);\r\n    }\r\n\r\n    //Unstake with amount\r\n    function unstakeTokens(uint256 _amount) external updateReward(msg.sender) {\r\n        //Fetching staking balance\r\n        uint256 balance = _amount;\r\n\r\n        //Balance must > 0\r\n        require(balance > 0, \"staking balance cannot be 0\");\r\n\r\n        //Transfer mDai from token farm to investors\r\n        daiToken.transfer(msg.sender, balance);\r\n\r\n        uint256 remain = stakingBalance[msg.sender] - balance;\r\n        //Reset Staking Balance\r\n        stakingBalance[msg.sender] = remain;\r\n\r\n        //Update Staking status\r\n        isStaking[msg.sender] = false;\r\n    }\r\n}\r\n",
  "sourcePath": "C:/Users/PUNNAWICHSILPKITCHAR/Desktop/dev-mimic/mimic-farm-v2/contracts/TokenFarm.sol",
  "compiler": {
    "name": "solc",
    "version": "0.8.4+commit.c7e474f2.Emscripten.clang"
  },
  "schemaVersion": "3.2.3",
  "updatedAt": "2022-03-10T17:27:16.472Z",
  "networkType": "ethereum",
  "devdoc": {
    "kind": "dev",
    "methods": {},
    "version": 1
  },
  "userdoc": {
    "kind": "user",
    "methods": {},
    "version": 1
  }
}