{
  "contractName": "TokenFarm",
  "abi": [
    {
      "inputs": [
        {
          "internalType": "address",
          "name": "_dappToken",
          "type": "address"
        },
        {
          "internalType": "address",
          "name": "_daiToken",
          "type": "address"
        }
      ],
      "stateMutability": "nonpayable",
      "type": "constructor"
    },
    {
      "inputs": [],
      "name": "daiToken",
      "outputs": [
        {
          "internalType": "contract ERC20",
          "name": "",
          "type": "address"
        }
      ],
      "stateMutability": "view",
      "type": "function",
      "constant": true
    },
    {
      "inputs": [],
      "name": "dappToken",
      "outputs": [
        {
          "internalType": "contract ERC20",
          "name": "",
          "type": "address"
        }
      ],
      "stateMutability": "view",
      "type": "function",
      "constant": true
    },
    {
      "inputs": [
        {
          "internalType": "address",
          "name": "",
          "type": "address"
        }
      ],
      "name": "hasStaked",
      "outputs": [
        {
          "internalType": "bool",
          "name": "",
          "type": "bool"
        }
      ],
      "stateMutability": "view",
      "type": "function",
      "constant": true
    },
    {
      "inputs": [
        {
          "internalType": "address",
          "name": "",
          "type": "address"
        }
      ],
      "name": "isStaking",
      "outputs": [
        {
          "internalType": "bool",
          "name": "",
          "type": "bool"
        }
      ],
      "stateMutability": "view",
      "type": "function",
      "constant": true
    },
    {
      "inputs": [],
      "name": "lastUpdate",
      "outputs": [
        {
          "internalType": "uint256",
          "name": "",
          "type": "uint256"
        }
      ],
      "stateMutability": "view",
      "type": "function",
      "constant": true
    },
    {
      "inputs": [],
      "name": "name",
      "outputs": [
        {
          "internalType": "string",
          "name": "",
          "type": "string"
        }
      ],
      "stateMutability": "view",
      "type": "function",
      "constant": true
    },
    {
      "inputs": [],
      "name": "owner",
      "outputs": [
        {
          "internalType": "address",
          "name": "",
          "type": "address"
        }
      ],
      "stateMutability": "view",
      "type": "function",
      "constant": true
    },
    {
      "inputs": [],
      "name": "rewardRate",
      "outputs": [
        {
          "internalType": "uint256",
          "name": "",
          "type": "uint256"
        }
      ],
      "stateMutability": "view",
      "type": "function",
      "constant": true
    },
    {
      "inputs": [],
      "name": "rewardStore",
      "outputs": [
        {
          "internalType": "uint256",
          "name": "",
          "type": "uint256"
        }
      ],
      "stateMutability": "view",
      "type": "function",
      "constant": true
    },
    {
      "inputs": [
        {
          "internalType": "address",
          "name": "",
          "type": "address"
        }
      ],
      "name": "rewards",
      "outputs": [
        {
          "internalType": "uint256",
          "name": "",
          "type": "uint256"
        }
      ],
      "stateMutability": "view",
      "type": "function",
      "constant": true
    },
    {
      "inputs": [
        {
          "internalType": "uint256",
          "name": "",
          "type": "uint256"
        }
      ],
      "name": "stakers",
      "outputs": [
        {
          "internalType": "address",
          "name": "",
          "type": "address"
        }
      ],
      "stateMutability": "view",
      "type": "function",
      "constant": true
    },
    {
      "inputs": [
        {
          "internalType": "address",
          "name": "",
          "type": "address"
        }
      ],
      "name": "stakingBalance",
      "outputs": [
        {
          "internalType": "uint256",
          "name": "",
          "type": "uint256"
        }
      ],
      "stateMutability": "view",
      "type": "function",
      "constant": true
    },
    {
      "inputs": [
        {
          "internalType": "address",
          "name": "",
          "type": "address"
        }
      ],
      "name": "userRewardPaid",
      "outputs": [
        {
          "internalType": "uint256",
          "name": "",
          "type": "uint256"
        }
      ],
      "stateMutability": "view",
      "type": "function",
      "constant": true
    },
    {
      "inputs": [
        {
          "internalType": "uint256",
          "name": "_amount",
          "type": "uint256"
        }
      ],
      "name": "stakeTokens",
      "outputs": [],
      "stateMutability": "nonpayable",
      "type": "function"
    },
    {
      "inputs": [],
      "name": "rewardsPerToken",
      "outputs": [
        {
          "internalType": "uint256",
          "name": "",
          "type": "uint256"
        }
      ],
      "stateMutability": "view",
      "type": "function",
      "constant": true
    },
    {
      "inputs": [
        {
          "internalType": "address",
          "name": "account",
          "type": "address"
        }
      ],
      "name": "earned",
      "outputs": [
        {
          "internalType": "uint256",
          "name": "",
          "type": "uint256"
        }
      ],
      "stateMutability": "view",
      "type": "function",
      "constant": true
    },
    {
      "inputs": [
        {
          "internalType": "address",
          "name": "account",
          "type": "address"
        }
      ],
      "name": "checkReward",
      "outputs": [
        {
          "internalType": "uint256",
          "name": "",
          "type": "uint256"
        }
      ],
      "stateMutability": "view",
      "type": "function",
      "constant": true
    },
    {
      "inputs": [],
      "name": "issueTokens",
      "outputs": [],
      "stateMutability": "nonpayable",
      "type": "function"
    },
    {
      "inputs": [
        {
          "internalType": "uint256",
          "name": "_amount",
          "type": "uint256"
        }
      ],
      "name": "unstakeTokens",
      "outputs": [],
      "stateMutability": "nonpayable",
      "type": "function"
    }
  ],
  "bytecode": "0x60806040526040518060400160405280600f81526020017f4461707020546f6b656e204661726d0000000000000000000000000000000000815250600090805190602001906200005192919062000159565b506064600a5542600b553480156200006857600080fd5b50604051620018793803806200187983398181016040528101906200008e919062000220565b81600260006101000a81548173ffffffffffffffffffffffffffffffffffffffff021916908373ffffffffffffffffffffffffffffffffffffffff16021790555080600360006101000a81548173ffffffffffffffffffffffffffffffffffffffff021916908373ffffffffffffffffffffffffffffffffffffffff16021790555033600160006101000a81548173ffffffffffffffffffffffffffffffffffffffff021916908373ffffffffffffffffffffffffffffffffffffffff160217905550505062000314565b828054620001679062000295565b90600052602060002090601f0160209004810192826200018b5760008555620001d7565b82601f10620001a657805160ff1916838001178555620001d7565b82800160010185558215620001d7579182015b82811115620001d6578251825591602001919060010190620001b9565b5b509050620001e69190620001ea565b5090565b5b8082111562000205576000816000905550600101620001eb565b5090565b6000815190506200021a81620002fa565b92915050565b600080604083850312156200023457600080fd5b6000620002448582860162000209565b9250506020620002578582860162000209565b9150509250929050565b60006200026e8262000275565b9050919050565b600073ffffffffffffffffffffffffffffffffffffffff82169050919050565b60006002820490506001821680620002ae57607f821691505b60208210811415620002c557620002c4620002cb565b5b50919050565b7f4e487b7100000000000000000000000000000000000000000000000000000000600052602260045260246000fd5b620003058162000261565b81146200031157600080fd5b50565b61155580620003246000396000f3fe608060405234801561001057600080fd5b50600436106101205760003560e01c806370641a36116100ad578063be22f54611610071578063be22f5461461030b578063c046371114610329578063c3c90e6414610347578063c93c8f3414610377578063fd5e6dd1146103a757610120565b806370641a36146102655780637547c7a3146102835780637b0a47ee1461029f5780638da5cb5b146102bd578063ba14f26a146102db57610120565b806345bc78ab116100f457806345bc78ab146101c15780635eb186f8146101f1578063608e4dd01461020f57806360ab58521461022b5780636f49712b1461023557610120565b80628cc2621461012557806306fdde03146101555780630700037d146101735780633dc164d2146101a3575b600080fd5b61013f600480360381019061013a9190610f84565b6103d7565b60405161014c91906111cd565b60405180910390f35b61015d6104d8565b60405161016a919061116b565b60405180910390f35b61018d60048036038101906101889190610f84565b610566565b60405161019a91906111cd565b60405180910390f35b6101ab61057e565b6040516101b891906111cd565b60405180910390f35b6101db60048036038101906101d69190610f84565b610584565b6040516101e891906111cd565b60405180910390f35b6101f961059c565b6040516102069190611150565b60405180910390f35b61022960048036038101906102249190610fd6565b6105c2565b005b610233610853565b005b61024f600480360381019061024a9190610f84565b610a38565b60405161025c9190611135565b60405180910390f35b61026d610a58565b60405161027a91906111cd565b60405180910390f35b61029d60048036038101906102989190610fd6565b610a99565b005b6102a7610e2d565b6040516102b491906111cd565b60405180910390f35b6102c5610e33565b6040516102d291906110ba565b60405180910390f35b6102f560048036038101906102f09190610f84565b610e59565b60405161030291906111cd565b60405180910390f35b610313610e71565b6040516103209190611150565b60405180910390f35b610331610e97565b60405161033e91906111cd565b60405180910390f35b610361600480360381019061035c9190610f84565b610e9d565b60405161036e91906111cd565b60405180910390f35b610391600480360381019061038c9190610f84565b610ee6565b60405161039e9190611135565b60405180910390f35b6103c160048036038101906103bc9190610fd6565b610f06565b6040516103ce91906110ba565b60405180910390f35b6000600960008373ffffffffffffffffffffffffffffffffffffffff1673ffffffffffffffffffffffffffffffffffffffff16815260200190815260200160002054662386f26fc10000600860008573ffffffffffffffffffffffffffffffffffffffff1673ffffffffffffffffffffffffffffffffffffffff1681526020019081526020016000205461046b919061125a565b610473610a58565b600560008673ffffffffffffffffffffffffffffffffffffffff1673ffffffffffffffffffffffffffffffffffffffff168152602001908152602001600020546104bd919061128b565b6104c791906112e5565b6104d19190611204565b9050919050565b600080546104e5906113b8565b80601f0160208091040260200160405190810160405280929190818152602001828054610511906113b8565b801561055e5780601f106105335761010080835404028352916020019161055e565b820191906000526020600020905b81548152906001019060200180831161054157829003601f168201915b505050505081565b60096020528060005260406000206000915090505481565b600c5481565b60056020528060005260406000206000915090505481565b600260009054906101000a900473ffffffffffffffffffffffffffffffffffffffff1681565b336105cb610a58565b600c8190555042600b819055506105e1816103d7565b600960008373ffffffffffffffffffffffffffffffffffffffff1673ffffffffffffffffffffffffffffffffffffffff16815260200190815260200160002081905550600c54600860008373ffffffffffffffffffffffffffffffffffffffff1673ffffffffffffffffffffffffffffffffffffffff168152602001908152602001600020819055506000829050600081116106b2576040517f08c379a00000000000000000000000000000000000000000000000000000000081526004016106a99061118d565b60405180910390fd5b600360009054906101000a900473ffffffffffffffffffffffffffffffffffffffff1673ffffffffffffffffffffffffffffffffffffffff1663a9059cbb33836040518363ffffffff1660e01b815260040161070f92919061110c565b602060405180830381600087803b15801561072957600080fd5b505af115801561073d573d6000803e3d6000fd5b505050506040513d601f19601f820116820180604052508101906107619190610fad565b50600081600560003373ffffffffffffffffffffffffffffffffffffffff1673ffffffffffffffffffffffffffffffffffffffff168152602001908152602001600020546107af91906112e5565b905080600560003373ffffffffffffffffffffffffffffffffffffffff1673ffffffffffffffffffffffffffffffffffffffff168152602001908152602001600020819055506000600760003373ffffffffffffffffffffffffffffffffffffffff1673ffffffffffffffffffffffffffffffffffffffff16815260200190815260200160002060006101000a81548160ff02191690831515021790555050505050565b3361085c610a58565b600c8190555042600b81905550610872816103d7565b600960008373ffffffffffffffffffffffffffffffffffffffff1673ffffffffffffffffffffffffffffffffffffffff16815260200190815260200160002081905550600c54600860008373ffffffffffffffffffffffffffffffffffffffff1673ffffffffffffffffffffffffffffffffffffffff168152602001908152602001600020819055506000600960003373ffffffffffffffffffffffffffffffffffffffff1673ffffffffffffffffffffffffffffffffffffffff1681526020019081526020016000205490506000600960003373ffffffffffffffffffffffffffffffffffffffff1673ffffffffffffffffffffffffffffffffffffffff16815260200190815260200160002081905550600260009054906101000a900473ffffffffffffffffffffffffffffffffffffffff1673ffffffffffffffffffffffffffffffffffffffff1663a9059cbb33836040518363ffffffff1660e01b81526004016109e192919061110c565b602060405180830381600087803b1580156109fb57600080fd5b505af1158015610a0f573d6000803e3d6000fd5b505050506040513d601f19601f82011682018060405250810190610a339190610fad565b505050565b60076020528060005260406000206000915054906101000a900460ff1681565b6000662386f26fc10000600a54600b5442610a7391906112e5565b610a7d919061128b565b610a87919061128b565b600c54610a949190611204565b905090565b33610aa2610a58565b600c8190555042600b81905550610ab8816103d7565b600960008373ffffffffffffffffffffffffffffffffffffffff1673ffffffffffffffffffffffffffffffffffffffff16815260200190815260200160002081905550600c54600860008373ffffffffffffffffffffffffffffffffffffffff1673ffffffffffffffffffffffffffffffffffffffff1681526020019081526020016000208190555060008211610b84576040517f08c379a0000000000000000000000000000000000000000000000000000000008152600401610b7b906111ad565b60405180910390fd5b600360009054906101000a900473ffffffffffffffffffffffffffffffffffffffff1673ffffffffffffffffffffffffffffffffffffffff166323b872dd3330856040518463ffffffff1660e01b8152600401610be3939291906110d5565b602060405180830381600087803b158015610bfd57600080fd5b505af1158015610c11573d6000803e3d6000fd5b505050506040513d601f19601f82011682018060405250810190610c359190610fad565b5081600560003373ffffffffffffffffffffffffffffffffffffffff1673ffffffffffffffffffffffffffffffffffffffff16815260200190815260200160002054610c819190611204565b600560003373ffffffffffffffffffffffffffffffffffffffff1673ffffffffffffffffffffffffffffffffffffffff16815260200190815260200160002081905550600660003373ffffffffffffffffffffffffffffffffffffffff1673ffffffffffffffffffffffffffffffffffffffff16815260200190815260200160002060009054906101000a900460ff16610d79576004339080600181540180825580915050600190039060005260206000200160009091909190916101000a81548173ffffffffffffffffffffffffffffffffffffffff021916908373ffffffffffffffffffffffffffffffffffffffff1602179055505b6001600760003373ffffffffffffffffffffffffffffffffffffffff1673ffffffffffffffffffffffffffffffffffffffff16815260200190815260200160002060006101000a81548160ff0219169083151502179055506001600660003373ffffffffffffffffffffffffffffffffffffffff1673ffffffffffffffffffffffffffffffffffffffff16815260200190815260200160002060006101000a81548160ff0219169083151502179055505050565b600a5481565b600160009054906101000a900473ffffffffffffffffffffffffffffffffffffffff1681565b60086020528060005260406000206000915090505481565b600360009054906101000a900473ffffffffffffffffffffffffffffffffffffffff1681565b600b5481565b6000600960008373ffffffffffffffffffffffffffffffffffffffff1673ffffffffffffffffffffffffffffffffffffffff168152602001908152602001600020549050919050565b60066020528060005260406000206000915054906101000a900460ff1681565b60048181548110610f1657600080fd5b906000526020600020016000915054906101000a900473ffffffffffffffffffffffffffffffffffffffff1681565b600081359050610f54816114da565b92915050565b600081519050610f69816114f1565b92915050565b600081359050610f7e81611508565b92915050565b600060208284031215610f9657600080fd5b6000610fa484828501610f45565b91505092915050565b600060208284031215610fbf57600080fd5b6000610fcd84828501610f5a565b91505092915050565b600060208284031215610fe857600080fd5b6000610ff684828501610f6f565b91505092915050565b61100881611319565b82525050565b6110178161132b565b82525050565b61102681611361565b82525050565b6000611037826111e8565b61104181856111f3565b9350611051818560208601611385565b61105a81611477565b840191505092915050565b6000611072601b836111f3565b915061107d82611488565b602082019050919050565b6000611095600f836111f3565b91506110a0826114b1565b602082019050919050565b6110b481611357565b82525050565b60006020820190506110cf6000830184610fff565b92915050565b60006060820190506110ea6000830186610fff565b6110f76020830185610fff565b61110460408301846110ab565b949350505050565b60006040820190506111216000830185610fff565b61112e60208301846110ab565b9392505050565b600060208201905061114a600083018461100e565b92915050565b6000602082019050611165600083018461101d565b92915050565b60006020820190508181036000830152611185818461102c565b905092915050565b600060208201905081810360008301526111a681611065565b9050919050565b600060208201905081810360008301526111c681611088565b9050919050565b60006020820190506111e260008301846110ab565b92915050565b600081519050919050565b600082825260208201905092915050565b600061120f82611357565b915061121a83611357565b9250827fffffffffffffffffffffffffffffffffffffffffffffffffffffffffffffffff0382111561124f5761124e6113ea565b5b828201905092915050565b600061126582611357565b915061127083611357565b9250826112805761127f611419565b5b828204905092915050565b600061129682611357565b91506112a183611357565b9250817fffffffffffffffffffffffffffffffffffffffffffffffffffffffffffffffff04831182151516156112da576112d96113ea565b5b828202905092915050565b60006112f082611357565b91506112fb83611357565b92508282101561130e5761130d6113ea565b5b828203905092915050565b600061132482611337565b9050919050565b60008115159050919050565b600073ffffffffffffffffffffffffffffffffffffffff82169050919050565b6000819050919050565b600061136c82611373565b9050919050565b600061137e82611337565b9050919050565b60005b838110156113a3578082015181840152602081019050611388565b838111156113b2576000848401525b50505050565b600060028204905060018216806113d057607f821691505b602082108114156113e4576113e3611448565b5b50919050565b7f4e487b7100000000000000000000000000000000000000000000000000000000600052601160045260246000fd5b7f4e487b7100000000000000000000000000000000000000000000000000000000600052601260045260246000fd5b7f4e487b7100000000000000000000000000000000000000000000000000000000600052602260045260246000fd5b6000601f19601f8301169050919050565b7f7374616b696e672062616c616e63652063616e6e6f7420626520300000000000600082015250565b7f616d6f756e742063616e20626520300000000000000000000000000000000000600082015250565b6114e381611319565b81146114ee57600080fd5b50565b6114fa8161132b565b811461150557600080fd5b50565b61151181611357565b811461151c57600080fd5b5056fea26469706673582212204d2de94ccc610ca16809b2b42e1a775b4b8f04badf4acf0d79fd56d83dc2b99064736f6c63430008040033",
  "immutableReferences": {},
  "source": "// SPDX-License-Identifier: MIT\n\npragma solidity ^0.8.4;\n\nimport \"./Dapptoken.sol\";\nimport \"./Daitoken.sol\";\nimport \"@openzeppelin/contracts/token/ERC20/ERC20.sol\";\n\ncontract TokenFarm {\n    string public name = \"Dapp Token Farm\";\n    address public owner;\n    ERC20 public dappToken;\n    ERC20 public daiToken;\n\n    address[] public stakers;\n    mapping(address => uint256) public stakingBalance;\n    mapping(address => bool) public hasStaked;\n    mapping(address => bool) public isStaking;\n    mapping(address => uint256) public userRewardPaid;\n    mapping(address => uint256) public rewards;\n\n    uint256 public rewardRate = 100;\n    uint256 public lastUpdate = block.timestamp;\n    uint256 public rewardStore;\n\n    constructor(address _dappToken, address _daiToken) {\n        dappToken = ERC20(_dappToken);\n        daiToken = ERC20(_daiToken);\n        owner = msg.sender;\n    }\n\n    //Stake Token\n    function stakeTokens(uint256 _amount) external updateReward(msg.sender) {\n        require(_amount > 0, \"amount can be 0\");\n        // Dai -> Token farm\n        daiToken.transferFrom(msg.sender, address(this), _amount);\n        //Check Balance\n        stakingBalance[msg.sender] = stakingBalance[msg.sender] + _amount;\n        //Add Stakers to staker array\n        if (!hasStaked[msg.sender]) {\n            stakers.push(msg.sender);\n        }\n        // Update status\n        isStaking[msg.sender] = true;\n        hasStaked[msg.sender] = true;\n    }\n\n    function rewardsPerToken() public view returns (uint256) {\n        return\n            rewardStore +\n            (((block.timestamp - lastUpdate) * rewardRate * 1e16));\n    }\n\n    function earned(address account) public view returns (uint256) {\n        return\n            (stakingBalance[account] *\n                rewardsPerToken() -\n                userRewardPaid[account] /\n                1e16) + rewards[account];\n    }\n\n    modifier updateReward(address account) {\n        rewardStore = rewardsPerToken();\n        lastUpdate = block.timestamp;\n        rewards[account] = earned(account);\n        userRewardPaid[account] = rewardStore;\n        _;\n    }\n\n    //check Reward\n    function checkReward(address account) public view returns (uint256) {\n        return rewards[account];\n    }\n\n    //Issuing Token\n    function issueTokens() external updateReward(msg.sender) {\n        uint256 reward = rewards[msg.sender];\n        rewards[msg.sender] = 0;\n        dappToken.transfer(msg.sender, reward);\n    }\n\n    //Unstake with amount\n    function unstakeTokens(uint256 _amount) external updateReward(msg.sender) {\n        //Fetching staking balance\n        uint256 balance = _amount;\n\n        //Balance must > 0\n        require(balance > 0, \"staking balance cannot be 0\");\n\n        //Transfer mDai from token farm to investors\n        daiToken.transfer(msg.sender, balance);\n\n        uint256 remain = stakingBalance[msg.sender] - balance;\n        //Reset Staking Balance\n        stakingBalance[msg.sender] = remain;\n\n        //Update Staking status\n        isStaking[msg.sender] = false;\n    }\n}\n",
  "sourcePath": "/Users/aomwara/aomdev/mimic-farm-v2/contracts/TokenFarm.sol",
  "compiler": {
    "name": "solc",
    "version": "0.8.4+commit.c7e474f2.Emscripten.clang"
  },
  "schemaVersion": "3.4.3",
  "updatedAt": "2022-03-10T18:12:24.282Z",
  "networkType": "ethereum",
  "devdoc": {
    "kind": "dev",
    "methods": {},
    "version": 1
  },
  "userdoc": {
    "kind": "user",
    "methods": {},
    "version": 1
  }
}