{
  "contractName": "TokenFarm",
  "abi": [
    {
      "inputs": [
        {
          "internalType": "contract DappToken",
          "name": "_dappToken",
          "type": "address"
        },
        {
          "internalType": "contract DaiToken",
          "name": "_daiToken",
          "type": "address"
        }
      ],
      "payable": false,
      "stateMutability": "nonpayable",
      "type": "constructor"
    },
    {
      "constant": true,
      "inputs": [],
      "name": "daiToken",
      "outputs": [
        {
          "internalType": "contract DaiToken",
          "name": "",
          "type": "address"
        }
      ],
      "payable": false,
      "stateMutability": "view",
      "type": "function"
    },
    {
      "constant": true,
      "inputs": [],
      "name": "dappToken",
      "outputs": [
        {
          "internalType": "contract DappToken",
          "name": "",
          "type": "address"
        }
      ],
      "payable": false,
      "stateMutability": "view",
      "type": "function"
    },
    {
      "constant": true,
      "inputs": [
        {
          "internalType": "address",
          "name": "",
          "type": "address"
        }
      ],
      "name": "hasStaked",
      "outputs": [
        {
          "internalType": "bool",
          "name": "",
          "type": "bool"
        }
      ],
      "payable": false,
      "stateMutability": "view",
      "type": "function"
    },
    {
      "constant": true,
      "inputs": [
        {
          "internalType": "address",
          "name": "",
          "type": "address"
        }
      ],
      "name": "isStaking",
      "outputs": [
        {
          "internalType": "bool",
          "name": "",
          "type": "bool"
        }
      ],
      "payable": false,
      "stateMutability": "view",
      "type": "function"
    },
    {
      "constant": true,
      "inputs": [],
      "name": "name",
      "outputs": [
        {
          "internalType": "string",
          "name": "",
          "type": "string"
        }
      ],
      "payable": false,
      "stateMutability": "view",
      "type": "function"
    },
    {
      "constant": true,
      "inputs": [],
      "name": "owner",
      "outputs": [
        {
          "internalType": "address",
          "name": "",
          "type": "address"
        }
      ],
      "payable": false,
      "stateMutability": "view",
      "type": "function"
    },
    {
      "constant": true,
      "inputs": [
        {
          "internalType": "uint256",
          "name": "",
          "type": "uint256"
        }
      ],
      "name": "stakers",
      "outputs": [
        {
          "internalType": "address",
          "name": "",
          "type": "address"
        }
      ],
      "payable": false,
      "stateMutability": "view",
      "type": "function"
    },
    {
      "constant": true,
      "inputs": [
        {
          "internalType": "address",
          "name": "",
          "type": "address"
        }
      ],
      "name": "stakingBalance",
      "outputs": [
        {
          "internalType": "uint256",
          "name": "",
          "type": "uint256"
        }
      ],
      "payable": false,
      "stateMutability": "view",
      "type": "function"
    },
    {
      "constant": false,
      "inputs": [
        {
          "internalType": "uint256",
          "name": "_amount",
          "type": "uint256"
        }
      ],
      "name": "stakeTokens",
      "outputs": [],
      "payable": false,
      "stateMutability": "nonpayable",
      "type": "function"
    },
    {
      "constant": false,
      "inputs": [],
      "name": "issueTokens",
      "outputs": [],
      "payable": false,
      "stateMutability": "nonpayable",
      "type": "function"
    },
    {
      "constant": false,
      "inputs": [
        {
          "internalType": "uint256",
          "name": "_amount",
          "type": "uint256"
        }
      ],
      "name": "unstakeTokens",
      "outputs": [],
      "payable": false,
      "stateMutability": "nonpayable",
      "type": "function"
    }
  ],
  "bytecode": "0x60806040526040518060400160405280600f81526020017f4461707020546f6b656e204661726d00000000000000000000000000000000008152506000908051906020019061004f929190610164565b5034801561005c57600080fd5b506040516110013803806110018339818101604052604081101561007f57600080fd5b81019080805190602001909291908051906020019092919050505081600260006101000a81548173ffffffffffffffffffffffffffffffffffffffff021916908373ffffffffffffffffffffffffffffffffffffffff16021790555080600360006101000a81548173ffffffffffffffffffffffffffffffffffffffff021916908373ffffffffffffffffffffffffffffffffffffffff16021790555033600160006101000a81548173ffffffffffffffffffffffffffffffffffffffff021916908373ffffffffffffffffffffffffffffffffffffffff1602179055505050610209565b828054600181600116156101000203166002900490600052602060002090601f016020900481019282601f106101a557805160ff19168380011785556101d3565b828001600101855582156101d3579182015b828111156101d25782518255916020019190600101906101b7565b5b5090506101e091906101e4565b5090565b61020691905b808211156102025760008160009055506001016101ea565b5090565b90565b610de9806102186000396000f3fe608060405234801561001057600080fd5b50600436106100a95760003560e01c80636f49712b116100715780636f49712b1461020b5780637547c7a3146102675780638da5cb5b14610295578063be22f546146102df578063c93c8f3414610329578063fd5e6dd114610385576100a9565b806306fdde03146100ae57806345bc78ab146101315780635eb186f814610189578063608e4dd0146101d357806360ab585214610201575b600080fd5b6100b66103f3565b6040518080602001828103825283818151815260200191508051906020019080838360005b838110156100f65780820151818401526020810190506100db565b50505050905090810190601f1680156101235780820380516001836020036101000a031916815260200191505b509250505060405180910390f35b6101736004803603602081101561014757600080fd5b81019080803573ffffffffffffffffffffffffffffffffffffffff169060200190929190505050610491565b6040518082815260200191505060405180910390f35b6101916104a9565b604051808273ffffffffffffffffffffffffffffffffffffffff1673ffffffffffffffffffffffffffffffffffffffff16815260200191505060405180910390f35b6101ff600480360360208110156101e957600080fd5b81019080803590602001909291905050506104cf565b005b610209610716565b005b61024d6004803603602081101561022157600080fd5b81019080803573ffffffffffffffffffffffffffffffffffffffff16906020019092919050505061096d565b604051808215151515815260200191505060405180910390f35b6102936004803603602081101561027d57600080fd5b810190808035906020019092919050505061098d565b005b61029d610d0c565b604051808273ffffffffffffffffffffffffffffffffffffffff1673ffffffffffffffffffffffffffffffffffffffff16815260200191505060405180910390f35b6102e7610d32565b604051808273ffffffffffffffffffffffffffffffffffffffff1673ffffffffffffffffffffffffffffffffffffffff16815260200191505060405180910390f35b61036b6004803603602081101561033f57600080fd5b81019080803573ffffffffffffffffffffffffffffffffffffffff169060200190929190505050610d58565b604051808215151515815260200191505060405180910390f35b6103b16004803603602081101561039b57600080fd5b8101908080359060200190929190505050610d78565b604051808273ffffffffffffffffffffffffffffffffffffffff1673ffffffffffffffffffffffffffffffffffffffff16815260200191505060405180910390f35b60008054600181600116156101000203166002900480601f0160208091040260200160405190810160405280929190818152602001828054600181600116156101000203166002900480156104895780601f1061045e57610100808354040283529160200191610489565b820191906000526020600020905b81548152906001019060200180831161046c57829003601f168201915b505050505081565b60056020528060005260406000206000915090505481565b600260009054906101000a900473ffffffffffffffffffffffffffffffffffffffff1681565b60008190506000811161054a576040517f08c379a000000000000000000000000000000000000000000000000000000000815260040180806020018281038252601b8152602001807f7374616b696e672062616c616e63652063616e6e6f742062652030000000000081525060200191505060405180910390fd5b600360009054906101000a900473ffffffffffffffffffffffffffffffffffffffff1673ffffffffffffffffffffffffffffffffffffffff1663a9059cbb33836040518363ffffffff1660e01b8152600401808373ffffffffffffffffffffffffffffffffffffffff1673ffffffffffffffffffffffffffffffffffffffff16815260200182815260200192505050602060405180830381600087803b1580156105f357600080fd5b505af1158015610607573d6000803e3d6000fd5b505050506040513d602081101561061d57600080fd5b810190808051906020019092919050505050600081600560003373ffffffffffffffffffffffffffffffffffffffff1673ffffffffffffffffffffffffffffffffffffffff1681526020019081526020016000205403905080600560003373ffffffffffffffffffffffffffffffffffffffff1673ffffffffffffffffffffffffffffffffffffffff168152602001908152602001600020819055506000600760003373ffffffffffffffffffffffffffffffffffffffff1673ffffffffffffffffffffffffffffffffffffffff16815260200190815260200160002060006101000a81548160ff021916908315150217905550505050565b600160009054906101000a900473ffffffffffffffffffffffffffffffffffffffff1673ffffffffffffffffffffffffffffffffffffffff163373ffffffffffffffffffffffffffffffffffffffff16146107d9576040517f08c379a00000000000000000000000000000000000000000000000000000000081526004018080602001828103825260168152602001807f63616c6c206d75737420626520746865206f776e65720000000000000000000081525060200191505060405180910390fd5b60008090505b60048054905081101561096a576000600482815481106107fb57fe5b9060005260206000200160009054906101000a900473ffffffffffffffffffffffffffffffffffffffff1690506000600560008373ffffffffffffffffffffffffffffffffffffffff1673ffffffffffffffffffffffffffffffffffffffff168152602001908152602001600020549050600081111561095b57600260009054906101000a900473ffffffffffffffffffffffffffffffffffffffff1673ffffffffffffffffffffffffffffffffffffffff1663a9059cbb83836040518363ffffffff1660e01b8152600401808373ffffffffffffffffffffffffffffffffffffffff1673ffffffffffffffffffffffffffffffffffffffff16815260200182815260200192505050602060405180830381600087803b15801561091e57600080fd5b505af1158015610932573d6000803e3d6000fd5b505050506040513d602081101561094857600080fd5b8101908080519060200190929190505050505b505080806001019150506107df565b50565b60076020528060005260406000206000915054906101000a900460ff1681565b60008111610a03576040517f08c379a000000000000000000000000000000000000000000000000000000000815260040180806020018281038252600f8152602001807f616d6f756e742063616e2062652030000000000000000000000000000000000081525060200191505060405180910390fd5b600360009054906101000a900473ffffffffffffffffffffffffffffffffffffffff1673ffffffffffffffffffffffffffffffffffffffff166323b872dd3330846040518463ffffffff1660e01b8152600401808473ffffffffffffffffffffffffffffffffffffffff1673ffffffffffffffffffffffffffffffffffffffff1681526020018373ffffffffffffffffffffffffffffffffffffffff1673ffffffffffffffffffffffffffffffffffffffff1681526020018281526020019350505050602060405180830381600087803b158015610ae057600080fd5b505af1158015610af4573d6000803e3d6000fd5b505050506040513d6020811015610b0a57600080fd5b81019080805190602001909291905050505080600560003373ffffffffffffffffffffffffffffffffffffffff1673ffffffffffffffffffffffffffffffffffffffff1681526020019081526020016000205401600560003373ffffffffffffffffffffffffffffffffffffffff1673ffffffffffffffffffffffffffffffffffffffff16815260200190815260200160002081905550600660003373ffffffffffffffffffffffffffffffffffffffff1673ffffffffffffffffffffffffffffffffffffffff16815260200190815260200160002060009054906101000a900460ff16610c595760043390806001815401808255809150509060018203906000526020600020016000909192909190916101000a81548173ffffffffffffffffffffffffffffffffffffffff021916908373ffffffffffffffffffffffffffffffffffffffff160217905550505b6001600760003373ffffffffffffffffffffffffffffffffffffffff1673ffffffffffffffffffffffffffffffffffffffff16815260200190815260200160002060006101000a81548160ff0219169083151502179055506001600660003373ffffffffffffffffffffffffffffffffffffffff1673ffffffffffffffffffffffffffffffffffffffff16815260200190815260200160002060006101000a81548160ff02191690831515021790555050565b600160009054906101000a900473ffffffffffffffffffffffffffffffffffffffff1681565b600360009054906101000a900473ffffffffffffffffffffffffffffffffffffffff1681565b60066020528060005260406000206000915054906101000a900460ff1681565b60048181548110610d8557fe5b906000526020600020016000915054906101000a900473ffffffffffffffffffffffffffffffffffffffff168156fea265627a7a72315820d5f84c29232f6dd0664a3e6ca609e3e7a68d2a08b0277eadf54d3e350ea9997164736f6c63430005100032",
  "source": "pragma solidity ^0.5.0;\n\nimport \"./Dapptoken.sol\";\nimport \"./Daitoken.sol\";\n\ncontract TokenFarm {\n    string public name = \"Dapp Token Farm\";\n    address public owner;\n    DappToken public dappToken;\n    DaiToken public daiToken;\n\n    address[] public stakers;\n    mapping(address => uint256) public stakingBalance;\n    mapping(address => bool) public hasStaked;\n    mapping(address => bool) public isStaking;\n\n    constructor(DappToken _dappToken, DaiToken _daiToken) public {\n        dappToken = _dappToken;\n        daiToken = _daiToken;\n        owner = msg.sender;\n    }\n\n    //Stake Token\n    function stakeTokens(uint256 _amount) public {\n        require(_amount > 0, \"amount can be 0\");\n        // Dai -> Token farm\n        daiToken.transferFrom(msg.sender, address(this), _amount);\n        //Check Balance\n        stakingBalance[msg.sender] = stakingBalance[msg.sender] + _amount;\n        //Add Stakers to staker array\n        if (!hasStaked[msg.sender]) {\n            stakers.push(msg.sender);\n        }\n        // Update status\n        isStaking[msg.sender] = true;\n        hasStaked[msg.sender] = true;\n    }\n\n    //Issuing Token\n    function issueTokens() public {\n        //set access to function only owner only\n        require(msg.sender == owner, \"call must be the owner\");\n        for (uint256 i = 0; i < stakers.length; i++) {\n            address recipient = stakers[i];\n            uint256 balance = stakingBalance[recipient];\n            if (balance > 0) {\n                dappToken.transfer(recipient, balance);\n            }\n        }\n    }\n\n    //Unstake with amount\n    function unstakeTokens(uint256 _amount) public {\n        //Fetching staking balance\n        uint256 balance = _amount;\n\n        //Balance must > 0\n        require(balance > 0, \"staking balance cannot be 0\");\n\n        //Transfer mDai from token farm to investors\n        daiToken.transfer(msg.sender, balance);\n\n        uint256 remain = stakingBalance[msg.sender] - balance;\n        //Reset Staking Balance\n        stakingBalance[msg.sender] = remain;\n\n        //Update Staking status\n        isStaking[msg.sender] = false;\n    }\n}\n",
  "sourcePath": "/Users/aomwara/aomdev/mimic-finance-farm-v2/contracts/TokenFarm.sol",
  "compiler": {
    "name": "solc",
    "version": "0.5.16+commit.9c3226ce.Emscripten.clang"
  },
  "schemaVersion": "3.4.3",
  "updatedAt": "2022-03-01T19:26:45.801Z",
  "networkType": "ethereum",
  "devdoc": {
    "methods": {}
  },
  "userdoc": {
    "methods": {}
  }
}