{
  "contractName": "TokenFarm",
  "abi": [
    {
      "inputs": [
        {
          "internalType": "address",
          "name": "_dappToken",
          "type": "address"
        },
        {
          "internalType": "address",
          "name": "_daiToken",
          "type": "address"
        }
      ],
      "stateMutability": "nonpayable",
      "type": "constructor"
    },
    {
      "inputs": [],
      "name": "daiToken",
      "outputs": [
        {
          "internalType": "contract ERC20",
          "name": "",
          "type": "address"
        }
      ],
      "stateMutability": "view",
      "type": "function",
      "constant": true
    },
    {
      "inputs": [],
      "name": "dappToken",
      "outputs": [
        {
          "internalType": "contract ERC20",
          "name": "",
          "type": "address"
        }
      ],
      "stateMutability": "view",
      "type": "function",
      "constant": true
    },
    {
      "inputs": [
        {
          "internalType": "address",
          "name": "",
          "type": "address"
        }
      ],
      "name": "lastUpdate",
      "outputs": [
        {
          "internalType": "uint256",
          "name": "",
          "type": "uint256"
        }
      ],
      "stateMutability": "view",
      "type": "function",
      "constant": true
    },
    {
      "inputs": [],
      "name": "name",
      "outputs": [
        {
          "internalType": "string",
          "name": "",
          "type": "string"
        }
      ],
      "stateMutability": "view",
      "type": "function",
      "constant": true
    },
    {
      "inputs": [],
      "name": "rewardRate",
      "outputs": [
        {
          "internalType": "uint256",
          "name": "",
          "type": "uint256"
        }
      ],
      "stateMutability": "view",
      "type": "function",
      "constant": true
    },
    {
      "inputs": [
        {
          "internalType": "address",
          "name": "",
          "type": "address"
        }
      ],
      "name": "stakingBalance",
      "outputs": [
        {
          "internalType": "uint256",
          "name": "",
          "type": "uint256"
        }
      ],
      "stateMutability": "view",
      "type": "function",
      "constant": true
    },
    {
      "inputs": [
        {
          "internalType": "uint256",
          "name": "_amount",
          "type": "uint256"
        }
      ],
      "name": "stakeTokens",
      "outputs": [],
      "stateMutability": "nonpayable",
      "type": "function"
    },
    {
      "inputs": [],
      "name": "checkReward",
      "outputs": [
        {
          "internalType": "uint256",
          "name": "",
          "type": "uint256"
        }
      ],
      "stateMutability": "view",
      "type": "function",
      "constant": true
    },
    {
      "inputs": [],
      "name": "issueTokens",
      "outputs": [],
      "stateMutability": "nonpayable",
      "type": "function"
    },
    {
      "inputs": [
        {
          "internalType": "uint256",
          "name": "_amount",
          "type": "uint256"
        }
      ],
      "name": "unstakeTokens",
      "outputs": [],
      "stateMutability": "nonpayable",
      "type": "function"
    }
  ],
  "bytecode": "0x60806040526040518060400160405280600f81526020017f4461707020546f6b656e204661726d0000000000000000000000000000000000815250600090805190602001906200005192919062000149565b50620000716231599164174876e8006200013160201b6200084d1760201c565b6005553480156200008157600080fd5b50604051620011a8380380620011a88339818101604052810190620000a7919062000210565b81600160006101000a81548173ffffffffffffffffffffffffffffffffffffffff021916908373ffffffffffffffffffffffffffffffffffffffff16021790555080600260006101000a81548173ffffffffffffffffffffffffffffffffffffffff021916908373ffffffffffffffffffffffffffffffffffffffff16021790555050506200039e565b6000818362000141919062000251565b905092915050565b8280546200015790620002f0565b90600052602060002090601f0160209004810192826200017b5760008555620001c7565b82601f106200019657805160ff1916838001178555620001c7565b82800160010185558215620001c7579182015b82811115620001c6578251825591602001919060010190620001a9565b5b509050620001d69190620001da565b5090565b5b80821115620001f5576000816000905550600101620001db565b5090565b6000815190506200020a8162000384565b92915050565b600080604083850312156200022457600080fd5b60006200023485828601620001f9565b92505060206200024785828601620001f9565b9150509250929050565b60006200025e82620002e6565b91506200026b83620002e6565b9250817fffffffffffffffffffffffffffffffffffffffffffffffffffffffffffffffff0483118215151615620002a757620002a662000326565b5b828202905092915050565b6000620002bf82620002c6565b9050919050565b600073ffffffffffffffffffffffffffffffffffffffff82169050919050565b6000819050919050565b600060028204905060018216806200030957607f821691505b6020821081141562000320576200031f62000355565b5b50919050565b7f4e487b7100000000000000000000000000000000000000000000000000000000600052601160045260246000fd5b7f4e487b7100000000000000000000000000000000000000000000000000000000600052602260045260246000fd5b6200038f81620002b2565b81146200039b57600080fd5b50565b610dfa80620003ae6000396000f3fe608060405234801561001057600080fd5b506004361061009e5760003560e01c80637547c7a3116100665780637547c7a3146101355780637b0a47ee14610151578063be22f5461461016f578063c4b24a461461018d578063cb03fb1e146101ab5761009e565b806306fdde03146100a357806345bc78ab146100c15780635eb186f8146100f1578063608e4dd01461010f57806360ab58521461012b575b600080fd5b6100ab6101db565b6040516100b89190610a70565b60405180910390f35b6100db60048036038101906100d691906108ce565b610269565b6040516100e89190610ad2565b60405180910390f35b6100f9610281565b6040516101069190610a55565b60405180910390f35b61012960048036038101906101249190610920565b6102a7565b005b610133610437565b005b61014f600480360381019061014a9190610920565b6105db565b005b6101596107a3565b6040516101669190610ad2565b60405180910390f35b6101776107a9565b6040516101849190610a55565b60405180910390f35b6101956107cf565b6040516101a29190610ad2565b60405180910390f35b6101c560048036038101906101c091906108ce565b610835565b6040516101d29190610ad2565b60405180910390f35b600080546101e890610c8c565b80601f016020809104026020016040519081016040528092919081815260200182805461021490610c8c565b80156102615780601f1061023657610100808354040283529160200191610261565b820191906000526020600020905b81548152906001019060200180831161024457829003601f168201915b505050505081565b60036020528060005260406000206000915090505481565b600160009054906101000a900473ffffffffffffffffffffffffffffffffffffffff1681565b6000819050600081116102ef576040517f08c379a00000000000000000000000000000000000000000000000000000000081526004016102e690610ab2565b60405180910390fd5b600260009054906101000a900473ffffffffffffffffffffffffffffffffffffffff1673ffffffffffffffffffffffffffffffffffffffff1663a9059cbb33836040518363ffffffff1660e01b815260040161034c929190610a2c565b602060405180830381600087803b15801561036657600080fd5b505af115801561037a573d6000803e3d6000fd5b505050506040513d601f19601f8201168201806040525081019061039e91906108f7565b50600081600360003373ffffffffffffffffffffffffffffffffffffffff1673ffffffffffffffffffffffffffffffffffffffff168152602001908152602001600020546103ec9190610bb9565b905080600360003373ffffffffffffffffffffffffffffffffffffffff1673ffffffffffffffffffffffffffffffffffffffff16815260200190815260200160002081905550505050565b6000600360003373ffffffffffffffffffffffffffffffffffffffff1673ffffffffffffffffffffffffffffffffffffffff16815260200190815260200160002054905060006104c642600460003373ffffffffffffffffffffffffffffffffffffffff1673ffffffffffffffffffffffffffffffffffffffff16815260200190815260200160002054610863565b905060006104d68260055461084d565b9050600083111561059257600160009054906101000a900473ffffffffffffffffffffffffffffffffffffffff1673ffffffffffffffffffffffffffffffffffffffff1663a9059cbb33836040518363ffffffff1660e01b815260040161053e929190610a2c565b602060405180830381600087803b15801561055857600080fd5b505af115801561056c573d6000803e3d6000fd5b505050506040513d601f19601f8201168201806040525081019061059091906108f7565b505b42600460003373ffffffffffffffffffffffffffffffffffffffff1673ffffffffffffffffffffffffffffffffffffffff16815260200190815260200160002081905550505050565b6000811161061e576040517f08c379a000000000000000000000000000000000000000000000000000000000815260040161061590610a92565b60405180910390fd5b600260009054906101000a900473ffffffffffffffffffffffffffffffffffffffff1673ffffffffffffffffffffffffffffffffffffffff166323b872dd3330846040518463ffffffff1660e01b815260040161067d939291906109f5565b602060405180830381600087803b15801561069757600080fd5b505af11580156106ab573d6000803e3d6000fd5b505050506040513d601f19601f820116820180604052508101906106cf91906108f7565b50610719600360003373ffffffffffffffffffffffffffffffffffffffff1673ffffffffffffffffffffffffffffffffffffffff1681526020019081526020016000205482610879565b600360003373ffffffffffffffffffffffffffffffffffffffff1673ffffffffffffffffffffffffffffffffffffffff1681526020019081526020016000208190555042600460003373ffffffffffffffffffffffffffffffffffffffff1673ffffffffffffffffffffffffffffffffffffffff1681526020019081526020016000208190555050565b60055481565b600260009054906101000a900473ffffffffffffffffffffffffffffffffffffffff1681565b60008061081b42600460003373ffffffffffffffffffffffffffffffffffffffff1673ffffffffffffffffffffffffffffffffffffffff16815260200190815260200160002054610863565b9050600061082b8260055461084d565b9050809250505090565b60046020528060005260406000206000915090505481565b6000818361085b9190610b5f565b905092915050565b600081836108719190610bb9565b905092915050565b600081836108879190610b09565b905092915050565b60008135905061089e81610d7f565b92915050565b6000815190506108b381610d96565b92915050565b6000813590506108c881610dad565b92915050565b6000602082840312156108e057600080fd5b60006108ee8482850161088f565b91505092915050565b60006020828403121561090957600080fd5b6000610917848285016108a4565b91505092915050565b60006020828403121561093257600080fd5b6000610940848285016108b9565b91505092915050565b61095281610bed565b82525050565b61096181610c35565b82525050565b600061097282610aed565b61097c8185610af8565b935061098c818560208601610c59565b61099581610d1c565b840191505092915050565b60006109ad601383610af8565b91506109b882610d2d565b602082019050919050565b60006109d0601b83610af8565b91506109db82610d56565b602082019050919050565b6109ef81610c2b565b82525050565b6000606082019050610a0a6000830186610949565b610a176020830185610949565b610a2460408301846109e6565b949350505050565b6000604082019050610a416000830185610949565b610a4e60208301846109e6565b9392505050565b6000602082019050610a6a6000830184610958565b92915050565b60006020820190508181036000830152610a8a8184610967565b905092915050565b60006020820190508181036000830152610aab816109a0565b9050919050565b60006020820190508181036000830152610acb816109c3565b9050919050565b6000602082019050610ae760008301846109e6565b92915050565b600081519050919050565b600082825260208201905092915050565b6000610b1482610c2b565b9150610b1f83610c2b565b9250827fffffffffffffffffffffffffffffffffffffffffffffffffffffffffffffffff03821115610b5457610b53610cbe565b5b828201905092915050565b6000610b6a82610c2b565b9150610b7583610c2b565b9250817fffffffffffffffffffffffffffffffffffffffffffffffffffffffffffffffff0483118215151615610bae57610bad610cbe565b5b828202905092915050565b6000610bc482610c2b565b9150610bcf83610c2b565b925082821015610be257610be1610cbe565b5b828203905092915050565b6000610bf882610c0b565b9050919050565b60008115159050919050565b600073ffffffffffffffffffffffffffffffffffffffff82169050919050565b6000819050919050565b6000610c4082610c47565b9050919050565b6000610c5282610c0b565b9050919050565b60005b83811015610c77578082015181840152602081019050610c5c565b83811115610c86576000848401525b50505050565b60006002820490506001821680610ca457607f821691505b60208210811415610cb857610cb7610ced565b5b50919050565b7f4e487b7100000000000000000000000000000000000000000000000000000000600052601160045260246000fd5b7f4e487b7100000000000000000000000000000000000000000000000000000000600052602260045260246000fd5b6000601f19601f8301169050919050565b7f616d6f756e742063616e206e6f74206265203000000000000000000000000000600082015250565b7f7374616b696e672062616c616e63652063616e6e6f7420626520300000000000600082015250565b610d8881610bed565b8114610d9357600080fd5b50565b610d9f81610bff565b8114610daa57600080fd5b50565b610db681610c2b565b8114610dc157600080fd5b5056fea264697066735822122058abda3a8373b36a6cdccd4c06c020e67b486d39bb6ba3711c0e7c0d05dfdd7e64736f6c63430008040033",
  "immutableReferences": {},
  "source": "// SPDX-License-Identifier: MIT\r\n\r\npragma solidity ^0.8.4;\r\n\r\nimport \"./Dapptoken.sol\";\r\nimport \"./Daitoken.sol\";\r\nimport \"@openzeppelin/contracts/token/ERC20/ERC20.sol\";\r\nimport \"@openzeppelin/contracts/utils/math/SafeMath.sol\";\r\n\r\n\r\ncontract TokenFarm {\r\n    string public name = \"Dapp Token Farm\";\r\n    ERC20 public dappToken;\r\n    ERC20 public daiToken;\r\n\r\n    mapping(address => uint256) public stakingBalance;\r\n    mapping (address => uint256) public lastUpdate;\r\n\r\n    uint256 public rewardRate = SafeMath.mul(3234193,1e11);\r\n\r\n    constructor(address _dappToken, address _daiToken) {\r\n        dappToken = ERC20(_dappToken);\r\n        daiToken = ERC20(_daiToken);\r\n    }\r\n\r\n    //Stake Tokens\r\n    function stakeTokens(uint256 _amount) public {\r\n        require(_amount > 0, \"amount can not be 0\");\r\n        daiToken.transferFrom(msg.sender, address(this), _amount);\r\n        stakingBalance[msg.sender] = SafeMath.add(stakingBalance[msg.sender], _amount);\r\n        lastUpdate[msg.sender] = block.timestamp;\r\n    }\r\n\r\n    //Check Reward\r\n    function checkReward() public view returns (uint256) {\r\n        uint256 update = SafeMath.sub(block.timestamp, lastUpdate[msg.sender]);\r\n        uint256 reward = SafeMath.mul(update, rewardRate);\r\n        return reward;\r\n    }\r\n\r\n    //Issuing Token\r\n    function issueTokens() public {\r\n        uint256 balance = stakingBalance[msg.sender];\r\n        uint256 update = SafeMath.sub(block.timestamp, lastUpdate[msg.sender]);\r\n        uint256 reward = SafeMath.mul(update, rewardRate);\r\n        if (balance > 0) {\r\n                dappToken.transfer(msg.sender,reward);\r\n            }\r\n        lastUpdate[msg.sender] = block.timestamp;\r\n    }\r\n\r\n    //Unstake with amount\r\n    function unstakeTokens(uint256 _amount) public{\r\n        uint256 balance = _amount;\r\n        require(balance > 0, \"staking balance cannot be 0\");\r\n        daiToken.transfer(msg.sender, balance);\r\n        uint256 remain = stakingBalance[msg.sender] - balance;\r\n        stakingBalance[msg.sender] = remain;\r\n    }\r\n}\r\n",
  "sourcePath": "C:/Users/PUNNAWICHSILPKITCHAR/Desktop/dev-mimic/mimic-farm-v2/contracts/TokenFarm.sol",
  "compiler": {
    "name": "solc",
    "version": "0.8.4+commit.c7e474f2.Emscripten.clang"
  },
  "schemaVersion": "3.2.3",
  "updatedAt": "2022-03-14T15:14:38.143Z",
  "networkType": "ethereum",
  "devdoc": {
    "kind": "dev",
    "methods": {},
    "version": 1
  },
  "userdoc": {
    "kind": "user",
    "methods": {},
    "version": 1
  }
}