{
  "contractName": "TokenFarm",
  "abi": [
    {
      "inputs": [
        {
          "internalType": "address",
          "name": "_dappToken",
          "type": "address"
        },
        {
          "internalType": "address",
          "name": "_daiToken",
          "type": "address"
        }
      ],
      "stateMutability": "nonpayable",
      "type": "constructor"
    },
    {
      "inputs": [],
      "name": "daiToken",
      "outputs": [
        {
          "internalType": "contract ERC20",
          "name": "",
          "type": "address"
        }
      ],
      "stateMutability": "view",
      "type": "function",
      "constant": true
    },
    {
      "inputs": [],
      "name": "dappToken",
      "outputs": [
        {
          "internalType": "contract ERC20",
          "name": "",
          "type": "address"
        }
      ],
      "stateMutability": "view",
      "type": "function",
      "constant": true
    },
    {
      "inputs": [
        {
          "internalType": "address",
          "name": "",
          "type": "address"
        }
      ],
      "name": "hasStaked",
      "outputs": [
        {
          "internalType": "bool",
          "name": "",
          "type": "bool"
        }
      ],
      "stateMutability": "view",
      "type": "function",
      "constant": true
    },
    {
      "inputs": [
        {
          "internalType": "address",
          "name": "",
          "type": "address"
        }
      ],
      "name": "isStaking",
      "outputs": [
        {
          "internalType": "bool",
          "name": "",
          "type": "bool"
        }
      ],
      "stateMutability": "view",
      "type": "function",
      "constant": true
    },
    {
      "inputs": [],
      "name": "lastUpdate",
      "outputs": [
        {
          "internalType": "uint256",
          "name": "",
          "type": "uint256"
        }
      ],
      "stateMutability": "view",
      "type": "function",
      "constant": true
    },
    {
      "inputs": [],
      "name": "name",
      "outputs": [
        {
          "internalType": "string",
          "name": "",
          "type": "string"
        }
      ],
      "stateMutability": "view",
      "type": "function",
      "constant": true
    },
    {
      "inputs": [],
      "name": "owner",
      "outputs": [
        {
          "internalType": "address",
          "name": "",
          "type": "address"
        }
      ],
      "stateMutability": "view",
      "type": "function",
      "constant": true
    },
    {
      "inputs": [],
      "name": "rewardRate",
      "outputs": [
        {
          "internalType": "uint256",
          "name": "",
          "type": "uint256"
        }
      ],
      "stateMutability": "view",
      "type": "function",
      "constant": true
    },
    {
      "inputs": [],
      "name": "rewardStore",
      "outputs": [
        {
          "internalType": "uint256",
          "name": "",
          "type": "uint256"
        }
      ],
      "stateMutability": "view",
      "type": "function",
      "constant": true
    },
    {
      "inputs": [
        {
          "internalType": "address",
          "name": "",
          "type": "address"
        }
      ],
      "name": "rewards",
      "outputs": [
        {
          "internalType": "uint256",
          "name": "",
          "type": "uint256"
        }
      ],
      "stateMutability": "view",
      "type": "function",
      "constant": true
    },
    {
      "inputs": [
        {
          "internalType": "uint256",
          "name": "",
          "type": "uint256"
        }
      ],
      "name": "stakers",
      "outputs": [
        {
          "internalType": "address",
          "name": "",
          "type": "address"
        }
      ],
      "stateMutability": "view",
      "type": "function",
      "constant": true
    },
    {
      "inputs": [
        {
          "internalType": "address",
          "name": "",
          "type": "address"
        }
      ],
      "name": "stakingBalance",
      "outputs": [
        {
          "internalType": "uint256",
          "name": "",
          "type": "uint256"
        }
      ],
      "stateMutability": "view",
      "type": "function",
      "constant": true
    },
    {
      "inputs": [
        {
          "internalType": "address",
          "name": "",
          "type": "address"
        }
      ],
      "name": "userRewardPaid",
      "outputs": [
        {
          "internalType": "uint256",
          "name": "",
          "type": "uint256"
        }
      ],
      "stateMutability": "view",
      "type": "function",
      "constant": true
    },
    {
      "inputs": [
        {
          "internalType": "uint256",
          "name": "_amount",
          "type": "uint256"
        }
      ],
      "name": "stakeTokens",
      "outputs": [],
      "stateMutability": "nonpayable",
      "type": "function"
    },
    {
      "inputs": [],
      "name": "rewardsPerToken",
      "outputs": [
        {
          "internalType": "uint256",
          "name": "",
          "type": "uint256"
        }
      ],
      "stateMutability": "view",
      "type": "function",
      "constant": true
    },
    {
      "inputs": [
        {
          "internalType": "address",
          "name": "account",
          "type": "address"
        }
      ],
      "name": "earned",
      "outputs": [
        {
          "internalType": "uint256",
          "name": "",
          "type": "uint256"
        }
      ],
      "stateMutability": "view",
      "type": "function",
      "constant": true
    },
    {
      "inputs": [
        {
          "internalType": "address",
          "name": "account",
          "type": "address"
        }
      ],
      "name": "issueTokens",
      "outputs": [],
      "stateMutability": "nonpayable",
      "type": "function"
    },
    {
      "inputs": [
        {
          "internalType": "uint256",
          "name": "_amount",
          "type": "uint256"
        }
      ],
      "name": "unstakeTokens",
      "outputs": [],
      "stateMutability": "nonpayable",
      "type": "function"
    }
  ],
  "bytecode": "0x60806040526040518060400160405280600f81526020017f4461707020546f6b656e204661726d0000000000000000000000000000000000815250600090805190602001906200005192919062000159565b506064600a5542600b553480156200006857600080fd5b50604051620018083803806200180883398181016040528101906200008e919062000220565b81600260006101000a81548173ffffffffffffffffffffffffffffffffffffffff021916908373ffffffffffffffffffffffffffffffffffffffff16021790555080600360006101000a81548173ffffffffffffffffffffffffffffffffffffffff021916908373ffffffffffffffffffffffffffffffffffffffff16021790555033600160006101000a81548173ffffffffffffffffffffffffffffffffffffffff021916908373ffffffffffffffffffffffffffffffffffffffff160217905550505062000314565b828054620001679062000295565b90600052602060002090601f0160209004810192826200018b5760008555620001d7565b82601f10620001a657805160ff1916838001178555620001d7565b82800160010185558215620001d7579182015b82811115620001d6578251825591602001919060010190620001b9565b5b509050620001e69190620001ea565b5090565b5b8082111562000205576000816000905550600101620001eb565b5090565b6000815190506200021a81620002fa565b92915050565b600080604083850312156200023457600080fd5b6000620002448582860162000209565b9250506020620002578582860162000209565b9150509250929050565b60006200026e8262000275565b9050919050565b600073ffffffffffffffffffffffffffffffffffffffff82169050919050565b60006002820490506001821680620002ae57607f821691505b60208210811415620002c557620002c4620002cb565b5b50919050565b7f4e487b7100000000000000000000000000000000000000000000000000000000600052602260045260246000fd5b620003058162000261565b81146200031157600080fd5b50565b6114e480620003246000396000f3fe608060405234801561001057600080fd5b50600436106101155760003560e01c806370641a36116100a2578063ba14f26a11610071578063ba14f26a146102e2578063be22f54614610312578063c046371114610330578063c93c8f341461034e578063fd5e6dd11461037e57610115565b806370641a361461026c5780637547c7a31461028a5780637b0a47ee146102a65780638da5cb5b146102c457610115565b80633ff54c71116100e95780633ff54c71146101b657806345bc78ab146101d25780635eb186f814610202578063608e4dd0146102205780636f49712b1461023c57610115565b80628cc2621461011a57806306fdde031461014a5780630700037d146101685780633dc164d214610198575b600080fd5b610134600480360381019061012f9190610f13565b6103ae565b604051610141919061115c565b60405180910390f35b6101526104af565b60405161015f91906110fa565b60405180910390f35b610182600480360381019061017d9190610f13565b61053d565b60405161018f919061115c565b60405180910390f35b6101a0610555565b6040516101ad919061115c565b60405180910390f35b6101d060048036038101906101cb9190610f13565b61055b565b005b6101ec60048036038101906101e79190610f13565b610741565b6040516101f9919061115c565b60405180910390f35b61020a610759565b60405161021791906110df565b60405180910390f35b61023a60048036038101906102359190610f65565b61077f565b005b61025660048036038101906102519190610f13565b610a10565b60405161026391906110c4565b60405180910390f35b610274610a30565b604051610281919061115c565b60405180910390f35b6102a4600480360381019061029f9190610f65565b610a71565b005b6102ae610e05565b6040516102bb919061115c565b60405180910390f35b6102cc610e0b565b6040516102d99190611049565b60405180910390f35b6102fc60048036038101906102f79190610f13565b610e31565b604051610309919061115c565b60405180910390f35b61031a610e49565b60405161032791906110df565b60405180910390f35b610338610e6f565b604051610345919061115c565b60405180910390f35b61036860048036038101906103639190610f13565b610e75565b60405161037591906110c4565b60405180910390f35b61039860048036038101906103939190610f65565b610e95565b6040516103a59190611049565b60405180910390f35b6000600960008373ffffffffffffffffffffffffffffffffffffffff1673ffffffffffffffffffffffffffffffffffffffff16815260200190815260200160002054662386f26fc10000600860008573ffffffffffffffffffffffffffffffffffffffff1673ffffffffffffffffffffffffffffffffffffffff1681526020019081526020016000205461044291906111e9565b61044a610a30565b600560008673ffffffffffffffffffffffffffffffffffffffff1673ffffffffffffffffffffffffffffffffffffffff16815260200190815260200160002054610494919061121a565b61049e9190611274565b6104a89190611193565b9050919050565b600080546104bc90611347565b80601f01602080910402602001604051908101604052809291908181526020018280546104e890611347565b80156105355780601f1061050a57610100808354040283529160200191610535565b820191906000526020600020905b81548152906001019060200180831161051857829003601f168201915b505050505081565b60096020528060005260406000206000915090505481565b600c5481565b33610564610a30565b600c8190555042600b8190555061057a816103ae565b600960008373ffffffffffffffffffffffffffffffffffffffff1673ffffffffffffffffffffffffffffffffffffffff16815260200190815260200160002081905550600c54600860008373ffffffffffffffffffffffffffffffffffffffff1673ffffffffffffffffffffffffffffffffffffffff168152602001908152602001600020819055506000600960008473ffffffffffffffffffffffffffffffffffffffff1673ffffffffffffffffffffffffffffffffffffffff1681526020019081526020016000205490506000600960008573ffffffffffffffffffffffffffffffffffffffff1673ffffffffffffffffffffffffffffffffffffffff16815260200190815260200160002081905550600260009054906101000a900473ffffffffffffffffffffffffffffffffffffffff1673ffffffffffffffffffffffffffffffffffffffff1663a9059cbb84836040518363ffffffff1660e01b81526004016106e992919061109b565b602060405180830381600087803b15801561070357600080fd5b505af1158015610717573d6000803e3d6000fd5b505050506040513d601f19601f8201168201806040525081019061073b9190610f3c565b50505050565b60056020528060005260406000206000915090505481565b600260009054906101000a900473ffffffffffffffffffffffffffffffffffffffff1681565b33610788610a30565b600c8190555042600b8190555061079e816103ae565b600960008373ffffffffffffffffffffffffffffffffffffffff1673ffffffffffffffffffffffffffffffffffffffff16815260200190815260200160002081905550600c54600860008373ffffffffffffffffffffffffffffffffffffffff1673ffffffffffffffffffffffffffffffffffffffff1681526020019081526020016000208190555060008290506000811161086f576040517f08c379a00000000000000000000000000000000000000000000000000000000081526004016108669061111c565b60405180910390fd5b600360009054906101000a900473ffffffffffffffffffffffffffffffffffffffff1673ffffffffffffffffffffffffffffffffffffffff1663a9059cbb33836040518363ffffffff1660e01b81526004016108cc92919061109b565b602060405180830381600087803b1580156108e657600080fd5b505af11580156108fa573d6000803e3d6000fd5b505050506040513d601f19601f8201168201806040525081019061091e9190610f3c565b50600081600560003373ffffffffffffffffffffffffffffffffffffffff1673ffffffffffffffffffffffffffffffffffffffff1681526020019081526020016000205461096c9190611274565b905080600560003373ffffffffffffffffffffffffffffffffffffffff1673ffffffffffffffffffffffffffffffffffffffff168152602001908152602001600020819055506000600760003373ffffffffffffffffffffffffffffffffffffffff1673ffffffffffffffffffffffffffffffffffffffff16815260200190815260200160002060006101000a81548160ff02191690831515021790555050505050565b60076020528060005260406000206000915054906101000a900460ff1681565b6000662386f26fc10000600a54600b5442610a4b9190611274565b610a55919061121a565b610a5f919061121a565b600c54610a6c9190611193565b905090565b33610a7a610a30565b600c8190555042600b81905550610a90816103ae565b600960008373ffffffffffffffffffffffffffffffffffffffff1673ffffffffffffffffffffffffffffffffffffffff16815260200190815260200160002081905550600c54600860008373ffffffffffffffffffffffffffffffffffffffff1673ffffffffffffffffffffffffffffffffffffffff1681526020019081526020016000208190555060008211610b5c576040517f08c379a0000000000000000000000000000000000000000000000000000000008152600401610b539061113c565b60405180910390fd5b600360009054906101000a900473ffffffffffffffffffffffffffffffffffffffff1673ffffffffffffffffffffffffffffffffffffffff166323b872dd3330856040518463ffffffff1660e01b8152600401610bbb93929190611064565b602060405180830381600087803b158015610bd557600080fd5b505af1158015610be9573d6000803e3d6000fd5b505050506040513d601f19601f82011682018060405250810190610c0d9190610f3c565b5081600560003373ffffffffffffffffffffffffffffffffffffffff1673ffffffffffffffffffffffffffffffffffffffff16815260200190815260200160002054610c599190611193565b600560003373ffffffffffffffffffffffffffffffffffffffff1673ffffffffffffffffffffffffffffffffffffffff16815260200190815260200160002081905550600660003373ffffffffffffffffffffffffffffffffffffffff1673ffffffffffffffffffffffffffffffffffffffff16815260200190815260200160002060009054906101000a900460ff16610d51576004339080600181540180825580915050600190039060005260206000200160009091909190916101000a81548173ffffffffffffffffffffffffffffffffffffffff021916908373ffffffffffffffffffffffffffffffffffffffff1602179055505b6001600760003373ffffffffffffffffffffffffffffffffffffffff1673ffffffffffffffffffffffffffffffffffffffff16815260200190815260200160002060006101000a81548160ff0219169083151502179055506001600660003373ffffffffffffffffffffffffffffffffffffffff1673ffffffffffffffffffffffffffffffffffffffff16815260200190815260200160002060006101000a81548160ff0219169083151502179055505050565b600a5481565b600160009054906101000a900473ffffffffffffffffffffffffffffffffffffffff1681565b60086020528060005260406000206000915090505481565b600360009054906101000a900473ffffffffffffffffffffffffffffffffffffffff1681565b600b5481565b60066020528060005260406000206000915054906101000a900460ff1681565b60048181548110610ea557600080fd5b906000526020600020016000915054906101000a900473ffffffffffffffffffffffffffffffffffffffff1681565b600081359050610ee381611469565b92915050565b600081519050610ef881611480565b92915050565b600081359050610f0d81611497565b92915050565b600060208284031215610f2557600080fd5b6000610f3384828501610ed4565b91505092915050565b600060208284031215610f4e57600080fd5b6000610f5c84828501610ee9565b91505092915050565b600060208284031215610f7757600080fd5b6000610f8584828501610efe565b91505092915050565b610f97816112a8565b82525050565b610fa6816112ba565b82525050565b610fb5816112f0565b82525050565b6000610fc682611177565b610fd08185611182565b9350610fe0818560208601611314565b610fe981611406565b840191505092915050565b6000611001601b83611182565b915061100c82611417565b602082019050919050565b6000611024600f83611182565b915061102f82611440565b602082019050919050565b611043816112e6565b82525050565b600060208201905061105e6000830184610f8e565b92915050565b60006060820190506110796000830186610f8e565b6110866020830185610f8e565b611093604083018461103a565b949350505050565b60006040820190506110b06000830185610f8e565b6110bd602083018461103a565b9392505050565b60006020820190506110d96000830184610f9d565b92915050565b60006020820190506110f46000830184610fac565b92915050565b600060208201905081810360008301526111148184610fbb565b905092915050565b6000602082019050818103600083015261113581610ff4565b9050919050565b6000602082019050818103600083015261115581611017565b9050919050565b6000602082019050611171600083018461103a565b92915050565b600081519050919050565b600082825260208201905092915050565b600061119e826112e6565b91506111a9836112e6565b9250827fffffffffffffffffffffffffffffffffffffffffffffffffffffffffffffffff038211156111de576111dd611379565b5b828201905092915050565b60006111f4826112e6565b91506111ff836112e6565b92508261120f5761120e6113a8565b5b828204905092915050565b6000611225826112e6565b9150611230836112e6565b9250817fffffffffffffffffffffffffffffffffffffffffffffffffffffffffffffffff048311821515161561126957611268611379565b5b828202905092915050565b600061127f826112e6565b915061128a836112e6565b92508282101561129d5761129c611379565b5b828203905092915050565b60006112b3826112c6565b9050919050565b60008115159050919050565b600073ffffffffffffffffffffffffffffffffffffffff82169050919050565b6000819050919050565b60006112fb82611302565b9050919050565b600061130d826112c6565b9050919050565b60005b83811015611332578082015181840152602081019050611317565b83811115611341576000848401525b50505050565b6000600282049050600182168061135f57607f821691505b60208210811415611373576113726113d7565b5b50919050565b7f4e487b7100000000000000000000000000000000000000000000000000000000600052601160045260246000fd5b7f4e487b7100000000000000000000000000000000000000000000000000000000600052601260045260246000fd5b7f4e487b7100000000000000000000000000000000000000000000000000000000600052602260045260246000fd5b6000601f19601f8301169050919050565b7f7374616b696e672062616c616e63652063616e6e6f7420626520300000000000600082015250565b7f616d6f756e742063616e20626520300000000000000000000000000000000000600082015250565b611472816112a8565b811461147d57600080fd5b50565b611489816112ba565b811461149457600080fd5b50565b6114a0816112e6565b81146114ab57600080fd5b5056fea2646970667358221220bab25481b46fa5d495049a753f676747386f1bc183ea867c5228cba8a04ab4a364736f6c63430008040033",
  "immutableReferences": {},
  "source": "// SPDX-License-Identifier: MIT\r\n\r\npragma solidity ^0.8.4;\r\n\r\nimport \"./Dapptoken.sol\";\r\nimport \"./Daitoken.sol\";\r\nimport \"@openzeppelin/contracts/token/ERC20/ERC20.sol\";\r\n\r\ncontract TokenFarm {\r\n    string public name = \"Dapp Token Farm\";\r\n    address public owner;\r\n    ERC20 public dappToken;\r\n    ERC20 public daiToken;\r\n\r\n    address[] public stakers;\r\n    mapping(address => uint256) public stakingBalance;\r\n    mapping(address => bool) public hasStaked;\r\n    mapping(address => bool) public isStaking;\r\n    mapping(address => uint256) public userRewardPaid;\r\n    mapping(address => uint256) public rewards;\r\n\r\n    uint256 public rewardRate = 100;\r\n    uint256 public lastUpdate = block.timestamp;\r\n    uint256 public rewardStore;\r\n\r\n    constructor(address _dappToken, address _daiToken){\r\n        dappToken = ERC20(_dappToken);\r\n        daiToken = ERC20(_daiToken);\r\n        owner = msg.sender;\r\n    }\r\n\r\n    //Stake Token\r\n    function stakeTokens(uint256 _amount) external updateReward(msg.sender) {\r\n        require(_amount > 0, \"amount can be 0\");\r\n        // Dai -> Token farm\r\n        daiToken.transferFrom(msg.sender, address(this), _amount);\r\n        //Check Balance\r\n        stakingBalance[msg.sender] = stakingBalance[msg.sender] + _amount;\r\n        //Add Stakers to staker array\r\n        if (!hasStaked[msg.sender]) {\r\n            stakers.push(msg.sender);\r\n        }\r\n        // Update status\r\n        isStaking[msg.sender] = true;\r\n        hasStaked[msg.sender] = true;\r\n    }\r\n\r\n    function rewardsPerToken() public view returns (uint256){\r\n      return rewardStore+(((block.timestamp - lastUpdate)*rewardRate* 1e16));\r\n    }\r\n    function earned(address account) public view returns(uint256){\r\n        return (stakingBalance[account]*rewardsPerToken() - userRewardPaid[account]/1e16)+rewards[account];\r\n    }\r\n    modifier updateReward(address account) {\r\n        rewardStore = rewardsPerToken();\r\n        lastUpdate = block.timestamp;\r\n        rewards[account]=earned(account);\r\n        userRewardPaid[account]=rewardStore;\r\n        _;\r\n    }\r\n    //Issuing Token\r\n    function issueTokens(address account) external updateReward(msg.sender) {\r\n        uint256 reward = rewards[account];\r\n        rewards[account]=0;\r\n        dappToken.transfer(account,reward);\r\n    }\r\n\r\n    //Unstake with amount\r\n    function unstakeTokens(uint256 _amount) external updateReward(msg.sender) {\r\n        //Fetching staking balance\r\n        uint256 balance = _amount;\r\n\r\n        //Balance must > 0\r\n        require(balance > 0, \"staking balance cannot be 0\");\r\n\r\n        //Transfer mDai from token farm to investors\r\n        daiToken.transfer(msg.sender, balance);\r\n\r\n        uint256 remain = stakingBalance[msg.sender] - balance;\r\n        //Reset Staking Balance\r\n        stakingBalance[msg.sender] = remain;\r\n\r\n        //Update Staking status\r\n        isStaking[msg.sender] = false;\r\n    }\r\n}\r\n",
  "sourcePath": "C:/Users/PUNNAWICHSILPKITCHAR/Desktop/dev-mimic/mimic-farm-v2/contracts/TokenFarm.sol",
  "compiler": {
    "name": "solc",
    "version": "0.8.4+commit.c7e474f2.Emscripten.clang"
  },
  "schemaVersion": "3.2.3",
  "updatedAt": "2022-03-10T17:54:14.073Z",
  "networkType": "ethereum",
  "devdoc": {
    "kind": "dev",
    "methods": {},
    "version": 1
  },
  "userdoc": {
    "kind": "user",
    "methods": {},
    "version": 1
  }
}