{
  "contractName": "TokenFarm",
  "abi": [
    {
      "inputs": [
        {
          "internalType": "address",
          "name": "_dappToken",
          "type": "address"
        },
        {
          "internalType": "address",
          "name": "_daiToken",
          "type": "address"
        }
      ],
      "stateMutability": "nonpayable",
      "type": "constructor"
    },
    {
      "inputs": [],
      "name": "daiToken",
      "outputs": [
        {
          "internalType": "contract ERC20",
          "name": "",
          "type": "address"
        }
      ],
      "stateMutability": "view",
      "type": "function",
      "constant": true
    },
    {
      "inputs": [],
      "name": "dappToken",
      "outputs": [
        {
          "internalType": "contract ERC20",
          "name": "",
          "type": "address"
        }
      ],
      "stateMutability": "view",
      "type": "function",
      "constant": true
    },
    {
      "inputs": [
        {
          "internalType": "address",
          "name": "",
          "type": "address"
        }
      ],
      "name": "hasStaked",
      "outputs": [
        {
          "internalType": "bool",
          "name": "",
          "type": "bool"
        }
      ],
      "stateMutability": "view",
      "type": "function",
      "constant": true
    },
    {
      "inputs": [
        {
          "internalType": "address",
          "name": "",
          "type": "address"
        }
      ],
      "name": "isStaking",
      "outputs": [
        {
          "internalType": "bool",
          "name": "",
          "type": "bool"
        }
      ],
      "stateMutability": "view",
      "type": "function",
      "constant": true
    },
    {
      "inputs": [],
      "name": "name",
      "outputs": [
        {
          "internalType": "string",
          "name": "",
          "type": "string"
        }
      ],
      "stateMutability": "view",
      "type": "function",
      "constant": true
    },
    {
      "inputs": [],
      "name": "owner",
      "outputs": [
        {
          "internalType": "address",
          "name": "",
          "type": "address"
        }
      ],
      "stateMutability": "view",
      "type": "function",
      "constant": true
    },
    {
      "inputs": [
        {
          "internalType": "uint256",
          "name": "",
          "type": "uint256"
        }
      ],
      "name": "stakers",
      "outputs": [
        {
          "internalType": "address",
          "name": "",
          "type": "address"
        }
      ],
      "stateMutability": "view",
      "type": "function",
      "constant": true
    },
    {
      "inputs": [
        {
          "internalType": "address",
          "name": "",
          "type": "address"
        }
      ],
      "name": "stakingBalance",
      "outputs": [
        {
          "internalType": "uint256",
          "name": "",
          "type": "uint256"
        }
      ],
      "stateMutability": "view",
      "type": "function",
      "constant": true
    },
    {
      "inputs": [
        {
          "internalType": "uint256",
          "name": "_amount",
          "type": "uint256"
        }
      ],
      "name": "stakeTokens",
      "outputs": [],
      "stateMutability": "nonpayable",
      "type": "function"
    },
    {
      "inputs": [],
      "name": "issueTokens",
      "outputs": [],
      "stateMutability": "nonpayable",
      "type": "function"
    },
    {
      "inputs": [
        {
          "internalType": "uint256",
          "name": "_amount",
          "type": "uint256"
        }
      ],
      "name": "unstakeTokens",
      "outputs": [],
      "stateMutability": "nonpayable",
      "type": "function"
    }
  ],
  "bytecode": "0x60806040526040518060400160405280600f81526020017f4461707020546f6b656e204661726d0000000000000000000000000000000000815250600090805190602001906200005192919062000150565b503480156200005f57600080fd5b50604051620013d7380380620013d7833981810160405281019062000085919062000217565b81600260006101000a81548173ffffffffffffffffffffffffffffffffffffffff021916908373ffffffffffffffffffffffffffffffffffffffff16021790555080600360006101000a81548173ffffffffffffffffffffffffffffffffffffffff021916908373ffffffffffffffffffffffffffffffffffffffff16021790555033600160006101000a81548173ffffffffffffffffffffffffffffffffffffffff021916908373ffffffffffffffffffffffffffffffffffffffff16021790555050506200030b565b8280546200015e906200028c565b90600052602060002090601f016020900481019282620001825760008555620001ce565b82601f106200019d57805160ff1916838001178555620001ce565b82800160010185558215620001ce579182015b82811115620001cd578251825591602001919060010190620001b0565b5b509050620001dd9190620001e1565b5090565b5b80821115620001fc576000816000905550600101620001e2565b5090565b6000815190506200021181620002f1565b92915050565b600080604083850312156200022b57600080fd5b60006200023b8582860162000200565b92505060206200024e8582860162000200565b9150509250929050565b600062000265826200026c565b9050919050565b600073ffffffffffffffffffffffffffffffffffffffff82169050919050565b60006002820490506001821680620002a557607f821691505b60208210811415620002bc57620002bb620002c2565b5b50919050565b7f4e487b7100000000000000000000000000000000000000000000000000000000600052602260045260246000fd5b620002fc8162000258565b81146200030857600080fd5b50565b6110bc806200031b6000396000f3fe608060405234801561001057600080fd5b50600436106100a95760003560e01c80636f49712b116100715780636f49712b146101405780637547c7a3146101705780638da5cb5b1461018c578063be22f546146101aa578063c93c8f34146101c8578063fd5e6dd1146101f8576100a9565b806306fdde03146100ae57806345bc78ab146100cc5780635eb186f8146100fc578063608e4dd01461011a57806360ab585214610136575b600080fd5b6100b6610228565b6040516100c39190610cfa565b60405180910390f35b6100e660048036038101906100e19190610af0565b6102b6565b6040516100f39190610d7c565b60405180910390f35b6101046102ce565b6040516101119190610cdf565b60405180910390f35b610134600480360381019061012f9190610b42565b6102f4565b005b61013e6104dc565b005b61015a60048036038101906101559190610af0565b6106fb565b6040516101679190610cc4565b60405180910390f35b61018a60048036038101906101859190610b42565b61071b565b005b610194610a06565b6040516101a19190610c49565b60405180910390f35b6101b2610a2c565b6040516101bf9190610cdf565b60405180910390f35b6101e260048036038101906101dd9190610af0565b610a52565b6040516101ef9190610cc4565b60405180910390f35b610212600480360381019061020d9190610b42565b610a72565b60405161021f9190610c49565b60405180910390f35b6000805461023590610edc565b80601f016020809104026020016040519081016040528092919081815260200182805461026190610edc565b80156102ae5780601f10610283576101008083540402835291602001916102ae565b820191906000526020600020905b81548152906001019060200180831161029157829003601f168201915b505050505081565b60056020528060005260406000206000915090505481565b600260009054906101000a900473ffffffffffffffffffffffffffffffffffffffff1681565b60008190506000811161033c576040517f08c379a000000000000000000000000000000000000000000000000000000000815260040161033390610d1c565b60405180910390fd5b600360009054906101000a900473ffffffffffffffffffffffffffffffffffffffff1673ffffffffffffffffffffffffffffffffffffffff1663a9059cbb33836040518363ffffffff1660e01b8152600401610399929190610c9b565b602060405180830381600087803b1580156103b357600080fd5b505af11580156103c7573d6000803e3d6000fd5b505050506040513d601f19601f820116820180604052508101906103eb9190610b19565b50600081600560003373ffffffffffffffffffffffffffffffffffffffff1673ffffffffffffffffffffffffffffffffffffffff168152602001908152602001600020546104399190610e09565b905080600560003373ffffffffffffffffffffffffffffffffffffffff1673ffffffffffffffffffffffffffffffffffffffff168152602001908152602001600020819055506000600760003373ffffffffffffffffffffffffffffffffffffffff1673ffffffffffffffffffffffffffffffffffffffff16815260200190815260200160002060006101000a81548160ff021916908315150217905550505050565b600160009054906101000a900473ffffffffffffffffffffffffffffffffffffffff1673ffffffffffffffffffffffffffffffffffffffff163373ffffffffffffffffffffffffffffffffffffffff161461056c576040517f08c379a000000000000000000000000000000000000000000000000000000000815260040161056390610d5c565b60405180910390fd5b60005b6004805490508110156106f8576000600482815481106105b8577f4e487b7100000000000000000000000000000000000000000000000000000000600052603260045260246000fd5b9060005260206000200160009054906101000a900473ffffffffffffffffffffffffffffffffffffffff1690506000600560008373ffffffffffffffffffffffffffffffffffffffff1673ffffffffffffffffffffffffffffffffffffffff16815260200190815260200160002054905060008111156106e357600260009054906101000a900473ffffffffffffffffffffffffffffffffffffffff1673ffffffffffffffffffffffffffffffffffffffff1663a9059cbb83836040518363ffffffff1660e01b815260040161068f929190610c9b565b602060405180830381600087803b1580156106a957600080fd5b505af11580156106bd573d6000803e3d6000fd5b505050506040513d601f19601f820116820180604052508101906106e19190610b19565b505b505080806106f090610f0e565b91505061056f565b50565b60076020528060005260406000206000915054906101000a900460ff1681565b6000811161075e576040517f08c379a000000000000000000000000000000000000000000000000000000000815260040161075590610d3c565b60405180910390fd5b600360009054906101000a900473ffffffffffffffffffffffffffffffffffffffff1673ffffffffffffffffffffffffffffffffffffffff166323b872dd3330846040518463ffffffff1660e01b81526004016107bd93929190610c64565b602060405180830381600087803b1580156107d757600080fd5b505af11580156107eb573d6000803e3d6000fd5b505050506040513d601f19601f8201168201806040525081019061080f9190610b19565b5080600560003373ffffffffffffffffffffffffffffffffffffffff1673ffffffffffffffffffffffffffffffffffffffff1681526020019081526020016000205461085b9190610db3565b600560003373ffffffffffffffffffffffffffffffffffffffff1673ffffffffffffffffffffffffffffffffffffffff16815260200190815260200160002081905550600660003373ffffffffffffffffffffffffffffffffffffffff1673ffffffffffffffffffffffffffffffffffffffff16815260200190815260200160002060009054906101000a900460ff16610953576004339080600181540180825580915050600190039060005260206000200160009091909190916101000a81548173ffffffffffffffffffffffffffffffffffffffff021916908373ffffffffffffffffffffffffffffffffffffffff1602179055505b6001600760003373ffffffffffffffffffffffffffffffffffffffff1673ffffffffffffffffffffffffffffffffffffffff16815260200190815260200160002060006101000a81548160ff0219169083151502179055506001600660003373ffffffffffffffffffffffffffffffffffffffff1673ffffffffffffffffffffffffffffffffffffffff16815260200190815260200160002060006101000a81548160ff02191690831515021790555050565b600160009054906101000a900473ffffffffffffffffffffffffffffffffffffffff1681565b600360009054906101000a900473ffffffffffffffffffffffffffffffffffffffff1681565b60066020528060005260406000206000915054906101000a900460ff1681565b60048181548110610a8257600080fd5b906000526020600020016000915054906101000a900473ffffffffffffffffffffffffffffffffffffffff1681565b600081359050610ac081611041565b92915050565b600081519050610ad581611058565b92915050565b600081359050610aea8161106f565b92915050565b600060208284031215610b0257600080fd5b6000610b1084828501610ab1565b91505092915050565b600060208284031215610b2b57600080fd5b6000610b3984828501610ac6565b91505092915050565b600060208284031215610b5457600080fd5b6000610b6284828501610adb565b91505092915050565b610b7481610e3d565b82525050565b610b8381610e4f565b82525050565b610b9281610e85565b82525050565b6000610ba382610d97565b610bad8185610da2565b9350610bbd818560208601610ea9565b610bc681610fb5565b840191505092915050565b6000610bde601b83610da2565b9150610be982610fc6565b602082019050919050565b6000610c01600f83610da2565b9150610c0c82610fef565b602082019050919050565b6000610c24601683610da2565b9150610c2f82611018565b602082019050919050565b610c4381610e7b565b82525050565b6000602082019050610c5e6000830184610b6b565b92915050565b6000606082019050610c796000830186610b6b565b610c866020830185610b6b565b610c936040830184610c3a565b949350505050565b6000604082019050610cb06000830185610b6b565b610cbd6020830184610c3a565b9392505050565b6000602082019050610cd96000830184610b7a565b92915050565b6000602082019050610cf46000830184610b89565b92915050565b60006020820190508181036000830152610d148184610b98565b905092915050565b60006020820190508181036000830152610d3581610bd1565b9050919050565b60006020820190508181036000830152610d5581610bf4565b9050919050565b60006020820190508181036000830152610d7581610c17565b9050919050565b6000602082019050610d916000830184610c3a565b92915050565b600081519050919050565b600082825260208201905092915050565b6000610dbe82610e7b565b9150610dc983610e7b565b9250827fffffffffffffffffffffffffffffffffffffffffffffffffffffffffffffffff03821115610dfe57610dfd610f57565b5b828201905092915050565b6000610e1482610e7b565b9150610e1f83610e7b565b925082821015610e3257610e31610f57565b5b828203905092915050565b6000610e4882610e5b565b9050919050565b60008115159050919050565b600073ffffffffffffffffffffffffffffffffffffffff82169050919050565b6000819050919050565b6000610e9082610e97565b9050919050565b6000610ea282610e5b565b9050919050565b60005b83811015610ec7578082015181840152602081019050610eac565b83811115610ed6576000848401525b50505050565b60006002820490506001821680610ef457607f821691505b60208210811415610f0857610f07610f86565b5b50919050565b6000610f1982610e7b565b91507fffffffffffffffffffffffffffffffffffffffffffffffffffffffffffffffff821415610f4c57610f4b610f57565b5b600182019050919050565b7f4e487b7100000000000000000000000000000000000000000000000000000000600052601160045260246000fd5b7f4e487b7100000000000000000000000000000000000000000000000000000000600052602260045260246000fd5b6000601f19601f8301169050919050565b7f7374616b696e672062616c616e63652063616e6e6f7420626520300000000000600082015250565b7f616d6f756e742063616e20626520300000000000000000000000000000000000600082015250565b7f63616c6c206d75737420626520746865206f776e657200000000000000000000600082015250565b61104a81610e3d565b811461105557600080fd5b50565b61106181610e4f565b811461106c57600080fd5b50565b61107881610e7b565b811461108357600080fd5b5056fea2646970667358221220bf92abb858bbccc2cabe674e9e2eeac05d876ae31b3ab128bd1824c988575be364736f6c63430008040033",
  "immutableReferences": {},
  "source": "// SPDX-License-Identifier: MIT\r\n\r\npragma solidity ^0.8.4;\r\n\r\nimport \"./Dapptoken.sol\";\r\nimport \"./Daitoken.sol\";\r\n\r\ncontract TokenFarm {\r\n    string public name = \"Dapp Token Farm\";\r\n    address public owner;\r\n    ERC20 public dappToken;\r\n    ERC20 public daiToken;\r\n\r\n    address[] public stakers;\r\n    mapping(address => uint256) public stakingBalance;\r\n    mapping(address => bool) public hasStaked;\r\n    mapping(address => bool) public isStaking;\r\n\r\n    constructor(address _dappToken, address _daiToken) public {\r\n        dappToken = ERC20(_dappToken);\r\n        daiToken = ERC20(_daiToken);\r\n        owner = msg.sender;\r\n    }\r\n\r\n    //Stake Token\r\n    function stakeTokens(uint256 _amount) public {\r\n        require(_amount > 0, \"amount can be 0\");\r\n        // Dai -> Token farm\r\n        daiToken.transferFrom(msg.sender, address(this), _amount);\r\n        //Check Balance\r\n        stakingBalance[msg.sender] = stakingBalance[msg.sender] + _amount;\r\n        //Add Stakers to staker array\r\n        if (!hasStaked[msg.sender]) {\r\n            stakers.push(msg.sender);\r\n        }\r\n        // Update status\r\n        isStaking[msg.sender] = true;\r\n        hasStaked[msg.sender] = true;\r\n    }\r\n\r\n    //Issuing Token\r\n    function issueTokens() public {\r\n        //set access to function only owner only\r\n        require(msg.sender == owner, \"call must be the owner\");\r\n        for (uint256 i = 0; i < stakers.length; i++) {\r\n            address recipient = stakers[i];\r\n            uint256 balance = stakingBalance[recipient];\r\n            if (balance > 0) {\r\n                dappToken.transfer(recipient, balance);\r\n            }\r\n        }\r\n    }\r\n\r\n    //Unstake with amount\r\n    function unstakeTokens(uint256 _amount) public {\r\n        //Fetching staking balance\r\n        uint256 balance = _amount;\r\n\r\n        //Balance must > 0\r\n        require(balance > 0, \"staking balance cannot be 0\");\r\n\r\n        //Transfer mDai from token farm to investors\r\n        daiToken.transfer(msg.sender, balance);\r\n\r\n        uint256 remain = stakingBalance[msg.sender] - balance;\r\n        //Reset Staking Balance\r\n        stakingBalance[msg.sender] = remain;\r\n\r\n        //Update Staking status\r\n        isStaking[msg.sender] = false;\r\n    }\r\n}\r\n",
  "sourcePath": "C:/Users/PUNNAWICHSILPKITCHAR/Desktop/dev-mimic/mimic-farm-v2/contracts/TokenFarm.sol",
  "compiler": {
    "name": "solc",
    "version": "0.8.4+commit.c7e474f2.Emscripten.clang"
  },
  "schemaVersion": "3.2.3",
  "updatedAt": "2022-03-07T21:06:11.011Z",
  "networkType": "ethereum",
  "devdoc": {
    "kind": "dev",
    "methods": {},
    "version": 1
  },
  "userdoc": {
    "kind": "user",
    "methods": {},
    "version": 1
  }
}