{
  "contractName": "TokenFarm",
  "abi": [
    {
      "inputs": [
        {
          "internalType": "address",
          "name": "_dappToken",
          "type": "address"
        },
        {
          "internalType": "address",
          "name": "_daiToken",
          "type": "address"
        }
      ],
      "stateMutability": "nonpayable",
      "type": "constructor"
    },
    {
      "inputs": [],
      "name": "daiToken",
      "outputs": [
        {
          "internalType": "contract ERC20",
          "name": "",
          "type": "address"
        }
      ],
      "stateMutability": "view",
      "type": "function",
      "constant": true
    },
    {
      "inputs": [],
      "name": "dappToken",
      "outputs": [
        {
          "internalType": "contract ERC20",
          "name": "",
          "type": "address"
        }
      ],
      "stateMutability": "view",
      "type": "function",
      "constant": true
    },
    {
      "inputs": [
        {
          "internalType": "address",
          "name": "",
          "type": "address"
        }
      ],
      "name": "lastUpdate",
      "outputs": [
        {
          "internalType": "uint256",
          "name": "",
          "type": "uint256"
        }
      ],
      "stateMutability": "view",
      "type": "function",
      "constant": true
    },
    {
      "inputs": [],
      "name": "name",
      "outputs": [
        {
          "internalType": "string",
          "name": "",
          "type": "string"
        }
      ],
      "stateMutability": "view",
      "type": "function",
      "constant": true
    },
    {
      "inputs": [],
      "name": "rewardRate",
      "outputs": [
        {
          "internalType": "uint256",
          "name": "",
          "type": "uint256"
        }
      ],
      "stateMutability": "view",
      "type": "function",
      "constant": true
    },
    {
      "inputs": [
        {
          "internalType": "address",
          "name": "",
          "type": "address"
        }
      ],
      "name": "stakingBalance",
      "outputs": [
        {
          "internalType": "uint256",
          "name": "",
          "type": "uint256"
        }
      ],
      "stateMutability": "view",
      "type": "function",
      "constant": true
    },
    {
      "inputs": [
        {
          "internalType": "uint256",
          "name": "_amount",
          "type": "uint256"
        }
      ],
      "name": "stakeTokens",
      "outputs": [],
      "stateMutability": "nonpayable",
      "type": "function"
    },
    {
      "inputs": [],
      "name": "checkReward",
      "outputs": [
        {
          "internalType": "uint256",
          "name": "",
          "type": "uint256"
        }
      ],
      "stateMutability": "view",
      "type": "function",
      "constant": true
    },
    {
      "inputs": [],
      "name": "issueTokens",
      "outputs": [],
      "stateMutability": "nonpayable",
      "type": "function"
    },
    {
      "inputs": [
        {
          "internalType": "uint256",
          "name": "_amount",
          "type": "uint256"
        }
      ],
      "name": "unstakeTokens",
      "outputs": [],
      "stateMutability": "nonpayable",
      "type": "function"
    }
  ],
  "bytecode": "0x60806040526040518060400160405280600f81526020017f4461707020546f6b656e204661726d0000000000000000000000000000000000815250600090805190602001906200005192919062000114565b50600a6005553480156200006457600080fd5b506040516200116f3803806200116f83398181016040528101906200008a9190620001db565b81600160006101000a81548173ffffffffffffffffffffffffffffffffffffffff021916908373ffffffffffffffffffffffffffffffffffffffff16021790555080600260006101000a81548173ffffffffffffffffffffffffffffffffffffffff021916908373ffffffffffffffffffffffffffffffffffffffff1602179055505050620002cf565b828054620001229062000250565b90600052602060002090601f01602090048101928262000146576000855562000192565b82601f106200016157805160ff191683800117855562000192565b8280016001018555821562000192579182015b828111156200019157825182559160200191906001019062000174565b5b509050620001a19190620001a5565b5090565b5b80821115620001c0576000816000905550600101620001a6565b5090565b600081519050620001d581620002b5565b92915050565b60008060408385031215620001ef57600080fd5b6000620001ff85828601620001c4565b92505060206200021285828601620001c4565b9150509250929050565b6000620002298262000230565b9050919050565b600073ffffffffffffffffffffffffffffffffffffffff82169050919050565b600060028204905060018216806200026957607f821691505b6020821081141562000280576200027f62000286565b5b50919050565b7f4e487b7100000000000000000000000000000000000000000000000000000000600052602260045260246000fd5b620002c0816200021c565b8114620002cc57600080fd5b50565b610e9080620002df6000396000f3fe608060405234801561001057600080fd5b506004361061009e5760003560e01c80637547c7a3116100665780637547c7a3146101355780637b0a47ee14610151578063be22f5461461016f578063c4b24a461461018d578063cb03fb1e146101ab5761009e565b806306fdde03146100a357806345bc78ab146100c15780635eb186f8146100f1578063608e4dd01461010f57806360ab58521461012b575b600080fd5b6100ab6101db565b6040516100b89190610aa6565b60405180910390f35b6100db60048036038101906100d69190610904565b610269565b6040516100e89190610b08565b60405180910390f35b6100f9610281565b6040516101069190610a8b565b60405180910390f35b61012960048036038101906101249190610956565b6102a7565b005b610133610437565b005b61014f600480360381019061014a9190610956565b6105fb565b005b6101596107c3565b6040516101669190610b08565b60405180910390f35b6101776107c9565b6040516101849190610a8b565b60405180910390f35b6101956107ef565b6040516101a29190610b08565b60405180910390f35b6101c560048036038101906101c09190610904565b610855565b6040516101d29190610b08565b60405180910390f35b600080546101e890610cf3565b80601f016020809104026020016040519081016040528092919081815260200182805461021490610cf3565b80156102615780601f1061023657610100808354040283529160200191610261565b820191906000526020600020905b81548152906001019060200180831161024457829003601f168201915b505050505081565b60036020528060005260406000206000915090505481565b600160009054906101000a900473ffffffffffffffffffffffffffffffffffffffff1681565b6000819050600081116102ef576040517f08c379a00000000000000000000000000000000000000000000000000000000081526004016102e690610ae8565b60405180910390fd5b600260009054906101000a900473ffffffffffffffffffffffffffffffffffffffff1673ffffffffffffffffffffffffffffffffffffffff1663a9059cbb33836040518363ffffffff1660e01b815260040161034c929190610a62565b602060405180830381600087803b15801561036657600080fd5b505af115801561037a573d6000803e3d6000fd5b505050506040513d601f19601f8201168201806040525081019061039e919061092d565b50600081600360003373ffffffffffffffffffffffffffffffffffffffff1673ffffffffffffffffffffffffffffffffffffffff168152602001908152602001600020546103ec9190610c20565b905080600360003373ffffffffffffffffffffffffffffffffffffffff1673ffffffffffffffffffffffffffffffffffffffff16815260200190815260200160002081905550505050565b6000600360003373ffffffffffffffffffffffffffffffffffffffff1673ffffffffffffffffffffffffffffffffffffffff16815260200190815260200160002054905060006104c642600460003373ffffffffffffffffffffffffffffffffffffffff1673ffffffffffffffffffffffffffffffffffffffff1681526020019081526020016000205461086d565b905060006104d682600554610883565b905060006104e684612710610899565b905060006104f48284610883565b905060008511156105b057600160009054906101000a900473ffffffffffffffffffffffffffffffffffffffff1673ffffffffffffffffffffffffffffffffffffffff1663a9059cbb33836040518363ffffffff1660e01b815260040161055c929190610a62565b602060405180830381600087803b15801561057657600080fd5b505af115801561058a573d6000803e3d6000fd5b505050506040513d601f19601f820116820180604052508101906105ae919061092d565b505b42600460003373ffffffffffffffffffffffffffffffffffffffff1673ffffffffffffffffffffffffffffffffffffffff168152602001908152602001600020819055505050505050565b6000811161063e576040517f08c379a000000000000000000000000000000000000000000000000000000000815260040161063590610ac8565b60405180910390fd5b600260009054906101000a900473ffffffffffffffffffffffffffffffffffffffff1673ffffffffffffffffffffffffffffffffffffffff166323b872dd3330846040518463ffffffff1660e01b815260040161069d93929190610a2b565b602060405180830381600087803b1580156106b757600080fd5b505af11580156106cb573d6000803e3d6000fd5b505050506040513d601f19601f820116820180604052508101906106ef919061092d565b50610739600360003373ffffffffffffffffffffffffffffffffffffffff1673ffffffffffffffffffffffffffffffffffffffff16815260200190815260200160002054826108af565b600360003373ffffffffffffffffffffffffffffffffffffffff1673ffffffffffffffffffffffffffffffffffffffff1681526020019081526020016000208190555042600460003373ffffffffffffffffffffffffffffffffffffffff1673ffffffffffffffffffffffffffffffffffffffff1681526020019081526020016000208190555050565b60055481565b600260009054906101000a900473ffffffffffffffffffffffffffffffffffffffff1681565b60008061083b42600460003373ffffffffffffffffffffffffffffffffffffffff1673ffffffffffffffffffffffffffffffffffffffff1681526020019081526020016000205461086d565b9050600061084b82600554610883565b9050809250505090565b60046020528060005260406000206000915090505481565b6000818361087b9190610c20565b905092915050565b600081836108919190610bc6565b905092915050565b600081836108a79190610b95565b905092915050565b600081836108bd9190610b3f565b905092915050565b6000813590506108d481610e15565b92915050565b6000815190506108e981610e2c565b92915050565b6000813590506108fe81610e43565b92915050565b60006020828403121561091657600080fd5b6000610924848285016108c5565b91505092915050565b60006020828403121561093f57600080fd5b600061094d848285016108da565b91505092915050565b60006020828403121561096857600080fd5b6000610976848285016108ef565b91505092915050565b61098881610c54565b82525050565b61099781610c9c565b82525050565b60006109a882610b23565b6109b28185610b2e565b93506109c2818560208601610cc0565b6109cb81610db2565b840191505092915050565b60006109e3601383610b2e565b91506109ee82610dc3565b602082019050919050565b6000610a06601b83610b2e565b9150610a1182610dec565b602082019050919050565b610a2581610c92565b82525050565b6000606082019050610a40600083018661097f565b610a4d602083018561097f565b610a5a6040830184610a1c565b949350505050565b6000604082019050610a77600083018561097f565b610a846020830184610a1c565b9392505050565b6000602082019050610aa0600083018461098e565b92915050565b60006020820190508181036000830152610ac0818461099d565b905092915050565b60006020820190508181036000830152610ae1816109d6565b9050919050565b60006020820190508181036000830152610b01816109f9565b9050919050565b6000602082019050610b1d6000830184610a1c565b92915050565b600081519050919050565b600082825260208201905092915050565b6000610b4a82610c92565b9150610b5583610c92565b9250827fffffffffffffffffffffffffffffffffffffffffffffffffffffffffffffffff03821115610b8a57610b89610d25565b5b828201905092915050565b6000610ba082610c92565b9150610bab83610c92565b925082610bbb57610bba610d54565b5b828204905092915050565b6000610bd182610c92565b9150610bdc83610c92565b9250817fffffffffffffffffffffffffffffffffffffffffffffffffffffffffffffffff0483118215151615610c1557610c14610d25565b5b828202905092915050565b6000610c2b82610c92565b9150610c3683610c92565b925082821015610c4957610c48610d25565b5b828203905092915050565b6000610c5f82610c72565b9050919050565b60008115159050919050565b600073ffffffffffffffffffffffffffffffffffffffff82169050919050565b6000819050919050565b6000610ca782610cae565b9050919050565b6000610cb982610c72565b9050919050565b60005b83811015610cde578082015181840152602081019050610cc3565b83811115610ced576000848401525b50505050565b60006002820490506001821680610d0b57607f821691505b60208210811415610d1f57610d1e610d83565b5b50919050565b7f4e487b7100000000000000000000000000000000000000000000000000000000600052601160045260246000fd5b7f4e487b7100000000000000000000000000000000000000000000000000000000600052601260045260246000fd5b7f4e487b7100000000000000000000000000000000000000000000000000000000600052602260045260246000fd5b6000601f19601f8301169050919050565b7f616d6f756e742063616e206e6f74206265203000000000000000000000000000600082015250565b7f7374616b696e672062616c616e63652063616e6e6f7420626520300000000000600082015250565b610e1e81610c54565b8114610e2957600080fd5b50565b610e3581610c66565b8114610e4057600080fd5b50565b610e4c81610c92565b8114610e5757600080fd5b5056fea26469706673582212201d8edab0c456b1a426566398712d8e712b7347c4be4752b7be4577b22bbf70c164736f6c63430008040033",
  "immutableReferences": {},
  "source": "// SPDX-License-Identifier: MIT\r\n\r\npragma solidity ^0.8.4;\r\n\r\nimport \"./Dapptoken.sol\";\r\nimport \"./Daitoken.sol\";\r\nimport \"@openzeppelin/contracts/token/ERC20/ERC20.sol\";\r\nimport \"@openzeppelin/contracts/utils/math/SafeMath.sol\";\r\n\r\n\r\ncontract TokenFarm {\r\n    string public name = \"Dapp Token Farm\";\r\n    ERC20 public dappToken;\r\n    ERC20 public daiToken;\r\n\r\n    mapping(address => uint256) public stakingBalance;\r\n    mapping(address => uint256) public lastUpdate;\r\n\r\n    uint256 public rewardRate = 10;\r\n\r\n    constructor(address _dappToken, address _daiToken) {\r\n        dappToken = ERC20(_dappToken);\r\n        daiToken = ERC20(_daiToken);\r\n    }\r\n\r\n    //Stake Tokens\r\n    function stakeTokens(uint256 _amount) public {\r\n        require(_amount > 0, \"amount can not be 0\");\r\n        daiToken.transferFrom(msg.sender, address(this), _amount);\r\n        stakingBalance[msg.sender] = SafeMath.add(stakingBalance[msg.sender], _amount);\r\n        lastUpdate[msg.sender] = block.timestamp;\r\n    }\r\n\r\n    //Check Reward\r\n    function checkReward() public view returns (uint256) {\r\n        uint256 update = SafeMath.sub(block.timestamp, lastUpdate[msg.sender]);\r\n        uint256 reward = SafeMath.mul(update, rewardRate);\r\n        return reward;\r\n    }\r\n\r\n    //Issuing Token\r\n    function issueTokens() public {\r\n        uint256 balance = stakingBalance[msg.sender];\r\n        uint256 update = SafeMath.sub(block.timestamp, lastUpdate[msg.sender]);\r\n        uint256 rewardB = SafeMath.mul(update, rewardRate);\r\n        uint256 divbal = SafeMath.div(balance,1e4);\r\n        uint256 reward = SafeMath.mul(divbal, rewardB);\r\n        if (balance > 0) {\r\n                dappToken.transfer(msg.sender,reward);\r\n            }\r\n        lastUpdate[msg.sender] = block.timestamp;\r\n    }\r\n\r\n    //Unstake with amount\r\n    function unstakeTokens(uint256 _amount) public{\r\n        uint256 balance = _amount;\r\n        require(balance > 0, \"staking balance cannot be 0\");\r\n        daiToken.transfer(msg.sender, balance);\r\n        uint256 remain = stakingBalance[msg.sender] - balance;\r\n        stakingBalance[msg.sender] = remain;\r\n    }\r\n}\r\n",
  "sourcePath": "C:/Users/PUNNAWICHSILPKITCHAR/Desktop/dev-mimic/mimic-farm-v2/contracts/TokenFarm.sol",
  "compiler": {
    "name": "solc",
    "version": "0.8.4+commit.c7e474f2.Emscripten.clang"
  },
  "schemaVersion": "3.2.3",
  "updatedAt": "2022-03-14T15:52:03.929Z",
  "networkType": "ethereum",
  "devdoc": {
    "kind": "dev",
    "methods": {},
    "version": 1
  },
  "userdoc": {
    "kind": "user",
    "methods": {},
    "version": 1
  }
}