{
  "contractName": "Uniswap",
  "abi": [
    {
      "inputs": [],
      "name": "swapRouter",
      "outputs": [
        {
          "internalType": "contract ISwapRouter",
          "name": "",
          "type": "address"
        }
      ],
      "stateMutability": "view",
      "type": "function",
      "constant": true
    },
    {
      "inputs": [
        {
          "internalType": "uint256",
          "name": "amountIn",
          "type": "uint256"
        },
        {
          "internalType": "address",
          "name": "_tokenIn",
          "type": "address"
        },
        {
          "internalType": "address",
          "name": "_tokenOut",
          "type": "address"
        },
        {
          "internalType": "uint24",
          "name": "poolFee",
          "type": "uint24"
        }
      ],
      "name": "swapExactInputSingle",
      "outputs": [
        {
          "internalType": "uint256",
          "name": "amountOut",
          "type": "uint256"
        }
      ],
      "stateMutability": "nonpayable",
      "type": "function"
    }
  ],
  "bytecode": "0x60a060405273e592427a0aece92de3edee1f18e0157c0586156473ffffffffffffffffffffffffffffffffffffffff1660809073ffffffffffffffffffffffffffffffffffffffff1660601b81525034801561005a57600080fd5b5060805160601c61097261008160003980609d5280610161528061021752506109726000f3fe608060405234801561001057600080fd5b50600436106100365760003560e01c8063bd13338c1461003b578063c31c9c071461006b575b600080fd5b610055600480360381019061005091906106d7565b610089565b604051610062919061086d565b60405180910390f35b610073610215565b6040516100809190610836565b60405180910390f35b600061009784333088610239565b6100c2847f000000000000000000000000000000000000000000000000000000000000000087610459565b60006040518061010001604052808673ffffffffffffffffffffffffffffffffffffffff1681526020018573ffffffffffffffffffffffffffffffffffffffff1681526020018462ffffff1681526020013373ffffffffffffffffffffffffffffffffffffffff16815260200142815260200187815260200160008152602001600073ffffffffffffffffffffffffffffffffffffffff1681525090507f000000000000000000000000000000000000000000000000000000000000000073ffffffffffffffffffffffffffffffffffffffff1663414bf389826040518263ffffffff1660e01b81526004016101b89190610851565b602060405180830381600087803b1580156101d257600080fd5b505af11580156101e6573d6000803e3d6000fd5b505050506040513d601f19601f8201168201806040525081019061020a91906106ae565b915050949350505050565b7f000000000000000000000000000000000000000000000000000000000000000081565b6000808573ffffffffffffffffffffffffffffffffffffffff166323b872dd60e01b868686604051602401808473ffffffffffffffffffffffffffffffffffffffff1681526020018373ffffffffffffffffffffffffffffffffffffffff1681526020018281526020019350505050604051602081830303815290604052907bffffffffffffffffffffffffffffffffffffffffffffffffffffffff19166020820180517bffffffffffffffffffffffffffffffffffffffffffffffffffffffff83818316178352505050506040518082805190602001908083835b602083106103385780518252602082019150602081019050602083039250610315565b6001836020036101000a0380198251168184511680821785525050505050509050019150506000604051808303816000865af19150503d806000811461039a576040519150601f19603f3d011682016040523d82523d6000602084013e61039f565b606091505b50915091508180156103df57506000815114806103de57508080602001905160208110156103cc57600080fd5b81019080805190602001909291905050505b5b610451576040517f08c379a00000000000000000000000000000000000000000000000000000000081526004018080602001828103825260038152602001807f535446000000000000000000000000000000000000000000000000000000000081525060200191505060405180910390fd5b505050505050565b6000808473ffffffffffffffffffffffffffffffffffffffff1663095ea7b360e01b8585604051602401808373ffffffffffffffffffffffffffffffffffffffff16815260200182815260200192505050604051602081830303815290604052907bffffffffffffffffffffffffffffffffffffffffffffffffffffffff19166020820180517bffffffffffffffffffffffffffffffffffffffffffffffffffffffff83818316178352505050506040518082805190602001908083835b6020831061053a5780518252602082019150602081019050602083039250610517565b6001836020036101000a0380198251168184511680821785525050505050509050019150506000604051808303816000865af19150503d806000811461059c576040519150601f19603f3d011682016040523d82523d6000602084013e6105a1565b606091505b50915091508180156105e157506000815114806105e057508080602001905160208110156105ce57600080fd5b81019080805190602001909291905050505b5b610653576040517f08c379a00000000000000000000000000000000000000000000000000000000081526004018080602001828103825260028152602001807f534100000000000000000000000000000000000000000000000000000000000081525060200191505060405180910390fd5b5050505050565b600081359050610669816108f7565b92915050565b60008135905061067e8161090e565b92915050565b60008135905061069381610925565b92915050565b6000815190506106a881610925565b92915050565b6000602082840312156106c057600080fd5b60006106ce84828501610699565b91505092915050565b600080600080608085870312156106ed57600080fd5b60006106fb87828801610684565b945050602061070c8782880161065a565b935050604061071d8782880161065a565b925050606061072e8782880161066f565b91505092959194509250565b61074381610888565b82525050565b610752816108d3565b82525050565b6101008201600082015161076f600085018261073a565b506020820151610782602085018261073a565b5060408201516107956040850182610809565b5060608201516107a8606085018261073a565b5060808201516107bb6080850182610818565b5060a08201516107ce60a0850182610818565b5060c08201516107e160c0850182610818565b5060e08201516107f460e08501826107fa565b50505050565b6108038161089a565b82525050565b610812816108ba565b82525050565b610821816108c9565b82525050565b610830816108c9565b82525050565b600060208201905061084b6000830184610749565b92915050565b6000610100820190506108676000830184610758565b92915050565b60006020820190506108826000830184610827565b92915050565b60006108938261089a565b9050919050565b600073ffffffffffffffffffffffffffffffffffffffff82169050919050565b600062ffffff82169050919050565b6000819050919050565b60006108de826108e5565b9050919050565b60006108f08261089a565b9050919050565b61090081610888565b811461090b57600080fd5b50565b610917816108ba565b811461092257600080fd5b50565b61092e816108c9565b811461093957600080fd5b5056fea264697066735822122003513467d75b76f9a0a644ed141785f505e1e0bc30acc3c78709697f123d2b5264736f6c63430007060033",
  "immutableReferences": {
    "3612": [
      {
        "length": 32,
        "start": 157
      },
      {
        "length": 32,
        "start": 353
      },
      {
        "length": 32,
        "start": 535
      }
    ]
  },
  "source": "// SPDX-License-Identifier: GPL-2.0-or-later\npragma solidity =0.7.6;\npragma abicoder v2;\n\nimport '@uniswap/v3-periphery/contracts/libraries/TransferHelper.sol';\nimport '@uniswap/v3-periphery/contracts/interfaces/ISwapRouter.sol';\n\ncontract Uniswap {\n    ISwapRouter public immutable swapRouter = ISwapRouter(0xE592427A0AEce92De3Edee1F18E0157C05861564);\n\n    function swapExactInputSingle(uint256 amountIn , address _tokenIn , address _tokenOut , uint24 poolFee) external returns (uint256 amountOut) {\n        // msg.sender must approve this contract\n\n        // Transfer the specified amount of DAI to this contract.\n        TransferHelper.safeTransferFrom(_tokenIn, msg.sender, address(this), amountIn);\n\n        // Approve the router to spend DAI.\n        TransferHelper.safeApprove(_tokenIn, address(swapRouter), amountIn);\n\n        // Naively set amountOutMinimum to 0. In production, use an oracle or other data source to choose a safer value for amountOutMinimum.\n        // We also set the sqrtPriceLimitx96 to be 0 to ensure we swap our exact input amount.\n        ISwapRouter.ExactInputSingleParams memory params =\n            ISwapRouter.ExactInputSingleParams({\n                tokenIn: _tokenIn,\n                tokenOut: _tokenOut,\n                fee: poolFee,\n                recipient: msg.sender,\n                deadline: block.timestamp,\n                amountIn: amountIn,\n                amountOutMinimum: 0,\n                sqrtPriceLimitX96: 0\n            });\n\n        // The call to `exactInputSingle` executes the swap.\n        amountOut = swapRouter.exactInputSingle(params);\n    }\n    }",
  "sourcePath": "/Users/aomwara/aomdev/mimic-farm-v2/contracts/Uniswap.sol",
  "compiler": {
    "name": "solc",
    "version": "0.7.6+commit.7338295f.Emscripten.clang"
  },
  "schemaVersion": "3.4.3",
  "updatedAt": "2022-05-06T21:13:38.082Z",
  "networkType": "ethereum",
  "devdoc": {
    "kind": "dev",
    "methods": {},
    "version": 1
  },
  "userdoc": {
    "kind": "user",
    "methods": {},
    "version": 1
  }
}